:0400000014EF00F009
:060008005E8227EF49F0C3
:100018005E80E0CF01F000F001C0E0FF5E901000CC
:040028005EEF45F052
:101000000001000A006400E803102701001000003E
:1010100001001050494331384639374A36302045AF
:10102000544845524E455400FFFFFFFFFFFF00DECE
:10103000AD00BEEF440088690054656D7065726153
:10104000747572653A2030782533783B204C4544DE
:101050003A2030782531783B20427574746F6E7376
:101060003A2030782531783B20506F743A20307820
:10107000253378200A000D0A0D0A537461727469D1
:101080006E67205379736C6F672061742025750D2E
:101090000A003031323334353637383961626364AF
:1010A00065660057616974696E6720666F72204CCF
:1010B000696E6B004C696E6B207374617274656449
:1010C0000025642E25642E25642E256400257520B8
:1010D0003A2025730D0A002578203A20256400283F
:1010E0006E756C6C2900257300000001D06B2A0E10
:1010F0000101C4250001C46F000E0101C5210001DA
:10110000C56FC4C0F6FFC5C0F7FF000EF86E0F0E26
:10111000F76403D00800F55005D0F6CFE9FFF7CF0C
:10112000EAFFEF500001D46F2B0E0101C42500012E
:10113000C46F000E0101C5210001C56FC4C0F6FFD8
:10114000C5C0F7FF000EF86E0F0EF76403D008005D
:10115000F55005D0F6CFE9FFF7CFEAFFEF500001D9
:10116000D36F91EF1EF0020E0101C4250001C46F80
:10117000000E0101C5210001C56FC4C0F6FFC5C046
:10118000F7FF000EF86E0F0EF7640DD0BBC1F5FF30
:101190000D00BCC1F5FF0D00BDC1F5FF0D00BEC1C6
:1011A000F5FF0C000CD0F6CFE9FFF7CFEAFFBBC18B
:1011B000EEFFBCC1EEFFBDC1EEFFBEC1EFFF060EEC
:1011C0000101C4250001C46F000E0101C521000109
:1011D000C56FC4C0F6FFC5C0F7FF000EF86E0F0E56
:1011E000F76407D0E6C1F5FF0D00E7C1F5FF0C007D
:1011F00008D0F6CFE9FFF7CFEAFFE6C1EEFFE7C17F
:10120000EFFF140E0101C4250001C46F000E01019F
:10121000C5210001C56FC4C0F6FFC5C0F7FF000EB1
:10122000F86E0F0EF76409D0F56A0D00F56A0D002F
:10123000F56A0D00F56A0C0008D0F6CFE9FFF7CF8C
:10124000EAFFEE6AEE6AEE6AEF6A080E0101C42553
:101250000001C46F000E0101C5210001C56FC4C0AB
:10126000F6FFC5C0F7FF000EF86E0F0EF7640DD045
:10127000EAC1F5FF0D00EBC1F5FF0D00ECC1F5FF74
:101280000D00EDC1F5FF0C000CD0F6CFE9FFF7CF54
:10129000EAFFEAC1EEFFEBC1EEFFECC1EEFFEDC1EC
:1012A000EFFF080E0101C4250001C46F000E01010B
:1012B000C5210001C56FC4C0F6FFC5C0F7FF000E11
:1012C000F86E0F0EF7640DD00900F5CFC6F00900D7
:1012D000F5CFC7F00900F5CFC8F00900F5CFC9F088
:1012E0000CD0F6CFE9FFF7CFEAFFEECFC6F0EECF96
:1012F000C7F0EECFC8F0EECFC9F0010E0001C62551
:10130000CA6F000EC721CB6F000EC821CC6F000E34
:10131000C921CD6F0C0E0101C4250001CE6F000E56
:101320000101C5210001CF6FCEC0F6FFCFC0F7FF8E
:10133000000EF86E0F0EF7640DD0CAC0F5FF0D0059
:10134000CBC0F5FF0D00CCC0F5FF0D00CDC0F5FF03
:101350000C000CD0F6CFE9FFF7CFEAFFCAC0EEFFD2
:10136000CBC0EEFFCCC0EEFFCDC0EFFF0101F451CA
:101370000001C56FC46B21EEF4F0DECFC6F0DDCF07
:10138000C7F0C7C0C6F0C76BC76BC451C613C55101
:10139000C713180E0101C4250001C86F000E01011A
:1013A000C5210001C96FC8C0F6FFC9C0F7FF000E14
:1013B000F86E0F0EF76407D0C6C0F5FF0D00C7C06A
:1013C000F5FF0C0008D0F6CFE9FFF7CFEAFFC6C063
:1013D000EEFFC7C0EFFF1C0E0101C4250001C46F62
:1013E000000E0101C5210001C56FC4C0F6FFC5C0D4
:1013F000F7FF000EF86E0F0EF76407D0CEC1F5FFB1
:101400000D00CFC1F5FF0C0008D0F6CFE9FFF7CFF4
:10141000EAFFCEC1EEFFCFC1EFFF350E0101C425BB
:101420000001C46F000E0101C5210001C56FC4C0D9
:10143000F6FFC5C0F7FF000EF86E0F0EF76404D07C
:10144000120EF56E0C0006D0F6CFE9FFF7CFEAFFDB
:10145000120EEF6E300E0101C4250001C46F000EA4
:101460000101C5210001C56FC4C0F6FFC5C0F7FF6B
:10147000000EF86E0F0EF76406D0020EF56E0D002A
:10148000F56A0C0007D0F6CFE9FFF7CFEAFF020EAE
:10149000EE6EEF6A320E0101C4250001C46F000E2A
:1014A0000101C5210001C56FC4C0F6FFC5C0F7FF2B
:1014B000000EF86E0F0EF76406D0020EF56E0D00EA
:1014C000F56A0C0007D0F6CFE9FFF7CFEAFF020E6E
:1014D000EE6EEF6A340E0101C4250001C46F000EE8
:1014E0000101C5210001C56FC4C0F6FFC5C0F7FFEB
:1014F000000EF86E0F0EF76404D0030EF56E0C00AC
:1015000006D0F6CFE9FFF7CFEAFF030EEF6EC4C1B6
:1015100067F0C5C168F00CEC1FF0030E57EF1CF02C
:101520000001D46BC4C102F0C5C103F060EC33F01C
:10153000CFEF1EF00001D351F3E0030A01E113D60F
:10154000CFEF1EF0080E0101C4250001C46F000E8C
:101550000101C5210001C56FC4C0F6FFC5C0F7FF7A
:10156000000EF86E0F0EF7640DD0EAC1F5FF0D0006
:10157000EBC1F5FF0D00ECC1F5FF0D00EDC1F5FF6E
:101580000C000CD0F6CFE9FFF7CFEAFFEAC1EEFF7F
:10159000EBC1EEFFECC1EEFFEDC1EFFF010E01016B
:1015A000EA250001C46F000E0101EB210001C56FA7
:1015B000000E0101EC210001C66F000E0101ED21BA
:1015C0000001C76F0C0E0101C4250001C86F000E99
:1015D0000101C5210001C96FC8C0F6FFC9C0F7FFEE
:1015E000000EF86E0F0EF7640DD0C4C0F5FF0D00AD
:1015F000C5C0F5FF0D00C6C0F5FF0D00C7C0F5FF63
:101600000C000CD0F6CFE9FFF7CFEAFFC4C0EEFF25
:10161000C5C0EEFFC6C0EEFFC7C0EFFF0101F45129
:101620000001C56FC46B21EEF4F0DECFC6F0DDCF54
:10163000C7F0C7C0C6F0C76BC76BC451C613C5514E
:10164000C713180E0101C4250001C86F000E010167
:10165000C5210001C96FC8C0F6FFC9C0F7FF000E61
:10166000F86E0F0EF76407D0C6C0F5FF0D00C7C0B7
:10167000F5FF0C0008D0F6CFE9FFF7CFEAFFC6C0B0
:10168000EEFFC7C0EFFF1C0E0101C4250001C46FAF
:10169000000E0101C5210001C56FC4C0F6FFC5C021
:1016A000F7FF000EF86E0F0EF76407D0CEC1F5FFFE
:1016B0000D00CFC1F5FF0C0008D0F6CFE9FFF7CF42
:1016C000EAFFCEC1EEFFCFC1EFFF300E0101C4250E
:1016D0000001C46F000E0101C5210001C56FC4C027
:1016E000F6FFC5C0F7FF000EF86E0F0EF76406D0C8
:1016F000020EF56E0D00F56A0C0007D0F6CFE9FF7B
:10170000F7CFEAFF020EEE6EEF6A320E0101C4253A
:101710000001C46F000E0101C5210001C56FC4C0E6
:10172000F6FFC5C0F7FF000EF86E0F0EF76406D087
:10173000020EF56E0D00F56A0C0007D0F6CFE9FF3A
:10174000F7CFEAFF020EEE6EEF6A340E0101C425F8
:101750000001C46F000E0101C5210001C56FC4C0A6
:10176000F6FFC5C0F7FF000EF86E0F0EF76404D049
:10177000030EF56E0C0006D0F6CFE9FFF7CFEAFFB7
:10178000030EEF6E350E0101C4250001C46F000E7B
:101790000101C5210001C56FC4C0F6FFC5C0F7FF38
:1017A000000EF86E0F0EF76404D0120EF56E0C00EA
:1017B00006D0F6CFE9FFF7CFEAFF120EEF6EA7D6FD
:1017C000300E0101C4250001C46F000E0101C521C6
:1017D0000001C56FC4C0F6FFC5C0F7FF000EF86E6C
:1017E0000F0EF76405D0F56A0D00F56A0C0006D0FF
:1017F000F6CFE9FFF7CFEAFFEE6AEF6A100E0101BC
:10180000C4250001C46F000E0101C5210001C56F90
:10181000C4C0F6FFC5C0F7FF000EF86E0F0EF764E8
:101820000DD00900F5CFC6F00900F5CFC7F00900CB
:10183000F5CFC8F00900F5CFC9F00CD0F6CFE9FF1D
:10184000F7CFEAFFEECFC6F0EECFC7F0EECFC8F08D
:10185000EECFC9F0010E0001C625CA6F000EC721E8
:10186000CB6F000EC821CC6F000EC921CD6F0101D6
:10187000EE510001CA190FE10101EF510001CB192E
:101880000AE10101F0510001CC1905E10101F1511A
:101890000001CD19D8A46CD1100E0101C42500019E
:1018A000C46F000E0101C5210001C56FC4C0F6FF61
:1018B000C5C0F7FF000EF86E0F0EF7640DD00900DB
:1018C000F5CFC6F00900F5CFC7F00900F5CFC8F095
:1018D0000900F5CFC9F00CD0F6CFE9FFF7CFEAFF4A
:1018E000EECFC6F0EECFC7F0EECFC8F0EECFC9F026
:1018F000010E0001C625CA6F000EC721CB6F000E76
:10190000C821CC6F000EC921CD6F100E0101C42576
:101910000001CE6F000E0101C5210001CF6FCEC0C6
:10192000F6FFCFC0F7FF000EF86E0F0EF7640DD074
:10193000CAC0F5FF0D00CBC0F5FF0D00CCC0F5FF10
:101940000D00CDC0F5FF0C000CD0F6CFE9FFF7CFAE
:10195000EAFFCAC0EEFFCBC0EEFFCCC0EEFFCDC0A9
:10196000EFFF350E0101C4250001C46F000E010117
:10197000C5210001C56FC4C0F6FFC5C0F7FF000E4A
:10198000F86E0F0EF76404D0100EF56E0C0006D042
:10199000F6CFE9FFF7CFEAFF100EEF6E080E010158
:1019A000C4250001C46F000E0101C5210001C56FEF
:1019B000C4C0F6FFC5C0F7FF000EF86E0F0EF76447
:1019C0000DD0EAC1F5FF0D00EBC1F5FF0D00ECC134
:1019D000F5FF0D00EDC1F5FF0C000CD0F6CFE9FFCF
:1019E000F7CFEAFFEAC1EEFFEBC1EEFFECC1EEFF7D
:1019F000EDC1EFFF010E0101EA250001C46F000EE9
:101A00000101EB210001C56F000E0101EC21000175
:101A1000C66F000E0101ED210001C76F0C0E010120
:101A2000C4250001C86F000E0101C5210001C96F66
:101A3000C8C0F6FFC9C0F7FF000EF86E0F0EF764BE
:101A40000DD0C4C0F5FF0D00C5C0F5FF0D00C6C028
:101A5000F5FF0D00C7C0F5FF0C000CD0F6CFE9FF75
:101A6000F7CFEAFFC4C0EEFFC5C0EEFFC6C0EEFF71
:101A7000C7C0EFFF0101F4510001C56FC46B21EE37
:101A8000F4F0DECFC6F0DDCFC7F0C7C0C6F0C76B3D
:101A9000C76BC451C613C551C713180E0101C42525
:101AA0000001C86F000E0101C5210001C96FC8C047
:101AB000F6FFC9C0F7FF000EF86E0F0EF76407D0EF
:101AC000C6C0F5FF0D00C7C0F5FF0C0008D0F6CF6B
:101AD000E9FFF7CFEAFFC6C0EEFFC7C0EFFF1C0E5D
:101AE0000101C4250001C46F000E0101C5210001E0
:101AF000C56FC4C0F6FFC5C0F7FF000EF86E0F0E2D
:101B0000F76407D0CEC1F5FF0D00CFC1F5FF0C0083
:101B100008D0F6CFE9FFF7CFEAFFCEC1EEFFCFC185
:101B2000EFFFC4C167F0C5C168F00CEC1FF00009FD
:101B300002E1CFEF1EF0040ED46F360E0101C42572
:101B40000001C46F000E0101C5210001C56FC4C0B2
:101B5000F6FFC5C0F7FF000EF86E0F0EF76404D055
:101B6000030EF56E0C0002D0A4EF13F0CFEF1EF0C1
:101B7000100E0101C4250001C46F000E0101C52132
:101B80000001C56FC4C0F6FFC5C0F7FF000EF86EB8
:101B90000F0EF7640DD0EEC1F5FF0D00EFC1F5FF9C
:101BA0000D00F0C1F5FF0D00F1C1F5FF0C000CD0E8
:101BB000F6CFE9FFF7CFEAFFEEC1EEFFEFC1EEFF90
:101BC000F0C1EEFFF1C1EFFF350E0101C4250001A8
:101BD000C46F000E0101C5210001C56FC4C0F6FF2E
:101BE000C5C0F7FF000EF86E0F0EF76404D0140E98
:101BF000F56E0C0006D0F6CFE9FFF7CFEAFF140E22
:101C0000EF6EC4C167F0C5C168F00CEC1FF00009AD
:101C100001E086D4CFEF1EF0300E0101C425000193
:101C2000C46F000E0101C5210001C56FC4C0F6FFDD
:101C3000C5C0F7FF000EF86E0F0EF76405D0F56A09
:101C40000D00F56A0C0006D0F6CFE9FFF7CFEAFFEA
:101C5000EE6AEF6A100E0101C4250001C46F000E88
:101C60000101C5210001C56FC4C0F6FFC5C0F7FF63
:101C7000000EF86E0F0EF7640DD00900F5CFC6F018
:101C80000900F5CFC7F00900F5CFC8F00900F5CF7E
:101C9000C9F00CD0F6CFE9FFF7CFEAFFEECFC6F0E0
:101CA000EECFC7F0EECFC8F0EECFC9F0010E0001C5
:101CB000C625CA6F000EC721CB6F000EC821CC6F9E
:101CC000000EC921CD6F0101EE510001CA190FE1CB
:101CD0000101EF510001CB190AE10101F0510001AE
:101CE000CC1905E10101F1510001CD19D8A462D14F
:101CF000100E0101C4250001C46F000E0101C521B1
:101D00000001C56FC4C0F6FFC5C0F7FF000EF86E36
:101D10000F0EF7640DD00900F5CFC6F00900F5CF1E
:101D2000C7F00900F5CFC8F00900F5CFC9F00CD015
:101D3000F6CFE9FFF7CFEAFFEECFC6F0EECFC7F060
:101D4000EECFC8F0EECFC9F0010E0001C625CA6F74
:101D5000000EC721CB6F000EC821CC6F000EC92129
:101D6000CD6F100E0101C4250001CE6F000E0101E0
:101D7000C5210001CF6FCEC0F6FFCFC0F7FF000E28
:101D8000F86E0F0EF7640DD0CAC0F5FF0D00CBC082
:101D9000F5FF0D00CCC0F5FF0D00CDC0F5FF0C0028
:101DA0000CD0F6CFE9FFF7CFEAFFCAC0EEFFCBC0F9
:101DB000EEFFCCC0EEFFCDC0EFFF350E0101C42514
:101DC0000001C46F000E0101C5210001C56FC4C030
:101DD000F6FFC5C0F7FF000EF86E0F0EF76404D0D3
:101DE000100EF56E0C0006D0F6CFE9FFF7CFEAFF34
:101DF000100EEF6E080E0101C4250001C46F000E25
:101E00000101C5210001C56FC4C0F6FFC5C0F7FFC1
:101E1000000EF86E0F0EF7640DD0EAC1F5FF0D004D
:101E2000EBC1F5FF0D00ECC1F5FF0D00EDC1F5FFB5
:101E30000C000CD0F6CFE9FFF7CFEAFFEAC1EEFFC6
:101E4000EBC1EEFFECC1EEFFEDC1EFFF010E0101B2
:101E5000EA250001C46F000E0101EB210001C56FEE
:101E6000000E0101EC210001C66F000E0101ED2101
:101E70000001C76F0C0E0101C4250001C86F000EE0
:101E80000101C5210001C96FC8C0F6FFC9C0F7FF35
:101E9000000EF86E0F0EF7640DD0C4C0F5FF0D00F4
:101EA000C5C0F5FF0D00C6C0F5FF0D00C7C0F5FFAA
:101EB0000C000CD0F6CFE9FFF7CFEAFFC4C0EEFF6D
:101EC000C5C0EEFFC6C0EEFFC7C0EFFF0101F45171
:101ED0000001C56FC46B21EEF4F0DECFC6F0DDCF9C
:101EE000C7F0C7C0C6F0C76BC76BC451C613C55196
:101EF000C713180E0101C4250001C86F000E0101AF
:101F0000C5210001C96FC8C0F6FFC9C0F7FF000EA8
:101F1000F86E0F0EF76407D0C6C0F5FF0D00C7C0FE
:101F2000F5FF0C0008D0F6CFE9FFF7CFEAFFC6C0F7
:101F3000EEFFC7C0EFFF1C0E0101C4250001C46FF6
:101F4000000E0101C5210001C56FC4C0F6FFC5C068
:101F5000F7FF000EF86E0F0EF76407D0CEC1F5FF45
:101F60000D00CFC1F5FF0C0008D0F6CFE9FFF7CF89
:101F7000EAFFCEC1EEFFCFC1EFFF040E0001D46F28
:101F8000360E0101C4250001C46F000E0101C521F8
:101F90000001C56FC4C0F6FFC5C0F7FF000EF86EA4
:101FA0000F0EF76404D0030EF56E0C0001D0CCD3F5
:101FB000CFEF1EF0100E0101C4250001C46F000E0A
:101FC0000101C5210001C56FC4C0F6FFC5C0F7FF00
:101FD000000EF86E0F0EF7640DD0EEC1F5FF0D0088
:101FE000EFC1F5FF0D00F0C1F5FF0D00F1C1F5FFE8
:101FF0000C000CD0F6CFE9FFF7CFEAFFEEC1EEFF01
:10200000EFC1EEFFF0C1EEFFF1C1EFFF350E0101B0
:10201000C4250001C46F000E0101C5210001C56F78
:10202000C4C0F6FFC5C0F7FF000EF86E0F0EF764D0
:1020300004D0040EF56E0C0006D0F6CFE9FFF7CF02
:10204000EAFF040EEF6EC4C167F0C5C168F00CEC86
:102050001FF0DDD5340E0101C4250001C46F000E50
:102060000101C5210001C56FC4C0F6FFC5C0F7FF5F
:10207000000EF86E0F0EF76403D00800F55005D07F
:10208000F6CFE9FFF7CFEAFFEF50000966E0C4C1E1
:1020900067F0C5C168F00CEC1FF0000902E1CFEF5A
:1020A0001EF0350E0101C4250001C46F000E0101B0
:1020B000C5210001C56FC4C0F6FFC5C0F7FF000E03
:1020C000F86E0F0EF76403D00800F55005D0F6CF78
:1020D000E9FFF7CFEAFFEF500001C66FC6B590EFFA
:1020E0000AF0350E0101C4250001C46F000E010184
:1020F000C5210001C56FC4C0F6FFC5C0F7FF000EC3
:10210000F86E0F0EF76403D00800F55005D0F6CF37
:10211000E9FFF7CFEAFFEF500001C66FC6A9CFEF86
:102120001EF0040ED46F360E0101C4250001C46FE9
:10213000000E0101C5210001C56FC4C0F6FFC5C076
:10214000F7FF000EF86E0F0EF76404D0030EF56E65
:102150000C0001D0F9D2CFEF1EF0350E0101C425DD
:102160000001C46F000E0101C5210001C56FC4C08C
:10217000F6FFC5C0F7FF000EF86E0F0EF76404D02F
:10218000040EF56E0C0006D0F6CFE9FFF7CFEAFF9C
:10219000040EEF6EC4C167F0C5C168F00CEC1FF00F
:1021A00036D50001D35102E190EF0AF0030A02E1B3
:1021B000A2EF0AF0070A01E12FD5010A02E1E0EFE0
:1021C0000BF00C0A02E190EF0AF0030A02E190EF33
:1021D0000AF0060A01E13ED7CFEF1EF0C4C1F6FFB8
:1021E000C5C1F7FF000EF86E0F0EF76407D00900A7
:1021F000F5CFC4F00900F5CFC5F008D0F6CFE9FF60
:10220000F7CFEAFFEECFC4F0EECFC5F00101E85101
:102210000001C41905E10101E9510001C519D8A463
:10222000CFEF1EF0300E0101C4250001C46F000E77
:102230000101C5210001C56FC4C0F6FFC5C0F7FF8D
:10224000000EF86E0F0EF76405D0F56A0D00F56A02
:102250000C0006D0F6CFE9FFF7CFEAFFEE6AEF6A8F
:10226000020E0101C4250001C46F000E0101C52149
:102270000001C56FC4C0F6FFC5C0F7FF000EF86EC1
:102280000F0EF7640DD00900F5CFC6F00900F5CFA9
:10229000C7F00900F5CFC8F00900F5CFC9F00CD0A0
:1022A000F6CFE9FFF7CFEAFFEECFC6F0EECFC7F0EB
:1022B000EECFC8F0EECFC9F00101BB510001C61945
:1022C0000FE10101BC510001C7190AE10101BD5133
:1022D0000001C81905E10101BE510001C919D8A4C6
:1022E0007BD0060E0101C4250001C46F000E010160
:1022F000C5210001C56FC4C0F6FFC5C0F7FF000EC1
:10230000F86E0F0EF76407D00900F5CFC6F009008C
:10231000F5CFC7F008D0F6CFE9FFF7CFEAFFEECF51
:10232000C6F0EECFC7F00101E6510001C61954E135
:102330000101E7510001C7194FE1100E0101C42549
:102340000001C46F000E0101C5210001C56FC4C0AA
:10235000F6FFC5C0F7FF000EF86E0F0EF7640DD044
:102360000900F5CFC6F00900F5CFC7F00900F5CF99
:10237000C8F00900F5CFC9F00CD0F6CFE9FFF7CFD0
:10238000EAFFEECFC6F0EECFC7F0EECFC8F0EECF4B
:10239000C9F0010E0001C625CA6F000EC721CB6F20
:1023A000000EC821CC6F000EC921CD6F0101EE5186
:1023B0000001CA1911E10101EF510001CB190CE133
:1023C0000101F0510001CC1907E10101F1510001B7
:1023D000CD1902E1040ED46F360E0101C4250001AF
:1023E000C46F000E0101C5210001C56FC4C0F6FF16
:1023F000C5C0F7FF000EF86E0F0EF76404D0030E91
:10240000F56E0C0001D0A0D1CFEF1EF0020E01013D
:10241000C4250001C46F000E0101C5210001C56F74
:10242000C4C0F6FFC5C0F7FF000EF86E0F0EF764CC
:102430000DD00900F5CFC6F00900F5CFC7F00900AF
:10244000F5CFC8F00900F5CFC9F00CD0F6CFE9FF01
:10245000F7CFEAFFEECFC6F0EECFC7F0EECFC8F071
:10246000EECFC9F00101BB510001C6190FE1010116
:10247000BC510001C7190AE10101BD510001C81991
:1024800005E10101BE510001C919D8A4CFEF1EF02A
:10249000060E0101C4250001C46F000E0101C52113
:1024A0000001C56FC4C0F6FFC5C0F7FF000EF86E8F
:1024B0000F0EF76407D00900F5CFC6F00900F5CF7D
:1024C000C7F008D0F6CFE9FFF7CFEAFFEECFC6F0AE
:1024D000EECFC7F00101E6510001C61905E1010187
:1024E000E7510001C719D8A4CFEF1EF00C0E01016F
:1024F000C4250001C46F000E0101C5210001C56F94
:10250000C4C0F6FFC5C0F7FF000EF86E0F0EF764EB
:102510000DD00900F5CFC6F00900F5CFC7F00900CE
:10252000F5CFC8F00900F5CFC9F00CD0F6CFE9FF20
:10253000F7CFEAFFEECFC6F0EECFC7F0EECFC8F090
:10254000EECFC9F00101EA510001C6190FE1010106
:10255000EB510001C7190AE10101EC510001C81952
:1025600005E10101ED510001C919D8A4CFEF1EF01A
:10257000100E0101C4250001C46F000E0101C52128
:102580000001C56FC4C0F6FFC5C0F7FF000EF86EAE
:102590000F0EF7640DD00900F5CFC6F00900F5CF96
:1025A000C7F00900F5CFC8F00900F5CFC9F00CD08D
:1025B000F6CFE9FFF7CFEAFFEECFC6F0EECFC7F0D8
:1025C000EECFC8F0EECFC9F0010E0001C625CA6FEC
:1025D000000EC721CB6F000EC821CC6F000EC921A1
:1025E000CD6F0101EE510001CA190FE10101EF5158
:1025F0000001CB190AE10101F0510001CC1905E1FC
:102600000101F1510001CD19D8A4CFEF1EF0100E39
:102610000101C4250001C46F000E0101C5210001A4
:10262000C56FC4C0F6FFC5C0F7FF000EF86E0F0EF1
:10263000F7640DD00900F5CFC6F00900F5CFC7F05B
:102640000900F5CFC8F00900F5CFC9F00CD0F6CFDE
:10265000E9FFF7CFEAFFEECFC6F0EECFC7F0EECF3F
:10266000C8F0EECFC9F0010E0001C625CA6F000EFA
:10267000C721CB6F000EC821CC6F000EC921CD6FD2
:10268000100E0101C4250001CE6F000E0101C5210D
:102690000001CF6FCEC0F6FFCFC0F7FF000EF86E7F
:1026A0000F0EF7640DD0CAC0F5FF0D00CBC0F5FFCB
:1026B0000D00CCC0F5FF0D00CDC0F5FF0C000CD017
:1026C000F6CFE9FFF7CFEAFFCAC0EEFFCBC0EEFFBF
:1026D000CCC0EEFFCDC0EFFF300E0101C4250001DC
:1026E000C46F000E0101C5210001C56FC4C0F6FF13
:1026F000C5C0F7FF000EF86E0F0EF76405D0F56A3F
:102700000D00F56A0C0006D0F6CFE9FFF7CFEAFF1F
:10271000EE6AEF6A040E0001D46F360E0101C42583
:102720000001C46F000E0101C5210001C56FC4C0C6
:10273000F6FFC5C0F7FF000EF86E0F0EF76404D069
:10274000030EF56E0C0006D0F6CFE9FFF7CFEAFFD7
:10275000030EEF6ECFEF1EF0300E0101C425000115
:10276000C46F000E0101C5210001C56FC4C0F6FF92
:10277000C5C0F7FF000EF86E0F0EF76405D0F56ABE
:102780000D00F56A0C0006D0F6CFE9FFF7CFEAFF9F
:10279000EE6AEF6A350E0101C4250001C46F000E18
:1027A0000101C5210001C56FC4C0F6FFC5C0F7FF18
:1027B000000EF86E0F0EF76404D0010EF56E0C00DB
:1027C00006D0F6CFE9FFF7CFEAFF010EEF6E300E2D
:1027D0000101C4250001C46F000E0101C5210001E3
:1027E000C56FC4C0F6FFC5C0F7FF000EF86E0F0E30
:1027F000F76406D0020EF56E0D00F56A0C0007D0E6
:10280000F6CFE9FFF7CFEAFF020EEE6EEF6A320E67
:102810000101C4250001C46F000E0101C5210001A2
:10282000C56FC4C0F6FFC5C0F7FF000EF86E0F0EEF
:10283000F76406D0020EF56E0D00F56A0C0007D0A5
:10284000F6CFE9FFF7CFEAFF020EEE6EEF6A340E25
:102850000101C4250001C46F000E0101C521000162
:10286000C56FC4C0F6FFC5C0F7FF000EF86E0F0EAF
:10287000F76404D0050EF56E0C0006D0F6CFE9FF24
:10288000F7CFEAFF050EEF6E050E0001D46FC4C14D
:1028900067F0C5C168F00CEC1FF0CFEF1EF0C4C1AB
:1028A000F6FFC5C1F7FF000EF86E0F0EF76407D0F4
:1028B0000900F5CFC4F00900F5CFC5F008D0F6CF78
:1028C000E9FFF7CFEAFFEECFC4F0EECFC5F001018C
:1028D000E8510001C41905E10101E9510001C519E0
:1028E000D8A4CFEF1EF00C0E0101C4250001C46F67
:1028F000000E0101C5210001C56FC4C0F6FFC5C0AF
:10290000F7FF000EF86E0F0EF7640DD00900F5CF3B
:10291000C6F00900F5CFC7F00900F5CFC8F00900EF
:10292000F5CFC9F00CD0F6CFE9FFF7CFEAFFEECF35
:10293000C6F0EECFC7F0EECFC8F0EECFC9F0010180
:10294000EA510001C6190FE10101EB510001C7195D
:102950000AE10101EC510001C81905E10101ED5145
:102960000001C919D8A4CFEF1EF0020E0101C42541
:102970000001C46F000E0101C5210001C56FC4C074
:10298000F6FFC5C0F7FF000EF86E0F0EF76409D012
:10299000F56A0D00F56A0D00F56A0D00F56A0C0088
:1029A00008D0F6CFE9FFF7CFEAFFEE6AEE6AEE6AEB
:1029B000EF6A060E0101C4250001C46F000E01017B
:1029C000C5210001C56FC4C0F6FFC5C0F7FF000EEA
:1029D000F86E0F0EF76405D0F56A0D00F56A0C006D
:1029E00006D0F6CFE9FFF7CFEAFFEE6AEF6A100EE6
:1029F0000101C4250001C46F000E0101C5210001C1
:102A0000C56FC4C0F6FFC5C0F7FF000EF86E0F0E0D
:102A1000F76409D0F56A0D00F56A0D00F56A0D003E
:102A2000F56A0C0008D0F6CFE9FFF7CFEAFFEE6AAF
:102A3000EE6AEE6AEF6A140E0101C4250001C46F4C
:102A4000000E0101C5210001C56FC4C0F6FFC5C05D
:102A5000F7FF000EF86E0F0EF76409D0F56A0D004F
:102A6000F56A0D00F56A0D00F56A0C0008D0F6CF86
:102A7000E9FFF7CFEAFFEE6AEE6AEE6AEF6A080E48
:102A80000101C4250001C46F000E0101C521000130
:102A9000C56FC4C0F6FFC5C0F7FF000EF86E0F0E7D
:102AA000F76409D0F56A0D00F56A0D00F56A0D00AE
:102AB000F56A0C0008D0F6CFE9FFF7CFEAFFEE6A1F
:102AC000EE6AEE6AEF6A0C0E0101C4250001C46FC4
:102AD000000E0101C5210001C56FC4C0F6FFC5C0CD
:102AE000F7FF000EF86E0F0EF76409D0F56A0D00BF
:102AF000F56A0D00F56A0D00F56A0C0008D0F6CFF6
:102B0000E9FFF7CFEAFFEE6AEE6AEE6AEF6A180EA7
:102B10000101C4250001C46F000E0101C52100019F
:102B2000C56FC4C0F6FFC5C0F7FF000EF86E0F0EEC
:102B3000F76405D0F56A0D00F56A0C0006D0F6CFF3
:102B4000E9FFF7CFEAFFEE6AEF6A1C0E0101C42528
:102B50000001C46F000E0101C5210001C56FC4C092
:102B6000F6FFC5C0F7FF000EF86E0F0EF76405D034
:102B7000F56A0D00F56A0C0006D0F6CFE9FFF7CF35
:102B8000EAFFEE6AEF6A010E000157EF1CF0340E07
:102B90000101C4250001C46F000E0101C52100011F
:102BA000C56FC4C0F6FFC5C0F7FF000EF86E0F0E6C
:102BB000F76403D00800F55005D0F6CFE9FFF7CF52
:102BC000EAFFEF50000901E062D6350E0101C4258D
:102BD0000001C46F000E0101C5210001C56FC4C012
:102BE000F6FFC5C0F7FF000EF86E0F0EF76404D0B5
:102BF000040EF56E0C0006D0F6CFE9FFF7CFEAFF22
:102C0000040EEF6EC4C167F0C5C168F00CEC1FF094
:102C1000000902E1CFEF1EF0020E0101C425000100
:102C2000C46F000E0101C5210001C56FC4C0F6FFCD
:102C3000C5C0F7FF000EF86E0F0EF76409D0F56AF5
:102C40000D00F56A0D00F56A0D00F56A0C0008D05C
:102C5000F6CFE9FFF7CFEAFFEE6AEE6AEE6AEF6AB7
:102C6000060E0101C4250001C46F000E0101C5213B
:102C70000001C56FC4C0F6FFC5C0F7FF000EF86EB7
:102C80000F0EF76405D0F56A0D00F56A0C0006D04A
:102C9000F6CFE9FFF7CFEAFFEE6AEF6A100E010107
:102CA000C4250001C46F000E0101C5210001C56FDC
:102CB000C4C0F6FFC5C0F7FF000EF86E0F0EF76434
:102CC00009D0F56A0D00F56A0D00F56A0D00F56A88
:102CD0000C0008D0F6CFE9FFF7CFEAFFEE6AEE6A04
:102CE000EE6AEF6A140E0101C4250001C46F000EE4
:102CF0000101C5210001C56FC4C0F6FFC5C0F7FFC3
:102D0000000EF86E0F0EF76409D0F56A0D00F56A33
:102D10000D00F56A0D00F56A0C0008D0F6CFE9FF4A
:102D2000F7CFEAFFEE6AEE6AEE6AEF6A080E01017B
:102D3000C4250001C46F000E0101C5210001C56F4B
:102D4000C4C0F6FFC5C0F7FF000EF86E0F0EF764A3
:102D500009D0F56A0D00F56A0D00F56A0D00F56AF7
:102D60000C0008D0F6CFE9FFF7CFEAFFEE6AEE6A73
:102D7000EE6AEF6A0C0E0101C4250001C46F000E5B
:102D80000101C5210001C56FC4C0F6FFC5C0F7FF32
:102D9000000EF86E0F0EF76409D0F56A0D00F56AA3
:102DA0000D00F56A0D00F56A0C0008D0F6CFE9FFBA
:102DB000F7CFEAFFEE6AEE6AEE6AEF6A180E0101DB
:102DC000C4250001C46F000E0101C5210001C56FBB
:102DD000C4C0F6FFC5C0F7FF000EF86E0F0EF76413
:102DE00005D0F56A0D00F56A0C0006D0F6CFE9FFB4
:102DF000F7CFEAFFEE6AEF6A1C0E0101C42500015D
:102E0000C46F000E0101C5210001C56FC4C0F6FFEB
:102E1000C5C0F7FF000EF86E0F0EF76405D0F56A17
:102E20000D00F56A0C0006D0F6CFE9FFF7CFEAFFF8
:102E3000EE6AEF6AA8D60001D35101E18DD4040AED
:102E400002E106EF12F0010A02E1EEEF10F00C0AC7
:102E500001E125D5030A01E122D5060A01E197D651
:102E6000CFEF1EF0020E0101C4250001C46F000E59
:102E70000101C5210001C56FC4C0F6FFC5C0F7FF41
:102E8000000EF86E0F0EF7640DD00900F5CFC6F0F6
:102E90000900F5CFC7F00900F5CFC8F00900F5CF5C
:102EA000C9F00CD0F6CFE9FFF7CFEAFFEECFC6F0BE
:102EB000EECFC7F0EECFC8F0EECFC9F00101BB51A5
:102EC0000001C6190FE10101BC510001C7190AE157
:102ED0000101BD510001C81905E10101BE51000108
:102EE000C919D8A4CFEF1EF00C0E0101C4250001B2
:102EF000C46F000E0101C5210001C56FC4C0F6FFFB
:102F0000C5C0F7FF000EF86E0F0EF7640DD0090074
:102F1000F5CFC6F00900F5CFC7F00900F5CFC8F02E
:102F20000900F5CFC9F00CD0F6CFE9FFF7CFEAFFE3
:102F3000EECFC6F0EECFC7F0EECFC8F0EECFC9F0BF
:102F40000101EA510001C6190FE10101EB51000135
:102F5000C7190AE10101EC510001C81905E101019D
:102F6000ED510001C919D8A4CFEF1EF0140E0101D4
:102F7000C4250001C46F000E0101C5210001C56F09
:102F8000C4C0F6FFC5C0F7FF000EF86E0F0EF76461
:102F90000DD00900F5CFC6F00900F5CFC7F0090044
:102FA000F5CFC8F00900F5CFC9F00CD0F6CFE9FF96
:102FB000F7CFEAFFEECFC6F0EECFC7F0EECFC8F006
:102FC000EECFC9F00101EE510001C65D0101EF51E4
:102FD0000001C7590101F0510001C8590101F15127
:102FE0000001C95902E3CFEF1EF0100E0101C42504
:102FF0000001C46F000E0101C5210001C56FC4C0EE
:10300000F6FFC5C0F7FF000EF86E0F0EF7640DD087
:103010000900F5CFC6F00900F5CFC7F00900F5CFDC
:10302000C8F00900F5CFC9F00CD0F6CFE9FFF7CF13
:10303000EAFFEECFC6F0EECFC7F0EECFC8F0EECF8E
:10304000C9F0010E0001C625CA6F000EC721CB6F63
:10305000000EC821CC6F000EC921CD6F0101EE51C9
:103060000001CA5D0101EF510001CB590101F0518E
:103070000001CC590101F1510001CD5901E2BCD14F
:10308000100E0101C4250001C46F000E0101C5210D
:103090000001C56FC4C0F6FFC5C0F7FF000EF86E93
:1030A0000F0EF76407D00900F5CFC6F00900F5CF81
:1030B000C7F008D0F6CFE9FFF7CFEAFFEECFC6F0B2
:1030C000EECFC7F00101EE510001C65DD16F0101E5
:1030D000EF510001C759D26F250E0101C42500012F
:1030E000C46F000E0101C5210001C56FC4C0F6FF09
:1030F000C5C0F7FF000EF86E0F0EF76407D0090089
:10310000F5CFC6F00900F5CFC7F008D0F6CFE9FF3C
:10311000F7CFEAFFEECFC6F0EECFC7F00001D151F6
:10312000C65FD251C75B250E0101C4250001C86FDF
:10313000000E0101C5210001C96FC8C0F6FFC9C05A
:10314000F7FF000EF86E0F0EF76407D0C6C0F5FF4C
:103150000D00C7C0F5FF0C0008D0F6CFE9FFF7CF90
:10316000EAFFC6C0EEFFC7C0EFFF270E0101C4256E
:103170000001C46F000E0101C5210001C56FC4C06C
:10318000F6FFC5C0F7FF000EF86E0F0EF76407D00C
:103190000900F5CFC6F00900F5CFC7F008D0F6CF8B
:1031A000E9FFF7CFEAFFEECFC6F0EECFC7F00001A0
:1031B000D151C627D251C723270E0101C4250001D2
:1031C000C86F000E0101C5210001C96FC8C0F6FF1C
:1031D000C9C0F7FF000EF86E0F0EF76407D0C6C027
:1031E000F5FF0D00C7C0F5FF0C0008D0F6CFE9FFD2
:1031F000F7CFEAFFC6C0EEFFC7C0EFFF270E010101
:10320000C4250001C46F000E0101C5210001C56F76
:10321000C4C0F6FFC5C0F7FF000EF86E0F0EF764CE
:1032200007D00900F5CFC6F00900F5CFC7F008D0E8
:10323000F6CFE9FFF7CFEAFFEECFC6F0EECFC7F04B
:103240000001C651C71138E1290E0101C425000152
:10325000C46F000E0101C5210001C56FC4C0F6FF97
:10326000C5C0F7FF000EF86E0F0EF76403D008001C
:10327000F55005D0F6CFE9FFF7CFEAFFEF50020A8D
:103280001BE1290E0101C4250001C46F000E0101DC
:10329000C5210001C56FC4C0F6FFC5C0F7FF000E11
:1032A000F86E0F0EF76403D0F56A0C0005D0F6CF68
:1032B000E9FFF7CFEAFFEF6A21EEEEF0FF0EDE2422
:1032C0000001C46FFF0EDE20C56FFF0EDE20C66F4B
:1032D000FF0EDE20C76F140E0101C4250001C86F68
:1032E000000E0101C5210001C96FC8C0F6FFC9C0A9
:1032F000F7FF000EF86E0F0EF7640DD0C4C0F5FF97
:103300000D00C5C0F5FF0D00C6C0F5FF0D00C7C01C
:10331000F5FF0C000CD0F6CFE9FFF7CFEAFFC4C0F1
:10332000EEFFC5C0EEFFC6C0EEFFC7C0EFFF100E38
:103330000101C4250001C46F000E0101C521000177
:10334000C56FC4C0F6FFC5C0F7FF000EF86E0F0EC4
:10335000F7640DD0EEC1F5FF0D00EFC1F5FF0D00D4
:10336000F0C1F5FF0D00F1C1F5FF0C000CD0F6CF58
:10337000E9FFF7CFEAFFEEC1EEFFEFC1EEFFF0C1CC
:10338000EEFFF1C1EFFF0101CA51CB1102E1CFEF16
:103390001EF0080EC4250001C46F000E0101C521F6
:1033A0000001C56FC4C0F6FFC5C0F7FF000EF86E80
:1033B0000F0EF7640DD0EAC1F5FF0D00EBC1F5FF6C
:1033C0000D00ECC1F5FF0D00EDC1F5FF0C000CD0B8
:1033D000F6CFE9FFF7CFEAFFEAC1EEFFEBC1EEFF60
:1033E000ECC1EEFFEDC1EFFFCAC1B6F0CBC1B7F043
:1033F000AEEC2EF0CFEF1EF0350E0101C42500011A
:10340000C46F000E0101C5210001C56FC4C0F6FFE5
:10341000C5C0F7FF000EF86E0F0EF76404D0140E4F
:10342000F56E0C0006D0F6CFE9FFF7CFEAFF140ED9
:10343000EF6EC4C167F0C5C168F00CEC1FF007EF78
:103440000EF0350E0101C4250001C46F000E01010C
:10345000C5210001C56FC4C0F6FFC5C0F7FF000E4F
:10346000F86E0F0EF76404D0010EF56E0C0006D056
:10347000F6CFE9FFF7CFEAFF010EEF6E44EF14F04D
:10348000100E0101C4250001C46F000E0101C52109
:103490000001C56FC4C0F6FFC5C0F7FF000EF86E8F
:1034A0000F0EF7640DD0EEC1F5FF0D00EFC1F5FF73
:1034B0000D00F0C1F5FF0D00F1C1F5FF0C000CD0BF
:1034C000F6CFE9FFF7CFEAFFEEC1EEFFEFC1EEFF67
:1034D000F0C1EEFFF1C1EFFF0C0E0101C4250001A8
:1034E000C46F000E0101C5210001C56FC4C0F6FF05
:1034F000C5C0F7FF000EF86E0F0EF7640DD009007F
:10350000F5CFC6F00900F5CFC7F00900F5CFC8F038
:103510000900F5CFC9F00CD0F6CFE9FFF7CFEAFFED
:10352000EECFC6F0EECFC7F0EECFC8F0EECFC9F0C9
:10353000010E0001C625CA6F000EC721CB6F000E19
:10354000C821CC6F000EC921CD6F0C0E0101C4251E
:103550000001CE6F000E0101C5210001CF6FCEC06A
:10356000F6FFCFC0F7FF000EF86E0F0EF7640DD018
:10357000CAC0F5FF0D00CBC0F5FF0D00CCC0F5FFB4
:103580000D00CDC0F5FF0C000CD0F6CFE9FFF7CF52
:10359000EAFFCAC0EEFFCBC0EEFFCCC0EEFFCDC04D
:1035A000EFFF360E0101C4250001C46F000E0101BA
:1035B000C5210001C56FC4C0F6FFC5C0F7FF000EEE
:1035C000F86E0F0EF76404D0040EF56E0C0006D0F2
:1035D000F6CFE9FFF7CFEAFF040EEF6E300E0101E0
:1035E000C4250001C46F000E0101C5210001C56F93
:1035F000C4C0F6FFC5C0F7FF000EF86E0F0EF764EB
:1036000006D0020EF56E0D00F56A0C0007D0F6CF5D
:10361000E9FFF7CFEAFF020EEE6EEF6A320E01010C
:10362000C4250001C46F000E0101C5210001C56F52
:10363000C4C0F6FFC5C0F7FF000EF86E0F0EF764AA
:1036400006D0020EF56E0D00F56A0C0007D0F6CF1D
:10365000E9FFF7CFEAFF020EEE6EEF6A340E0101CA
:10366000C4250001C46F000E0101C5210001C56F12
:10367000C4C0F6FFC5C0F7FF000EF86E0F0EF7646A
:1036800004D0050EF56E0C0006D0F6CFE9FFF7CF9B
:10369000EAFF050EEF6E350E0101C4250001C46F6F
:1036A000000E0101C5210001C56FC4C0F6FFC5C0F1
:1036B000F7FF000EF86E0F0EF76404D0110EF56ED2
:1036C0000C0006D0F6CFE9FFF7CFEAFF110EEF6E40
:1036D000090E45EF14F0340E0101C4250001C46F3A
:1036E000000E0101C5210001C56FC4C0F6FFC5C0B1
:1036F000F7FF000EF86E0F0EF76403D00800F550C8
:1037000005D0F6CFE9FFF7CFEAFFEF50000902E05E
:1037100047EF14F0350E0101C4250001C46F000EFF
:103720000101C5210001C56FC4C0F6FFC5C0F7FF88
:10373000000EF86E0F0EF76404D0040EF56E0C0048
:1037400006D0F6CFE9FFF7CFEAFF040EEF6EC4C153
:1037500067F0C5C168F00CEC1FF007EF0EF0000138
:10376000D35101E16ED6040A02E132EF17F0020AEA
:1037700001E186D6010A01E183D60E0A02E190EF4B
:103780000AF0030A02E190EF0AF0060AA4E007D368
:10379000350E0101C4250001C46F000E0101C521D1
:1037A0000001C56FC4C0F6FFC5C0F7FF000EF86E7C
:1037B0000F0EF76404D0100EF56E0C0006D0F6CF95
:1037C000E9FFF7CFEAFF100EEF6EC4C167F0C5C185
:1037D00068F00CEC1FF0000901E1E1D2080E67D09F
:1037E000300E0101C4250001C46F000E0101C52186
:1037F0000001C56FC4C0F6FFC5C0F7FF000EF86E2C
:103800000F0EF76406D0020EF56E0D00F56A0C007F
:1038100007D0F6CFE9FFF7CFEAFF020EEE6EEF6AB0
:10382000340E0101C4250001C46F000E0101C52141
:103830000001C56FC4C0F6FFC5C0F7FF000EF86EEB
:103840000F0EF76404D0010EF56E0C0006D0F6CF13
:10385000E9FFF7CFEAFF010EEF6E060EC4EF15F099
:10386000350E0101C4250001C46F000E0101C52100
:103870000001C56FC4C0F6FFC5C0F7FF000EF86EAB
:103880000F0EF76404D0100EF56E0C0006D0F6CFC4
:10389000E9FFF7CFEAFF100EEF6EC4C167F0C5C1B4
:1038A00068F00CEC1FF0000901E179D20A0ED46F28
:1038B00076D2340E0101C4250001C46F000E01014F
:1038C000C5210001C56FC4C0F6FFC5C0F7FF000EDB
:1038D000F86E0F0EF76403D00800F55005D0F6CF50
:1038E000E9FFF7CFEAFFEF50000902E047EF14F0DD
:1038F000350E0101C4250001C46F000E0101C52170
:103900000001C56FC4C0F6FFC5C0F7FF000EF86E1A
:103910000F0EF76404D0040EF56E0C0006D0F6CF3F
:10392000E9FFF7CFEAFF040EEF6EC4C167F0C5C12F
:1039300068F00CEC1FF007EF0EF00001D351040A01
:1039400001E14ED7020A01E123D7010A89E00B0AFF
:10395000B0E025D2C4C167F0C5C168F00CEC1FF01F
:10396000A2D7340E0101C4250001C46F000E01016D
:10397000C5210001C56FC4C0F6FFC5C0F7FF000E2A
:10398000F86E0F0EF76403D00800F55005D0F6CF9F
:10399000E9FFF7CFEAFFEF50000902E047EF14F02C
:1039A000350E0101C4250001C46F000E0101C521BF
:1039B0000001C56FC4C0F6FFC5C0F7FF000EF86E6A
:1039C0000F0EF76404D0040EF56E0C0006D0F6CF8F
:1039D000E9FFF7CFEAFF040EEF6EC4C167F0C5C17F
:1039E00068F00CEC1FF007EF0EF00001D351060A4F
:1039F000B1E00A0AB6E0D3D10001D351040A01E1D3
:103A000055D7CDD1020E0101C4250001C46F000EAF
:103A10000101C5210001C56FC4C0F6FFC5C0F7FF95
:103A2000000EF86E0F0EF7640DD00900F5CFC6F04A
:103A30000900F5CFC7F00900F5CFC8F00900F5CFB0
:103A4000C9F00CD0F6CFE9FFF7CFEAFFEECFC6F012
:103A5000EECFC7F0EECFC8F0EECFC9F00101BB51F9
:103A60000001C6190FE10101BC510001C7190AE1AB
:103A70000101BD510001C81905E10101BE5100015C
:103A8000C919D8A48CD1060E0101C4250001C46F48
:103A9000000E0101C5210001C56FC4C0F6FFC5C0FD
:103AA000F7FF000EF86E0F0EF76407D00900F5CF90
:103AB000C6F00900F5CFC7F008D0F6CFE9FFF7CF81
:103AC000EAFFEECFC6F0EECFC7F00101E6510001EC
:103AD000C61905E10101E7510001C7195DD15FD1A8
:103AE000340E0101C4250001C46F000E0101C5217F
:103AF0000001C56FC4C0F6FFC5C0F7FF000EF86E29
:103B00000F0EF76403D00800F55005D0F6CFE9FF9B
:103B1000F7CFEAFFEF50000902E047EF14F0350E4F
:103B20000101C4250001C46F000E0101C52100017F
:103B3000C56FC4C0F6FFC5C0F7FF000EF86E0F0ECC
:103B4000F76404D0040EF56E0C0006D0F6CFE9FF42
:103B5000F7CFEAFF040EEF6EC4C167F0C5C168F08D
:103B60000CEC1FF007EF0EF00001D351040A01E145
:103B700049D7030A01E146D70B0AB2E010D1300E53
:103B80000101C4250001C46F000E0101C52100011F
:103B9000C56FC4C0F6FFC5C0F7FF000EF86E0F0E6C
:103BA000F76406D0020EF56E0D00F56A0C0007D022
:103BB000F6CFE9FFF7CFEAFF020EEE6EEF6A320EA4
:103BC0000101C4250001C46F000E0101C5210001DF
:103BD000C56FC4C0F6FFC5C0F7FF000EF86E0F0E2C
:103BE000F76406D0020EF56E0D00F56A0C0007D0E2
:103BF000F6CFE9FFF7CFEAFF020EEE6EEF6A340E62
:103C00000101C4250001C46F000E0101C52100019E
:103C1000C56FC4C0F6FFC5C0F7FF000EF86E0F0EEB
:103C2000F76404D0030EF56E0C0006D0F6CFE9FF62
:103C3000F7CFEAFF030EEF6E350E0101C425000138
:103C4000C46F000E0101C5210001C56FC4C0F6FF9D
:103C5000C5C0F7FF000EF86E0F0EF76404D0020E19
:103C6000F56E0C0006D0F6CFE9FFF7CFEAFF020EA3
:103C7000EF6EC4C167F0C5C168F00CEC1FF0020E16
:103C8000D46F010ED06F8BD0020E0101C42500014C
:103C9000C46F000E0101C5210001C56FC4C0F6FF4D
:103CA000C5C0F7FF000EF86E0F0EF76409D0F56A75
:103CB0000D00F56A0D00F56A0D00F56A0C0008D0DC
:103CC000F6CFE9FFF7CFEAFFEE6AEE6AEE6AEF6A37
:103CD000060E0101C4250001C46F000E0101C521BB
:103CE0000001C56FC4C0F6FFC5C0F7FF000EF86E37
:103CF0000F0EF76405D0F56A0D00F56A0C0006D0CA
:103D0000F6CFE9FFF7CFEAFFEE6AEF6A010E000196
:103D1000B7D70001D351010A01E131D7030AB4E05A
:103D20003ED02A0E0101C4250001C46F000E01011E
:103D3000C5210001C56FC4C0F6FFC5C0F7FF000E66
:103D4000F86E0F0EF76403D00800F55005D0F6CFDB
:103D5000E9FFF7CFEAFFEF50000ADBE0010A02E1DA
:103D60009AEF0AF0030A02E1D1EF10F0010A02E132
:103D70001BEF17F0070A01E1F2D4010A01E1DDD5DA
:103D8000030A01E132D6010A0AE00F0A01E134D642
:103D9000010A01E1E9D6030A02E190EF0AF02B0ED5
:103DA0000101C4250001C46F000E0101C5210001FD
:103DB000C56FC4C0F6FFC5C0F7FF000EF86E0F0E4A
:103DC000F76404D00D0EF56E0C0006D0F6CFE9FFB7
:103DD000F7CFEAFF0D0EEF6E2A0E0101C425000198
:103DE000C46F000E0101C5210001C56FC4C0F6FFFC
:103DF000C5C0F7FF000EF86E0F0EF76404D0D4C0F4
:103E0000F5FF0C0006D0F6CFE9FFF7CFEAFFD4C0EC
:103E1000EFFF0001D051120067C0F6FF68C0F7FF46
:103E2000000EF86E0F0EF76407D00900F5CF69F0A9
:103E30000900F5CF6AF008D0F6CFE9FFF7CFEAFF27
:103E4000EECF69F0EECF6AF0000169516C6F6B6BD9
:103E500067C0F6FF68C0F7FF000EF86E0F0EF7643C
:103E600007D00900F5CF6DF00900F5CF6EF008D04E
:103E7000F6CFE9FFF7CFEAFFEECF6DF0EECF6EF0B1
:103E80006EC06DF000016E6B6E6B6B516D11A26FA9
:103E90006C516E11A36F060E6725696F000E6821C5
:103EA0006A6F69C0F6FF6AC0F7FF000EF86E0F0E6A
:103EB000F76407D00900F5CF6BF00900F5CF6CF07F
:103EC00008D0F6CFE9FFF7CFEAFFEECF6BF0EECFE9
:103ED0006CF000016B516E6F6D6B060E67256F6F96
:103EE000000E6821706F6FC0F6FF70C0F7FF000E04
:103EF000F86E0F0EF76407D00900F5CF71F00900D6
:103F0000F5CF72F008D0F6CFE9FFF7CFEAFFEECF9A
:103F100071F0EECF72F072C071F00001726B726BD3
:103F20006D517111A46F6E517211A56F100E67253E
:103F3000696F000E68216A6F69C0F6FF6AC0F7FFFB
:103F4000000EF86E0F0EF7640DD00900F5CF6BF080
:103F50000900F5CF6CF00900F5CF6DF00900F5CF41
:103F60006EF00CD0F6CFE9FFF7CFEAFFEECF6BF0A3
:103F7000EECF6CF0EECF6DF0EECF6EF000016B5136
:103F80006F6F706B716B726B6FC072F0716B706B77
:103F90006F6B100E6725736F000E6821746F73C00E
:103FA000F6FF74C0F7FF000EF86E0F0EF7640DD029
:103FB0000900F5CF75F00900F5CF76F00900F5CFCF
:103FC00077F00900F5CF78F00CD0F6CFE9FFF7CF06
:103FD000EAFFEECF75F0EECF76F0EECF77F0EECFD2
:103FE00078F00001796B76517A6F7B6B7C6B7BC0CC
:103FF0007CF07AC07BF079C07AF0796B100E67257F
:104000007D6F000E68217E6F7DC0F6FF7EC0F7FFDA
:10401000000EF86E0F0EF7640DD00900F5CF7FF09B
:104020000900F5CF80F00900F5CF81F00900F5CF48
:1040300082F00CD0F6CFE9FFF7CFEAFFEECF7FF0AA
:10404000EECF80F0EECF81F0EECF82F080C07FF037
:1040500081C080F082C081F00001826B836B80514F
:10406000846F856B866B100E6725876F000E682145
:10407000886F87C0F6FF88C0F7FF000EF86E0F0E3E
:10408000F7640DD00900F5CF89F00900F5CF8AF06B
:104090000900F5CF8BF00900F5CF8CF00CD0F6CFEE
:1040A000E9FFF7CFEAFFEECF89F0EECF8AF0EECF4F
:1040B0008BF0EECF8CF000018D6B8E6B8F6B8C5183
:1040C000906F190E05D0D89090338F338E338D3387
:1040D000E82EF9D783518D11916F84518E11926F13
:1040E00085518F11936F86519011946F7951911171
:1040F000956F7A519211966F7B519311976F7C5106
:104100009411986F6F519511A66F70519611A76F0A
:1041100071519711A86F72519811A96F0C0E6725F4
:10412000696F000E68216A6F69C0F6FF6AC0F7FF09
:10413000000EF86E0F0EF7640DD00900F5CF6BF08E
:104140000900F5CF6CF00900F5CF6DF00900F5CF4F
:104150006EF00CD0F6CFE9FFF7CFEAFFEECF6BF0B1
:10416000EECF6CF0EECF6DF0EECF6EF000016B5144
:104170006F6F706B716B726B6FC072F0716B706B85
:104180006F6B0C0E6725736F000E6821746F73C020
:10419000F6FF74C0F7FF000EF86E0F0EF7640DD037
:1041A0000900F5CF75F00900F5CF76F00900F5CFDD
:1041B00077F00900F5CF78F00CD0F6CFE9FFF7CF14
:1041C000EAFFEECF75F0EECF76F0EECF77F0EECFE0
:1041D00078F00001796B76517A6F7B6B7C6B7BC0DA
:1041E0007CF07AC07BF079C07AF0796B0C0E672591
:1041F0007D6F000E68217E6F7DC0F6FF7EC0F7FFE9
:10420000000EF86E0F0EF7640DD00900F5CF7FF0A9
:104210000900F5CF80F00900F5CF81F00900F5CF56
:1042200082F00CD0F6CFE9FFF7CFEAFFEECF7FF0B8
:10423000EECF80F0EECF81F0EECF82F080C07FF045
:1042400081C080F082C081F00001826B836B80515D
:10425000846F856B866B0C0E6725876F000E682157
:10426000886F87C0F6FF88C0F7FF000EF86E0F0E4C
:10427000F7640DD00900F5CF89F00900F5CF8AF079
:104280000900F5CF8BF00900F5CF8CF00CD0F6CFFC
:10429000E9FFF7CFEAFFEECF89F0EECF8AF0EECF5D
:1042A0008BF0EECF8CF000018D6B8E6B8F6B8C5191
:1042B000906F190E05D0D89090338F338E338D3395
:1042C000E82EF9D783518D11916F84518E11926F21
:1042D00085518F11936F86519011946F795191117F
:1042E000956F7A519211966F7B519311976F7C5114
:1042F0009411986F6F519511AA6F70519611AB6F11
:1043000071519711AC6F72519811AD6FAE91F10E62
:10431000AE17AE510F0B5009AE6F1A0E6725696FBD
:10432000000E68216A6F69C0F6FF6AC0F7FF000ED1
:10433000F86E0F0EF76407D00900F5CF6BF0090097
:10434000F5CF6CF008D0F6CFE9FFF7CFEAFFEECF5C
:104350006BF0EECF6CF000016B516E6F6D6B1A0E4F
:1043600067256F6F000E6821706F6FC0F6FF70C019
:10437000F7FF000EF86E0F0EF76407D00900F5CFB7
:1043800071F00900F5CF72F008D0F6CFE9FFF7CF52
:10439000EAFFEECF71F0EECF72F072C071F0000163
:1043A000726B726B6D517111B06F6E517211B16F92
:1043B000B26BB36BB46BB56B350E6725696F000ECE
:1043C00068216A6F69C0F6FF6AC0F7FF000EF86ED9
:1043D0000F0EF76403D00800F55005D0F6CFE9FFC3
:1043E000F7CFEAFFEF5000016B6F060E6B1703E08B
:1043F000A06BA16B88D1270E6725696F000E68211D
:104400006A6F69C0F6FF6AC0F7FF000EF86E0F0E04
:10441000F76407D00900F5CFA0F00900F5CFA1F0AF
:1044200008D0F6CFE9FFF7CFEAFFEECFA0F0EECF4E
:10443000A1F00001A051A11101E165D1180E67257D
:10444000696F000E68216A6F69C0F6FF6AC0F7FFE6
:10445000000EF86E0F0EF76407D00900F5CF6BF071
:104460000900F5CF6CF008D0F6CFE9FFF7CFEAFFEF
:10447000EECF6BF0EECF6CF00001A0516B5DA1515F
:104480006C591EE2180E6725696F000E68216A6F6D
:1044900069C0F6FF6AC0F7FF000EF86E0F0EF764F2
:1044A00007D00900F5CFA0F00900F5CFA1F008D0A2
:1044B000F6CFE9FFF7CFEAFFEECFA0F0EECFA1F005
:1044C0001C0E00016725696F000E68216A6F69C0C4
:1044D000F6FF6AC0F7FF000EF86E0F0EF76407D004
:1044E0000900F5CF6BF00900F5CF6CF008D0F6CFDE
:1044F000E9FFF7CFEAFFEECF6BF0EECF6CF00001F3
:10450000A0516B5DA1516C591EE21C0E6725696FAD
:10451000000E68216A6F69C0F6FF6AC0F7FF000EDF
:10452000F86E0F0EF76407D00900F5CFA0F0090070
:10453000F5CFA1F008D0F6CFE9FFF7CFEAFFEECF35
:10454000A0F0EECFA1F0250E00016725696F000EE7
:1045500068216A6F69C0F6FF6AC0F7FF000EF86E47
:104560000F0EF76407D00900F5CF99F00900F5CFD9
:104570009AF008D0F6CFE9FFF7CFEAFFEECF99F037
:10458000EECF9AF0250E00016725696F000E6821B5
:104590006A6F69C0F6FF6AC0F7FF000EF86E0F0E73
:1045A000F76407D00900F5CF6BF00900F5CF6CF088
:1045B00008D0F6CFE9FFF7CFEAFFEECF6BF0EECFF2
:1045C0006CF00001A0516B27A1516C23250E6725CB
:1045D0006D6F000E68216E6F6DC0F6FF6EC0F7FF45
:1045E000000EF86E0F0EF76407D06BC0F5FF0D00DC
:1045F0006CC0F5FF0C0008D0F6CFE9FFF7CFEAFF5B
:104600006BC0EEFF6CC0EFFF270E00016725696FDE
:10461000000E68216A6F69C0F6FF6AC0F7FF000EDE
:10462000F86E0F0EF76407D00900F5CF6BF00900A4
:10463000F5CF6CF008D0F6CFE9FFF7CFEAFFEECF69
:104640006BF0EECF6CF00001A0516B5FA1516C5B81
:10465000270E67256D6F000E68216E6F6DC0F6FF27
:104660006EC0F7FF000EF86E0F0EF76407D06BC038
:10467000F5FF0D006CC0F5FF0C0008D0F6CFE9FF88
:10468000F7CFEAFF6BC0EEFF6CC0EFFF270E000113
:104690006725696F000E68216A6F69C0F6FF6AC0FE
:1046A000F7FF000EF86E0F0EF76407D00900F5CF84
:1046B0006BF00900F5CF6CF008D0F6CFE9FFF7CF2B
:1046C000EAFFEECF6BF0EECF6CF000016B516C1196
:1046D0001AE1350E6725696F000E68216A6F69C09F
:1046E000F6FF6AC0F7FF000EF86E0F0EF76405D0F4
:1046F000080E0800F5120C0006D0F6CFE9FFF7CF40
:10470000EAFF080EEF12350E00016725696F000EF3
:1047100068216A6F69C0F6FF6AC0F7FF000EF86E85
:104720000F0EF76403D00800F55005D0F6CFE9FF6F
:10473000F7CFEAFFEF500001AF6F140EA0259D6F79
:10474000000EA1219E6F020E6725696F000E682181
:104750006A6F69C0F6FF6AC0F7FF000EF86E0F0EB1
:10476000F7640DD00900F5CF4AF00900F5CF4BF002
:104770000900F5CF4CF00900F5CF4DF00CD0F6CF85
:10478000E9FFF7CFEAFFEECF4AF0EECF4BF0EECFE6
:104790004CF0EECF4DF0060E4E6EDBEC39F09F6F15
:1047A0009F5141E0A20E036E046A066A140E056E64
:1047B000B5EC43F00001A051A1110AE099C003F04B
:1047C0009AC004F0A0C005F0A1C006F0B5EC43F01B
:1047D000060E00019D259B6F000E9E219C6F0B6AAB
:1047E0001A0E0A6E080E9D250C6E000E9E210D6E8F
:1047F0009BC00EF09CC00FF084EC3DF00AC09BF013
:104800000BC09CF00B6A020E0A6E0D6A320E0C6E23
:104810009B0E87EC43F09DC018F09EC019F01EEC73
:1048200043F000019F6F9F5173E1340E6725696F5C
:10483000000E68216A6F69C0F6FF6AC0F7FF000EBC
:10484000F86E0F0EF76403D00800F55005D0F6CFD0
:10485000E9FFF7CFEAFFEF5000016B6F6B2B340ECF
:1048600067256C6F000E68216D6F6CC0F6FF6DC020
:10487000F7FF000EF86E0F0EF76404D06BC0F5FF63
:104880000C0006D0F6CFE9FFF7CFEAFF6BC0EFFFD1
:10489000300E00016725696F000E68216A6F69C0DC
:1048A000F6FF6AC0F7FF000EF86E0F0EF76407D030
:1048B0000900F5CF6BF00900F5CF6CF008D0F6CF0A
:1048C000E9FFF7CFEAFFEECF6BF0EECF6CF000011F
:1048D0006B516C117AE1300E6725696F000E68210B
:1048E0006A6F69C0F6FF6AC0F7FF000EF86E0F0E20
:1048F000F76406D0020EF56E0D00F56A0C0007D0C5
:10490000F6CFE9FFF7CFEAFF020EEE6EEF6A5DD059
:10491000100E6725696F000E68216A6F69C0F6FF87
:104920006AC0F7FF000EF86E0F0EF7640DD0090095
:10493000F5CF6BF00900F5CF6CF00900F5CF6DF005
:104940000900F5CF6EF00CD0F6CFE9FFF7CFEAFF04
:10495000EECF6BF0EECF6CF0EECF6DF0EECF6EF0F1
:104960000001A0516B256F6FA1516C21706F000E7B
:104970006D21716F000E6E21726F100E6725736FBF
:10498000000E6821746F73C0F6FF74C0F7FF000E4D
:10499000F86E0F0EF7640DD06FC0F5FF0D0070C0FC
:1049A000F5FF0D0071C0F5FF0D0072C0F5FF0C00A2
:1049B0000CD0F6CFE9FFF7CFEAFF6FC0EEFF70C073
:1049C000EEFF71C0EEFF72C0EFFF00019F511200B9
:1049D0005A6A0101BB6BBC6BBD6BBE6BCA6BCB6B08
:1049E000E60E036E010E046E066A140E056EA2EC4E
:1049F00042F00101C46BC56BE851E911D8B4120053
:104A0000E651E711D8B41200E6510001DC6FDB6B10
:104A10000101E7510001DD6FDE6BDB51DD110101AA
:104A2000E66F0001DC51DE110101E76FE851000182
:104A3000DC6FDB6B21EEE8F0DECFDDF0DDCFDEF00A
:104A4000DEC0DDF0DE6BDE6BDB51DD110101E86FF6
:104A50000001DC51DE110101E96FCCC15BF0CDC179
:104A60005CF047D05BC0F6FF5CC0F7FF000EF86E4D
:104A70000F0EF76407D00900F5CFDBF00900F5CF82
:104A8000DCF008D0F6CFE9FFF7CFEAFFEECFDBF09E
:104A9000EECFDCF00001DB510101E8190AE1000171
:104AA000DC510101E91905E15BC0C4F15CC0C5F14D
:104AB0002DD02C0E5B240001DB6F000E5C20DC6F20
:104AC000DBC0F6FFDCC0F7FF000EF86E0F0EF764D8
:104AD00007D00900F5CF5BF00900F5CF5CF008D0F6
:104AE000F6CFE9FFF7CFEAFFEECF5BF0EECF5CF059
:104AF0005A2A5B505C100AE05A50800A0001DB6FB2
:104B00000101D151800A0001DB5DACE30101C45118
:104B1000C511D8B41200060EC4250001DB6F000ECB
:104B20000101C5210001DC6FDBC0F6FFDCC0F7FF2F
:104B3000000EF86E0F0EF76407D00900F5CFDDF018
:104B40000900F5CFDEF008D0F6CFE9FFF7CFEAFF96
:104B5000EECFDDF0EECFDEF00101E6510001DD1910
:104B600005E10101E7510001DE1933E0020E010108
:104B7000C4250001DB6F000E0101C5210001DC6FBF
:104B8000DBC0F6FFDCC0F7FF000EF86E0F0EF76417
:104B90000DD00900F5CFDDF00900F5CFDEF00900FA
:104BA000F5CFDFF00900F5CFE0F00CD0F6CFE9FF4C
:104BB000F7CFEAFFEECFDDF0EECFDEF0EECFDFF0A5
:104BC000EECFE0F00001DD51DE11DF11E011D8A4DD
:104BD0001200D5C0BBF1D6C0BCF1D7C0BDF1D8C062
:104BE000BEF10101F2390F0B0001DB6FDC6BD890D5
:104BF000DB37DC37D890DB37DC37DB51D95D01019F
:104C0000CA6F0001DC51DA590101CB6FFEEC3BF0B9
:104C1000E806D8A412000101F3A33CD0F3A91DD0EB
:104C20002B0EC4250001DB6F000E0101C521000120
:104C3000DC6FDBC0F6FFDCC0F7FF000EF86E0F0E76
:104C4000F76404D0050EF56E0C0006D0F6CFE9FF30
:104C5000F7CFEAFF050E98D0B7D02B0EC425000180
:104C6000DB6F000E0101C5210001DC6FDBC0F6FF28
:104C7000DCC0F7FF000EF86E0F0EF76404D0030ED1
:104C8000F56E0C0006D0F6CFE9FFF7CFEAFF030E72
:104C90007BD09AD0F3A13CD0F3A91DD02B0EC42514
:104CA0000001DB6F000E0101C5210001DC6FDBC0DC
:104CB000F6FFDCC0F7FF000EF86E0F0EF76404D0AD
:104CC000070EF56E0C0006D0F6CFE9FFF7CFEAFF2E
:104CD000070E5AD079D02B0EC4250001DB6F000ED1
:104CE0000101C5210001DC6FDBC0F6FFDCC0F7FF6E
:104CF000000EF86E0F0EF76404D0060EF56E0C0071
:104D000006D0F6CFE9FFF7CFEAFF060E3DD05CD024
:104D1000F3A53CD0F3A91DD02B0EC4250001DB6FF9
:104D2000000E0101C5210001DC6FDBC0F6FFDCC015
:104D3000F7FF000EF86E0F0EF76404D00A0EF56E42
:104D40000C0006D0F6CFE9FFF7CFEAFF0A0E1CD021
:104D50003BD02B0EC4250001DB6F000E0101C521E5
:104D60000001DC6FDBC0F6FFDCC0F7FF000EF86E61
:104D70000F0EF76404D0090EF56E0C0006D0F6CFC6
:104D8000E9FFF7CFEAFF090EEF6E1ED0F3A91CD0A2
:104D90002B0EC4250001DB6F000E0101C5210001AF
:104DA000DC6FDBC0F6FFDCC0F7FF000EF86E0F0E05
:104DB000F76404D0040EF56E0C0006D0F6CFE9FFC0
:104DC000F7CFEAFF040EEF6E0101EE510001DB6F39
:104DD000DC6BDD6BDE6BDBC0DEF0DD6BDC6BDB6BBD
:104DE00021EEEEF0000EDE14DF6FFF0EDE14E06F3A
:104DF000000EDE14E16F000EDE14E26FE1C0E2F09F
:104E0000E0C0E1F0DFC0E0F0DF6BEEC1E3F0EFC146
:104E1000E4F0F0C1E5F0F1C1E6F0E4C0E3F0E5C094
:104E2000E4F0E6C0E5F0E66BE76BE451E86F000EF6
:104E3000E96BEA6B21EEEEF0DE14EB6F000EDE1490
:104E4000EC6F000EDE14ED6FFF0EDE14EE6F190E28
:104E500005D0D890EE33ED33EC33EB33E82EF9D7B1
:104E6000E751EB11EF6FE851EC11F06FE951ED11E3
:104E7000F16FEA51EE11F26FDF51EF11F36FE05174
:104E8000F011F46FE151F111F56FE251F211F66F8B
:104E9000DB51F3110101EE6F0001DC51F41101014E
:104EA000EF6F0001DD51F5110101F06F0001DE51DE
:104EB000F6110101F16FEA510001DB6FDC6BDD6B74
:104EC000DE6BDBC0DEF0DD6BDC6BDB6B21EEEAF072
:104ED000000EDE14DF6FFF0EDE14E06F000EDE1436
:104EE000E16F000EDE14E26FE1C0E2F0E0C0E1F03D
:104EF000DFC0E0F0DF6BEAC1E3F0EBC1E4F0ECC14E
:104F0000E5F0EDC1E6F0E4C0E3F0E5C0E4F0E6C0B2
:104F1000E5F0E66BE76BE451E86F000EE96BEA6BD6
:104F200021EEEAF0DE14EB6F000EDE14EC6F000EE3
:104F3000DE14ED6FFF0EDE14EE6F190E05D0D89063
:104F4000EE33ED33EC33EB33E82EF9D7E751EB11C9
:104F5000EF6FE851EC11F06FE951ED11F16FEA518B
:104F6000EE11F26FDF51EF11F36FE051F011F46FBA
:104F7000E151F111F56FE251F211F66FDB51F311CE
:104F80000101EA6F0001DC51F4110101EB6F000136
:104F9000DD51F5110101EC6F0001DE51F611010147
:104FA000ED6F75EF08F0206ED1D2250E1F182FE09F
:104FB0002050D96EDA6A020ED926DE50DE10DE10DD
:104FC00012E02050D96EDA6A020ED92601D8BED27C
:104FD0000500FA6EDE50FD6EDE50FE6EDE50FF6E96
:104FE000FA501F5012002050D96EDA6ADECF10F04E
:104FF000DDCF11F010C0D9FF11C0DAFF1FC0DFFFF5
:105000002050D96EDA6ADE2A000EDD229FD21D6A98
:105010001E6A1A6A0EC0F6FF100EF76E000EF86ECA
:105020000800F5504DEC48F001E208D11D6A1E6AF7
:105030001DC002F01EC003F0056A0A0E046E77EC74
:1050400047F002C01DF003C01EF0D00E106E1168B4
:105050000EC0F6FF100EF76E000EF86E0800F55049
:10506000126E136A105012261150132212501D2670
:1050700013501E220E2A0EC0F6FF100EF76E000E01
:10508000F86E0800F5504DEC48F001E2D7D0D0D7CB
:105090001A8EF0D00F50D96EDA6A020EDF26DF5C6E
:1050A000D96EDA6ADECF18F0DECF19F01850191079
:1050B00006E1DF0E186E1850D8A4100E196E166A8D
:1050C000176A02D0164A172A16501824106E175065
:1050D0001920116E10C0F6FF11C0F7FF000EF86E18
:1050E0000F0EF76403D00800F55005D0F6CFE9FFA6
:1050F000F7CFEAFFEF500009E5E11D50165C1E50A6
:10510000175805E216501D5E17501E5A30D01D6A02
:105110001E6A2DD02050D96EDA6A020ED926DE50D2
:10512000DE10DE1011E02050D96EDA6A020ED926A8
:1051300001D81DD00500FA6EDE50FD6EDE50FE6E09
:10514000DE50FF6EFA50200C2050D96EDA6ADECFA6
:1051500010F0DDCF11F010C0D9FF11C0DAFF200E22
:10516000DF6E2050D96EDA6ADE2A000EDD221D06BF
:10517000D8A01E061D28CEE11E2854E0CBD7205013
:10518000D96EDA6A020ED926DE50DE10DE1025E076
:105190002050D96EDA6A020ED92601D81BD005003C
:1051A000FA6EDE50FD6EDE50FE6EDE50FF6EFA507F
:1051B00018C0F6FF19C0F7FF000EF86E0F0EF76467
:1051C00003D00800F55005D0F6CFE9FFF7CFEAFF8E
:1051D000EF501200184A192A25D018C0F6FF19C03E
:1051E000F7FF000EF86E2050D96EDA6ADECF10F0AD
:1051F000DDCF11F010C0D9FF11C0DAFF0F0EF76438
:1052000003D00800F55005D0F6CFE9FFF7CFEAFF4D
:10521000EF50DF6E184A192A2050D96EDA6ADE2A5A
:10522000000EDD221606D8A017061628A8E11728BA
:1052300001E18CD1A4D7C00E1A121CD00E2A0E0484
:10524000106E10C0F6FF100EF76E000EF86E08001C
:10525000F5CF1FF01F5001E188D1640A0BE00D0A61
:1052600009E01A0A01E116D7060AE5E00D0A01E194
:105270000FD76CD11AC010F0C00E101615E10F50E8
:10528000D96EDA6A020EDF26DF5CD96EDA6ADECF0B
:105290001BF0DECF1CF01CAE46D0030E1A121B6CA6
:1052A0001C1ED8B01C2A3FD00F50D96EDA6A020EED
:1052B000DF26DF5CD96EDA6ADECF1BF0DECF1CF0B2
:1052C00032D0010E1F6E1F50020DF350010F106EF1
:1052D00010C0F6FF100EF76E000EF86E0900F550C4
:1052E0001B5C0900F5501C5825E31F2A050E1F18EA
:1052F00021E0E9D7010E1F6E1F50020DF3500B0F76
:10530000106E10C0F6FF100EF76E000EF86E09005A
:10531000F5501B5C0900F5501C580CE31F2A040EC5
:105320001F1808E0E9D71A50C00BCBE0800AE2E072
:10533000400AC7E01D501E1008E01AC010F0030E0E
:10534000101603E01D06D8A01E06800E1FBE7F0E9D
:10535000106E1D501F5C1E50800A105807E21F502F
:105360001D5E000E1FBEFF0E1E5A02D01D6A1E6A71
:105370001D501E1033E02050D96EDA6A020ED92675
:10538000DE50DE10DE1011E02050D96EDA6A020E17
:10539000D92601D81DD00500FA6EDE50FD6EDE5014
:1053A000FE6EDE50FF6EFA50200C2050D96EDA6A85
:1053B000DECF10F0DDCF11F010C0D9FF11C0DAFF41
:1053C000200EDF6E2050D96EDA6ADE2A000EDD2252
:1053D0001D06D8A01E061D501E10CDE11AC010F0EB
:1053E000030E10162DE02050D96EDA6A020ED9266F
:1053F000DE50DE10DE1011E02050D96EDA6A020EA7
:10540000D92601D81DD00500FA6EDE50FD6EDE50A3
:10541000FE6EDE50FF6EFA502D0C2050D96EDA6A07
:10542000DECF10F0DDCF11F010C0D9FF11C0DAFFD0
:105430002D0EDF6E2050D96EDA6ADE2A000EDD22D4
:105440001FC015F080D01550020DF350010F106EE3
:1054500010C0F6FF100EF76E000EF86E0900F5CFC3
:1054600004F00A00F5CF05F01BC002F01CC003F0E9
:10547000CFEC44F002C009F003C00AF00C6A0A0E37
:105480000B6E7EEC45F00950300F1F6E2ED01BC006
:1054900002F01CC003F01550020DF3500B0F106EFC
:1054A00010C0F6FF100EF76E000EF86E0900F5CF73
:1054B00004F00A00F5CF05F0CFEC44F002500F0BDA
:1054C000146E1450920F106E10C0F6FF100EF76E8F
:1054D000000EF86E0800F5CF1FF007D01A50C00B71
:1054E000B2E0800AD4E0400AAEE02050D96EDA6A19
:1054F000020ED926DE50DE10DE1012E02050D96EEA
:10550000DA6A020ED92601D81ED00500FA6EDE50E6
:10551000FD6EDE50FE6EDE50FF6EFA501F50120020
:105520002050D96EDA6ADECF10F0DDCF11F010C056
:10553000D9FF11C0DAFF1FC0DFFF2050D96EDA6A31
:10554000DE2A000EDD2215061528C8E10E2A0E04FB
:10555000106E10C0F6FF100EF76E000EF86E080009
:10556000F5CF1FF01F5001E020D50E6A0F6A120020
:10557000380E036E046A066A1C0E056EA2EC42F039
:1055800003C02EF004C02FF01C0E2E182F10D8A42C
:105590001200306A000E366E030E376E080E346E3F
:1055A00020EE06F03650D9263750DA22DE50461863
:1055B0002AE1DE50471827E1DE50481824E1DE508A
:1055C000491821E120EE0AF03650D9263750DA2268
:1055D000DE503A1818E1DE503B1815E120EE0CF0D1
:1055E0003650D9263750DA22DF6A20EE40F036C036
:1055F000E1FF37C0E2FF050EDBCFE3FFE806FCE288
:10560000010E306E07D00D0E3626000E37223406FE
:105610003450C6E10101B751B811B911BA11D8B46B
:10562000120050500E6E0F6A106A116A0EC011F00F
:10563000106A0F6A0E6A20EE50F0000EDE14126E31
:10564000FF0EDE14136E000EDE14146E000EDE1458
:10565000156E14C015F013C014F012C013F0126AC6
:1056600050C016F051C017F052C018F053C019F0D6
:1056700017C016F018C017F019C018F0196A1A6A86
:1056800017501B6E000E1C6A1D6A20EE50F0DE14CF
:105690001E6E000EDE141F6E000EDE14206EFF0E56
:1056A000DE14216E190E05D0D890213220321F321F
:1056B0001E32E82EF9D71A501E10226E1B501F10F2
:1056C000236E1C502010246E1D502110256E125088
:1056D0002210266E13502310276E14502410286EAB
:1056E00015502510296E0E5026102A6E0F502710C7
:1056F0002B6E105028102C6E115029102D6EB751A2
:105700002A1809E1B8512B1806E1B9512C1803E108
:10571000BA512D18D8A41200305001E0BCD0000EB0
:10572000366E030E376E000E326E030E336E080EA9
:10573000356E20EE0CF03250D9263350DA2210EEBE
:105740000CF03650E1263750E222DE50E65C04E2EF
:1057500032C036F033C037F00D0E3226000E332241
:1057600035063550E6E120EE0CF03650D92637509C
:10577000DA22DF6A20EE40F036C0E1FF37C0E2FFF8
:10578000050EDBCFE3FFE806FCE246500E6E0F6A23
:10579000106A116A0EC011F0106A0F6A0E6A20EECC
:1057A00046F0000EDE14126EFF0EDE14136E000EB5
:1057B000DE14146E000EDE14156E14C015F013C046
:1057C00014F012C013F0126A46C016F047C017F06A
:1057D00048C018F049C019F017C016F018C017F0EB
:1057E00019C018F0196A1A6A17501B6E000E1C6A4D
:1057F0001D6A20EE46F0DE141E6E000EDE141F6ED3
:10580000000EDE14206EFF0EDE14216E190E05D080
:10581000D890213220321F321E32E82EF9D71A508A
:105820001E10226E1B501F10236E1C502010246E61
:105830001D502110256E12502210266E1350231079
:10584000276E14502410286E15502510296E0E5006
:1058500026102A6E0F5027102B6E105028102C6E19
:10586000115029102D6E20EE06F03650D9263750F3
:10587000DA222AC0DEFF2BC0DEFF2CC0DEFF2DC0E7
:10588000DEFF20EE0AF03650D9263750DA223AC031
:10589000DEFF3BC0DDFF3F043E10D8A41200400EE7
:1058A000086E096A080E0B6E060E0A6EFBEC35F0E8
:1058B000316E3104D8A4120020EE40F010EE4AF010
:1058C000050EDBCFE3FFE806FCE2380E080F55ECCF
:1058D00043F046C050F047C051F048C052F049C0B4
:1058E00053F00101B7510E6E0F6A106A116A0EC0B3
:1058F00011F0106A0F6A0E6A126AB851136E146AB8
:10590000156A14C015F013C014F012C013F0126A17
:10591000166AB951176E186A1650196E17501A6E1A
:1059200018501B6E1C6A1D6A1E6A1F6ABA51206ECF
:10593000190E05D0D89020321F321E321D32E82EAB
:10594000F9D719501D10216E1A501E10226E1B50CF
:105950001F10236E1C502010246E12502110256E33
:1059600013502210266E14502310276E1550241049
:10597000286E0E502510466E0F502610476E1050A0
:105980002710486E11502810496E020E3F6E3E6A75
:10599000380E036E046A066A1C0E056EB5EC43F001
:1059A00090EF46F00001F86BF96B136A140E126E5B
:1059B000156A146AE1EC43F012C0FAF013C0FBF070
:1059C0000001FA51FB1101E01200D20E036E010E2C
:1059D000046E066A140E056EA2EC42F00101D23983
:1059E0000F0B040A01E01200E251006F016B026B21
:1059F000036B00C103F1026B016B006B21EEE2F05F
:105A0000000EDE14046FFF0EDE14056F000EDE14B0
:105A1000066F000EDE14076F06C107F105C106F11F
:105A200004C105F1046BE2C108F1E3C109F1E4C16D
:105A30000AF1E5C10BF109C108F10AC109F10BC175
:105A40000AF10B6B0C6B09510D6F000E0E6B0F6B97
:105A500021EEE2F0DE14106F000EDE14116F000E66
:105A6000DE14126FFF0EDE14136F190E05D0D890DE
:105A70001333123311331033E82EF9D70C511011B0
:105A8000146F0D511111156F0E511211166F0F5128
:105A90001311176F04511411186F05511511196F57
:105AA000065116111A6F075117111B6F005118116B
:105AB000E26F01511911E36F02511A11E46F0351A2
:105AC0001B11E56FDE51006F016B026B036B00C1B0
:105AD00003F1026B016B006B21EEDEF0000EDE14B1
:105AE000046FFF0EDE14056F000EDE14066F000E4D
:105AF000DE14076F06C107F105C106F104C105F107
:105B0000046BDEC108F1DFC109F1E0C10AF1E1C1B6
:105B10000BF109C108F10AC109F10BC10AF10B6BC4
:105B20000C6B09510D6F000E0E6B0F6B21EEDEF04A
:105B3000DE14106F000EDE14116F000EDE14126FF3
:105B4000FF0EDE14136F190E05D0D89013331233E5
:105B500011331033E82EF9D70C511011146F0D5179
:105B60001111156F0E511211166F0F511311176F7E
:105B700004511411186F05511511196F06511611A2
:105B80001A6F075117111B6F00511811DE6F015169
:105B90001911DF6F02511A11E06F03511B11E16FF0
:105BA000B751E21909E1B851E31906E1B951E41915
:105BB00003E1BA51E51909E0E22906E1E32904E12C
:105BC000E42902E1E529D8A41200D451016F006B49
:105BD00021EED4F0DECF02F1DDCF03F103C102F1FB
:105BE000036B036B00510211D46F01510311D56F88
:105BF000D2510F0B006FD8900037D89000350001BC
:105C0000F76F0101D2510F0B006F050E00659CD09C
:105C1000EC0E0001F7250A6E0B6AFF0E0B22A9ECB1
:105C200044F092D00001F7510101D45D0001F86FFA
:105C30000101D551D8A0D5050001F96FF8C012F0C7
:105C4000F9C013F0156A146AE1EC43F012C0FAF0DF
:105C500013C0FBF00001FA51FB11D8A41200D20EC0
:105C6000716F010E726FF4EF44F00001F751010102
:105C7000D45D0001F86F0101D551D8A0D505000110
:105C8000F96FF8C002F0F9C003F076EC40F002C002
:105C9000FAF003C0FBF0F8C012F0F9C013F0FAC03C
:105CA00014F0FBC015F0E1EC43F012C0FAF013C0A1
:105CB000FBF0FAC099F0FBC09AF00DEF3DF0000147
:105CC000F7510101D45D0001F86F0101D551D8A051
:105CD000D5050001F96FF8C002F0F9C003F076ECC9
:105CE00040F002C0FAF003C0FBF0F8C012F0F9C0B7
:105CF00013F0FAC014F0FBC015F0E1EC43F012C051
:105D0000FAF013C0FBF00001FA51FB11D8A4120005
:105D1000DEC130F2DFC131F2E0C132F2E1C133F273
:105D200030C2D5F031C2D6F032C2D7F033C2D8F08B
:105D3000F8C0D9F0F9C0DAF0E8EF24F0D4C10AF0E5
:105D4000D5C10BF0A9EF44F00101DB51010A01E1DB
:105D500069D7070AB4E0170A88E0F0D7220E0101DC
:105D6000C4250001B86F000E0101C5210001B96F03
:105D7000B8C0F6FFB9C0F7FF000EF86E0F0EF7645B
:105D800003D00800F55005D0F6CFE9FFF7CFEAFFC2
:105D9000EF50E806D8A412001A0E0101C425000134
:105DA000B86F000E0101C5210001B96FB8C0F6FF40
:105DB000B9C0F7FF000EF86E0F0EF76407D00900A8
:105DC000F5CFBAF00900F5CFBBF008D0F6CFE9FF68
:105DD000F7CFEAFFEECFBAF0EECFBBF00001B6513D
:105DE000BA5DB751BB5905E3B6C058F0B7C059F01A
:105DF00022D01A0E0101C4250001B86F000E010166
:105E0000C5210001B96FB8C0F6FFB9C0F7FF000E99
:105E1000F86E0F0EF76407D00900F5CF58F00900AF
:105E2000F5CF59F008D0F6CFE9FFF7CFEAFFEECF74
:105E300058F0EECF59F0200E0101C4250001B86FD3
:105E4000000E0101C5210001B96FB8C0F6FFB9C04D
:105E5000F7FF000EF86E0F0EF76407D00900F5CFBC
:105E600003F00900F5CF04F008D0F6CFE9FFF7CF33
:105E7000EAFFEECF03F0EECF04F058C005F059C0B2
:105E800006F0A2EC42F0200E0101C4250001B86F1B
:105E9000000E0101C5210001B96FB8C0F6FFB9C0FD
:105EA000F7FF000EF86E0F0EF76407D00900F5CF6C
:105EB000BAF00900F5CFBBF008D0F6CFE9FFF7CF75
:105EC000EAFFEECFBAF0EECFBBF058500001BA2790
:105ED0005950BB23200E0101C4250001BC6F000EE8
:105EE0000101C5210001BD6FBCC0F6FFBDC0F7FFB9
:105EF000000EF86E0F0EF76407D0BAC0F5FF0D0064
:105F0000BBC0F5FF0C0008D0F6CFE9FFF7CFEAFFE2
:105F1000BAC0EEFFBBC0EFFF1A0E0101C42500019D
:105F2000B86F000E0101C5210001B96FB8C0F6FFBE
:105F3000B9C0F7FF000EF86E0F0EF76407D0090026
:105F4000F5CFBAF00900F5CFBBF008D0F6CFE9FFE6
:105F5000F7CFEAFFEECFBAF0EECFBBF0585000011A
:105F6000BA5F5950BB5B1A0E0101C4250001BC6F1A
:105F7000000E0101C5210001BD6FBCC0F6FFBDC010
:105F8000F7FF000EF86E0F0EF76407D0BAC0F5FFEA
:105F90000D00BBC0F5FF0C0008D0F6CFE9FFF7CF2E
:105FA000EAFFBAC0EEFFBBC0EFFF080E0101C42537
:105FB0000001B86F000E0101C5210001B96FB8C022
:105FC000F6FFB9C0F7FF000EF86E0F0EF7640DD0A4
:105FD0000900F5CFBAF00900F5CFBBF00900F5CF05
:105FE000BCF00900F5CFBDF00CD0F6CFE9FFF7CF3C
:105FF000EAFFEECFBAF0EECFBBF0EECFBCF0EECFC3
:10600000BDF058500001BA25BE6F5950BB21BF6F7B
:10601000000EBC21C06F000EBD21C16F0C0E01012E
:10602000C4250001C26F000E0101C5210001C36F2C
:10603000C2C0F6FFC3C0F7FF000EF86E0F0EF76484
:106040000DD0BEC0F5FF0D00BFC0F5FF0D00C0C0F4
:10605000F5FF0D00C1C0F5FF0C000CD0F6CFE9FF35
:10606000F7CFEAFFBEC0EEFFBFC0EEFFC0C0EEFF3D
:10607000C1C0EFFF350E0101C4250001B86F000E4D
:106080000101C5210001B96FB8C0F6FFB9C0F7FF23
:10609000000EF86E0F0EF76404D0100EF56E0C00B3
:1060A00006D0F6CFE9FFF7CFEAFF100EEF6EC4C1BE
:1060B00067F0C5C168F00CEF1FF00001DD6BDE6B0F
:1060C00002012C2B000E2D232E232F230101C64B62
:1060D000C72B040EC75D03E2040EC76FC66BCCC1AD
:1060E000DFF0CDC1E0F073D1300EDF25D56F000EAB
:1060F000E021D66FD5C0F6FFD6C0F7FF000EF86ED0
:106100000F0EF76407D00900F5CFD7F00900F5CFDF
:10611000D8F008D0F6CFE9FFF7CFEAFFEECFD7F0FF
:10612000EECFD8F00001D751D81101E12ED1D569B9
:10613000D669300EDF25D76F000EE021D86FD7C0AB
:10614000F6FFD8C0F7FF000EF86E0F0EF76407D009
:106150000900F5CFD9F00900F5CFDAF008D0F6CF75
:10616000E9FFF7CFEAFFEECFD9F0EECFDAF000018A
:10617000D551D927D651DA23300EDF25DB6F000E3B
:10618000E021DC6FDBC0F6FFDCC0F7FF000EF86E2D
:106190000F0EF76407D0D9C0F5FF0D00DAC0F5FF88
:1061A0000C0008D0F6CFE9FFF7CFEAFFD9C0EEFF29
:1061B000DAC0EFFF300E0001DF25D56F000EE021C1
:1061C000D66FD5C0F6FFD6C0F7FF000EF86E0F0EE3
:1061D000F76407D00900F5CFD7F00900F5CFD8F064
:1061E00008D0F6CFE9FFF7CFEAFFEECFD7F0EECF3A
:1061F000D8F00001D751D81101E0C7D0340EDF2507
:10620000D56F000EE021D66FD5C0F6FFD6C0F7FFE0
:10621000000EF86E0F0EF76403D00800F55005D09D
:10622000F6CFE9FFF7CFEAFFEF50000901E1ADD06B
:106230002B0E0001DF25D56F000EE021D66FD5C0F3
:10624000F6FFD6C0F7FF000EF86E0F0EF76403D00E
:106250000800F55005D0F6CFE9FFF7CFEAFFEF5081
:106260000D0A01E092D0320E0001DF25D56F000E3D
:10627000E021D66FD5C0F6FFD6C0F7FF000EF86E4E
:106280000F0EF76407D00900F5CFD7F00900F5CF5E
:10629000D8F008D0F6CFE9FFF7CFEAFFEECFD7F07E
:1062A000EECFD8F0300E0001DF25D96F000EE021CF
:1062B000DA6FD9C0F6FFDAC0F7FF000EF86E0F0EE6
:1062C000F76407D0D7C0F5FF0D00D8C0F5FF0C006C
:1062D00008D0F6CFE9FFF7CFEAFFD7C0EEFFD8C06E
:1062E000EFFF340E0001DF25D56F000EE021D66FE1
:1062F000D5C0F6FFD6C0F7FF000EF86E0F0EF7649C
:1063000003D00800F55005D0F6CFE9FFF7CFEAFF3C
:10631000EF500001D76FD707340EDF25D86F000E7E
:10632000E021D96FD8C0F6FFD9C0F7FF000EF86E94
:106330000F0EF76404D0D7C0F5FF0C0006D0F6CFDF
:10634000E9FFF7CFEAFFD7C0EFFF2B0E0001DF25F3
:10635000D56F000EE021D66FD5C0F6FFD6C0F7FF8F
:10636000000EF86E0F0EF76404D00C0EF56E0C00E4
:1063700006D0F6CFE9FFF7CFEAFF0C0EEF6EDFC0D5
:10638000C4F1E0C0C5F175EC08F02C0E0001DF256A
:10639000D56F000EE021D66FD5C0F6FFD6C0F7FF4F
:1063A000000EF86E0F0EF76407D00900F5CFDFF08E
:1063B0000900F5CFE0F008D0F6CFE9FFF7CFEAFF0C
:1063C000EECFDFF0EECFE0F00001DD4BDE2B000181
:1063D000DF51E011D8B41200D1C1D5F0D66BD5BFD2
:1063E000D607D551DD5DDE51800AD76FD651800AC0
:1063F000D75901E279D61200380E0A6E020E0B6EE2
:106400008AEC47F00001DF6FFA0E026E010E036E98
:106410000BEC44F04AD1380E0A6E020E0B6EFAEF06
:106420003DF0020118510101FA5D0201195101010B
:10643000FB5902011A510101FC59FD51800A00016A
:10644000D96F02011B51800A0001D959D8A012004E
:10645000020E0101FA250201186F000E0101FB2155
:106460000201196F000E0101FC2102011A6F000EDA
:106470000101FD2102011B6F380E0A6E020E0B6E28
:106480006F0E0C6E020E0D6E0F6A320E0E6ED9EC90
:1064900041F0380E0001D56F020ED66FA90ED76FEE
:1064A000020ED86F5EEF3EF0380E0A6E020E0B6ED3
:1064B00014EC47F00009D8B41200380E0A6E020E30
:1064C0000B6E1CEC42F00AC0E0F00BC0E1F00001E2
:1064D000E051E11101E184D0E15103E1110EE05DF1
:1064E00003E302017F6B07D06F0EE025D96E020E29
:1064F000E121DA6EDF6A73C2E2F02F0E0001E2657D
:1065000005D0380EE26102D0D00EE2276C0E0201F7
:106510006F1933E1650E701930E1640E71192DE1C8
:106520006F0E751912E16E0E76190FE1E2C0D9F007
:10653000010E0001DA6FD92B02D0D890DA37D92FAB
:10654000FCD70001DA5188123ED06F0E75193BE17D
:10655000660E761938E1660E771935E1E2C0D9F09A
:10656000010E0001DA6FD92B02D0D890DA37D92F7B
:10657000FCD70001DA1D881626D0E30E026E036AEE
:10658000056A200E046E076A110E066EFFEC46F0D7
:10659000000EFDEC48F0E30E046E056AAFEC47F028
:1065A000E30E216E226AE60E236E6F0E246E020E3B
:1065B000256ED4EC46F0000EFDEC48F0E30E046EC0
:1065C000056AAFEC47F0380E0A6E020E0B6E6F0EC6
:1065D0000C6E020E0D6E0F6A320E0E6ED9EC41F08B
:1065E000020118510101FA5D020119510101FB5923
:1065F00002011A510101FC59FD51800A0001D96FB5
:1066000002011B51800A0001D959D8A01200020EC4
:106610000101FA250201186F000E0101FB210201A0
:10662000196F000E0101FC2102011A6F000E010119
:10663000FD2102011B6F030EA7EC46F002C0DBF048
:1066400003C0DCF0020EA7EC46F002C0DDF003C090
:10665000DEF0680E216E030E226E390E236EDBC053
:1066600024F0DCC025F088CF26F0276A81500F0B7C
:10667000286E296ADDC02AF0DEC02BF0D4EC46F08B
:10668000380E0001B66F020EB76F680EB86F030EBA
:10669000B96F680E026E030E036E29EC47F002C05C
:1066A000BAF003C0BBF0C1EF3EF00001DF5101E1E1
:1066B000B2D6010A01E1B5D6020A01E1F5D612000F
:1066C000020E0224046E000E0320056E04C0F6FFC5
:1066D00005C0F7FF000EF86E0F0EF76409D0F56ADB
:1066E0000D00F56A0D00F56A0D00F56A0C0008D082
:1066F000F6CFE9FFF7CFEAFFEE6AEE6AEE6AEF6ADD
:10670000060E0224046E000E0320056E04C0F6FF80
:1067100005C0F7FF000EF86E0F0EF76405D0F56A9E
:106720000D00F56A0C0006D0F6CFE9FFF7CFEAFFBF
:10673000EE6AEF6A100E0224046E000E0320056E4E
:1067400004C0F6FF05C0F7FF000EF86E0F0EF764E9
:1067500009D0F56A0D00F56A0D00F56A0D00F56ABD
:106760000C0008D0F6CFE9FFF7CFEAFFEE6AEE6A39
:10677000EE6AEF6A140E0224046E000E0320056E0A
:1067800004C0F6FF05C0F7FF000EF86E0F0EF764A9
:1067900009D0F56A0D00F56A0D00F56A0D00F56A7D
:1067A0000C0008D0F6CFE9FFF7CFEAFFEE6AEE6AF9
:1067B000EE6AEF6A080E0224046E000E0320056ED6
:1067C00004C0F6FF05C0F7FF000EF86E0F0EF76469
:1067D00009D0F56A0D00F56A0D00F56A0D00F56A3D
:1067E0000C0008D0F6CFE9FFF7CFEAFFEE6AEE6AB9
:1067F000EE6AEF6A0C0E0224046E000E0320056E92
:1068000004C0F6FF05C0F7FF000EF86E0F0EF76428
:1068100009D0F56A0D00F56A0D00F56A0D00F56AFC
:106820000C0008D0F6CFE9FFF7CFEAFFEE6AEE6A78
:10683000EE6AEF6A180E0224046E000E0320056E45
:1068400004C0F6FF05C0F7FF000EF86E0F0EF764E8
:1068500005D0F56A0D00F56A0C0006D0F6CFE9FF09
:10686000F7CFEAFFEE6AEF6A300E0224046E000EE4
:106870000320056E04C0F6FF05C0F7FF000EF86E9A
:106880000F0EF76405D0F56A0D00F56A0C0006D00E
:10689000F6CFE9FFF7CFEAFFEE6AEF6A320E022485
:1068A000046E000E0320056E04C0F6FF05C0F7FF5E
:1068B000000EF86E0F0EF76405D0F56A0D00F56A4C
:1068C0000C0006D0F6CFE9FFF7CFEAFFEE6AEF6AD9
:1068D000340E0224046E000E0320056E04C0F6FF81
:1068E00005C0F7FF000EF86E0F0EF76403D0F56ACF
:1068F0000C0005D0F6CFE9FFF7CFEAFFEF6A350EBF
:106900000224046E000E0320056E04C0F6FF05C0CD
:10691000F7FF000EF86E0F0EF76403D0F56A0C0057
:1069200005D0F6CFE9FFF7CFEAFFEF6A02C0F6FF26
:1069300003C0F7FF000EF86E0F0EF76405D0F56A7E
:106940000D00F56A0C0006D0F6CFE9FFF7CFEAFF9D
:10695000EE6AEF6A360E0224046E000E0320056E06
:1069600004C0F6FF05C0F7FF000EF86E0F0EF764C7
:1069700004D0010EF56E0C0006D0F6CFE9FFF7CF7C
:10698000EAFF010EEF6E12008E0E55EC43F000018F
:1069900078BF1200785104E1F10E775DD8A01200A3
:1069A00064EC47F003C085F004C086F00001850563
:1069B00003E1020E8619D8A412000B6A020E0A6EB9
:1069C000A9EC44F0BCEC45F003C081F004C082F0B7
:1069D00005C083F006C084F0500E0001811909E162
:1069E000480E821906E1430E831903E14D0E841906
:1069F000D8A412000B6A080E0A6EA9EC44F0BCEC95
:106A000045F003C095F004C096F005C097F006C0AD
:106A100098F000019551796F7A6B96517B6F7C6B82
:106A200097517D6F7E6B98C07FF0806B0B6A080E6C
:106A30000A6EA9EC44F0880E036E046A066A060E1C
:106A4000056EA2EC42F08E0E026E046A060E036E14
:106A5000880E83EC44F00250031001E0C3D00B6AAF
:106A6000CA0E0A6EA9EC44F0BCEC45F0630E0318A4
:106A700009E1530E041806E1820E051803E1630EC6
:106A80000618D8A412000001100E7727FF0E7823F5
:106A90009AD0CBEC48F00001876FCBEC48F00001B6
:106AA000946F9451586E596A020E5826000E59225E
:106AB0005850775F5950785B78D0BCEC45F003C0F4
