:0400000014EF00F009
:060008005E8269EF2FF09B
:100018005E80E0CF01F000F001C0E0FF5E901000CC
:04002800B5EF2CF014
:101000000001000A006400E803102701001000003E
:1010100001001050494331384639374A36302045AF
:10102000544845524E455400FCFF000000FBFF00B1
:1010300000004400000000FFFFFFFFFFFF00DEADE7
:1010400000BEEF0D0A0D0A5374617274696E672059
:101050005379736C6F672061742025750D0A003019
:10106000313233343536373839616263646566004E
:1010700057616974696E6720666F72204C696E6B88
:10108000004C696E6B207374617274656400256432
:101090002E25642E25642E2564002575203A2025F2
:1010A000730D0A002578203A20256400286E756C9F
:1010B0006C2900000001D06B2A0E08EC11F0F764D7
:1010C00003D00800F55003D03CEC11F0EF500001C4
:1010D000D46F2B0E08EC11F0F76403D00800F55024
:1010E00003D03CEC11F0EF500001D36FC5EF10F0CE
:1010F000020E08EC11F0F7640DD0CCC1F5FF0D0025
:10110000CDC1F5FF0D00CEC1F5FF0D00CFC1F5FF3C
:101110000C000AD03CEC11F0CCC1EEFFCDC1EEFFCB
:10112000CEC1EEFFCFC1EFFF060E08EC11F0F76461
:1011300007D0E8C1F5FF0D00E9C1F5FF0C0006D0AE
:101140003CEC11F0E8C1EEFFE9C1EFFF140E08EC32
:1011500011F0F76407D0F56A0D00F56A0D00ABECED
:1011600011F004D03CEC11F0F0EC11F0080E08EC9A
:1011700011F0F76403D0B0EC11F004D03CEC11F0A6
:10118000FEEC11F0080E08EC11F0F76403D053ECFC
:1011900011F004D03CEC11F099EC11F08BEC11F053
:1011A0000C0EA6EC11F0F0EC1EF007EC12F0F76458
:1011B00003D0BDEC11F004D03CEC11F0F5EC11F0D3
:1011C00077EC11F066EC11F0F76403D0CAEC11F083
:1011D00004D03CEC11F029EC12F01C0E08EC11F0DC
:1011E000F76403D02EEC12F004D03CEC11F052EC7A
:1011F00012F0350E08EC11F0F76404D0120EF56E03
:101200000C0004D03CEC11F0120EEF6E300E08EC26
:1012100011F0F76403D0E5EC11F004D03CEC11F0D0
:1012200035EC12F0320E08EC11F0F76403D0E5EC67
:1012300011F004D03CEC11F035EC12F0340E08EC57
:1012400011F0F76404D0030EF56E0C0004D03CECF2
:1012500011F0030EEF6EEBEC11F0A2EC12F0030EA6
:10126000DCEF0FF00001D46BD5C102F0D6C103F062
:1012700041EC22F0EFEF10F00001D351F3E0030A4C
:1012800001E136D7EFEF10F0080E08EC11F0F7642B
:1012900003D0B0EC11F004D03CEC11F0FEEC11F0F6
:1012A000A2EC11F019EC11F0F76405D0D1EC11F0BB
:1012B000CAEC11F004D03CEC11F014EC12F077EC15
:1012C00011F066EC11F0F76403D0CAEC11F004D011
:1012D0003CEC11F029EC12F01C0E08EC11F0F76454
:1012E00003D02EEC12F004D03CEC11F052EC12F0D2
:1012F000300E08EC11F0F76403D0E5EC11F004D0E7
:101300003CEC11F035EC12F0320E08EC11F0F76401
:1013100003D0E5EC11F004D03CEC11F035EC12F008
:10132000340E08EC11F0F76404D0030EF56E0C00D7
:1013300004D03CEC11F0030EEF6E350E08EC11F00A
:10134000F76404D0120EF56E0C0004D03CEC11F0E2
:10135000120EEF6E80D7300E08EC11F0F76403D058
:10136000ABEC11F004D03CEC11F0EE6AEF6A100E19
:1013700008EC11F0F76403D053EC11F004D03CEC0E
:1013800011F099EC11F08BEC11F043EC12F079E1D3
:1013900057EC12F076E15CEC12F073E169EC12F0BC
:1013A000D8A46FD0100E08EC11F0F76403D053EC02
:1013B00011F004D03CEC11F099EC11F08BEC11F031
:1013C00041EC11F0F76403D0BDEC11F004D03CEC1B
:1013D00011F0F5EC11F0350E08EC11F0F76404D0C3
:1013E000100EF56E0C0004D03CEC11F0100EEF6EF8
:1013F000080E08EC11F0F76403D0B0EC11F004D043
:101400003CEC11F0FEEC11F0A2EC11F019EC11F033
:10141000F76405D0D1EC11F0CAEC11F004D03CEC2B
:1014200011F014EC12F077EC11F066EC11F0F764A7
:1014300003D0CAEC11F004D03CEC11F029EC12F00E
:101440001C0E08EC11F0F76403D02EEC12F004D05F
:101450003CEC11F052EC12F0EBEC11F0A2EC12F0BB
:10146000000902E1EFEF10F01DEC12F008EC11F0B2
:10147000F76404D0030EF56E0C0001D045D2EFEFF7
:1014800010F0100E08EC11F0F76403D0D8EC11F056
:1014900004D03CEC11F020EC12F0350E08EC11F009
:1014A000F76404D0140EF56E0C0004D03CEC11F07F
:1014B000140EEF6EEBEC11F0A2EC12F0000901E05B
:1014C000D1D6EFEF10F0300E08EC11F0F76403D036
:1014D000ABEC11F004D03CEC11F0EE6AEF6A100EA8
:1014E00008EC11F0F76403D053EC11F004D03CEC9D
:1014F00011F099EC11F08BEC11F043EC12F071E16A
:1015000057EC12F06EE15CEC12F06BE169EC12F05A
:10151000D8A467D0100E08EC11F0F76403D053EC98
:1015200011F004D03CEC11F099EC11F08BEC11F0BF
:1015300041EC11F0F76403D0BDEC11F004D03CECA9
:1015400011F0F5EC11F0350E08EC11F0F76404D051
:10155000100EF56E0C0004D03CEC11F0100EEF6E86
:10156000080E08EC11F0F76403D0B0EC11F004D0D1
:101570003CEC11F0FEEC11F0A2EC11F019EC11F0C2
:10158000F76405D0D1EC11F0CAEC11F004D03CECBA
:1015900011F014EC12F077EC11F066EC11F0F76436
:1015A00003D0CAEC11F004D03CEC11F029EC12F09D
:1015B0001C0E08EC11F0F76403D02EEC12F004D0EE
:1015C0003CEC11F052EC12F010EC12F008EC11F0BF
:1015D000F76404D0030EF56E0C0001D095D1EFEF47
:1015E00010F0100E08EC11F0F76403D0D8EC11F0F5
:1015F00004D03CEC11F020EC12F0350E08EC11F0A8
:10160000F76404D0040EF56E0C0004D03CEC11F02D
:10161000040EEF6EEBEC11F0A2EC12F04FD7340E8B
:1016200008EC11F0F76403D00800F55003D03CEC4F
:1016300011F0EF50000934E0EBEC11F0A2EC12F0E5
:10164000000902E1EFEF10F0350E08EC11F0F7643D
:1016500003D00800F55003D03CEC11F0EF5000012E
:10166000C66FC6B5FFD5350E08EC11F0F76403D090
:101670000800F55003D03CEC11F0EF500001C66FAC
:10168000C6A9EFEF10F01DEC12F008EC11F0F764B2
:1016900004D0030EF56E0C0001D036D1EFEF10F040
:1016A000350E08EC11F0F76404D0040EF56E0C0052
:1016B00004D03CEC11F0040EEF6EEBEC11F0A2EC58
:1016C00012F0FCD60001D35101E1CCD5030A01E1AF
:1016D000DBD5070A01E1F7D6010A01E13CD60C0A85
:1016E00001E1C0D5030A01E1BDD5060A98E0EFEF9C
:1016F00010F061EC12F0F76403D06EEC12F004D03D
:101700003CEC11F093EC12F09DEC12F003E198EC3C
:1017100012F0D8A4EFEF10F0300E08EC11F0F764DF
:1017200003D0ABEC11F004D03CEC11F0EE6AEF6AA0
:10173000020E08EC11F0F76403D053EC11F004D062
:101740003CEC11F099EC11F039EC12F03BE13EEC7D
:1017500012F038E148EC12F035E14DEC12F0D8A46B
:1017600031D0060E08EC11F0F76404D0090060ECEB
:1017700011F006D03CEC11F0EECFC6F0EECFC7F082
:1017800084EC12F01FE17AEC12F01CE1100E08EC70
:1017900011F0F76403D053EC11F004D03CEC11F0DD
:1017A00099EC11F08BEC11F043EC12F00BE157ECDB
:1017B00012F008E15CEC12F005E169EC12F002E1D4
:1017C000040ED46F360E08EC11F0F76404D0030E4B
:1017D000F56E0C0001D098D0EFEF10F0020E08EC7F
:1017E00011F0F76403D053EC11F004D03CEC11F08D
:1017F00099EC11F039EC12F009E13EEC12F006E13F
:1018000048EC12F003E14DEC12F0D8A4EFEF10F029
:10181000060E08EC11F0F76404D0090060EC11F03A
:1018200006D03CEC11F0EECFC6F0EECFC7F084EC62
:1018300012F003E17AEC12F0D8A4EFEF10F00C0EE6
:1018400008EC11F0F76403D053EC11F004D03CEC39
:1018500011F099EC11F089EC12F009E18EEC12F024
:1018600006E175EC12F003E17FEC12F0D8A4EFEF83
:1018700010F0100E08EC11F0F76403D053EC11F0E7
:1018800004D03CEC11F099EC11F08BEC11F043EC2E
:1018900012F009E157EC12F006E15CEC12F003E102
:1018A00069EC12F0D8A4EFEF10F0100E08EC11F074
:1018B000F76403D053EC11F004D03CEC11F099EC38
:1018C00011F08BEC11F041EC11F0F76403D0BDEC9A
:1018D00011F004D03CEC11F0F5EC11F0300E08ECF6
:1018E00011F0F76403D0ABEC11F004D03CEC11F034
:1018F000EE6AEF6A10EC12F008EC11F0F76404D015
:10190000030EF56E0C0004D03CEC11F0030EEF6EEC
:10191000EFEF10F0300E08EC11F0F76403D0ABECF1
:1019200011F004D03CEC11F0EE6AEF6A350E08ECD1
:1019300011F0F76404D0010EF56E0C0004D03CECFD
:1019400011F0010EEF6E300E08EC11F0F76403D0C9
:10195000E5EC11F004D03CEC11F035EC12F0320E55
:1019600008EC11F0F76403D0E5EC11F004D03CEC86
:1019700011F035EC12F0340E08EC11F0F76404D0DD
:10198000050EF56E0C0004D03CEC11F0050EEF6E68
:10199000050E0001D46FEBEC11F0A2EC12F0EFEFAA
:1019A00010F061EC12F0F76403D06EEC12F004D08A
:1019B0003CEC11F093EC12F09DEC12F003E198EC8A
:1019C00012F0D8A4EFEF10F00C0E08EC11F0F76451
:1019D00003D053EC11F004D03CEC11F099EC11F071
:1019E00089EC12F009E18EEC12F006E175EC12F0D0
:1019F00003E17FEC12F0D8A4F2D3020E08EC11F050
:101A0000F76407D0F56A0D00F56A0D00ABEC11F034
:101A100004D03CEC11F0F0EC11F0060EF9DBF764A9
:101A200003D0ABEC11F004D03CEC11F0EE6AEF6A9D
:101A3000100EEEDBF76407D0F56A0D00F56A0D00B5
:101A4000ABEC11F004D03CEC11F0F0EC11F0140E02
:101A5000DFDBF76407D0F56A0D00F56A0D00ABEC2B
:101A600011F004D03CEC11F0F0EC11F0080ED0DBDA
:101A7000F76407D0F56A0D00F56A0D00ABEC11F0C4
:101A800003D0FADBF0EC11F00C0EC2DBF76407D0E8
:101A9000F56A0D00F56A0D00ABEC11F003D0ECDB3C
:101AA000F0EC11F0180EB4DBF76403D0ABEC11F0DE
:101AB00003D0E2DBEE6AEF6A1C0EAADBF76403D008
:101AC000ABEC11F003D0D8DBEE6AEF6A010E000137
:101AD00073D2340E9DDBF76403D00800F55002D0BA
:101AE000CBDBEF50000901E056D7350E91DBF764F0
:101AF00004D0040EF56E0C0003D0BEDB040EEF6EB6
:101B0000EBEC11F0A2EC12F0000901E168D3020E37
:101B10007FDBF76407D0F56A0D00F56A0D00ABECCA
:101B200011F003D0A9DBF0EC11F0060E71DBF764C5
:101B300003D0ABEC11F003D09FDBEE6AEF6A100E1E
:101B400067DBF76407D0F56A0D00F56A0D00ABECB2
:101B500011F003D091DBF0EC11F0140E59DBF764B7
:101B600006D0F56A0D00F56A0D00F5DB03D084DBC5
:101B7000F0EC11F0080E4CDBF76406D0F56A0D00AE
:101B8000F56A0D00E8DB03D077DBF0EC11F00C0E0A
:101B90003FDBF76406D0F56A0D00F56A0D00DBDB6C
:101BA00003D06ADBF0EC11F0180E32DBF76402D0E0
:101BB000D2DB03D061DBEE6AEF6A1C0E29DBF7642F
:101BC00002D0C9DB03D058DBEE6AEF6A7FD7000191
:101BD000D35101E19FD6040A01E100D6010A01E1D7
:101BE00088D50C0A01E1DDD6030A01E1DAD6060A3E
:101BF00001E16FD7F4D2020E0BDBF76402D053DBA6
:101C000002D03ADB96DB39EC12F009E13EEC12F03F
:101C100006E148EC12F003E14DEC12F0D8A4DFD25B
:101C20000C0EF6DAF76402D03EDB02D025DB81DB56
:101C300089EC12F009E18EEC12F006E175EC12F07D
:101C400003E17FEC12F0D8A4CAD2140EE1DAF764F3
:101C500002D029DB02D010DB6CDB0101F051000166
:101C6000C65D0101F1510001C7590101F2510001A6
:101C7000C8590101F3510001C95901E3B0D2100E56
:101C8000C7DAF76402D00FDB02D0F6DA52DB43DBAF
:101C90000101F0510001CA5D0101F1510001CB5970
:101CA0000101F2510001CC590101F3510001CD595C
:101CB00001E2ACD0100EACDAF76403D0090000DB0F
:101CC00005D0DADAEECFC6F0EECFC7F00101F05161
:101CD0000001C65DD16F0101F1510001C759D26FFA
:101CE000250E96DAF76403D00900EADA05D0C4DAE3
:101CF000EECFC6F0EECFC7F00001D151C65FD25192
:101D0000C75B250EE3DAF76402D044DB02D0B4DA15
:101D1000A0DB270E7DDAF76403D00900D1DA05D005
:101D2000ABDAEECFC6F0EECFC7F00001D151C62737
:101D3000D251C723270ECADAF76402D02BDB02D0B8
:101D40009BDA87DB270E64DAF76403D00900B8DA80
:101D500005D092DAEECFC6F0EECFC7F00001C65143
:101D6000C71114E1290E54DAF76403D00800F550C6
:101D700002D082DAEF50020A09E1290E49DAF7644B
:101D800003D0F56A0C0002D077DAEF6A21EEF0F0AA
:101D9000FF0EDE240001C46FFF0EDE20C56FFF0EB4
:101DA000DE20C66FFF0EDE20C76F140E8FDAF764D9
:101DB00003D0F7DAEFDA02D05FDA36DB100E28DA7A
:101DC000F76402D0F5DA02D057DA3ADB0101DD51CF
:101DD000DE1101E104D2080ED5250001C46FF0EC3C
:101DE0001EF0C56FC4C0F6FFC5C0F7FF000EF86E49
:101DF0000F0EF76402D0B4DA02D03EDAFFDADDC1AA
:101E0000B6F0DEC1B7F00DEC1EF0E9D1350E00DA08
:101E1000F76404D0140EF56E0C0003D02DDA140E06
:101E2000EF6ED9DAA2EC12F05EEF0AF0350EF0D9BF
:101E3000F76404D0010EF56E0C0003D01DDA010E1C
:101E4000EF6EA6D5100EE4D9F76402D0B1DA02D055
:101E500013DAF6DA0C0EDCD9F76402D024DA02D0F9
:101E60000BDA67DA58DA0C0E71DAF0EC1EF0CFDA22
:101E7000F76402D082DA02D0FFD9B7DA360EC8D9B9
:101E8000F76404D0040EF56E0C0003D0F5D9040EEF
:101E9000EF6E300EBDD9F76402D097DA02D0ECD9DC
:101EA000E4DA320EB5D9F76402D08FDA02D0E4D981
:101EB000DCDA340EADD9F76404D0050EF56E0C00F3
:101EC00003D0DAD9050EEF6E350EA2D9F76404D02F
:101ED000110EF56E0C0003D0CFD9110EEF6E090E66
:101EE00058D5340E95D9F76403D00800F55002D0C8
:101EF000C3D9EF50000901E04ED5350E89D9F764FA
:101F000004D0040EF56E0C0003D0B6D9040EEF6EAB
:101F100062DAA2EC12F05EEF0AF00001D35186E023
:101F2000040A01E168D6020A8DE0010A8BE00E0A7C
:101F300002E132EF09F0030A02E132EF09F0060A8A
:101F4000D0E04DD1350E64D9F76404D0100EF56E93
:101F50000C0003D091D9100EEF6E3DDAA2EC12F016
:101F6000000901E13CD1080E27D0300E51D9F764A9
:101F700002D02BDA02D080D978DA340E49D9F7644E
:101F800004D0010EF56E0C0003D076D9010EEF6E71
:101F9000060E9DD5350E3CD9F76404D0100EF56EB3
:101FA0000C0003D069D9100EEF6E15DAA2EC12F016
:101FB000000901E114D10A0ED46F11D1340E28D9D1
:101FC000F76403D00800F55002D056D9EF5000094D
:101FD00001E0E1D4350E1CD9F76404D0040EF56E8F
:101FE0000C0003D049D9040EEF6EF5D9A2EC12F023
:101FF0005EEF0AF00001D351040AB7E0020AA2E042
:10200000010AC8E00B0ADAE0EAD0E5D9A2EC12F046
:10201000CFD7340EFDD8F76403D00800F55002D0B6
:102020002BD9EF50000901E0B6D4350EF1D8F76492
:1020300004D0040EF56E0C0003D01ED9040EEF6E12
:10204000CAD9A2EC12F05EEF0AF00001D351060AE1
:10205000DCE00A0ADEE0C3D00001D351040AABE0A1
:10206000BED0020ED5D8F76402D01DD902D004D953
:1020700060D9FFD906E102DA04E10ADA02E10DDAF9
:10208000D8A4ADD0060EC4D8F76403D0090018D97F
:1020900005D0F2D8EECFC6F0EECFC7F035DA02E1C8
:1020A00029DA9AD09CD0340EB3D8F76403D0080054
:1020B000F55002D0E1D8EF50000901E06CD4350EA4
:1020C000A7D8F76404D0040EF56E0C0003D0D4D862
:1020D000040EEF6E80D9A2EC12F05EEF0AF0000160
:1020E000D351040ABEE0030ABCE00B0ADCE077D05F
:1020F000300E8ED8F76402D068D902D0BDD8B5D9D9
:10210000320E86D8F76402D060D902D0B5D8ADD9E6
:10211000340E7ED8F76404D0030EF56E0C0003D0A5
:10212000ABD8030EEF6E350E73D8F76404D0020EF1
:10213000F56E0C0003D0A0D8020EEF6E4CD9A2ECC5
:1021400012F0020ED46F010ED06F49D0020E60D88B
:10215000F76406D0F56A0D00F56A0D00FCD802D0D0
:102160008BD83ED9060E54D8F76402D0F4D803D0E9
:1021700083D8EE6AEF6A010E0001E4D70001D35163
:10218000010AB6E0030AE2E02AD02A0E41D8F76439
:1021900003D00800F55002D06FD8EF50000AEEE0EF
:1021A000010A02E13CEF09F0030A02E162EF0BF0E1
:1021B000010A01E10CD5070A01E1AFD6010A01E1EC
:1021C00019D7030A01E141D7010A09E00F0A01E129
:1021D00043D7010A84E0030A02E132EF09F02B0E33
:1021E00017D8F76404D00D0EF56E0C0003D044D858
:1021F0000D0EEF6E2A0E0CD8F76404D0D4C0F5FF94
:102200000C0003D039D8D4C0EFFF0001D051120028
:102210000101D5250001C46F000E0101D621000186
:10222000C56FC4C0F6FFC5C0F7FF000EF86E0F0EF5
:1022300012000001C46F000E0101ED210001C56F05
:10224000000E0101EE210001C66F000E0101EF2119
:102250000001C76F0C0E0101D5250001C86F000EEB
:102260000101D6210001C96FC8C0F6FFC9C0F7FF40
:10227000000EF86E0F0E1200F6CFE9FFF7CFEAFF5F
:102280001200100E0101D5250001CE6F000E0101D4
:10229000D6210001CF6FCEC0F6FFCFC0F7FF000EF2
:1022A000F86E0F0E12000900F5CFC6F00900F5CF49
:1022B000C7F00900F5CFC8F00900F5CFC9F012004A
:1022C000F5CFC6F00900F5CFC7F012000101D52502
:1022D0000001C86F000E0101D6210001C96FC8C0FE
:1022E000F6FFC9C0F7FF000EF86E0F0E12000101D5
:1022F000F6510001C56FC46B21EEF6F0DECFC6F0DB
:10230000DDCFC7F0C7C0C6F0C76BC76BC451C613DB
:10231000C551C713180C010E0001C625CA6F000E67
:10232000C721CB6F000EC821CC6F000EC921CD6F25
:102330001200EECFC6F0EECFC7F0EECFC8F0EECF72
:10234000C9F01200010E0101EC2512000101D52592
:102350000001CE6F1200F56A0D00F56A0C00120044
:10236000ECC1F5FF0D00EDC1F5FF0D00EEC1F5FF6D
:102370000D00EFC1F5FF0C001200CAC0F5FF0D0003
:10238000CBC0F5FF0D00CCC0F5FF0D00CDC0F5FFB3
:102390000C001200C6C0F5FF0D00C7C0F5FF0C0011
:1023A0001200C4C0F5FF0D00C5C0F5FF0D001200FE
:1023B000F0C1F5FF0D00F1C1F5FF0D00F2C1F5FF11
:1023C0000D00F3C1F5FF0C001200020EF56E0D00BA
:1023D000F56A0C00020CD5C167F0D6C168F0120096
:1023E000EE6AEE6AEE6AEF6A1200CAC0EEFFCBC078
:1023F000EEFFCCC0EEFFCDC0EFFF1200ECC1EEFF50
:10240000EDC1EEFFEEC1EEFFEFC1EFFF1200CF6FA7
:10241000CEC0F6FFCFC0F7FF000EF86E0F0E120011
:10242000040E0001D46F360CC4C0EEFFC5C0EEFF31
:10243000C6C0EEFFC7C0EFFF1200040ED46F360C0B
:10244000F0C1EEFFF1C1EEFFF2C1EEFFF3C1EFFF0D
:102450001200C6C0EEFFC7C0EFFF1200E1C1F5FFDA
:102460000D00E2C1F5FF0C001200020EEE6EEF6AE5
:10247000020C0101CC510001C61912000101CD511D
:102480000001C71912000101F0510001CA19120020
:102490000101CE510001C81912000101CF51000104
:1024A000C9191200E1C1EEFFE2C1EFFF1200010104
:1024B000F1510001CB1912000101F2510001CC19B8
:1024C0001200D5C1F6FFD6C1F7FF000EF86E0F0E51
:1024D00012000101F3510001CD1912000900F5CFDE
:1024E000C4F00900F5CFC5F012000101EE51000162
:1024F000C81912000101E9510001C71912000101B8
:10250000EF510001C91912000101E8510001C6197B
:1025100012000101EC510001C61912000101ED5138
:102520000001C7191200EECFC4F0EECFC5F01200C3
:102530000101EB510001C51912000101EA5100012E
:10254000C41912005DDBF76407D00900F5CF69F00C
:102550000900F5CF6AF006D03CEC11F0EECF69F03F
:10256000EECF6AF0000169516C6F6B6B49DBF76469
:1025700002D08DDA03D03CEC11F035DB6EC06DF08B
:1025800000016E6B6E6B6B516D11A26F6C516E1111
:10259000A36F060E2CDAF76402D060DA03D03CECAD
:1025A00011F070DA4EDB060EA2DAF76402D037DBE8
:1025B00003D03CEC11F04ADB1BDBA46F6E517211AF
:1025C000A56F100E14DAF76403D048DA60DA04D08D
:1025D0003CEC11F057DA07DBD8DA100E46DAF76474
:1025E00002D09FDA03D03CEC11F0E2DA57DA100E99
:1025F0008BDAF76402D0A2DA03D03CEC11F0E1DA16
:102600005BDA100EB5DAF76402D0A5DA03D03CEC41
:1026100011F0E0DAF9D9A66F70519611A76F7151D8
:102620009711A86F72519811A96F0C0EE0D9F76439
:1026300003D014DA2CDA04D03CEC11F023DAD3DA2C
:10264000A4DA0C0E12DAF76402D06BDA03D03CEC99
:1026500011F0AEDA23DA0C0E57DAF76402D06EDA34
:1026600003D03CEC11F0ADDA27DA0C0E81DAF76416
:1026700002D071DA03D03CEC11F0ACDAC5D9AA6F04
:1026800070519611AB6F71519711AC6F72519811D7
:10269000AD6FAE91F10EAE17AE510F0B5009AE6F8C
:1026A0001A0EA5D9F76402D0D9D903D03CEC11F0A9
:1026B000E9D9C7DA1A0E1BDAF76402D0B0DA03D010
:1026C0003CEC11F0C3DA94DAB06F6E517211B16F55
:1026D000B26BB36BB46BB56B350E89D9F76403D0AD
:1026E0000800F55003D03CEC11F0EF5000016B6F87
:1026F000060E6B1703E0A06BA16B94D0270E77D961
:10270000F76402D04EDA03D03CEC11F08FDA00010E
:10271000A051A11101E186D0180E69D9F76402D049
:102720009DD903D03CEC11F0ADD985DA09E2180E41
:102730005ED9F76402D035DA03D03CEC11F076DADA
:102740001C0E000154D9F76402D088D903D03CECA8
:1027500011F098D970DA09E21C0E49D9F76402D059
:1027600020DA03D03CEC11F061DA250E00013FD9EC
:10277000F76407D00900F5CF99F00900F5CF9AF07A
:1027800006D03CEC11F0EECF99F0EECF9AF0250E8A
:1027900000012DD9F76402D061D903D03CEC11F0CF
:1027A00071D90001A0516B27A1516C23250E92D93C
:1027B000F76402D02DDA03D03CEC11F050DA270E8A
:1027C000000115D9F76402D049D903D03CEC11F0CF
:1027D00059D90001A0516B5FA1516C5B270E7AD9CA
:1027E000F76402D015DA03D03CEC11F038DA270E8A
:1027F0000001FDD8F76402D031D903D03CEC11F0D0
:1028000041D900016B516C110DE1350EF0D8F76420
:1028100005D0080E0800F5120C0004D03CEC11F0B5
:10282000080EEF12350E0001E2D8F76403D008005D
:10283000F55003D03CEC11F0EF500001AF6F140ED7
:10284000A0259D6F000EA1219E6F020ED0D8F764C7
:102850000DD00900F5CF4AF00900F5CF4BF0090083
:10286000F5CF4CF00900F5CF4DF00AD03CEC11F05B
:10287000EECF4AF0EECF4BF0EECF4CF0EECF4DF076
:10288000060E4E6EC5EC20F09F6F9F513AE0A20EEF
:10289000036E046AE9D9AFEC2AF00001A051A1113E
:1028A0000AE099C003F09AC004F0A0C005F0A1C0EE
:1028B00006F0AFEC2AF0060E00019D259B6F000E7E
:1028C0009E219C6FC8D99D250C6E000E9E210D6E19
:1028D0009BC00EF09CC00FF071EC26F00AC09BF07C
:1028E0000BC09CF028EC2AF0320E0C6E9B0E2DECE7
:1028F0002AF09DC018F09EC019F0F7EC29F00001F5
:102900009F6F9F513EE1340E72D8F76403D00800E8
:10291000F55003D03CEC11F0EF5000016B6F6B2BC6
:10292000340E67256C6F000E68216D6F6CC0F6FF6A
:102930006DC0F7FF000EF86E0F0EF76404D06BC089
:10294000F5FF0C0004D03CEC11F06BC0EFFF300E33
:1029500000014DD8F76402D081D803D03CEC11F0CF
:1029600091D800016B516C113FE1300E40D8F764F3
:1029700003D0E5EC11F004D03CEC11F035EC12F092
:1029800033D0100E34D8F76403D068D880D804D080
:102990003CEC11F077D827D90001A0516B256F6F5F
:1029A000A1516C21706F000E6D21716F000E6E21B0
:1029B000726F100E5AD8F7640DD06FC0F5FF0D007E
:1029C00070C0F5FF0D0071C0F5FF0D0072C0F5FF7E
:1029D0000C000AD03CEC11F06FC0EEFF70C0EEFFAF
:1029E00071C0EEFF72C0EFFF00019F51120067251A
:1029F000696F000E68216A6F69C0F6FF6AC0F7FF51
:102A0000000EF86E0F0E120000018D6B8E6B8F6B37
:102A10008C51906F190E05D0D89090338F338E3330
:102A20008D33E82EF9D783518D11916F84518E111A
:102A3000926F85518F11936F86519011946F7951D8
:102A40009111956F7A519211966F7B519311976FF7
:102A50007C519411986F6F51951112000900F5CFB8
:102A60006BF00900F5CF6CF012006725736F000E54
:102A70006821746F73C0F6FF74C0F7FF000EF86E24
:102A80000F0E1200EECF6BF0EECF6CF012000900CB
:102A9000F5CF6DF00900F5CF6EF012000001796BF3
:102AA00076517A6F7B6B7C6B7BC07CF07AC07BF05D
:102AB00079C07AF0796B120080C07FF081C080F01D
:102AC00082C081F00001826B836B8051846F856BC3
:102AD000866B120067256D6F000E68216E6F6DC0EA
:102AE000F6FF6EC0F7FF000EF86E0F0E120067259E
:102AF0006F6F000E6821706F6FC0F6FF70C0F7FF38
:102B0000000EF86E0F0E120067257D6F000E682113
:102B10007E6F7DC0F6FF7EC0F7FF000EF86E0F0ED1
:102B200012000900F5CF75F00900F5CF76F0090025
:102B3000F5CF77F00900F5CF78F012000900F5CF56
:102B40007FF00900F5CF80F00900F5CF81F0090092
:102B5000F5CF82F012000900F5CF89F00900F5CF1A
:102B60008AF00900F5CF8BF00900F5CF8CF0120048
:102B70006725876F000E6821886F87C0F6FF88C0C1
:102B8000F7FF000EF86E0F0E120000016B516F6F11
:102B9000706B716B726B6FC072F0716B706B6F6B7F
:102BA00012000900F5CFA0F00900F5CFA1F0120046
:102BB000EECF75F0EECF76F0EECF77F0EECF78F087
:102BC0001200EECF7FF0EECF80F0EECF81F0EECFAF
:102BD00082F01200EECF89F0EECF8AF0EECF8BF0CC
:102BE000EECF8CF01200EECF6DF0EECF6EF0120053
:102BF00072C071F00001726B726B6D517111120035
:102C000067C0F6FF68C0F7FF000EF86E0F0E1200E7
:102C10006BC0F5FF0D006CC0F5FF0C001200090041
:102C2000F5CF71F00900F5CF72F01200EECFA0F0F1
:102C3000EECFA1F012000001A0516B5DA1516C59C3
:102C4000120000016B516E6F6D6B1200EECF71F0D0
:102C5000EECF72F012000B6A1A0E0A6E080C6BC0EF
:102C6000EEFF6CC0EFFF1200066A140E056E140C26
:102C70005A6A0101CC6BCD6BCE6BCF6BDD6BDE6B1B
:102C8000E80E036E010EEDD97FEC29F00101D56B42
:102C9000D66BEA51EB11D8B41200E851E911D8B45F
:102CA0001200E8510001DC6FDB6B0101E95100010A
:102CB000DD6FEBD9E86FCBD9E96FEA510001DC6F2A
:102CC000DB6B21EEEAF0DECFDDF0DDCFDEF0DEC043
:102CD000DDF0DE6BDAD9EA6FBAD9EB6FDFC15BF0FA
:102CE000E0C15CF043D05BC0F6FF5CC0F7FF000EB4
:102CF000F86E0F0EF76407D00900F5CFDBF009007E
:102D0000F5CFDCF006D03CEC11F0EECFDBF0EECFEF
:102D1000DCF00001DB510101EA190AE10001DC519C
:102D20000101EB1905E15BC0D5F15CC0D6F12BD0F8
:102D30002C0E5B240001DB6F000E5C20DC6FDBC01F
:102D4000F6FFDCC0F7FF000EF86E0F0EF76407D039
:102D50000900F5CF5BF00900F5CF5CF006D03CEC44
:102D600011F0EECF5BF0EECF5CF05A2A5B505C10B6
:102D70000AE05A50800A0001DB6F0101E751800A26
:102D80000001DB5DB0E30101D551D611D8B41200CA
:102D9000060EEAD8F76402D053D903D03CEC11F008
:102DA0005BD90101E8510001DD1905E10101E9519B
:102DB0000001DE191BE0020E0101D6D8F76408D02D
:102DC0003FD90900F5CFDFF00900F5CFE0F007D0DB
:102DD0003CEC11F041D9EECFDFF0EECFE0F0000196
:102DE000DD51DE11DF11E011D8A41200D5C0CCF105
:102DF000D6C0CDF1D7C0CEF1D8C0CFF10101F439A2
:102E00000F0B0001DB6FDC6BD890DB37DC37D89021
:102E1000DB37DC37DB51D95D0101DD6F0001DC51AF
:102E2000DA590101DE6FEAEC24F0E806D8A41200BA
:102E30000101F5A31CD0F5A90DD02B0E95D8F76490
:102E400004D0050EF56E0C0004D03CEC11F0050E1C
:102E500048D057D02B0E88D8F76404D0030EF56EF7
:102E60000C0004D03CEC11F0030E3BD04AD0F5A18D
:102E70001CD0F5A90DD02B0E77D8F76404D0070E1F
:102E8000F56E0C0004D03CEC11F0070E2AD039D0BE
:102E90002B0E6AD8F76404D0060EF56E0C0004D031
:102EA0003CEC11F0060E1DD02CD0F5A51CD0F5A9D8
:102EB0000DD02B0E59D8F76404D00A0EF56E0C0015
:102EC00004D03CEC11F00A0E0CD01BD02B0E4CD8C9
:102ED000F76404D0090EF56E0C0004D03CEC11F040
:102EE000090EEF6E0ED0F5A90CD02B0E3DD8F7646D
:102EF00004D0040EF56E0C0004D03CEC11F0040E6E
:102F0000EF6E0101F05191D821EEF0F06DD8F0C1D3
:102F1000E3F0F1C1E4F0F2C1E5F0F3C1E6F078D8F6
:102F200021EEF0F031D8F06FA6D8F16FA9D8F26F8A
:102F30009DD8F36FEC5179D821EEECF055D8ECC167
:102F4000E3F0EDC1E4F0EEC1E5F0EFC1E6F060D8EA
:102F500021EEECF019D8EC6F8ED8ED6F91D8EE6FB2
:102F600085D8EF6F5AEF08F0D5250001DB6F000E12
:102F70000101D6210001DC6FDBC0F6FFDCC0F7FFEA
:102F8000000EF86E0F0E1200DE14EB6F000EDE1452
:102F9000EC6F000EDE14ED6FFF0EDE14EE6F190EF7
:102FA00005D0D890EE33ED33EC33EB33E82EF9D780
:102FB000E751EB11EF6FE851EC11F06FE951ED11B2
:102FC000F16FEA51EE11F26FDF51EF11F36FE05143
:102FD000F011F46FE151F111F56FE251F211F66F5A
:102FE000DB51F31101011200000EDE14DF6FFF0E42
:102FF000DE14E06F000EDE14E16F000EDE14E26FEF
:10300000E1C0E2F0E0C0E1F0DFC0E0F0DF6B120011
:10301000E4C0E3F0E5C0E4F0E6C0E5F0E66BE76BA2
:10302000E451E86FE96BEA6B000C0001DB6FDC6BCD
:10303000DD6BDE6BDBC0DEF0DD6BDC6BDB6B1200AF
:103040000900F5CFDDF00900F5CFDEF01200000138
:10305000DC51DE1101011200EECFDDF0EECFDEF02B
:103060001200046E066A140E056E140C0001DE5187
:10307000F611010112000001DC51F41101011200EE
:103080000001DD51F51101011200DE6BDB51DD1194
:1030900001011200380E036E046A066A1C0E056EEA
:1030A0007FEC29F003C02EF004C02FF01C0E2E1868
:1030B0002F10D8A41200306A87D9080E346E20EE83
:1030C00006F07DD9DE5046181AE1DE50471817E1A8
:1030D000DE50481814E1DE50491811E120EE0AF0E4
:1030E0006ED9DE503A180BE1DE503B1808E14CD99E
:1030F000DBCFE3FFE806FCE2010E306E07D00D0ED9
:103100003626000E372234063450D9E182EC21F005
:10311000D8B4120050502ED920EE50F017D950C01C
:1031200016F051C017F052C018F053C019F03AD938
:1031300020EE50F0D2D8C4512A1809E1C5512B18FD
:1031400006E1C6512C1803E1C7512D18D8A412006E
:10315000305049E139D92C0E326E020E336E080E12
:10316000356E20EE0CF03250D9263350DA2210EEB4
:103170000CF03650E1263750E222DE50E65C04E2E5
:1031800032C036F033C037F00D0E3226000E332237
:1031900035063550E6E1F8D8DBCFE3FFE806FCE280
:1031A0004650E8D820EE46F0D1D846C016F047C0C9
:1031B00017F048C018F049C019F0F4D820EE46F0D6
:1031C0008CD820EE06F0FBD82AC0DEFF2BC0DEFF35
:1031D0002CC0DEFF2DC0DEFF20EE0AF0F0D83AC092
:1031E000DEFF3BC0DDFF3F043E10D8A41200400EBE
:1031F000086E096AA1EC23F088EC21F0316E3104ED
:10320000D8A4120020EE40F010EE4AF0050EDBCFFD
:10321000E3FFE806FCE2380E080FBEEC2BF046C0D8
:1032200050F047C051F048C052F049C053F001017E
:10323000C451A0D8126AC551136E146A156A14C01D
:1032400015F013C014F012C013F0126A166AC651BA
:10325000176E186A1650196E17501A6E18501B6E9A
:103260001C6A1D6A1E6A1F6AC751206E190E05D09E
:10327000D89020321F321E321D32E82EF9D7195055
:103280001D10216E1A501E10226E1B501F10236E2F
:103290001C502010246E12502110256E1350221045
:1032A000266E14502310276E15502410286E0E50D1
:1032B0002510466E0F502610476E10502710486E8E
:1032C00011502810496E020E3F6E3E6A380E95EC82
:1032D00023F0AFEC2AF0FDEF2CF0DE141E6E000E92
:1032E000DE141F6E000EDE14206EFF0EDE14216E43
:1032F000190E05D0D890213220321F321E32E82E0E
:10330000F9D71A501E10226E1B501F10236E1C502E
:103310002010246E1D502110256E12502210266E92
:1033200013502310276E14502410286E15502510AA
:10333000296E0E5026102A6E0F5027102B6E10503B
:1033400028102C6E115029102D6E1200000EDE1464
:10335000126EFF0EDE14136E000EDE14146E000EDD
:10336000DE14156E14C015F013C014F012C013F063
:10337000126A12000E6E0F6A106A116A0EC011F006
:10338000106A0F6A0E6A120020EE0CF03650D92631
:103390003750DA22DF6A20EE40F036C0E1FF37C056
:1033A000E2FF050C17C016F018C017F019C018F08E
:1033B000196A1A6A17501B6E1C6A1D6A000C365077
:1033C000D9263750DA2212002C0E366E020E376ED6
:1033D00012000001F86BF96B136A140E126E156A75
:1033E000146A5BEC2AF04ED901E01200940E036ED1
:1033F000020E31EC18F07FEC29F0020194390F0B2A
:10340000040A01E01200A45145D922EEA4F003D928
:10341000A4C208F1A5C209F1A6C20AF1A7C20BF124
:1034200017D922EEA4F0C7D8A46F4ED9A56F3DD905
:10343000A66F45D9A76FA0512DD922EEA0F0EBD8E9
:10344000A0C208F1A1C209F1A2C20AF1A3C20BF104
:10345000FFD822EEA0F0AFD8A06F36D9A16F25D942
:10346000A26F2DD9A36F0101C4510201A4190FE16C
:103470000101C5510201A5190AE10101C65102016C
:10348000A61905E10101C7510201A71909E0A42904
:1034900006E1A52904E1A62902E1A729D8A4120082
:1034A00096510101016F006B22EE96F0DECF02F122
:1034B000DDCF03F103C102F1036B036B0051021175
:1034C0000201966F0101015103110201976FF2D8B9
:1034D000D8900037D89000350001F76F0201EAD884
:1034E000050E00655FD0EC0E0001F7250A6E0B6A31
:1034F000FF0E0B2227EC2BF055D00001F7510201F3
:10350000965D9DD8F8C012F0F9C013F0156A146AE0
:103510005BEC2AF0B7D8D8A41200940E716F020E9B
:10352000726F4DEF2BF00001F7510201965D87D8C5
:10353000D0D891EC27F099D85BEC2AF012C0FAF0C1
:1035400013C0FBF0FAC00CF0FBC00DF03EEF29F009
:103550000001F7510201965D72D8BBD891EC27F0BB
:1035600084D85BEC2AF08ED8D8A41200A0C224F232
:10357000A1C225F2A2C226F2A3C227F224C2D5F02C
:1035800025C2D6F026C2D7F027C2D8F0F8C0D9F0AD
:10359000F9C0DAF038EF16F096C20AF097C20BF0D5
:1035A00027EF2BF002019D51010AA7E0070AD0E0A6
:1035B000170AB9E0F1D7DE14106F000EDE14116F98
:1035C000000EDE14126FFF0EDE14136F190E05D0FD
:1035D000D8901333123311331033E82EF9D70C512E
:1035E0001011146F0D511111156F0E511211166F2C
:1035F0000F511311176F04511411186F0551151144
:10360000196F065116111A6F075117111B6F0051D0
:10361000181102011200000EDE14046FFF0EDE14FA
:10362000056F000EDE14066F000EDE14076F06C174
:1036300007F105C106F104C105F1046B1200000198
:10364000F86F02019751D8A097050001F96F120099
:1036500009C108F10AC109F10BC10AF10B6B0C6B2E
:1036600009510D6F0E6B0F6B000C02C0FAF003C016
:10367000FBF0F8C012F0F9C013F0FAC014F0FBC070
:1036800015F0120012C0FAF013C0FBF00001FA515D
:10369000FB1112000101006F016B026B036B00C193
:1036A00003F1026B016B006B1200010102511A1150
:1036B0000201120094510F0B0101006F1200010171
:1036C00003511B11020112000101015119110201E4
:1036D0001200F8C002F0F9C003F012001B6E1ED1F8
:1036E000250E1A1818E037D9DE50DE10DE100EE075
:1036F00032D901D813D10500FA6EDE50FD6EDE50CE
:10370000FE6EDE50FF6EFA501A50120018D91AC021
:10371000DFFF30D903D1176A50D0178E5FD021D97F
:10372000DECF15F0DECF16F01550161035E1AC0ED9
:10373000156E1550D8A4100E166E2ED00CD9DE5072
:10374000DE10DE101AE007D901D814D00500FA6E99
:10375000DE50FD6EDE50FE6EDE50FF6EFA5019D95F
:103760000F0EF76403D00800F55003D03CEC11F0C5
:10377000EF501200154A162A0FD00BD9E0D80F0EC1
:10378000F76403D00800F55003D03CEC11F0EF5083
:10379000DF6E154A162AEED8FCD80F0EF76403D058
:1037A0000800F55003D03CEC11F0EF50000901E1A6
:1037B000B5D0C4D7C00E171211D00E2A0E04B7D838
:1037C000F6D801E1B1D0640A09E00D0A07E01A0A4F
:1037D000A6E0060AEFE00D0AA0E0A0D017C010F0A6
:1037E000C00E10160BE1BDD8ECD819AE2CD0030ECC
:1037F0001712186C191ED8B0192A25D0B2D8E1D8E2
:1038000022D0010E1A6E1A50C0D891D80900F55076
:10381000185C0900F55019581DE31A2A050E1A18EC
:1038200019E0F1D7010E1A6E1A50ABD880D80900F2
:10383000F550185C0900F55019580CE31A2A040ECB
:103840001A1808E0F1D71750C00BDBE0800AEAE055
:10385000400AD7E017C010F0030E101616E07BD810
:10386000DE50DE10DE100DE076D801D80ED0050057
:10387000FA6EDE50FD6EDE50FE6EDE50FF6EFA50C8
:103880002D0C5DD82D0EDF6E75D81AC014F043D004
:1038900014507BD84CD884D88FD899EC2BF002C028
:1038A00009F003C00AF00C6A0A0E0B6E06EC2CF04D
:1038B0000950300F1A6E18D07FD8145062D837D8FC
:1038C0006FD899EC2BF002500F0B136E13505F0F53
:1038D0002ED80800F5CF1AF007D01750C00BD8E04B
:1038E000800AEAE0400AD4E036D8DE50DE10DE106E
:1038F0000EE031D801D80FD00500FA6EDE50FD6E13
:10390000DE50FE6EDE50FF6EFA501A50120017D8CD
:103910001AC0DFFF2FD814061428DFE10E2A0E0488
:1039200006D845D801E0DCD60E6A0F6A1200106E88
:1039300010C0F6FF100EF76E000EF86E12001B504E
:10394000D96EDA6ADECF10F0DDCF11F010C0D9FFEA
:1039500011C0DAFF12001B50D96EDA6A020ED926A6
:10396000020C0F50D96EDA6A020EDF26DF5CD96EC8
:10397000DA6A12001B50D96EDA6ADE2A000EDD22E6
:10398000000C020DF3500B0F1200020DF350010F4B
:10399000120015C0F6FF16C0F7FF000EF86E1200F9
:1039A0000900F5CF04F00A00F5CF05F01200080079
:1039B000F5CF1AF01A50120018C002F019C003F027
:1039C0001200DECF18F0DECF19F012000001DD6B1F
:1039D000DE6B0101D74BD82B040ED85D03E2040E39
:1039E000D86FD76BDFC1DFF0E0C1E0F0E8D0300E78
:1039F000FBD8F76402D005D903D03CEC11F008D90C
:103A00000001D751D81101E1C5D0D569D669300E72
:103A1000DF25D76F000EE021D86FD7C0F6FFD8C0E2
:103A2000F7FF000EF86E0F0EF76407D00900F5CF10
:103A3000D9F00900F5CFDAF006D03CEC11F0EECF6A
:103A4000D9F0EECFDAF00001D551D927D651DA23DB
:103A5000300EDF25DB6F000EE021DC6FDBC0F6FFF0
:103A6000DCC0F7FF000EF86E0F0EF76407D0D9C068
:103A7000F5FF0D00DAC0F5FF0C0006D03CEC11F0AC
:103A8000D9C0EEFFDAC0EFFF300E0001ADD8F76409
:103A900002D0B7D803D03CEC11F0BAD80001D7510E
:103AA000D81178E1340EA0D8F76403D00800F5509F
:103AB00003D03CEC11F0EF5000096CE02B0E00013C
:103AC00093D8F76403D00800F55003D03CEC11F014
:103AD000EF500D0A5FE1320E000186D8F76402D084
:103AE00090D803D03CEC11F093D8300E0001DF25C4
:103AF000D96F000EE021DA6FD9C0F6FFDAC0F7FF08
:103B0000000EF86E0F0EF76407D0D7C0F5FF0D005A
:103B1000D8C0F5FF0C0006D03CEC11F0D7C0EEFF8A
:103B2000D8C0EFFF340E00015FD8F76403D008005F
:103B3000F55003D03CEC11F0EF500001D76FD707E0
:103B4000340EDF25D86F000EE021D96FD8C0F6FF04
:103B5000D9C0F7FF000EF86E0F0EF76404D0D7C07F
:103B6000F5FF0C0004D03CEC11F0D7C0EFFF2B0E9A
:103B700000013AD8F76404D00C0EF56E0C0004D0A6
:103B80003CEC11F00C0EEF6EDFC0D5F1E0C0D6F1C9
:103B90005AEC08F02C0E000127D8F76407D0090072
:103BA000F5CFDFF00900F5CFE0F006D03CEC11F0E6
:103BB000EECFDFF0EECFE0F00001DD4BDE2B0001B9
:103BC000DF51E011D8B41200E7C1D5F0D66BD5BFF4
:103BD000D607D551DD5DDE51800AD76FD651800AF8
:103BE000D75901E204D71200DF25D56F000EE0217E
:103BF000D66FD5C0F6FFD6C0F7FF000EF86E0F0ED9
:103C000012000900F5CFD7F00900F5CFD8F0120067
:103C1000EECFD7F0EECFD8F01200220ED0D8F76456
:103C200003D00800F55003D03CEC11F0EF50E8064B
:103C3000D8A412001A0EC3D8F76402D0DBD803D080
:103C40003CEC11F0E7D80001B651BA5DB751BB5951
:103C500005E3B6C058F0B7C059F011D01A0EAFD86E
:103C6000F76407D00900F5CF58F00900F5CF59F0F7
:103C700006D03CEC11F0EECF58F0EECF59F0200E0C
:103C80009ED8F76407D00900F5CF03F00900F5CFFF
:103C900004F006D03CEC11F0EECF03F0EECF04F0D0
:103CA00058C005F059C006F07FEC29F0200E87D8E7
:103CB000F76402D09FD803D03CEC11F0ABD8585039
:103CC0000001BA275950BB23200E8FD889D899D824
:103CD000F76402D0A4D803D03CEC11F0A7D81A0E98
:103CE0006ED8F76402D086D803D03CEC11F092D89D
:103CF00058500001BA5F5950BB5B1A0E76D870D885
:103D000080D8F76402D08BD803D03CEC11F08ED869
:103D1000080E55D8F76408D06DD80900F5CFBCF06F
:103D20000900F5CFBDF007D03CEC11F073D8EECF11
:103D3000BCF0EECFBDF058500001BA25BE6F59500F
:103D4000BB21BF6F000EBC21C06F000EBD21C16F33
:103D50000C0E0101D5250001C26F42D8C36FC2C04D
:103D6000F6FFC3C0F7FF000EF86E0F0EF7640DD01C
:103D7000BEC0F5FF0D00BFC0F5FF0D00C0C0F5FFD0
:103D80000D00C1C0F5FF0C000AD03CEC11F0BEC024
:103D9000EEFFBFC0EEFFC0C0EEFFC1C0EFFF350EAB
:103DA0000ED8F76404D0100EF56E0C0004D03CEC75
:103DB00011F0100EEF6EEBEC11F0A2EF12F001011A
:103DC000D5250001B86F000E0101D6210001B96FA1
:103DD000B8C0F6FFB9C0F7FF000EF86E0F0E120064
:103DE000000E0101D621000112000101D5250001BC
:103DF000BC6F12000900F5CFBAF00900F5CFBBF097
:103E00001200BD6FBCC0F6FFBDC0F7FF000EF86E1C
:103E10000F0E1200EECFBAF0EECFBBF01200BAC018
:103E2000F5FF0D00BBC0F5FF0C001200BAC0EEFF9D
:103E3000BBC0EFFF12000001706F710EBEEC2BF0E3
:103E40006BEC26F06C6B440E6B6F6E6B430E6D6FFC
:103E5000D9EC2AF000016F6F6F05D8A41200036A35
:103E6000060E046E010E056E066E6BEC2DF0500E04
:103E7000036E480E046E430E056E4D0E066E6BEC1F
:103E80002DF0036A800E046E056A066A6BEC2DF055
:103E9000030E0001701904E199D86BEC2DF003D0EA
:103EA0008CD86BEC2DF092D86BEC2DF08FD86BEC9E
:103EB0002DF08CD86BEC2DF08ED8AFEC2AF0056A83
:103EC000CA0E046ED0EC2EF0630E036E530E046E19
:103ED000820E056E630E066E6BEC2DF0350EB6ECA1
:103EE0002EF0010EB6EC2EF000017051B6EC2EF063
:103EF000030E0001701919E1360EB6EC2EF0040E17
:103F0000B6EC2EF01CC203F01DC204F01EC205F078
:103F10001FC206F06BEC2DF0320EB6EC2EF0040E44
:103F2000B6EC2EF04AD86BEC2DF0370EB6EC2EF036
:103F3000040EB6EC2EF0010EB6EC2EF0030EB6EC2D
:103F40002EF0060EB6EC2EF00F0EB6EC2EF0390E5B
:103F5000B6EC2EF0020EB6EC2EF0020E046E036AE2
:103F6000CDEC2DF00C0EB6EC2EF0140EB6EC2EF0BF
:103F7000130E036E0350D8A4100E046E34EC16F02A
:103F8000AFEC2AF03D0EB6EC2EF0070EB6EC2EF09C
:103F9000010EB6EC2EF01FD8AFEC2AF0FF0EB6ECF7
:103FA0002EF0000EB6EC2EF072EC28F00001700539
:103FB000D8A41200030E5D6E030CC4C103F0C5C18A
:103FC00004F0C6C105F0C7C106F01200036A046A16
:103FD000056A066A1200710E036E046A066A060E0E
:103FE000056E060C0101B591B595B599B59BB86BF9
:103FF000B96BE56BD00E00D0E82EFDD700F055EC84
:104000002FF0880E106E460EE82EFED7102EFCD72D
:1040100000D0FD0E33EC2EF0106E10A0FAD7010187
:10402000D96BDA6B800E056EFE0E70EC2EF03CEC58
:1040300022F0040E9AEC2CF01F0E066E0568060E98
:104040009AEC2CF0066A056A080E9AEC2CF094ECB7
:104050002BF00A0E9AEC2CF088EC2BF09AEC2CF05A
:10406000000E066A056A9AEC2CF03CEC22F0020E77
:104070009AEC2CF0A90E056E580E52EC2EF06DEC59
:104080002FF0106E10C0D0F10101D051D8A4100E45
:10409000D16FD151D8A4000ED26F0D0E056E800ED7
:1040A00052EC2EF0220E056E820E52EC2EF0400ED7
:1040B000056E830E52EC2EF00C0E066E120E056E7F
:1040C000860E9AEC2CF0120E056E840E52EC2EF039
:1040D000050E066EDC0E056E8A0E9AEC2CF034ECA2
:1040E00022F0F5CF05F0C40E52EC2EF000F0010ED8
:1040F0003FD8C50E52EC2EF000F0020E39D8C20E99
:1041000052EC2EF000F0030E33D8C30E52EC2EF01A
:1041100000F0040E2DD8C00E52EC2EF000F0050E6B
:1041200027D8C10E52EC2EF000F0040E056EFF0EE3
:1041300052EC2EF0000E096A086AE6EC2CF0010E33
:10414000096E086A100EE6EC2CF0040E096E720E71
:10415000086E140EE6EC2CF0DB0E056EFB0E52EC36
:104160002EF0066A120E056E9AEC2CF0DCEF2EF0A3
:104170000101D025F66E000ED121F76E000ED2217E
:10418000F86E0800F5CF05F012000001666BBAD892
:1041900003E1110E4E1862E1C40505E17F0EC71957
:1041A000C511C6115BE04A2806E14B2804E14C2802
:1041B00002E14D2856E0C451C8154F6EC551C915CE
:1041C000506EC651CA15516EC751CB15526E4A502A
:1041D000C815536E4B50C915546E4C50CA15556EC8
:1041E0004D50CB15566E4F50531812E15050541885
:1041F0000FE1515055180CE15250561809E14AC0D0
:1042000060F04BC061F04CC062F04DC063F008D06C
:1042100020C260F021C261F022C262F023C263F0CA
:1042200060C002F061C003F062C004F063C005F03A
:1042300000EC2BF002C064F003C065F00001645193
:10424000651116E160C00EF061C00FF062C010F0A1
:1042500063C011F0F6EC22F00001666F00016651B8
:104260001200370E0001646F6451D8A4100E656F00
:1042700064C008F065C009F0080E0B6E0A6A88EC8D
:1042800021F00001666F6605E9E1450E046E036AE0
:10429000CDEC2DF0046A036ACDEC2DF0036A400EDC
:1042A000046E550E056EAA0E066E6BEC2DF0400ED8
:1042B000B6EC2EF04E50B6EC2EF0046A036ACDEC4C
:1042C0002DF0DDEC1FF06BEC2DF04AC003F04BC07D
:1042D00004F04CC005F04DC006F06BEC2DF0C4C1ED
:1042E000A0F2C5C1A1F2C6C1A2F2C7C1A3F24AC0E1
:1042F000A4F24BC0A5F24CC0A6F24DC0A7F24EC02E
:104300009DF2ACD70101C451C511C611C7111200ED
:104310000101B5BB030CFF0E33EC2EF00C6E0CB696
:10432000040CAAD8040E9AEC2CF0A6D8020E9AEC33
:104330002CF00101D36BD46B8C967A0E42EC2FF0EB
:10434000000E42EC2FF008C0F6FF09C0F7FF000E88
:10435000F86E0F0EF76403D00800F55003D03CEC64
:1043600011F0EF5042EC2FF0082872D8F76403D018
:104370000800F55003D03CEC11F0EF5042EC2FF068
:10438000020E082465D8F76403D00800F55003D066
:104390003CEC11F0EF5042EC2FF0030E082458D8FB
:1043A000F76403D00800F55003D03CEC11F0EF5057
:1043B00042EC2FF0040E08244BD8F76403D0080019
:1043C000F55003D03CEC11F0EF5042EC2FF0050E0D
:1043D00008243ED8F76403D00800F55003D03CEC25
:1043E00011F0EF5042EC2FF03FD8F55042EC2FF097
:1043F000010E010122D842EC2FF0020E01011DD85E
:1044000042EC2FF0030E010118D842EC2FF0040EFD
:10441000010113D842EC2FF0050E01010ED842EC39
:104420002FF00B5042EC2FF00A5042EC2FF08C860C
:104430000F0EDBEC2DF0B58B010CD025F66E000EC7
:10444000D121F76E000ED221F86E0800F55012004F
:104450000C6E000E09200D6E0CC0F6FF0DC0F7FFAC
:10446000000EF86E0F0E1200D0C1F6FFD1C1F7FF9B
:10447000D2C1F8FF080012001A0E066E230E056E58
:10448000230C020EA6D8F76407D0F56A0D00F56A72
:104490000D00ABEC11F004D03CEC11F0F0EC11F09D
:1044A000060E97D8F76403D0ABEC11F004D03CECC7
:1044B00011F0EE6AEF6A100E8CD8F76407D0F56A37
:1044C0000D00F56A0D00ABEC11F004D03CEC11F0DE
:1044D000F0EC11F0140E7DD8F76407D0F56A0D00EA
:1044E000F56A0D00ABEC11F004D03CEC11F0F0ECEF
:1044F00011F0080E6ED8F76407D0F56A0D00F56A62
:104500000D00ABEC11F004D03CEC11F0F0EC11F02C
:104510000C0E5FD8F76407D0F56A0D00F56A0D0040
:10452000ABEC11F004D03CEC11F0F0EC11F0180EF3
:1045300050D8F76403D0ABEC11F004D03CEC11F090
:10454000EE6AEF6A300E45D8F76403D0ABEC11F099
:1045500004D03CEC11F0EE6AEF6A320E3AD8F76400
:1045600003D0ABEC11F004D03CEC11F0EE6AEF6A32
:10457000340E2FD8F76403D0F56A0C0003D03CEC5E
:1045800011F0EF6A350E25D8F76403D0F56A0C00F8
:1045900003D03CEC11F0EF6A02C0F6FF03C0F7FF56
:1045A000000EF86E0F0EF76403D0ABEC11F004D0E0
:1045B0003CEC11F0EE6AEF6A360E0BD8F76404D0CB
:1045C000010EF56E0C0004D03CEC11F0010EEF6E04
:1045D00012000224046E000E0320056E04C0F6FFD4
:1045E00005C0F7FF000EF86E0F0E1200010E2F6EC1
:1045F0002E6A316A080E306E060E326E040E336E6D
:10460000010E356E346A2E0E080FBEEC2BF0010140
:10461000C45180D8C55172D8C65163D8C751246ED1
:10462000190E01D088D8E82EFDD740D83C6E135023
:104630002A103D6E14502B103E6E15502C103F6EFC
:104640000E5068D80F505AD810504BD81150246EC5
:10465000190E01D070D8E82EFDD728D8466E135019
:104660002A10476E14502B10486E15502C10496EAE
:10467000406A416A426A436A446A456A370E086E74
:104680000850D8A4100E096E5CD888EC21F02D6E6D
:104690002D040AE12E0E49D8AFEC2AF0FDEC2CF0E7
:1046A0002D6E2D0401E1050C2D5012001D5021101E
:1046B000256E1E502210266E1F502310276E20508C
:1046C0002410286E16502510296E175026102A6EB9
:1046D000185027102B6E195028102C6E12502910CC
:1046E00012001B6E1C6A1A501D6E1B501E6E1C5051
:1046F0001F6E206A216A226A236A1200176E186AE6
:10470000196A18C019F017C018F016C017F0166A09
:104710001A6A1200126E136A146A156A12C015F032
:10472000146A136A126A166A1200036E046A066A31
:104730001C0E056E1C0CD8902432233222322132FA
:104740001200080E0B6E060E0A6E060C706F00014A
:104750006F6B20EE0CF09BD8DECF4AF0DECF4BF033
:10476000DECF4CF0DECF4DF020EE09F090D8DF50D8
:104770004E6EC5EC20F06F6F6F056BE120EE02F01E
:1047800086D8DECF57F0DDCF58F0EC0E57246D6F92
:10479000FF0E58206E6F67C0D9FF68C0DAFFDF5088
:1047A0000F0B576E586AD89057365836D8905736F0
:1047B000583620EE02F06BD8DECF59F0DDCF5AF03C
:1047C0005750595C6D6F58505A586E6F046A036A9F
:1047D000CDEC2DF0046A036ACDEC2DF05DD8040E0B
:1047E0004AD8040E38D8CDEC2DF056D8060E43D852
:1047F000060E31D8CDEC2DF0F80E00016D250A6EB5
:10480000FF0E6E210B6E72EC25F000016F6F6F05CD
:1048100020E11DEC2FF00B6A220E0A6E6DC00CF029
:104820006EC00DF00F6A0E6A71EC26F00AC06BF0D4
:104830000BC06CF028EC2AF0240E0C6E6B0E2DECE5
:104840002AF06DC018F06EC019F0F7EC29F00001E5
:104850006F6F6F511200D926DECF5BF0DDCF5CF0B9
:104860005CC05BF05C6A5C6A59505B10036E5A5026
:104870005C10046E1200D926DECF57F0DDCF58F061
:1048800057505A6E596A7051D96EDA6A12006751E0
:10489000D9266851DA22120000017051D96EDA6A05
:1048A0001200010E0101886F7FEC2CF0F2EC2DF06C
:1048B000CFEC2CF0D08EF28EF28C700E85D894EC6A
:1048C0002DF034EC2FF0810E7FD894EC2DF08D0E6E
:1048D000026E010E036E85EC2AF001018D2B000E95
:1048E0008E238F239023890E026E010E036E85ECBA
:1048F0002AF0DDEC27F0840E026E010E036E85ECCB
:104900002AF014EC2FF002C0B1F103C0B2F104C0E0
:10491000B3F105C0B4F1010188510CE1B151801926
:1049200009E1B251811906E1B351821903E1B45191
:10493000831938E0B1C180F1B2C181F1B3C182F114
:10494000B4C183F1910E026E010E036E056A046A12
:10495000076A200E066E41EC2DF0910E1C6E010EC2
:104960001D6E8E0E1E6EB4C11FF0206AB3C121F001
:10497000226AB2C123F0246AB1C125F0266A2BEC69
:104980002DF0000E2DEC2FF0910E046E010E056E31
:1049900043EC2EF0910E276E010E286E94EC2DF054
:1049A0000101886B8D51895D8E518A598F518B59C8
:1049B0008C51800A7F6F9051800A7F5994E309ECF3
:1049C0002FF0F8EC25F089D7276E2750D8A4100EC9
:1049D000286E1200106AF4390F0B0E6E0F6AD89011
:1049E0000E360F36D8900E360F36EC0E0E24126EA1
:1049F000FF0E0F20136E12106CE0020EE26F180E05
:104A0000E16FF5A363D05AD0FEEC2EF0116E4FD0BB
:104A10001250131005E061D827EC2BF0126A136ACC
:104A2000010E106E4BD0135003E1030E125C1EE317
:104A3000FEEC2EF0116E040E111815E1A7EC2DF00E
:104A400003C0E1F104C0E2F1FD0E1226FF0E1322B5
:104A5000B50E0101E15D050EE259E2E3050EE26FDC
:104A6000B40EE16FDDD7126A136A28D0126A136A96
:104A7000106A24D0FEEC2EF0116E1206D8A0130698
:104A8000010E1164F3D7FE0E112611500E6E0F6A3F
:104A90000E50125C0F501358E9E311C00AF00B6A74
:104AA00027EC2BF01150125E000E135AB9D711509B
:104AB000AFE0010A03E0030AB6E0DCD71206D8A093
:104AC00013061228A1E1132806E09ED706D827EC8A
:104AD0002BF0010E106E1050120012C00AF013C01D
:104AE0000BF01200D8900A340F6E0B34106E01D008
:104AF00000F0FF0E33EC2EF00C6E0CAA02D065D83D
:104B0000F7E1FF0E33EC2EF00C6E0CBA5CD0020E07
:104B100025EC2CF005C00DF006C00EF061D8140E87
:104B20009AEC2CF0B8C105F0B9C106F0100E9AEC61
:104B30002CF00A500D260B500E220A500101B82508
:104B4000116E0B50B921126E220E115C1A0E125802
:104B500008E3DF0E1126E50E12223DD89AEC2CF068
:104B600003D039D89AEC2CF040D861EC2EF0200E0E
:104B7000056EFF0E70EC2EF00AC002F00BC003F0C1
:104B8000056A280E046EBAEC2DF002C00FF003C0C7
:104B900010F001D000F0FF0E33EC2EF00C6E0CAADA
:104BA00002D013D8F7E1FF0E33EC2EF00C6E0CBAE6
:104BB0000AD016D8020E9AEC2CF00A500101D32725
:104BC0000B50D423010CFF000C0C0F06D8A01006CC
:104BD0000F501010120011C005F012C006F0120C98
:104BE0000DC005F00EC006F01200100E056EFF0C91
:104BF000C3EC2EF00FE26FD867D8D9EC2AF0000191
:104C00006F6F6F0507E14C0E046E0450B6EC2EF08A
:104C100072EC28F00101E651D8B41200020E14EC37
:104C20002DF002C070F003C071F0640E0101DB25AD
:104C3000586E000EDC21596E00017051585C7151A4
:104C4000595811E39C0E586E5968DBC15AF0DCC10B
:104C50005BF058505A2659505B225A50705D5B5099
:104C60007159D8B01200715104E1650E705DD8A081
:104C70001200BCC167F0BDC168F0BEC169F0BFC120
:104C80006AF022D8D9EC2AF000016F6F6F0517E1A6
:104C9000500E046E0450B6EC2EF070C007F071C0D8
:104CA00008F0096A0A6A07C003F008C004F009C0E6
:104CB00005F00AC006F06BEC2DF072EC28F070C025
:104CC000DBF171C0DCF112006C69FD0E6B6F6E6977
:104CD000FB0E6D6FFB0C00016769686969696A69A1
:104CE00012000A4A0B2AFF0E33EC2EF0106E10BA97
:104CF000FAD7230E0A24056E1A0E0B20066E100E2C
:104D00009AEC2CF00A500C24106E0B500D20116EF2
:104D1000220E1024056E1A0E1120066E120E9AEC49
:104D20002CF0FF0E33EC2EF0106E10B84AD0300E7F
:104D3000056EFF0E70EC2EF0FF0E33EC2EF0106EB1
:104D400010BAFAD7F5EC25F061EC2EF0160E25EC32
:104D50002CF005C014F006C015F0166A176A0E5044
:104D60000F101FE00E1E0F1E0E5014260F5015229E
:104D7000000E1622172212D01450106E1550116E0C
:104D8000126A136A16501024146E17501120156EF3
:104D9000000E1220166E000E1320176E16501710FC
:104DA000EBE11450116E106A1550126E136A105018
:104DB00012121150131212C014F013C015F0166A1B
:104DC000176A14C00AF015C00BF012000101B5A358
:104DD0001200BEEC29F06C0E036E010E046E066A22
:104DE0000E0E056E7FEC29F0010178510001FD6F78
:104DF000FC6B21EE78F0DECFFEF0DDCFFFF0FFC0E0
:104E0000FEF0FF6BFF6BFC51FE110101786F00019A
:104E1000FD51FF110101796F1AD04AEC18F073EFC0
:104E20002BF0E9EC19F073EF2BF01C0E1C6E010E49
:104E30001D6EA40E1E6E78C11FF079C120F078C1DE
:104E400021F079C122F02BEC2DF073EF2BF021EE45
:104E500078F0DECFFCF0DDCFFDF00001FD51080A57
:104E600005E0890A08E0070A08E0DFD7FC51D9E02D
:104E7000060AD3E0DAD7FC5102D0FC51DD0AD5E1B5
:104E800073EF2BF05BEC2FF046D8E82EFED7032E05
:104E9000FCD700D040D8E82EFED7032EFCD700D098
:104EA0003AD8E82EFED7032EFCD700D034D8E82E0F
:104EB000FED7032EFCD700D0030E13EC2EF02ED815
:104EC000E82EFED7032EFCD700F0030E13EC2EF0D5
:104ED00025D8E82EFED7032EFCD700F0030E13ECE6
:104EE0002EF0380E13EC2EF060EC2FF00C0E13ECBD
:104EF0002EF060EC2FF0010E13EC2EF060EC2FF092
:104F0000010E13EC2EF01C0E036E0D0EE82EFED7D4
:104F1000032EFCD71200880E036E460C370E036E6C
:104F20001B0C0A6A0B6A0C6A0D6AA0C20EF0A1C2C1
:104F30000FF0A2C210F0A3C211F0A4C212F0A5C2D9
:104F400013F0A6C214F0A7C215F09DC216F0176A9E
:104F500002C018F003C019F00C0E096ED890093287
:104F60000E0E086E11D00850D96EDA6ADECF04F04A
:104F7000DDCF05F004500A2605500B22000E0C224E
:104F80000D220906020E08260950EDE10A50046EB2
:104F90000B50056E066A076A0C5004240A6E0D5009
:104FA00005200B6E000E06200C6E000E07200D6E05
:104FB0000AC002F00BC003F01200B7EC28F0E6ECD8
:104FC00026F07B0E026E010E036E85EC2AF00201C4
:104FD000B05101017B5D0201B15101017C59020117
:104FE000B25101017D597E51800A7A6F0201B3519D
:104FF000800A01017A5903E356EC2DF021D8010112
:105000007B510201185D01017C5102011959010116
:105010007D5102011A591B51800A01017A6F7E519C
:10502000800A7A5904E2FBEC28F0E6EC1CF07BC124
:1050300018F27CC119F27DC11AF27EC11BF2120076
:105040000A0E0201B027000EB123B223B323000CD5
:1050500006C00CF007C00DF00E6A0F6A0DD0106A82
:10506000116AFEEC2EF0116EFEEC2EF0106E32D8AE
:10507000020E045E000E055A0550F1E1020E045CBA
:10508000EEE2045005101AE0106A116AFEEC2EF0F0
:10509000116E106A1FD812D00C50086E0D50096E98
:1050A0000A6A0B6A0E5008240C6E0F5009200D6E10
:1050B000000E0A200E6E000E0B200F6E0E500F1009
:1050C000EBE10C1E0D1E0E1E0F1E0CC004F00DC0D9
:1050D00005F0FF0C10500C2611500D22000E0E2270
:1050E0000F22000C7FEC2EF00AC02AF00BC02BF030
:1050F00031D828EC2AF0260E0C6E2A0E2DEC2AF060
:1051000029D8110E2A24286E000E2B20296E2BEC94
:1051100016F02A240C6E000E2B200D6E28C00EF007
:1051200029C00FF071EC26F00AC028F00BC029F05E
:105130002850291002E12868296828EC2AF0280E56
:105140000C6E280E2DEC2AF02AC018F02BC019F096
:10515000F7EF29F02A50246E236A2B50256E266A19
:10516000235025102A6E245026102B6E120081B079
:105170001200FC0E33EC2EF0136E110E25EC2CF009
:1051800005C010F006C011F013A81ED00101B589AA
:10519000B595DCEC2EF011A60CD0066A150E056E46
:1051A000840E9AEC2CF0010E056E110E70EC2EF0B0
:1051B0000BD0066A120E056E840E9AEC2CF0010ECE
:1051C000056E110E61EC2EF013A607D00101B59B00
:1051D000080E056EFC0E61EC2EF013BC05D0590EC6
:1051E00033EC2EF0000902E00101B58313C005F095
:1051F000FC0E52EF2EF0B5A915D0050E5D180BE18F
:1052000038D809E002011C691D691E691F69030E77
:105210001BEC1FF004D0010E5D6E1BEC1FF00101B2
:10522000B59912005D0403E0020E5D1804E1010E61
:105230005D6E1BEF1FF0C351C211C11109E1640E75
:10524000C05D06E2050E5D1803E1030E1BEF1FF0C3
:10525000050E5D1808E10DD806E0C007000EC15B21
:10526000C25BC35B000C05D8D8A41200020E5D6EB1
:10527000020CC051C111C211C3111200280E136ECD
:10528000A80E036E020E046E6FEC2BF07FEC29F07B
:105290000201AE51AF1104E00C500D10D8A4120061
:1052A000AA510F6E0E6A22EEAAF0DECF10F0DDCF0B
:1052B00011F011C010F0116A116A0E501010AA6F8F
:1052C0000F501110AB6F146A156A13C0F6FF100E61
:1052D000F76E000EF86EAA510900F51805E1AB5102
:1052E0000900F51801E11200050E1326144A152ACB
:1052F000155004E1030E145CE8E31200120005C02F
:105300000AF006C00BF003C008F004C009F0055015
:105310000201285D0650295904E228C20AF029C278
:105320000BF00AC005F00BC006F08C963A0E42EC6A
:105330002FF017D008C0F6FF09C0F7FF000EF86E77
:10534000000E42EC2FF0076E0F0EF76404D007C07A
:10535000F5FF0C0004D03CEC11F007C0EFFF084A49
:10536000092A0506D8A006060528E4E10628E2E198
:105370008C860AC003F00BC004F01200D951DA1178
:1053800006E194EC2BF00C0E9AEC2CF004D08DEC92
:105390002BF09AEC2CF088EC2BF09AEC2CF08C96FD
:1053A0003A0E42EC2FF0000E42EC2FF00101D96FC3
:1053B000000E42EC2FF00101DA6F000E42EC2FF0EC
:1053C0000201286F000E42EC2FF00201296F000E3F
:1053D00042EC2FF002012A6F000E42EC2FF0020186
:1053E0002B6F8C86040E285F000E295B000C140EB8
:1053F0001824216E000E1920226E21501B6E1A6A8D
:1054000022501C6E1D6A1A501C10216E1B501D105C
:10541000226E1ED8100E0C6E210E2DEC2AF00B6A97
:105420000E0E0A6E0D6A140E0C6E0F6A0E6A71EC87
:1054300026F00AC01FF00BC020F00AD8180E0C6E20
:105440001F0E2DEC2AF0FDEC2CF01E6E1E501200EB
:105450000B6A020E0A6E0D6A020C106E0C4A0D2ABF
:10546000020E25EC2CF005C00EF006C00FF0230E46
:105470000C24056E1A0E0D20066E020E9AEC2CF00E
:105480000CD08C967A0E42EC2FF01050D96EDA6A5E
:10549000DF5042EC2FF0102A8C860A06D8A00B06AB
:1054A0000A28EFE10B28EDE10EC005F00FC006F071
:1054B000020E9AEF2CF0000E25EC2CF005C01AF02D
:1054C00006C01BF012C004F013C005F014C006F0B3
:1054D00015C007F028EC28F004C01CF005C01DF032
:1054E0001E6A1F6A1AC005F01BC006F0000E9AEC77
:1054F0002CF01C50176E166A1D50186E196A161083
:10550000126E17501910136E1200000EF2BE010E2B
:10551000066EF29EB4C207F0B5C208F0B6C209F03A
:10552000B7C20AF006A002D0F28E01D0F29E02505D
:1055300003100CE002C0D9FF03C0DAFF07C0DEFF92
:1055400008C0DEFF09C0DEFF0AC0DEFF07C002F0B0
:1055500008C003F009C004F00AC005F0120003C03F
:1055600007F004C008F005500101D3270650D423EA
:105570008C967A0E42EC2FF013D007C0F6FF08C0CD
:10558000F7FF000EF86E0F0EF76403D00800F55019
:1055900003D03CEC11F0EF5042EC2FF0074A082A00
:1055A0000506D8A006060528E8E10628E6E18C866F
:1055B000120067C04AF068C04BF069C04CF06AC086
:1055C0004DF0110E4E6EC5EC20F0576E570416E1EB
:1055D00025EC2FF06BC003F06CC004F0CDEC2DF087
:1055E0006DC003F06EC004F0CDEC2DF0046A036AC8
:1055F000CDEC2DF0046A036ACDEC2DF0575012006B
:105600002C0E0A6E020E0B6E0C6A20EE06F00A508B
:10561000D9260B50DA220250DE180EE10350DE18B4
:105620000BE10450DE1808E10550DE1805E10AC060
:1056300002F00BC003F012000D0E0A26000E0B2222
:105640000C2A070E0C64E1D7026A036A12000201F9
:1056500028510A5C29510B5804E328C20AF029C2D8
:105660000BF00A500B10D8B41200000E25EC2CF0F1
:1056700005C00CF006C00DF00A500C260B500D2290
:105680000CC005F00DC006F0000E9AEC2CF00A508C
:105690000201285F0B50295B1200780E036E046A2A
:1056A0001ED87FEC29F01DEC2FF007D071C067F0F9
:1056B00072C068F0780EA6EF23F000017851746F85
:1056C000736B7951756F766B7351751374517613D3
:1056D0007651080AD8A412007551E8E01200066A53
:1056E000080E056E080C0101B593D951DA1105E1D8
:1056F0001BD80C0E9AEC2CF003D00FD89AEC2CF09F
:1057000007D89AEC2CF0400E056EFE0E70EF2EF0CE
:10571000D9C105F0DAC106F0000CFF0ED925056EDF
:10572000FF0EDA21066E0C0C1A0E066E210E056EA7
:10573000210C066A076A045005101BE0010E086E72
:1057400004D0D89004360536082A05AEFAD7D8908A
:10575000063607360450025C0550035805E3045032
:10576000025E0550035A0680D89005320432082E96
:10577000EED706C002F007C003F01200076E075014
:10578000D96EDA6AC40E33EC2EF016D8C50E33EC9F
:105790002EF012D8C20E33EC2EF00ED8C30E33EC1E
:1057A0002EF00AD8C00E33EC2EF006D8C10E33EC22
:1057B0002EF0DF6E072A1200DF6E072A0750D96E1F
:1057C000DA6A1200036E0350E00B046EE00E041858
:1057D000D8B412000101E5510418D8B4120004C075
:1057E000E5F18C96BF0E42EC2FF0030E42EC2FF049
:1057F0008C8600F000F08C969F0E42EC2FF0044453
:10580000E846030B42EC2FF08C8612000B500C1074
:1058100017E0010E0D6E04D0D8900B360C360D2A11
:105820000CAEFAD70B50095C0C500A5804E30B502D
:10583000095E0C500A5AD8900C320B320D2EF2D75A
:1058400009C009F00AC00AF01200096E0950E2EC22
:105850002BF01F0E09168C96095042EC2FF0000E0B
:1058600042EC2FF0076E8C8600F000F08C96092831
:1058700042EC2FF0000E42EC2FF0086E8C8607C031
:1058800005F008C006F012000D6E0DC005F0940E74
:1058900052EC2EF0010E056E920E70EC2EF0CA0E38
:1058A00033EC2EF00C6E0CB0FAD7010E056E920E92
:1058B00061EC2EF0980E25EC2CF005C00AF006C025
:1058C0000BF01200CD82CD86CD98CD9ACD84CD80BF
:1058D000800ECF6ECE6AE00E0201B46FC20EB56FBD
:1058E0001E0EB66F4D0EB76F600EB86F410EB96FDA
:1058F000C90EBA6FD00EBB6F9F809D80D00C020E78
:10590000D36E400E9B6E9A6A916A95968C86949699
:105910009488949AFC0E926E0F0E936E62EC2CF0AB
:1059200049EC2FF0E8EC2EF042EC27F0F3EC2EF0EF
:1059300023EF2EF0076E0750E2EC2BF01F0E071638
:105940008C960750400942EC2FF0055042EC2FF0A6
:105950008C8600F000F08C960728400942EC2FF06E
:10596000065042EC2FF08C86120002EE00F0B40ECE
:10597000EE6AE806FDE101EEB5F04B0EEE6AE806D0
:10598000FDE1DE0EF66E5E0EF76E000EF86E09009B
:10599000F5CF5DF05E905E92000151EF24F0026A57
:1059A000036A85EC2AF002C027F003C028F004C087
:1059B00029F005C02AF027C01CF028C01DF029C01E
:1059C0001EF02AC01FF0430EE0EF2DF00A6E010E0C
:1059D0000B6E0AC005F0940E52EC2EF008C005F0D4
:1059E00009C006F0960E9AEC2CF004D0CA0E33ECE7
:1059F0002EF00B6E0BA01200F9D7230E0101D32558
:105A0000056E1A0ED421066E060E9AEC2CF00101DA
:105A1000B5A5020CB5AB030C080E056EFF0E70ECBD
:105A20002EF00101B59B010C056E05C004F0044683
:105A30000446C2500418C30B0418C26EC280110E73
:105A4000E82EFED700F0C282C2B2FED7C3CF02F06A
:105A5000C4CF03F012001CC028F01DC029F02A6A30
:105A60002B6A2C6A1F0E276E1EC00EF0270E0F6EBB
:105A7000280E6EEC1BF028C0D9FF29C0DAFFDF6AC0
:105A8000000C02C008F003C009F008D008C0D9FF1C
:105A900009C0DAFF04C0DFFF084A092A0606D8A0B9
:105AA00007060628F3E10728F1E112002C0E026E2A
:105AB000020E036E046A20EE0CF00250D926035049
:105AC000DA22DF2A0D0E0226000E0322042A070E18
:105AD0000464F1D7070C040EDBEC2DF08C967A0EE3
:105AE00042EC2FF0065042EC2FF0055042EC2FF024
:105AF000045042EC2FF0035042EC2FF08C86120041
:105B00009DB09EA012009E90CD90800ECF6ECE6A6A
:105B1000CD800201B42B000EB523B623B723B82BDA
:105B2000B923BA23BB23000C026A036A85EC2AF06E
:105B300002C029F003C02AF029C01CF02AC01DF0C1
:105B400027C01EF028C01FF09A0EE0EF2DF08C96B3
:105B50003A0E42EC2FF0000E42EC2FF0066E056A72
:105B6000000E42EC2FF005128C8605C003F006C033
:105B700004F0120002500402F3CF06F0F4CF07F055
:105B800002500502F350072603500402F350072683
:105B900006C002F007C003F01200020E0CD88C966B
:105BA0007A0E42EC2FF0045042EC2FF0035042ECFE
:105BB0002FF08C8612000101D327000ED423000C95
:105BC000206E226A236A380E246E5D0E256E000E4A
:105BD000266E1C0E216E20C00EF0210E0F6E220EBE
:105BE0006EEF1BF0F2EC1FF0A9EC2EF04FEC2FF053
:105BF0003BEC2FF0B00E026E020E036E85EC2AF025
:105C000020EC28F0000C026E9092908402C08DFF70
:105C1000030EE82EFED700F09080030EE82EFED78C
:105C200000F090901200026E90929094AD0EE82ECB
:105C3000FED700F002C08DFF9080AD0EE82EFED79B
:105C400000F090901200026A026A0250020D000EEB
:105C5000F324D96E020EF420DA6EDF6A022A070EF0
:105C60000264F3D7070C066E0650E2EC2BF08C961C
:105C700006501F0B42EC2FF0000E42EC2FF0056E89
:105C80008C860550120005D007D88EEC2EF0044A01
:105C9000052A02D8F9E1120004C0D9FF05C0DAFFD5
:105CA000DF501200066E0650E2EC2BF08C96065088
:105CB0001F0B400942EC2FF0055042EC2FF08C8670
:105CC0001200066E0650E2EC2BF08C9606501F0B6D
:105CD000A00942EC2FF0055042EC2FF08C86120008
:105CE000066E0650E2EC2BF08C9606501F0B8009D6
:105CF00042EC2FF0055042EC2FF08C861200020E81
:105D000025EC2CF005C00CF006C00DF00101BA51D5
:105D10000C5C0A6EBB510D580B6E1200036E1F0E09
:105D2000036460EF2FF07F0E036060EF2FF00350ED
:105D300003EC2EF060EF2FF0026E0A0E021804E161
:105D40009EA8FED70D0EAD6E9EA8FED702C0ADFF79
:105D50001200026A2C0E0224D96EDA6A020EDA22CE
:105D6000DF6A022A670E0264F5D7670C036E010131
:105D7000D34BD42B8C967A0E42EC2FF0035042EC8E
:105D80002FF08C8612000101E30503E1010E036E82
:105D900003D0E35101E1036A03C002F002301200B4
:105DA00003D0000EB6EC2EF00406D8A00506042899
:105DB000F8E10528F6E11200110E44EC2CF00AC0BF
:105DC0000EF00BC00FF00FA4000C0101B585010C03
:105DD000948E949C7E6A590EAF6E7E86260EAC6EB3
:105DE000AB88AB8E260C928492860D0EC26E060E88
:105DF000C16EBE0EC06EC36AC46A12008C963A0EA3
:105E000042EC2FF0000E42EC2FF0036E8C86035014
:105E10001200E45103E1000E65EF2FF0010E65EC76
:105E20002FF00101E46B1200C4C102F0C5C103F000
:105E3000C6C104F0C7C105F01200000E25EC2CF01D
:105E400005C0B8F106C0B9F11200020E25EC2CF025
:105E500005C0BAF106C0BBF11200036E0350800FFB
:105E600013EC2EF060EF2FF001D000F0DCEC2EF000
:105E70000009FBE01200DF6BE06BE76B040ED86FEC
:105E8000D76B000C026E02C0C9FFC7A0FED7C95075
:105E90001200C78CC79E010EC66EC68A010C010196
:105EA000C46BC56BC66BC76B12008C96FF0E42ECC1
:105EB0002FF08C861200966A996A8D6A906A120099
:105EC000AD0EE82EFED700F01200026E02C0E3F124
:105ED000120080EC2DF05E9211003D0E12000100C8
:020000040001F9
:06FFF800A0F4C5FFF0F7C4
:00000001FF
