:040000001DEF00F000
:0600080049825FEF32F0B7
:100018004980D8CF14F0E8CF15F0E0CF16F0DCEC2B
:100028002FF016C0E0FF15C0E8FF14C0D8FF4990B4
:06003800100039EF2EF06C
:101000000001000A006400E803102701001000003E
:1010100001001050494331384639374A36302045AF
:10102000544845524E455400FFFFFFFFFFFF00DECE
:10103000AD00BEEF44007C39000D0A0D0A53746107
:101040007274696E67205379736C6F6720617420C6
:1010500025750D0A00303132333435363738396171
:1010600062636465660057616974696E6720666FC4
:1010700072204C696E6B00444D412054494D454FE0
:101080005554212121004C696E6B20737461727478
:1010900065640025642E25642E25642E2564004E8B
:1010A0004F204C494E4B4544002575203A2025736E
:1010B0000D0A002578203A20256400286E756C6C96
:0310C00029000004
:1010C40001010C6B2A0E3B2467EC11F0F76403D08A
:1010D4000800F55003D073EC11F0EF500101106FCC
:1010E4002B0E3B2467EC11F0F76403D00800F55095
:1010F40003D073EC11F0EF5001010F6F1FEF11F0EB
:10110400020E3B2467EC11F0F7640DD037C0F5FFF5
:101114000D0038C0F5FF0D0039C0F5FF0D003AC0D1
:10112400F5FF0C000AD073EC11F037C0EEFF38C0A5
:10113400EEFF39C0EEFF3AC0EFFF18EC12F067EC97
:1011440011F0F76407D0D2C1F5FF0D00D3C1F5FF4C
:101154000C0006D073EC11F0D2C1EEFFD3C1EFFF47
:101164004FEC12F067EC11F0F76407D0F56A0D004C
:10117400F56A0D00D2EC11F004D073EC11F046ECDA
:1011840012F0CAEC11F067EC11F0F76403D0F1EC43
:1011940011F004D073EC11F05CEC12F0CAEC11F015
:1011A40067EC11F0F76403D07CEC11F004D073EC1D
:1011B40011F09DEC11F08FEC11F00C0E0BEC12F011
:1011C400F76403D0FEEC11F004D073EC11F053EC8F
:1011D40012F0B3EC11F0A6EC11F0F76403D020EC9C
:1011E40012F004D073EC11F077EC12F0C6EC11F0AD
:1011F40067EC11F0F76403D088EC12F004D073ECC0
:1012040011F093EC12F078EC11F067EC11F0F76444
:1012140004D0120EF56E0C0004D073EC11F0120E13
:10122400EF6EE9EC11F067EC11F0F76403D03BECDE
:1012340012F004D073EC11F08FEC12F0E5EC11F025
:1012440067EC11F0F76403D03BEC12F004D073ECBC
:1012540011F08FEC12F0CEEC11F067EC11F0F764A2
:1012640004D0030EF56E0C0004D073EC11F0030EE1
:10127400EF6E41EC12F0ACEC12F0030E26EF10F01E
:101284000101106B3BC017F03CC018F0CEEC22F00B
:101294004AEF11F001010F51F3E0030A01E130D7E5
:1012A4004AEF11F0080E3B2467EC11F0F76403D009
:1012B400F1EC11F004D073EC11F05CEC12F0D7EC0B
:1012C40011F0A6EC11F0F76405D027EC12F020EC35
:1012D40012F004D073EC11F065EC12F0B3EC11F0E1
:1012E400A6EC11F0F76403D020EC12F004D073ECF8
:1012F40011F077EC12F0C6EC11F067EC11F0F76422
:1013040003D088EC12F004D073EC11F093EC12F0DB
:10131400E9EC11F067EC11F0F76403D03BEC12F048
:1013240004D073EC11F08FEC12F0E5EC11F067ECE3
:1013340011F0F76403D03BEC12F004D073EC11F01D
:101344008FEC12F0CEEC11F067EC11F0F76404D0DE
:10135400030EF56E0C0004D073EC11F0030EEF6E67
:1013640078EC11F067EC11F0F76404D0120EF56E0E
:101374000C0004D073EC11F0120EEF6E7AD7300E1D
:101384003B2467EC11F0F76403D0D2EC11F004D0E5
:1013940073EC11F0EE6AEF6AEDEC11F067EC11F00A
:1013A400F76403D07CEC11F004D073EC11F09DECE5
:1013B40011F08FEC11F0DA51061909E1DB5107192C
:1013C4007DE1DC5108197AE1DD510919D8A476D000
:1013D400100E3B2467EC11F0F76403D07CEC11F0A1
:1013E40004D073EC11F09DEC11F08FEC11F0100EA1
:1013F4000BEC12F0F76403D0FEEC11F004D073ECA4
:1014040011F053EC12F078EC11F067EC11F0F76482
:1014140004D0100EF56E0C0004D073EC11F0100E15
:10142400EF6ECAEC11F067EC11F0F76403D0F1EC45
:1014340011F004D073EC11F05CEC12F0D7EC11F065
:10144400A6EC11F0F76405D027EC12F020EC12F0B2
:1014540004D073EC11F065EC12F0B3EC11F0A6ECCF
:1014640011F0F76403D020EC12F004D073EC11F007
:1014740077EC12F0C6EC11F067EC11F0F76403D0CE
:1014840088EC12F004D073EC11F093EC12F041EC00
:1014940012F0ACEC12F0000902E14AEF11F0040E74
:1014A40001011CEC12F067EC11F0F76404D0030E98
:1014B400F56E0C0001D06AD24AEF11F0100E3B24F5
:1014C40067EC11F0F76403D02EEC12F004D073EC47
:1014D40011F06EEC12F078EC11F067EC11F0F76497
:1014E40004D0140EF56E0C0004D073EC11F0140E3D
:1014F400EF6E41EC12F0ACEC12F0000901E0C0D642
:101504004AEF11F0300E3B2467EC11F0F76403D07E
:10151400D2EC11F004D073EC11F0EE6AEF6AEDEC4A
:1015240011F067EC11F0F76403D07CEC11F004D0F7
:1015340073EC11F09DEC11F08FEC11F0DA510619F7
:1015440078E1DB51071975E1DC51081972E1DD51CD
:101554000919D8A46ED0100E3B2467EC11F0F7647F
:1015640003D07CEC11F004D073EC11F09DEC11F07D
:101574008FEC11F0100E0BEC12F0F76403D0FEECBC
:1015840011F004D073EC11F053EC12F078EC11F07C
:1015940067EC11F0F76404D0100EF56E0C0004D063
:1015A40073EC11F0100EEF6ECAEC11F067EC11F051
:1015B400F76403D0F1EC11F004D073EC11F05CEC9F
:1015C40012F0D7EC11F0A6EC11F0F76405D027EC7B
:1015D40012F020EC12F004D073EC11F065EC12F070
:1015E400B3EC11F0A6EC11F0F76403D020EC12F088
:1015F40004D073EC11F077EC12F0C6EC11F067EC48
:1016040011F0F76403D088EC12F004D073EC11F0FD
:1016140093EC12F0040E01011CEC12F067EC11F0D3
:10162400F76404D0030EF56E0C0001D0AFD14AEF7D
:1016340011F0100E3B2467EC11F0F76403D02EEC8C
:1016440012F004D073EC11F06EEC12F078EC11F09F
:1016540067EC11F0F76404D0040EF56E0C0004D0AE
:1016640073EC11F0040EEF6E41EC12F0ACEC12F0DE
:1016740044D7340E3B2467EC11F0F76403D0080020
:10168400F55003D073EC11F0EF50000937E041EC52
:1016940012F0ACEC12F0000902E14AEF11F078EC20
:1016A40011F067EC11F0F76403D00800F55003D093
:1016B40073EC11F0EF500101026F02B5E1D5350E64
:1016C4003B2467EC11F0F76403D00800F55003D015
:1016D40073EC11F0EF500101026F02A94AEF11F00F
:1016E400040E1CEC12F067EC11F0F76404D0030E46
:1016F400F56E0C0001D04AD14AEF11F078EC11F0EC
:1017040067EC11F0F76404D0040EF56E0C0004D0FD
:1017140073EC11F0040EEF6E41EC12F0ACEC12F02D
:10172400ECD601010F5101E1ABD5030A01E1BAD5B1
:10173400070A01E1E7D6010A01E121D60C0A01E119
:101744009FD5030A01E19CD5060A93E04AEF11F004
:1017540098EC12F0F76403D0A0EC12F004D073EC10
:1017640011F0A7EC12F00101D451001903E1D55195
:101774000119D8A44AEF11F0300E3B2467EC11F0A4
:10178400F76403D0D2EC11F004D073EC11F0EE6ADC
:10179400EF6A84EC12F067EC11F0F76403D07CEC90
:1017A40011F004D073EC11F09DEC11F037500101ED
:1017B40002193DE1385003193AE13950041937E16F
:1017C4003A50051934E1060E3B2467EC11F0F76436
:1017D40004D0090089EC11F006D073EC11F0EECFBF
:1017E40002F1EECF03F10101D251021920E1D351EC
:1017F40003191DE1100E3B2467EC11F0F76403D0CC
:101804007CEC11F004D073EC11F09DEC11F08FEC32
:1018140011F0DA5106190BE1DB51071908E1DC512B
:10182400081905E1DD51091902E1040E106F360EA5
:101834003B2467EC11F0F76404D0030EF56E0C0042
:1018440001D0A4D04AEF11F0020E3B2467EC11F052
:10185400F76403D07CEC11F004D073EC11F09DEC30
:1018640011F037500101021909E13850031906E15A
:101874003950041903E13A500519D8A44AEF11F07C
:10188400060E3B2467EC11F0F76404D0090089ECE0
:1018940011F006D073EC11F0EECF02F1EECF03F1AC
:1018A4000101D251021903E1D3510319D8A44AEF1B
:1018B40011F00C0E3B2467EC11F0F76403D07CECC0
:1018C40011F004D073EC11F09DEC11F00101D6512C
:1018D400021909E1D751031906E1D851041903E1AA
:1018E400D9510519D8A44AEF11F0100E3B2467EC26
:1018F40011F0F76403D07CEC11F004D073EC11F018
:101904009DEC11F08FEC11F0DA51061909E1DB516D
:10191400071906E1DC51081903E1DD510919D8A4BE
:101924004AEF11F0100E3B2467EC11F0F76403D07A
:101934007CEC11F004D073EC11F09DEC11F08FEC01
:1019440011F0100E0BEC12F0F76403D0FEEC11F062
:1019540004D073EC11F053EC12F0E9EC11F067ECE5
:1019640011F0F76403D0D2EC11F004D073EC11F051
:10197400EE6AEF6A040E01011CEC12F067EC11F040
:10198400F76404D0030EF56E0C0004D073EC11F070
:10199400030EEF6E4AEF11F0300E3B2467EC11F0AA
:1019A400F76403D0D2EC11F004D073EC11F0EE6ABA
:1019B400EF6A78EC11F067EC11F0F76404D0010ED3
:1019C400F56E0C0004D073EC11F0010EEF6EE9EC2F
:1019D40011F067EC11F0F76403D03BEC12F004D083
:1019E40073EC11F08FEC12F0E5EC11F067EC11F0F0
:1019F400F76403D03BEC12F004D073EC11F08FECDD
:101A040012F0CEEC11F067EC11F0F76404D0050E7F
:101A1400F56E0C0004D073EC11F0050EEF6E050E9C
:101A24000101106F41EC12F0ACEC12F04AEF11F02E
:101A340098EC12F0F76403D0A0EC12F004D073EC2D
:101A440011F0A7EC12F00101D451001903E1D551B2
:101A54000119D8A44AEF11F00C0E3B2467EC11F0E5
:101A6400F76403D07CEC11F004D073EC11F09DEC1E
:101A740011F00101D651021909E1D751031906E108
:101A8400D851041903E1D9510519D8A44AEF11F02A
:101A9400020E3B2467EC11F0F76407D0F56A0D00E1
:101AA400F56A0D00D2EC11F004D073EC11F046ECA1
:101AB40012F018EC12F067EC11F0F76403D0D2ECDA
:101AC40011F004D073EC11F0EE6AEF6AEDEC11F052
:101AD400FCDBF76407D0F56A0D00F56A0D00D2EC63
:101AE40011F003D0FEDB46EC12F04FEC12F0EDDB0C
:101AF400F76407D0F56A0D00F56A0D00D2EC11F019
:101B040003D0EFDB46EC12F0CAEC11F0DEDBF76435
:101B140007D0F56A0D00F56A0D00D2EC11F003D080
:101B2400E0DB46EC12F04BEC12F0CFDBF76407D0AD
:101B3400F56A0D00F56A0D00D2EC11F003D0D1DB8B
:101B440046EC12F080EC12F0C0DBF76403D0D2EC68
:101B540011F003D0C6DBEE6AEF6AC6EC11F0B5DB18
:101B6400F76403D0D2EC11F003D0BBDBEE6AEF6A6A
:101B7400010E6AD2340E3B24A8DBF76403D00800BC
:101B8400F55002D0AEDBEF50000901E04BD7AEDBDD
:101B94009CDBF76404D0040EF56E0C0003D0A1DBCB
:101BA400040EEF6E41EC12F0ACEC12F0000901E10E
:101BB4006FD384EC12F089DBF76406D0F56A0D006C
:101BC400F56A0D00EDDB03D08CDB46EC12F018EC6B
:101BD40012F07BDBF76402D0E3DB03D082DBEE6A36
:101BE400EF6AF9DB72DBF76406D0F56A0D00F56A7B
:101BF4000D00D6DB03D075DB46EC12F04FEC12F08F
:101C040064DBF76406D0F56A0D00F56A0D00C8DBE5
:101C140003D067DB46EC12F0BBDB57DBF76406D07E
:101C2400F56A0D00F56A0D00BBDB03D05ADB46EC08
:101C340012F04BEC12F049DBF76406D0F56A0D00A4
:101C4400F56A0D00ADDB03D04CDB46EC12F080EC02
:101C540012F03BDBF76402D0A3DB03D042DBEE6A75
:101C6400EF6A92DB32DBF76402D09ADB03D039DB14
:101C7400EE6AEF6A7DD701010F5101E18DD6040AA6
:101C840001E1E2D5010A01E163D50C0A01E1D0D6F4
:101C9400030A01E1CDD6060A01E16CD7F9D2020E9E
:101CA4003B2413DBF76402D025DB02D01ADB43DBD1
:101CB40037500101021909E13850031906E139507E
:101CC400041903E13A500519D8A4E2D20C0E3B24BE
:101CD400FCDAF76402D00EDB02D003DB2CDB01015B
:101CE400D651021909E1D751031906E1D851041953
:101CF40003E1D9510519D8A4CBD2140E3B24E5DA5B
:101D0400F76402D0F7DA02D0ECDA15DB0101DA511C
:101D1400025DDB510359DC510459DD51055901E3DE
:101D2400B7D2100E3B24D1DAF76402D0E3DA02D042
:101D3400D8DA01DBF2DADA51065DDB510759DC51FE
:101D44000859DD51095901E2A3D0100E3B24BDDA34
:101D5400F76403D00900DBDA05D0C3DAEECF02F171
:101D6400EECF03F10101DA51025D0D6FDB5103592E
:101D74000E6F250E3B24A9DAF76403D00900C7DAF5
:101D840005D0AFDAEECF02F1EECF03F101010D5130
:101D9400025F0E51035B250ED7DAF76402D04EDBE7
:101DA40002D09FDAA2DBA6DB90DAF76403D0090045
:101DB400AEDA05D096DAEECF02F1EECF03F10101EF
:101DC4000D5102270E510323270EBEDAF76402D009
:101DD40035DB02D086DA89DB8DDB77DAF76403D072
:101DE400090095DA05D07DDAEECF02F1EECF03F1EA
:101DF40001010251031117E1290E3B2466DAF7644D
:101E040003D00800F55002D06CDAEF50020A0BE15F
:101E1400290E3B24010159DAF76403D0F56A0C005A
:101E240002D05FDAEF6A21EEDAF0FF0EDE24010160
:101E3400006FFF0EDE20016FFF0EDE20026FFF0E2B
:101E4400DE20036F140E80DAF76403D0FEDAF6DACC
:101E540002D047DA38DBBFDA38DAF76402D0FCDACA
:101E640002D03FDA39DB0101D051D11101E110D2A6
:101E7400080E3B242ADAF76402D0B1DA02D031DA50
:101E840019DBD0C1EEF0D1C1EFF01EEC1FF000D28F
:101E9400350E3B241ADAF76404D0140EF56E0C00E8
:101EA40003D01FDA140EEF6EEADAACEC12F07FEF17
:101EB4000AF0350E3B2409DAF76404D0010EF56EFE
:101EC4000C0003D00EDA010EEF6EA9D5100E3B24E0
:101ED400FCD9F76402D0C0DA02D003DAFDDAD9DA29
:101EE400F4D9F76402D006DA02D0FBD924DA15DA81
:101EF4000C0E8FDAF76402D07FDA02D0F2D9D1DA8D
:101F0400360E3B240101E1D9F76404D0040EF56ECA
:101F14000C0003D0E6D9040EEF6E59DAD6D9F76473
:101F240002D0A7DA02D0DDD9F8DA4DDACED9F764D7
:101F340002D09FDA02D0D5D9F0DA2EDAC6D9F76406
:101F440004D0050EF56E0C0003D0CBD9050EEF6E50
:101F5400CDD9BBD9F76404D0110EF56E0C0003D0B3
:101F6400C0D9110EEF6E090E5BD5340E3B24ADD9EA
:101F7400F76403D00800F55002D0B3D9EF5000093C
:101F840001E050D5B3D9A1D9F76404D0040EF56E9D
:101F94000C0003D0A6D9040EEF6E71DAACEC12F08B
:101FA4007FEF0AF001010F5184E0040A01E177D6C2
:101FB400020A8CE0010A8AE00E0A02E142EF09F00B
:101FC400030A02E142EF09F0060ACFE061D1350EBF
:101FD4003B247BD9F76404D0100EF56E0C0003D0BB
:101FE40080D9100EEF6E4BDAACEC12F0000901E16F
:101FF4004FD1080E29D0300E3B2467D9F76402D0A4
:1020040038DA02D06ED989DAC7D95FD9F76404D037
:10201400010EF56E0C0003D064D9010EEF6E060EAE
:1020240013D0350E3B2451D9F76404D0100EF56E4D
:102034000C0003D056D9100EEF6E21DAACEC12F07E
:10204400000901E125D10A0E0101106F21D1340EDE
:102054003B243BD9F76403D00800F55002D041D9A2
:10206400EF50000901E0DED441D92FD9F76404D040
:10207400040EF56E0C0003D034D9040EEF6EFFD9B4
:10208400ACEC12F07FEF0AF001010F51040AB3E047
:10209400020A9DE0010AC5E00B0AD9E0F9D0EFD9A4
:1020A400ACEC12F0CDD7340E3B240FD9F76403D037
:1020B4000800F55002D015D9EF50000901E0B2D460
:1020C40015D903D9F76404D0040EF56E0C0003D0BF
:1020D40008D9040EEF6ED3D9ACEC12F07FEF0AF0FE
:1020E40001010F51060ADBE00A0ADDE0D1D001014B
:1020F4000F51040AA8E0CCD0020E3B24E6D8F764C2
:1021040002D0F8D802D0EDD816D9375001010219FF
:1021140009E13850031906E13950041903E13A5032
:102124000519D8A4B5D0060E3B24CFD8F76403D044
:102134000900EDD805D0D5D8EECF02F1EECF03F1EA
:102144000101D251021903E1D35103199ED0A0D049
:10215400340E3B24BAD8F76403D00800F55002D0FB
:10216400C0D8EF50000901E05DD4C0D8AED8F76400
:1021740004D0040EF56E0C0003D0B3D8040EEF6E39
:102184007ED9ACEC12F07FEF0AF001010F51040A82
:10219400B3E0030AB1E00B0ADBE07AD0300E3B2453
:1021A40094D8F76402D065D902D09BD8B6D90BD99C
:1021B4008CD8F76402D05DD902D093D8AED9ECD8CC
:1021C40084D8F76404D0030EF56E0C0003D089D8CC
:1021D400030EEF6E8BD879D8F76404D0020EF56E37
:1021E4000C0003D07ED8020EEF6E49D9ACEC12F08D
:1021F400020E0101106F010E0C6F4AD0020E3B2437
:1022040064D8F76406D0F56A0D00F56A0D00C8D8E5
:1022140002D067D839D90AD958D8F76402D0C0D8BF
:1022240003D05FD8EE6AEF6A010EE3D701010F51C4
:10223400010AB4E0030AE2E02BD02A0E3B2445D87D
:10224400F76403D00800F55002D04BD8EF50000AD1
:10225400EDE0010A02E14CEF09F0030A02E193EF19
:102264000BF0010A01E107D5070A01E19BD6010A37
:1022740001E10AD7030A01E133D7010A09E00F0A91
:1022840001E135D7010A81E0030A02E142EF09F0D6
:102294002B0E3B24010119D8F76404D00D0EF56E02
:1022A4000C0003D01ED80D0EEF6E2A0E3B24010144
:1022B4000CD8F76404D010C1F5FF0C0003D011D87A
:1022C40010C1EFFF01010C511200006F000E3C2001
:1022D400016F00C1F6FF01C1F7FF000EF86E0F0E8B
:1022E4001200F6CFE9FFF7CFEAFF1200350E3B24C8
:1022F400010112000900F5CF02F10900F5CF03F145
:102304000900F5CF04F10900F5CF05F11200F5CF6E
:1023140002F10900F5CF03F11200010E01010225BB
:10232400066F000E0321076F000E0421086F000ED4
:102334000521096F1200EECF02F1EECF03F1EECFCB
:1023440004F1EECF05F112003B24046F000E3C2093
:10235400056F04C1F6FF05C1F7FF000EF86E0F0EFE
:1023640012000101E051016F006B21EEE0F0DECFBD
:1023740002F1DDCF03F103C102F1036B036B0051E2
:10238400021301510313180C1C0E3B24010112000B
:10239400080E3B2401011200340E3B2401011200FB
:1023A400F56A0D00F56A0C001200010E0101D62534
:1023B400006F000ED721016F000ED821026F000EAE
:1023C400D921036F0C0C320E3B2401011200300E94
:1023D4003B2401011200100E3B2401011200D6C15E
:1023E400F5FF0D00D7C1F5FF0D00D8C1F5FF0D00B5
:1023F400D9C1F5FF0C00120006C1F5FF0D0007C19D
:10240400F5FF0D0008C1F5FF0D0009C1F5FF0C0033
:1024140012003B240A6F000E3C200B6F0AC1F6FF2A
:102424000BC1F7FF000EF86E0F0E1200060E3B24D0
:1024340001011200106F360E3B24120002C1F5FF99
:102444000D0003C1F5FF0C00120000C1F5FF0D00E3
:1024540001C1F5FF0D001200DAC1F5FF0D00DBC16B
:10246400F5FF0D00DCC1F5FF0D00DDC1F5FF0C002B
:102474001200020EF56E0D00F56A0C00020C3BC052
:102484009FF03CC0A0F01200EE6AEE6AEE6AEF6ABA
:1024940012000C0E3B2401011200140E3B24010116
:1024A400120006C1EEFF07C1EEFF08C1EEFF09C12D
:1024B400EFFF1200D6C1EEFFD7C1EEFFD8C1EEFF89
:1024C400D9C1EFFF120000C1EEFF01C1EEFF02C14E
:1024D400EEFF03C1EFFF1200DAC1EEFFDBC1EEFF36
:1024E400DCC1EEFFDDC1EFFF120002C1EEFF03C14C
:1024F400EFFF1200270E3B2401011200180E3B24AB
:1025040001011200020E3B240101120043C0F5FF39
:102514000D0044C0F5FF0C001200020EEE6EEF6ACF
:10252400020C43C0EEFF44C0EFFF12003BC0F6FFB5
:102534003CC0F7FF000EF86E0F0E12000900F5CF35
:1025440000F10900F5CF01F11200EECF00F1EECF5A
:1025540001F112004FDBF76407D00900F5CFA1F0B9
:102564000900F5CFA2F006D073EC11F0EECFA1F084
:10257400EECFA2F00001A151A46FA36B3BDBF76483
:1025840002D08CDA03D073EC11F03CDBA6C0A5F0CA
:102594000001A66BA66BA351A511DA6FA451A61175
:1025A400DB6F060E2BDAF76402D05FDA03D073EC2C
:1025B40011F06FDA4DDB060EA1DAF76402D036DBD8
:1025C40003D073EC11F049DB22DBDC6FA651AA11B6
:1025D400DD6F100E13DAF76403D047DA5FDA04D044
:1025E40073EC11F056DA0EDBD7DA100E45DAF76425
:1025F40002D09EDA03D073EC11F0E1DA56DA100E51
:102604008ADAF76402D0A1DA03D073EC11F0E0DACD
:102614005ADA100EB4DAF76402D0A4DA03D073ECF9
:1026240011F0DFDAF8D9DE6FA851CE11DF6FA951AE
:10263400CF11E06FAA51D011E16F0C0EDFD9F7640E
:1026440003D013DA2BDA04D073EC11F022DADADADD
:10265400A3DA0C0E11DAF76402D06ADA03D073EC51
:1026640011F0ADDA22DA0C0E56DAF76402D06DDA24
:1026740003D073EC11F0ACDA26DA0C0E80DAF764CE
:1026840002D070DA03D073EC11F0ABDAC4D9E26F84
:10269400A851CE11E36FA951CF11E46FAA51D01103
:1026A400E56FE691F10EE617E6510F0B5009E66F60
:1026B4001A0EA4D9F76402D0D8D903D073EC11F060
:1026C400E8D9C6DA1A0E1ADAF76402D0AFDA03D000
:1026D40073EC11F0C2DA9BDAE86FA651AA11E96F24
:1026E400EA6BEB6BEC6BED6B350E88D9F76403D0BA
:1026F4000800F55003D073EC11F0EF500001A36F04
:10270400060EA31703E0D86BD96B94D0270E76D9A5
:10271400F76402D04DDA03D073EC11F08EDA0001C5
:10272400D851D91101E186D0180E68D9F76402D0C6
:102734009CD903D073EC11F0ACD984DA09E2180EF9
:102744005DD9F76402D034DA03D073EC11F075DA92
:102754001C0E000153D9F76402D087D903D073EC5F
:1027640011F097D96FDA09E21C0E48D9F76402D048
:102774001FDA03D073EC11F060DA250E00013ED9A4
:10278400F76407D00900F5CFD1F00900F5CFD2F0F6
:1027940006D073EC11F0EECFD1F0EECFD2F0250ECF
:1027A40000012CD9F76402D060D903D073EC11F086
:1027B40070D90001D851A327D951A423250E91D94A
:1027C400F76402D02CDA03D073EC11F04FDA270E41
:1027D400000114D9F76402D048D903D073EC11F086
:1027E40058D90001D851A35FD951A45B270E79D9D8
:1027F400F76402D014DA03D073EC11F037DA270E41
:102804000001FCD8F76402D030D903D073EC11F086
:1028140040D90001A351A4110DE1350EEFD8F7649E
:1028240005D0080E0800F5120C0004D073EC11F06A
:10283400080EEF12350E0001E1D8F76403D008004A
:10284400F55003D073EC11F0EF500001E76F140E54
:10285400D825D56F000ED921D66F020ECFD8F764D4
:102864000DD00900F5CF22F00900F5CF23F00900BF
:10287400F5CF24F00900F5CF25F00AD073EC11F060
:10288400EECF22F0EECF23F0EECF24F0EECF25F002
:10289400060E266E0DEC22F0D76FD75139E0DA0E12
:1028A400176E186AE8D985EC2EF00001D851D911B9
:1028B4000AE0D1C017F0D2C018F0D8C019F0D9C0BE
:1028C4001AF085EC2EF0060E0001D525D36F000E0C
:1028D400D621D46FC7D9D525276E000ED621286EF0
:1028E400D3C029F0D4C02AF097EC2AF025C0D3F045
:1028F40026C0D4F0D30E8CEC2CF0320E1A6EA1EC60
:102904002FF0D5C031F0D6C032F059EC2CF0D76F8F
:10291400D7513EE1340E72D8F76403D00800F55065
:1029240003D073EC11F0EF500001A36FA32B340E0E
:102934009F25A46F000EA021A56FA4C0F6FFA5C01B
:10294400F7FF000EF86E0F0EF76404D0A3C0F5FF76
:102954000C0004D073EC11F0A3C0EFFF300E0001A3
:102964004DD8F76402D081D803D073EC11F091D81C
:102974000001A351A4113FE1300E40D8F76403D005
:102984003BEC12F004D073EC11F08FEC12F033D066
:10299400100E34D8F76403D068D880D804D073EC10
:1029A40011F077D82FD90001D851A325A76FD95199
:1029B400A421A86F000EA521A96F000EA621AA6F5D
:1029C400100E5AD8F7640DD0A7C0F5FF0D00A8C0AB
:1029D400F5FF0D00A9C0F5FF0D00AAC0F5FF0C001E
:1029E4000AD073EC11F0A7C0EEFFA8C0EEFFA9C097
:1029F400EEFFAAC0EFFF0001D75112009F25A16F7F
:102A0400000EA021A26FA1C0F6FFA2C0F7FF000E26
:102A1400F86E0F0E12000001C56BC66BC76BC45174
:102A2400C86F190E05D0D890C833C733C633C53321
:102A3400E82EF9D7BB51C511C96FBC51C611CA6F75
:102A4400BD51C711CB6FBE51C811CC6FB151C91163
:102A5400CD6FB251CA11CE6FB351CB11CF6FB451F8
:102A6400CC11D06FA751CD1112000900F5CFA3F0FE
:102A74000900F5CFA4F012009F25AB6F000EA02132
:102A8400AC6FABC0F6FFACC0F7FF000EF86E0F0ED4
:102A94001200EECFA3F0EECFA4F012000900F5CFA0
:102AA400A5F00900F5CFA6F012000001B16BAE51FC
:102AB400B26FB36BB46BB3C0B4F0B2C0B3F0B1C017
:102AC400B2F0B16B1200B8C0B7F0B9C0B8F0BAC078
:102AD400B9F00001BA6BBB6BB851BC6FBD6BBE6B78
:102AE40012009F25A56F000EA021A66FA5C0F6FFBA
:102AF400A6C0F7FF000EF86E0F0E12009F25A76FF9
:102B0400000EA021A86FA7C0F6FFA8C0F7FF000E13
:102B1400F86E0F0E12009F25B56F000EA021B66F40
:102B2400B5C0F6FFB6C0F7FF000EF86E0F0E120028
:102B34000900F5CFADF00900F5CFAEF00900F5CFEF
:102B4400AFF00900F5CFB0F012000900F5CFB7F0EF
:102B54000900F5CFB8F00900F5CFB9F00900F5CFB9
:102B6400BAF012000900F5CFC1F00900F5CFC2F0A8
:102B74000900F5CFC3F00900F5CFC4F012009F257A
:102B8400BF6F000EA021C06FBFC0F6FFC0C0F7FF2B
:102B9400000EF86E0F0E12000001A351A76FA86B70
:102BA400A96BAA6BA7C0AAF0A96BA86BA76B1200AC
:102BB4000900F5CFD8F00900F5CFD9F01200EECF17
:102BC400ADF0EECFAEF0EECFAFF0EECFB0F012003E
:102BD400EECFB7F0EECFB8F0EECFB9F0EECFBAF05B
:102BE4001200EECFC1F0EECFC2F0EECFC3F0EECFC5
:102BF400C4F012009FC0F6FFA0C0F7FF000EF86EED
:102C04000F0E1200EECFA5F0EECFA6F01200AAC070
:102C1400A9F00001AA6BAA6BA551A9111200A3C0C7
:102C2400F5FF0D00A4C0F5FF0C0012000900F5CF5C
:102C3400A9F00900F5CFAAF01200EECFD8F0EECF3C
:102C4400D9F012000001D851A35DD951A459120042
:102C54000001A351A66FA56B1200EECFA9F0EECF31
:102C6400AAF01200266A1A0E256E080CA3C0EEFF05
:102C7400A4C0EFFF12001A6A140E196E140C336B01
:102C8400376A386A396A3A6AD06BD16BD20E176EDA
:102C9400010ED9D992EC2CF03B6A3C6AD451D5117F
:102CA400D8B41200D251D311D8B41200D251186F33
:102CB400176BD351196F1A6B17511911D26F185121
:102CC4001A11D36FD451186F176B21EED4F0DECFE5
:102CD40019F1DDCF1AF11AC119F11A6B1A6B1751D8
:102CE4001911D46F18511A11D56F41C034F142C073
:102CF40035F140D034C1F6FF35C1F7FF000EF86E50
:102D04000F0EF76407D00900F5CF17F10900F5CFCE
:102D140018F106D073EC11F0EECF17F1EECF18F1E5
:102D240001011751D41908E11851D51905E134C12D
:102D34003BF035C13CF028D02C0E3425176F000E23
:102D44003521186F17C1F6FF18C1F7FF000EF86E92
:102D54000F0EF76407D00900F5CF34F10900F5CF61
:102D640035F106D073EC11F0EECF34F1EECF35F13E
:102D74000101332B3451351107E03351800A176FA9
:102D84004750800A175DB6E33B503C10D8B412009C
:102D9400060EE6D8F76402D04AD903D073EC11F0DA
:102DA4004DD90101D251191903E1D3511A191AE06D
:102DB400020ED6D8F76408D03AD90900F5CF1BF132
:102DC4000900F5CF1CF107D073EC11F037D9EECF21
:102DD4001BF1EECF1CF1010119511A111B111C1129
:102DE400D8A4120011C137F012C138F013C139F060
:102DF40014C13AF0DE390F0B176F186BD8901737E0
:102E04001837D890173718371751155DD06F1851E8
:102E14001659D16F08EC26F0E806D8A41200DFA3F7
:102E24001CD0DFA90DD02B0E9BD8F76404D0050E5F
:102E3400F56E0C0004D073EC11F0050E48D057D099
:102E44002B0E8ED8F76404D0030EF56E0C0004D05C
:102E540073EC11F0030E3BD04AD0DFA11CD0DFA9E4
:102E64000DD02B0E7DD8F76404D0070EF56E0C0040
:102E740004D073EC11F0070E2AD039D02B0E70D881
:102E8400F76404D0060EF56E0C0004D073EC11F058
:102E9400060E1DD02CD0DFA51CD0DFA90DD02B0E23
:102EA4005FD8F76404D00A0EF56E0C0004D073ECFE
:102EB40011F00A0E0CD01BD02B0E52D8F76404D09C
:102EC400090EF56E0C0004D073EC11F0090EEF6ED0
:102ED4000ED0DFA90CD02B0E43D8F76404D0040E17
:102EE400F56E0C0004D073EC11F0040EEF6E0101CA
:102EF400DA5193D821EEDAF06FD8DAC11FF1DBC1D1
:102F040020F1DCC121F1DDC122F17AD821EEDAF021
:102F140034D8DA6F18513011DB6F19513111DC6F6D
:102F24001A513211DD6FD65178D821EED6F054D82B
:102F3400D6C11FF1D7C120F1D8C121F1D9C122F1E5
:102F44005FD821EED6F019D8D66F18513011D76F4B
:102F540019513111D86F1A513211D96F62EF08F03B
:102F64003B24176F000E3C20186F17C1F6FF18C1E1
:102F7400F7FF000EF86E0F0E1200DE14276F000E1E
:102F8400DE14286F000EDE14296FFF0EDE142A6F84
:102F9400190E05D0D8902A33293328332733E82E45
:102FA400F9D7235127112B6F245128112C6F255148
:102FB40029112D6F26512A112E6F1B512B112F6FA2
:102FC4001C512C11306F1D512D11316F1E512E11BA
:102FD400326F17512F111200000EDE141B6FFF0EFB
:102FE400DE141C6F000EDE141D6F000EDE141E6F47
:102FF4001DC11EF11CC11DF11BC11CF11B6B120074
:1030040020C11FF121C120F122C121F1226B236BC8
:103014002051246F256B266B000C176F186B196BEE
:103024001A6B17C11AF1196B186B176B1200090090
:10303400F5CF19F10900F5CF1AF11200EECF19F10D
:10304400EECF1AF11200186E1A6A140E196E140CCF
:103054008A0E176E186A1A6A1C0E196E92EC2CF0FE
:1030640017C080F018C081F01C0E00018019811176
:10307400D8A41200826B88D9080E866F20EE06F061
:103084007ED9DE5098191AE1DE50991917E1DE5005
:103094009A1914E1DE509B1911E120EE0AF06FD960
:1030A400DE508C190BE1DE508D1908E14DD9DBCFD0
:1030B400E3FFE806FCE2010E826F07D00D0E8827BD
:1030C400000E892386078651D9E1C9EC22F0D8B4D1
:1030D4001200A2512FD920EEA2F018D9A2C068F094
:1030E400A3C069F0A4C06AF0A5C06BF03BD920EE80
:1030F400A2F0D3D833507C1909E134507D1906E18C
:1031040035507E1903E136507F19D8A4120082513C
:1031140049E13AD9000E846F030E856F080E876F5C
:1031240020EE0CF08451D9268551DA2210EE0CF0F1
:103134008851E1268951E222DE50E65C04E284C033
:1031440088F085C089F00D0E8427000E852387073B
:103154008751E6E1F9D8DBCFE3FFE806FCE29851BA
:10316400E9D820EE98F0D2D898C068F099C069F0F8
:103174009AC06AF09BC06BF0F5D820EE98F08DD819
:1031840020EE06F0FCD87CC0DEFF7DC0DEFF7EC0F2
:10319400DEFF7FC0DEFF20EE0AF0F1D88CC0DEFF38
:1031A4008DC0DDFF91059011D8A41200920E176E08
:1031B400186A30EC24F073EC25F00001836F83056A
:1031C400D8A4120020EE92F010EE9CF0050EDBCF96
:1031D400E3FFE806FCE2920E176EF7EC2FF098C0BE
:1031E400A2F099C0A3F09AC0A4F09BC0A5F03350FC
:1031F4000001A0D8646B3450656F666B676B66C062
:1032040067F065C066F064C065F0646B686B355048
:10321400696F6A6B68516B6F69516C6F6A516D6F3E
:103224006E6B6F6B706B716B3650726F190E05D0CD
:10323400D8907233713370336F33E82EF9D76B51F2
:103244006F11736F6C517011746F6D517111756FD3
:103254006E517211766F64517311776F65517411E9
:10326400786F66517511796F675176117A6F605175
:103274007711986F61517811996F625179119A6F32
:1032840063517A119B6F020E916F906B8A0E2AEC38
:1032940024F085EC2EF088EF30F0DE14706F000E11
:1032A400DE14716F000EDE14726FFF0EDE14736F86
:1032B400190E05D0D8907333723371337033E82EFE
:1032C400F9D76C517011746F6D517111756F6E5126
:1032D4007211766F6F517311776F64517411786F37
:1032E40065517511796F665176117A6F675177114F
:1032F4007B6F605178117C6F615179117D6F6251E0
:103304007A117E6F63517B117F6F1200000EDE1401
:10331400646FFF0EDE14656F000EDE14666F000E20
:10332400DE14676F66C067F065C066F064C065F060
:10333400646B1200606F616B626B636B60C063F0FF
:10334400626B616B606B120020EE0CF08851D92621
:103354008951DA22DF6A20EE92F088C0E1FF89C049
:10336400E2FF050C69C068F06AC069F06BC06AF0DE
:103374006B6B6C6B69516D6F6E6B6F6B000C88516E
:10338400D9268951DA221200000E886F030E896F44
:1033940012000101536B546B266A140E256E286AC1
:1033A400276A3DEC2FF045D901E012008B0E176E11
:1033B400020E25EC18F092EC2CF002018B390F0B65
:1033C400040A01E012009B513CD922EE9BF0FAD88A
:1033D4009BC23EF19CC23FF19DC240F19EC241F1AD
:1033E4000ED922EE9BF0BED89B6F40D99C6F43D977
:1033F4009D6F37D99E6F975124D922EE97F0E2D86A
:1034040097C23EF198C23FF199C240F19AC241F18C
:10341400F6D822EE97F0A6D8976F28D9986F2BD9B3
:10342400996F1FD99A6F33509B1909E134509C1935
:1034340006E135509D1903E136509E1909E09B2998
:1034440006E19C2904E19D2902E19E29D8A41200E9
:103454008D510101376F366B22EE8DF0DECF38F1DE
:10346400DDCF39F139C138F1396B396B3651381147
:1034740002018D6F01013751391102018E6F00D99C
:10348400D8903637D8903635526F0201F9D8050EE8
:1034940036655FD0EC0E5225176E186AFF0E18229F
:1034A4005AEC30F056D00101525102018D5D9ED884
:1034B40053C125F054C126F0286A276A3DEC2FF049
:1034C400B8D8D8A412008B0E0001AF6F020EB06FF3
:1034D400C4EF2DF00101525102018D5D87D8BCD893
:1034E400BAEC29F099D83DEC2FF025C055F126C04F
:1034F40056F155C1D3F056C1D4F004EF27F00101C1
:10350400525102018D5D72D8A7D8BAEC29F084D843
:103514003DEC2FF08ED8D8A4120097C228F298C29E
:1035240029F299C22AF29AC22BF228C211F129C2B5
:1035340012F12AC213F12BC214F153C115F154C173
:1035440016F141EF16F08DC217F08EC218F05AEF43
:1035540030F002019451010AA6E0070AD0E0170AEC
:10356400B9E0F1D7DE14466F000EDE14476F000E8B
:10357400DE14486FFF0EDE14496F190E05D0D89083
:103584004933483347334633E82EF9D7425146117D
:103594004A6F435147114B6F445148114C6F455189
:1035A40049114D6F3A514A114E6F3B514B114F6FB8
:1035B4003C514C11506F3D514D11516F36514E11CC
:1035C40002011200000EDE143A6FFF0EDE143B6F90
:1035D400000EDE143C6F000EDE143D6F3CC13DF165
:1035E4003BC13CF13AC13BF13A6B12000101536F0C
:1035F40002018E51D8A08E050101546F12003FC103
:103604003EF140C13FF141C140F1416B426B3F513A
:10361400436F446B456B000C17C055F118C056F14D
:1036240053C125F054C126F055C127F056C128F0E6
:10363400120025C055F126C056F10101555156110D
:1036440012000101366F376B386B396B36C139F1B3
:10365400386B376B366B120053C117F054C118F036
:1036640012000101395151110201120001013751B7
:103674004F110201120001013851501102011200D0
:103684008B510F0B0101366F12001ED1250E30181D
:1036940018E037D9DE50DE10DE100EE032D901D842
:1036A40013D10500FA6EDE50FD6EDE50FE6EDE5064
:1036B400FF6EFA503050120018D930C0DFFF30D9F5
:1036C40003D12D6A50D02D8E5FD021D9DECF2BF0BF
:1036D400DECF2CF02B502C1035E1BB0E2B6E2B5073
:1036E400D8A4100E2C6E2ED00CD9DE50DE10DE10B5
:1036F4001AE007D901D814D00500FA6EDE50FD6E29
:10370400DE50FE6EDE50FF6EFA5019D90F0EF764CC
:1037140003D00800F55003D073EC11F0EF50120001
:103724002B4A2C2A0FD00BD9E0D80F0EF76403D004
:103734000800F55003D073EC11F0EF50DF6E2B4A04
:103744002C2AEED8FCD80F0EF76403D00800F550ED
:1037540003D073EC11F0EF50000901E1B5D0C4D7E8
:10376400C00E2D1211D0242A2404B7D8F6D801E1B2
:10377400B1D0640A09E00D0A07E01A0AA6E0060AB5
:10378400EFE00D0AA0E0A0D02DC026F0C00E261652
:103794000BE1BDD8ECD82FAE2CD0030E2D122E6C1D
:1037A4002F1ED8B02F2A25D0B2D8E1D822D0010EAE
:1037B400306E3050BCD891D80900F5502E5C090009
:1037C400F5502F581DE3302A050E301819E0F1D7B3
:1037D400010E306E3050AFD880D80900F5502E5C01
:1037E4000900F5502F580CE3302A040E301808E075
:1037F400F1D72D50C00BDBE0800AEAE0400AD7E0A5
:103804002DC026F0030E261616E07BD8DE50DE10FF
:10381400DE100DE076D801D80ED00500FA6EDE5029
:10382400FD6EDE50FE6EDE50FF6EFA502D0C5DD83C
:103834002D0EDF6E75D830C02AF043D02A5077D8C9
:103844004CD884D88FD8D0EC2EF017C01EF018C0F6
:103854001FF0216A0A0E206E82EC2FF01E50300FEA
:10386400306E18D07FD82A5066D837D86FD8D0ECAD
:103874002EF017500F0B296E2950550F2ED8080023
:10388400F5CF30F007D02D50C00BD8E0800AEAE025
:10389400400AD4E036D8DE50DE10DE100EE031D817
:1038A40001D80FD00500FA6EDE50FD6EDE50FE6EBC
:1038B400DE50FF6EFA503050120017D830C0DFFFD0
:1038C4002FD82A062A28DFE1242A240406D845D83A
:1038D40001E0DCD6236A246A1200266E26C0F6FFB5
:1038E400100EF76E000EF86E12002350D96EDA6ACD
:1038F400DECF26F0DDCF27F026C0D9FF27C0DAFFC0
:1039040012002350D96EDA6A020ED926020C255011
:10391400D96EDA6A020EDF26DF5CD96EDA6A12002B
:103924002350D96EDA6ADE2A000EDD22000C020D65
:10393400F350010F1200020DF3500B0F12002BC0B5
:10394400F6FF2CC0F7FF000EF86E12000900F5CF49
:1039540019F00A00F5CF1AF012000800F5CF30F084
:10396400305012002EC017F02FC018F01200DECF16
:103974002EF0DECF2FF01200C80E176EF7EC2FF0EA
:103984000001B0BF1200B05104E1F10EAF5DD8A048
:10399400120061EC2FF017C0BFF018C0C0F0000196
:1039A400BF0503E1020EC019D8A41200186A020E62
:1039B400176E5AEC30F0F1EC2CF017C0BBF018C0C5
:1039C400BCF019C0BDF01AC0BEF0500E0001BB1906
:1039D40009E1480EBC1906E1430EBD1903E14D0E81
:1039E400BE19D8A41200F8D85AEC30F0F1EC2CF03F
:1039F40017C0CFF018C0D0F019C0D1F01AC0D2F05F
:103A04000001CF51B36FB46BD051B56FB66BD151C8
:103A1400B76FB86BD2C0B9F0BA6BDED85AEC30F0DD
:103A2400C20E176E186A1A6A060E196E92EC2CF002
:103A3400C20E176EC80E186E1A6A060E196EABEC1B
:103A44002EF01750181001E0B5D0186ACA0E176E80
:103A54005AEC30F0F1EC2CF0630E171809E1530E18
:103A6400181806E1820E191803E1630E1A18D8A477
:103A740012000001100EAF27FF0EB0238CD0C8EC4B
:103A840030F00001C16FC8EC30F00001CE6FCE51B0
:103A9400B16FB26B020EB127000EB223B151AF5F0A
:103AA400B251B05B6AD0F1EC2CF017C0C8F118C069
:103AB400C9F119C0CAF11AC0CBF16DD0F1EC2CF0E8
:103AC40017C020F218C021F219C022F21AC023F242
:103AD40062D0030ECE655FD0F1EC2CF017C010F26B
:103AE40018C011F219C012F21AC013F2040E000128
:103AF400CE5F030ECE654FD0F1EC2CF017C014F25C
:103B040018C015F219C016F21AC017F2040E0001FB
:103B1400CE5F41D0030ECE653ED0F1EC2CF017C041
:103B2400C4F118C0C5F119C0C6F11AC0C7F1EED767
:103B3400F1EC2CF017C01CF218C01DF219C01EF2D3
:103B44001AC01FF2E3D73FD8040E04D03CD8050EA8
:103B540001D0010E486E08D0C8EC30F0020AF3E040
:103B6400070AF4E0030AF5E00001CE0714D0CEC042
:103B740017F0186A5AEC30F00ED0C151010A93E0E4
:103B8400020A9CE0050AA5E0350AC4E0060AE4E05E
:103B9400030ACEE0ECD70001B0BF05D0B05102E17A
:103BA400AF05D8B06CD7040E4818D8A41200030E81
:103BB40033EF21F0DE0E0001AF25176EFF0EB021AA
:103BC400186E5AEF30F0CFC033F0D0C034F0D1C00B
:103BD40035F0D2C036F01200186A080E176E080CC1
:103BE4000101196B1A6B0201242B000E25232623D5
:103BF40027233D4A3E2A040E3E5C03E2040E3E6E39
:103C04003D6A41C01BF142C01CF1E8D0300EFBD824
:103C1400F76402D005D903D073EC11F008D901017F
:103C24001351141101E1C5D011691269300E1B251D
:103C3400136F000E1C21146F13C1F6FF14C1F7FF9C
:103C4400000EF86E0F0EF76407D00900F5CF15F1DA
:103C54000900F5CF16F106D073EC11F0EECF15F193
:103C6400EECF16F101011151152712511623300E12
:103C74001B25176F000E1C21186F17C1F6FF18C102
:103C8400F7FF000EF86E0F0EF76407D015C1F5FFAD
:103C94000D0016C1F5FF0C0006D073EC11F015C130
:103CA400EEFF16C1EFFF300E0101ADD8F76402D06C
:103CB400B7D803D073EC11F0BAD801011351141121
:103CC40078E1340EA0D8F76403D00800F55003D08F
:103CD40073EC11F0EF5000096CE02B0E010193D846
:103CE400F76403D00800F55003D073EC11F0EF50E3
:103CF4000D0A5FE1320E010186D8F76402D090D834
:103D040003D073EC11F093D8300E01011B25156F0D
:103D1400000E1C21166F15C1F6FF16C1F7FF000E29
:103D2400F86E0F0EF76407D013C1F5FF0D0014C130
:103D3400F5FF0C0006D073EC11F013C1EEFF14C1B3
:103D4400EFFF340E01015FD8F76403D00800F5508B
:103D540003D073EC11F0EF500101136F1307340E0D
:103D64001B25146F000E1C21156F14C1F6FF15C11D
:103D7400F7FF000EF86E0F0EF76404D013C1F5FFC1
:103D84000C0004D073EC11F013C1EFFF2B0E0101F2
:103D94003AD8F76404D00C0EF56E0C0004D073EC22
:103DA40011F00C0EEF6E1BC13BF01CC13CF062EC39
:103DB40008F02C0E010127D8F76407D00900F5CFCD
:103DC4001BF10900F5CF1CF106D073EC11F0EECF16
:103DD4001BF1EECF1CF10101194B1A2B01011B51F0
:103DE4001C11D8B4120047C011F1126B11BF120795
:103DF4001151195D1A51800A136F1251800A135917
:103E040001E204D712001B25116F000E1C21126F52
:103E140011C1F6FF12C1F7FF000EF86E0F0E12006B
:103E24000900F5CF13F10900F5CF14F11200EECF1C
:103E340013F1EECF14F11200220ED6D8F76403D09A
:103E44000800F55003D073EC11F0EF50E806D8A445
:103E540012001A0EC9D8F76402D0D4D803D073EC78
:103E640011F0E4D80001EE51F25DEF51F35905E38E
:103E7400EEC0FDF0EFC0FEF01CD01A0E3B24F06F34
:103E8400000E3C20F16FF0C0F6FFF1C0F7FF000E0A
:103E9400F86E0F0EF76407D00900F5CFFDF00900A6
:103EA400F5CFFEF006D073EC11F0EECFFDF0EECFBF
:103EB400FEF0200E99D8F76407D00900F5CF17F06B
:103EC4000900F5CF18F006D073EC11F0EECF17F01F
:103ED400EECF18F0FDC019F0FEC01AF092EC2CF0F1
:103EE400200E82D8F76402D08DD803D073EC11F081
:103EF4009DD80001FD51F227FE51F323200E89D8ED
:103F0400F76402D098D803D073EC11F09BD81A0E42
:103F14006BD8F76402D076D803D073EC11F086D84E
:103F24000001FD51F25FFE51F35B1A0E72D8F76483
:103F340002D081D803D073EC11F084D8080E54D881
:103F4400F76408D05FD80900F5CFF4F00900F5CF85
:103F5400F5F007D073EC11F069D8EECFF4F0EECFA2
:103F6400F5F00001FD51F225F66FFE51F321F76FD4
:103F7400000EF421F86F000EF521F96F0C0E3B24AE
:103F8400FA6F000E3C20FB6FFAC0F6FFFBC0F7FF90
:103F9400000EF86E0F0EF7640DD0F6C0F5FF0D009D
:103FA400F7C0F5FF0D00F8C0F5FF0D00F9C0F5FFEF
:103FB4000C000AD073EC11F0F6C0EEFFF7C0EEFF70
:103FC400F8C0EEFFF9C0EFFF350E0ED8F76404D049
:103FD400100EF56E0C0004D073EC11F0100EEF6EA1
:103FE40041EC12F0ACEF12F03B240001F06F000E34
:103FF4003C20F16FF0C0F6FFF1C0F7FF000EF86E41
:104004000F0E12000900F5CFF2F00900F5CFF3F01E
:1040140012003B24F46F000E3C20F56FF4C0F6FF51
:10402400F5C0F7FF000EF86E0F0E1200EECFF2F09F
:10403400EECFF3F01200F2C0F5FF0D00F3C0F5FF70
:104044000C001200F2C0EEFFF3C0EFFF12002C0EC2
:104054001F6E020E206E1BEC31F00101176F9F0ED4
:10406400EED8DDEC30F0E0D02C0E1F6E020E206E88
:1040740006EF2AF02C0E1F6E020E206E226A070E27
:10408400216E41EC31F0E1D8E3EC2BF02C0E010170
:10409400116F020E126FA7EF2BF0A20ED0D8DDEC39
:1040A40030F02C0E1F6E020E206EB3EC30F00009BF
:1040B400D8B412002C0E1F6E020E206EC4EC2CF02D
:1040C4001FC018F120C019F1010118511911D8B4F9
:1040D40012002C0E1F6E020E206E1EEC2CF01FC060
:1040E40018F120C019F102016E51070B300F456E13
:1040F400886A1AD0819201D08182819402D08192FF
:1041040003D0819623D081828184FBD7819201D010
:104114008182819402D0819203D0818617D08182DA
:104124008184FBD7886A12D04550300AE3E0010A43
:10413400E3E0030AE4E0010AE6E0070AE7E0010A33
:10414400E7E0030AE8E0010AEAE0ECD76E51380B35
:10415400466E2AD08198819A819C888036D0818845
:10416400819A819C888231D08198818A819C8884BB
:104174002CD08188818A819C888627D08198819AD5
:10418400818C888822D08188819A818C888A1DD0EC
:104194008198818A818C888C18D08188818A818CCD
:1041A400888E13D0886A11D04650D4E0080AD7E02C
:1041B400180ADAE0080ADDE0380AE0E0080AE3E079
:1041C400180AE6E0080AE9E0EDD701011A6B1B6B57
:1041D40010D0630E1A25D96E020E1B21DA6E770EEB
:1041E4001A25E16E020E1B21E26EDFCFE7FF1A4BA8
:1041F4001B2B18511A5D19511B59EBE326D8E3EC1C
:104204002BF018C115F119C116F12C0E0001EE6F37
:10421400020EEF6F770EF06F020EF16F15C1F2F020
:1042240016C1F3F06EEF29F00101175101E11CD71B
:10423400010A01E11FD7020A01E12FD71200316EF2
:104244003150D8A4100E326E12002C0E1F6E020EC6
:10425400206E630E216E020E226E246A140E236EEB
:10426400140C0001A86FA90E176EF7EC2FF00001D3
:104274009F69A069A169A269A46B440EA36FA66B90
:10428400430EA56FEBEC2DF00001A76FA705D8A492
:104294001200176A060E186E010E196E1A6EDFEC04
:1042A40031F0500E176E480E186E430E196E4D0EF7
:1042B4001A6EDFEC31F0176A800E186E196A1A6AEA
:1042C400DFEC31F0030E0001A81904E198D8DFEC0B
:1042D40031F003D08BD8DFEC31F091D8DFEC31F042
:1042E4008ED8DFEC31F08BD8DFEC31F08DD885EC53
:1042F4002EF0196ACA0E186E06EC32F0630E176EB1
:10430400530E186E820E196E630E1A6EDFEC31F0C6
:10431400350E55EC32F0010E55EC32F00001A85187
:1043240055EC32F0030E0001A81919E1360E55ECD4
:1043340032F0040E55EC32F01CC217F01DC218F016
:104344001EC219F01FC21AF0DFEC31F0320E55EC28
:1043540032F0040E55EC32F049D8DFEC31F0370E70
:1043640055EC32F0040E55EC32F0010E55EC32F0FF
:10437400030E55EC32F0060E55EC32F00F0E55ECF0
:1043840032F0390E55EC32F0020E55EC32F0020EDA
:10439400186E176A34EC32F00C0E55EC32F0140E31
:1043A40055EC32F0130E176E1750D8A4100E186E79
:1043B4003DEC16F085EC2EF03D0E55EC32F0070E78
:1043C40055EC32F0010E55EC32F01ED885EC2EF08F
:1043D400FF0E55EC32F0000E55EC32F0DEEC2AF014
:1043E400A805D8A41200030E486E030C33C017F0BE
:1043F40034C018F035C019F036C01AF01200176A2C
:10440400186A196A1A6A1200A90E176E186A1A6ACB
:10441400060E196E060C00019E6BB9D803E1110E4D
:10442400261862E1330405E17F0E36183410351086
:104434005BE0222806E1232804E1242802E1252860
:1044440056E033500101C815276E3450C915286E43
:104454003550CA15296E3650CB152A6E2250C81510
:104464002B6E2350C9152C6E2450CA152D6E255061
:10447400CB152E6E27502B1812E128502C180FE163
:1044840029502D180CE12A502E1809E122C098F069
:1044940023C099F024C09AF025C09BF008D020C214
:1044A40098F021C299F022C29AF023C29BF098C0DE
:1044B40017F099C018F09AC019F09BC01AF012ECCA
:1044C4002EF017C09CF018C09DF000019C519D1166
:1044D40014E198C01DF099C01EF09AC01FF09BC053
:1044E40020F083EC23F09E6F00019E511200280EF1
:1044F4009C6F9C51D8A4100E9D6F9CC017F09DC05A
:1045040018F0080E1A6E196A73EC25F000019E6FFC
:104514009E05EAE1450E186E176A34EC32F0186A0B
:10452400176A34EC32F0176A400E186E550E196E85
:10453400AA0E1A6EDFEC31F0400E55EC32F0265024
:1045440055EC32F0186A176A34EC32F0F8EC21F0CA
:10455400DFEC31F022C017F023C018F024C019F0AA
:1045640025C01AF0DFEC31F033C097F234C098F272
:1045740035C099F236C09AF222C09BF223C09CF255
:1045840024C09DF225C09EF226C094F2ADD73350CC
:104594003410351036101200020EA6D8F76407D076
:1045A400F56A0D00F56A0D00D2EC11F004D073EC3D
:1045B40011F046EC12F0060E97D8F76403D0D2EC53
:1045C40011F004D073EC11F0EE6AEF6A100E8CD87F
:1045D400F76407D0F56A0D00F56A0D00D2EC11F00E
:1045E40004D073EC11F046EC12F0140E7DD8F7648D
:1045F40007D0F56A0D00F56A0D00D2EC11F004D075
:1046040073EC11F046EC12F0080E6ED8F76407D084
:10461400F56A0D00F56A0D00D2EC11F004D073ECCC
:1046240011F046EC12F00C0E5FD8F76407D0F56A6F
:104634000D00F56A0D00D2EC11F004D073EC11F00A
:1046440046EC12F0180E50D8F76403D0D2EC11F0F7
:1046540004D073EC11F0EE6AEF6A300E45D8F764BB
:1046640003D0D2EC11F004D073EC11F0EE6AEF6ACF
:10467400320E3AD8F76403D0D2EC11F004D073ECC4
:1046840011F0EE6AEF6A340E2FD8F76403D0F56A9E
:104694000C0003D073EC11F0EF6A350E25D8F764E3
:1046A40003D0F56A0C0003D073EC11F0EF6A17C065
:1046B400F6FF18C0F7FF000EF86E0F0EF76403D074
:1046C400D2EC11F004D073EC11F0EE6AEF6A360EFE
:1046D4000BD8F76404D0010EF56E0C0004D073EC13
:1046E40011F0010EEF6E12001724196E000E18203F
:1046F4001A6E19C0F6FF1AC0F7FF000EF86E0F0EFF
:104704001200010E7D6F7C6B7F6B080E7E6F060EB0
:10471400806F040E816F010E836F826B840E176E9F
:10472400F7EC2FF03350000182D8345074D8355050
:1047340065D83650726F190E01D084D8E82EFDD793
:1047440042D88A6F615178118B6F625179118C6FE5
:1047540063517A118D6F1D506AD81E505CD81F505A
:104764004DD82050726F190E01D06CD8E82EFDD7A9
:104774002AD8946F61517811956F62517911966FAF
:1047840063517A11976F8E6B8F6B906B916B926BF9
:10479400936B280E176E1750D8A4100E186E5ED89F
:1047A40073EC25F000017B6F7B050BE17C0E50D888
:1047B40085EC2EF088EC30F000017B6F7B0501E185
:1047C400050C7B5112006B516F11736F6C5170119A
:1047D400746F6D517111756F6E517211766F6451F2
:1047E4007311776F65517411786F66517511796F14
:1047F400675176117A6F605177111200696F6A6B95
:1048040068516B6F69516C6F6A516D6F6E6B6F6B32
:10481400706B716B1200656F666B676B66C067F0D7
:1048240065C066F064C065F0646B686B1200606F0D
:10483400616B626B636B60C063F0626B616B606B36
:10484400646B1200D8907233713370336F3312007B
:10485400176E186A1A6A1C0E196E1C0C080E1A6E52
:10486400060E196E060CAE6B20EE0CF09AD8DECF55
:1048740022F0DECF23F0DECF24F0DECF25F020EED1
:1048840009F08FD8DF50266E0DEC22F0AE6FAE0526
:104894006AE120EE02F085D8DECFA2F0DDCFA3F0EE
:1048A400EC0EA225AC6FFF0EA321AD6FA0C0D9FF03
:1048B400A1C0DAFFDF500F0BA26FA36BD890A23711
:1048C400A337D890A237A33720EE02F06AD8DECF00
:1048D400A4F0DDCFA5F0A251A45DAC6FA351A559FE
:1048E400AD6F186A176A34EC32F0186A176A34EC40
:1048F40032F05CD8040E49D8040E37D834EC32F0C8
:1049040055D8060E42D8060E30D834EC32F0F80EE4
:104914000001AC256D6FFF0EAD216E6F73EC27F0B7
:104924000001AE6FAE051FE14BEC32F0266A220E99
:10493400256EACC027F0ADC028F02A6A296A97EC2E
:104944002AF025C0AAF026C0ABF0AA0E8CEC2CF0FD
:10495400240E1A6EA1EC2FF0ACC031F0ADC032F0D1
:1049640059EC2CF0AE6FAE511200D926DECFA6F072
:10497400DDCFA7F0A7C0A6F0A76BA76BA451A61123
:10498400176EA551A711186E1200D926DECFA2F01A
:10499400DDCFA3F0A251A56FA46B9F51D96EDA6A43
:1049A4001200A051D926A151DA22120000019F5110
:1049B400D96EDA6A12000101BD91BD95BD99BD9B06
:1049C400C06BC16B3F6A406AA00E0E01FE6FFDA171
:1049D400FED70D0EA06F00F0B30E0E01A26F00F013
:1049E400A36B00F0150EA46F00F0A76B120EA66F58
:1049F40000F01A0EE56F120EE46F1F0EE76FE66902
:104A0400E86BE96B1A0EEB6F100EEA6F7A6A7B6A39
:104A140003EC26F0EC69ED69050EAB6FEE0EAA6FA0
:104A240063EC32F02D6E2DC0F6FF51D8F5CF84FE25
:104A340000F02DC02AF02A2A2AC0F6FF48D8F5CF64
:104A440085FE00F02DC02AF0020E47D840D8F5CFDD
:104A540082FE00F02DC02AF0030E3FD838D8F5CFDF
:104A640083FE00F02DC02AF0040E37D830D8F5CFDD
:104A740080FE00F02DC02AF0050E2FD828D8F5CFDF
:104A840081FE00F0AB0E0E01D86F040ED26E010E43
:104A94001A6E000E196A9CEC2DF0010E1A6E100E9F
:104AA400196E9CEC2DF01D0E1A6E4A0E196E140E22
:104AB4009CEC2DF071EC30F0590E0E01FB6F1A6A6C
:104AC400120E196E9CEC2DF0A29AA08A1200100E00
:104AD400F76E000EF86E080012002A262AC0F6FFB0
:104AE40012000101BDBB030CD2B6040C84D889D8D2
:104AF40050EC32F0060EE8CF61FF17C0F6FF18C085
:104B0400F7FF000EF86E0F0EF76403D00800F5509F
:104B140003D073EC11F0EF50E8CF61FF17285FD892
:104B2400F76403D00800F55003D073EC11F0EF5094
:104B3400E8CF61FF020E172452D8F76403D00800AF
:104B4400F55003D073EC11F0EF50E8CF61FF030E82
:104B5400172445D8F76403D00800F55003D073EC4C
:104B640011F0EF50E8CF61FF040E172438D8F76432
:104B740003D00800F55003D073EC11F0EF50E8CFE8
:104B840061FF050E17242BD8F76403D00800F550F5
:104B940003D073EC11F0EF50E8CF61FF0E018451A4
:104BA400E8CF61FF0E018551E8CF61FF0E0182510C
:104BB400E8CF61FF0E018351E8CF61FF0E01805100
:104BC400E8CF61FF0E018151E8CF61FF1A50E8CFB1
:104BD40061FF1950E8CF61FF0101BD8B010C1B6E11
:104BE400000E18201C6E1BC0F6FF1CC0F7FF000E41
:104BF400F86E0F0E12001A0E0E01E56F120EE46F1E
:104C0400120C1A0EE36F120EE26F120C1D6ADE39DB
:104C14000F0B1B6E1C6AD8901B361C36D8901B36A3
:104C24001C36EC0E1B241F6EFF0E1C20206E1F1062
:104C34006BE0020E446E180E436EDFA362D059D0AF
:104C4400C8EC30F01E6E4ED01F50201005E060D826
:104C54005AEC30F01F6A206A010E1D6E4AD02050B3
:104C640003E1030E1F5C1DE3C8EC30F01E6E040E5E
:104C74001E1814E161EC2FF017C043F018C044F083
:104C8400FD0E1F26FF0E2022B50E435C050E445870
:104C9400E3E3050E446EB40E436EDED71F6A206A4A
:104CA40028D01F6A206A1D6A24D0C8EC30F01E6E1A
:104CB4001F06D8A02006010E1E64F3D7FE0E1E2682
:104CC4001E501B6E1C6A1B501F5C1C502058E9E3CD
:104CD4001EC017F0186A5AEC30F01E501F5E000E0A
:104CE400205ABAD71E50B0E0010A03E0030AB7E025
:104CF400DCD71F06D8A020061F28A2E1202806E042
:104D04009FD706D85AEC30F0010E1D6E1D501200CC
:104D14001FC017F020C018F01200010E0201AF6F7F
:104D2400F5EC2EF065EC31F011EC30F0D08EF28E13
:104D3400F28C660E21EC21F0DDEC30F02DEC32F03B
:104D4400860E21EC21F0DDEC30F04FEC2AF0AB0EB6
:104D5400176E020E186E72EC2DF01DEC32F017C0B7
:104D6400D0F218C0D1F219C0D2F21AC0D3F20201A3
:104D7400AF510CE1D051A71909E1D151A81906E1AD
:104D8400D251A91903E1D351AA1939E0D0C2A7F22B
:104D9400D1C2A8F2D2C2A9F2D3C2AAF2B00E176E3F
:104DA400020E186E1A6A196A1C6A200E1B6E9EEC9B
:104DB40030F0B00E0001606F020E616F930E626FEF
:104DC400D3C263F0646BD2C265F0666BD1C267F084
:104DD400686BD0C269F06A6B43EC30F0000E26ECCD
:104DE40032F0B00E196E020E1A6EA6EC31F0B00E4F
:104DF400316E020E326EDDEC30F00201AF6B29EC45
:104E040020F0A3D7340E0001DD6F9F0E176E020E43
:104E1400186EE7EC2DF092EC2CF00201A551A611CE
:104E240005E00001D351D411D8A412000201A1510C
:104E34000001D66FD56B22EEA1F049D8D71102013B
:104E4400A16F0001D651D8110201A26F0001DB6BE2
:104E5400DC6BDDC0F6FF36D80201A1510900F5185C
:104E640028E1A2510900F51824E1A3510001D66FED
:104E7400D56B22EEA3F02BD8D713D651D813F80E46
:104E8400D725AF6FFF0ED821B06FDDC0D9F0020E69
:104E9400D927D9C0F6FF16D80500FA6E0900F550D7
:104EA400FD6E0900F550FE6E0900F550FF6EFA50D4
:104EB4001200050E0001DD27DB4BDC2BDB51DC117E
:104EC400C8E01200100EF76E000EF86E1200DECF6E
:104ED400D7F0DDCFD8F0D8C0D7F0D86BD86BD55188
:104EE4001200D8906D356F6F6E35706F01D000F081
:104EF400D2AA02D04AD8FBE1D2BA40D0E2CEF4FE24
:104F0400E3CEF5FEC0C1F0FEC1C1F1FE00016D515A
:104F14000101C0250001716F6E510101C121000121
:104F2400726F110E715D1A0E725904E3F00E71273F
:104F3400E50E722371C0F2FE72C0F3FED298D28ADB
:104F44006DC017F06EC018F01A6A280E196E2EEC98
:104F540031F017C06FF018C070F001D000F0D2AA81
:104F640002D013D8FBE1D2BA09D000016D510E0171
:104F7400E22700016E510E01E323010C770E21ECB0
:104F840021F0DDEC30F0FF000C0C00016F07D8A01D
:104F940070076F51701112000101BDA312001DECC6
:104FA4002DF0AB0E176E010E186E1A6A0E0E196EE6
:104FB40092EC2CF0B751586F576B21EEB7F0DECF5F
:104FC40059F1DDCF5AF15AC159F15A6B5A6B575105
:104FD4005911B76F58515A11B86F1BD02AEC18F0F9
:104FE40048EF2DF0CBEC19F048EF2DF05B0E0001EB
:104FF400606F010E616FB30E626FB7C163F0B8C129
:1050040064F0B7C165F0B8C166F043EC30F048EF26
:105014002DF021EEB7F0DECF57F1DDCF58F1585126
:10502400080A05E0890A08E0070A08E0DFD75751B3
:10503400D9E0060AD3E0DAD7575102D05751DD0A36
:10504400D5E148EF2DF01D6E176A186A00F0182A92
:10505400090E1864FBD701D0F9D75A0E186E01D087
:1050640000F00E018AA102D0182EFAD71850D8A445
:1050740001D01768175000092CE11DC0B4FEB26BB3
:10508400B28100F000F0176A186A00F0182A090EBD
:105094001864FBD701D0F9D75A0E186E01D000F06E
:1050A4000E018AA102D0182EFAD71850D8A401D024
:1050B40017681750FF0A05E1FD0E1E6EFF0E14D887
:1050C4000AD0B291B8CE1EF0B9CE1FF0206A216A80
:1050D40002D01E6809D81EC019F01FC01AF020C0E3
:1050E4001BF021C01CF012001F6820682168120008
:1050F400076E016A026A00F0022A090E0264FBD7F5
:1051040001D0F9D75A0E026E01D000F00E018AA127
:1051140002D0022EFAD70250D8A401D0016801505F
:1051240000092CE107C0B4FEB26BB28100F000F0BC
:10513400016A026A00F0022A090E0264FBD701D058
:10514400F9D75A0E026E01D000F00E018AA102D0E6
:10515400022EFAD70250D8A401D001680150FF0AE8
:1051640005E1FD0E086EFF0E14D80AD0B291B8CE38
:1051740008F0B9CE09F00A6A0B6A02D0086809D8A7
:1051840008C003F009C004F00AC005F00BC006F023
:10519400120009680A680B68120019C01FF01AC0CF
:1051A40020F0216A226A11D0236A246A61CF7EFE2C
:1051B4000E017E51246E61CF7EFE0E017E51236E60
:1051C40034D8020E175E000E185A1850EDE1020E84
:1051D400175CEAE2175018101CE0236A246A61CFB6
:1051E4007EFE0E017E51246E236A1FD812D01F50FA
:1051F4001B6E20501C6E1D6A1E6A21501B241F6EDC
:1052040022501C20206E000E1D20216E000E1E2038
:10521400226E21502210EBE11F1E201E211E221E91
:105224001FC017F020C018F0FF0C23501F26245075
:105234002022000E21222222000C41EC32F046D81A
:10524400E82EFED7182EFCD700D040D8E82EFED783
:10525400182EFCD700D03AD8E82EFED7182EFCD74B
:1052640000D034D8E82EFED7182EFCD700D0030E79
:1052740086EC31F02ED8E82EFED7182EFCD700F09D
:10528400030E86EC31F025D8E82EFED7182EFCD775
:1052940000F0030E86EC31F0380E86EC31F046EC6B
:1052A40032F00C0E86EC31F046EC32F0010E86EC56
:1052B40031F046EC32F0010E86EC31F01C0E186E23
:1052C4000D0EE82EFED7182EFCD71200880E186E8D
:1052D400460C370E186E1B0CEEC01FF0EFC020F00A
:1052E4001BEC31F0030AD8A41200000120EE29F0CF
:1052F4003AD8DF50D8A41200F051F111D8B41200FA
:1053040020EE23F030D8F0C0DEFFF1C0DDFF20EE48
:1053140023F029D810EE25F0EE51E126EF5118ECD8
:105324002CF020EE27F01FD8F2C0DEFFF3C0DDFF23
:1053340020EE29F018D8020EDF6E20EE32F013D8DA
:10534400020EDE6EDD6A20EE34F00DD8050EDF6E3F
:1053540020EE35F008D8100EDF6EEEC09FF0EFC0DF
:10536400A0F0ACEF12F0EE51D926EF51DA22120080
:105374001F6A206A216A226A97C223F098C224F025
:1053840099C225F09AC226F09BC227F09CC228F04D
:105394009DC229F09EC22AF094C22BF02C6A17C039
:1053A4002DF018C02EF00C0E1E6ED8901E32230E57
:1053B4001D6E11D01D50D96EDA6ADECF19F0DDCF23
:1053C4001AF019501F261A502022000E21222222E0
:1053D4001E06020E1D261E50EDE11F50196E2050B0
:1053E4001A6E1B6A1C6A215019241F6E22501A203F
:1053F400206E000E1B20216E000E1C20226E1FC08A
:1054040017F020C018F012001FC017F020C018F0C9
:1054140068EC2BF00009D8A412001FC017F020C0BC
:1054240018F0CEEC22F020EE1AF032D8DE6ADD6AF3
:1054340020EE1CF02DD8B40EDE6E050EDD6E20EECF
:105444002AF026D8DF6A20EE2BF022D80D0EDF6E6C
:1054540020EE1EF01DD854EC2CF01AD8DF6A20EE92
:1054640023F016D8DE6ADD6A20EE25F011D8DE6A54
:10547400DD6A20EE27F00CD8DE6ADD6A20EE29F022
:1054840007D8DF6A1FC017F020C018F019EF2FF0FB
:105494001F50D9262050DA2212005FEC2EF0CEECF9
:1054A40027F0B90E176E010E186E72EC2DF0010183
:1054B400E651B95DE751BA59E851BB59BC5130D8EE
:1054C400E951800A0001FF5903E3F2EC30F020D8DF
:1054D4000101B9510201185D0101BA5102011959C2
:1054E4000101BB5102011A591B511AD8BC51800A3F
:1054F4000001FF5904E224EC2BF0F2EC1DF0B9C1D9
:1055040018F2BAC119F2BBC11AF2BCC11BF21200E3
:105514000A0E0101E627000EE723E823E923000C25
:10552400800A0001FF6F010112007ACF2BF07BCFBC
:105534002CF0130E25247A6E1A0E26207B6E27C0BB
:1055440017F028C018F029C019F02AC01AF0CFECBF
:1055540028F017C02DF018C02EF02F6A306A2BC027
:105564007AFF2CC07BFF2D500001606F616B626B72
:10557400636B62C063F061C062F060C061F0606B35
:105584002E50646F656B666B6451676F6551686F0D
:105594006651696F6A6B605167112D6E61516811B4
:1055A4002E6E625169112F6E63516A11306E2DC0D7
:1055B40025F02EC026F01200B5EC31F017C07BF0B8
:1055C40018C07CF031D87B0E8CEC2CF0260E1A6EB1
:1055D400A1EC2FF029D8110E7B25796F000E7C21C8
:1055E4007A6F34EC16F07B25276E000E7C21286E32
:1055F40079C029F07AC02AF097EC2AF025C079F016
:1056040026C07AF079517A1102E179697A69790EC2
:105614008CEC2CF0280E1A6EA1EC2FF07BC031F02C
:105624007CC032F059EF2CF000017B51756F746B24
:105634007C51766F776B745176117B6F755177114E
:105644007C6F12000101BDA915D0050E48180BE1AD
:1056540038D809E002011C691D691E691F69030E1F
:1056640033EC21F004D0010E486E33EC21F001013B
:10567400BD991200480403E0020E481804E1010E2B
:10568400486E33EF21F0C751C611C51109E1640E0C
:10569400C45D06E2050E481803E1030E33EF21F062
:1056A400050E481808E10DD806E0C407000EC55BD6
:1056B400C65BC75B000C05D8D8A41200020E486E66
:1056C400020CC451C511C611C71112001B6A1C6A11
:1056D4004150421038E01750181035E041C01DF019
:1056E40042C01EF026D017501D1806E118501E188F
:1056F40003E1010E1B6E27D02C0E1D24196E000E23
:105704001E201A6E19C0F6FF1AC0F7FF000EF86EBD
:105714000F0EF76407D00900F5CF1DF00900F5CF8F
:105724001EF006D073EC11F0EECF1DF0EECF1EF09C
:105734001C2A1D501E1007E01C50800A196E475089
:10574400800A195CD0E31B50120011C117F012C17A
:1057540018F068EC2BF00009D8B41200010120EE17
:105764002BF025D8020EDF6E20EE36F020D8020E84
:10577400DF6E20EE10F01BD824C2DEFF25C2DEFF50
:1057840026C2DEFF27C2DEFF11C13BF012C13CF08E
:1057940013D8DE50DE1002E062EF08F00DD83DC0F1
:1057A400DEFF3EC0DDFF3D4A3E2A62EF08F01151A4
:1057B400D9261251DA22120011C1D9FF12C1DAFF1F
:1057C40012001FC017F020C018F068EC2BF000097D
:1057D400D8B4120020EE22F024D8DF50D8A412004E
:1057E40021502210D8B4120020EE1EF01AD821C085
:1057F400DEFF22C0DDFF20EE1EF013D810EE20F0F5
:105804001F50E126205012D820EE1AF00AD823C0E7
:10581400DEFF24C0DDFF20EE22F003D8010EDF6E90
:10582400010C1F50D9262050DA221200E222DECFCA
:10583400E6FFDDCFE5FF1200256A266A1FC017F0D8
:1058440020C018F068EC2BF0000922E020EE22F0D2
:1058540024D8DE041DE120EE1EF01FD8DECF21F097
:10586400DDCF22F020EE20F018D8DECF23F0DDCFFC
:1058740024F02150235C256E22502458266E2510D6
:1058840007E020EE1AF009D80DD807D8000EDF6A19
:1058940025C01FF026C020F012001F50D92620502A
:1058A400DA221200DE6ADD6A20EE22F01200140E03
:1058B40031240001726F000E3220736F72516C6FCD
:1058C4006B6B73516D6F6E6B6B516D11726F6C51AD
:1058D4006E11736F720E1ED8100E1A6EA1EC2FF09B
:1058E400266A0E0E256E286A140E276E2A6A296A05
:1058F40097EC2AF025C070F026C071F0700E0AD81B
:10590400180E1A6EA1EC2FF088EC30F000016F6FC6
:105914006F511200176E196A020E186E1B6A020C80
:105924001C6A1D6A17C01EF018C01FF01FD01EC0CD
:10593400F6FF1FC0F7FF000EF86E61CF7EFE0E016A
:105944007E511B6E0F0EF76404D01BC0F5FF0C00D4
:1059540004D073EC11F01BC0EFFF1E4A1F2A1C4A2F
:105964001D2A1906D8A01A06D7EC30F00101CC5133
:10597400CD1103E019501A10DAE11CC017F01DC054
:1059840018F01200256A266A1FC017F020C018F00C
:1059940068EC2BF0000919E020EE22F01BD8DE049D
:1059A40014E120EE1EF016D8DECF21F0DDCF22F078
:1059B40020EE20F00FD8DECF23F0DDCF24F02150ED
:1059C400235C256E22502458266E25C01FF026C065
:1059D40020F012001F50D9262050DA2212001B6A30
:1059E4001C6A1D6A1E6A0101CD5103E1040ECC5DDF
:1059F40018E361CF7EFE0E017E511E6E61CF7EFEE6
:105A04000E017E511D6E61CF7EFE0E017E511C6E15
:105A140061CF7EFE0E017E511B6E040E7CEC2FF0D6
:105A240001D0BD811BC017F01CC018F01DC019F0B7
:105A34001EC01AF012003FC07AFF40C07BFF61CF46
:105A44007EFE0E017E513F6E61CF7EFE0E017E51C1
:105A5400406E61CF7EFE0E017E510101CC6F61CF9D
:105A64007EFE0E017E510101CD6F61CF7EFE0E01DF
:105A74007E510101CE6F61CF7EFE0E017E51010188
:105A8400CF6F040ECC5F000ECD5B000C0101BD9303
:105A94000E01FE514009FE6F18D8E851195CE95116
:105AA4001A5806E312D81950EA5D1A50EB5905E268
:105AB400EACEECFEEBCEEDFE06D0FF0E3F24EC6FFB
:105AC400FF0E4020ED6FFB8D1200176818683FC071
:105AD40019F040C01AF01750192618501A22120053
:105AE400000EF2BE010E1B6EF29ED4C21CF0D5C293
:105AF4001DF0D6C21EF0D7C21FF01BA002D0F28E3A
:105B040001D0F29E175018100CE017C0D9FF18C02E
:105B1400DAFF1CC0DEFF1DC0DEFF1EC0DEFF1FC09B
:105B2400DEFF1CC017F01DC018F01EC019F01FC006
:105B34001AF012001B6E1BC0B4FE19C07EFE1AC000
:105B44007FFEF2CF1CF0F26A7ECEB6FE7FCEB7FEA9
:105B54001CC0F2FF176A186A00F0182A090E1864AC
:105B6400FBD701D0F9D75A0E186E01D000F00E0100
:105B74008AA102D0182EFAD71850D8A401D01768D9
:105B840017501200B60E176E186A1FD892EC2CF03C
:105B94004BEC32F008D0B60E9F6FAFC0A0F0B0C08F
:105BA400A1F035EF24F00001B651B26FB16BB751DB
:105BB400B36FB46BB151B313B251B413B451080AF7
:105BC400D8A41200B351E7E012001A6A080E196E45
:105BD400080C9FC022F0A0C023F0A1C024F0A2C0F2
:105BE40025F0110E266E0DEC22F02F6E2F0416E117
:105BF40050EC32F0A3C017F0A4C018F034EC32F02B
:105C0400A5C017F0A6C018F034EC32F0186A176A71
:105C140034EC32F0186A176A34EC32F02F50120068
:105C2400000E1F6E030E206E216A20EE06F01F5038
:105C3400D9262050DA221750DE180EE11850DE184B
:105C44000BE11950DE1808E11A50DE1805E11FC0F7
:105C540017F020C018F012000D0E1F26000E20228F
:105C6400212A070E2164E1D7176A186A1200CA0EA6
:105C7400F66E640EF76E000EF86E0900F5CF48F06C
:105C840003EE00F0680EEE6AE806FDE102EE00F0B5
:105C9400A70EEE6AE806FDE101EEBDF02D0EEE6AF8
:105CA400E806FDE100EE33F0150EEE6AE806FDE1CC
:105CB4004990499200018FEF26F01ED8D96508D08B
:105CC40060A806D0130E25EC28F019D871EC30F03A
:105CD40060B0609060B2609260B60AD860AC1200A6
:105CE4000101BDB3120000D0BD830E01FB9D120063
:105CF40060960101BD9B1200A19A0E01020C0101E4
:105D0400BD89BD95120017C01BF018C01CF013D03C
:105D14001BC0F6FF1CC0F7FF000EF86E0F0EF764F1
:105D240003D00800F55003D073EC11F0EF50E8CF26
:105D340061FF1B4A1C2A1906D8A01A06192803E178
:105D44001A28D8B412000E01E2291F0EE359E0E329
:105D540012001AD01850D96EDA6A1750E16EE26A4E
:105D6400DE50E6180FE01750D96EDA6ADF501B6E6A
:105D74001850D96EDA6ADF501B5C176E186AD8A007
:105D840018061200172A182A1906D8A01A06192864
:105D9400E1E11A28DFE1176A186A12001C6A1D6A19
:105DA40019501A101BE0010E1B6E04D0D89019363E
:105DB4001A361B2A1AAEFAD7D8901C361D3619503B
:105DC400175C1A50185805E31950175E1A50185AE0
:105DD4001C80D8901A3219321B2EEED71CC017F033
:105DE4001DC018F01200020ED36E400E9B6E9A6A0C
:105DF400916A9496949A956A9498926A010E936E15
:105E04009392939493969398939A939C939E81924E
:105E1400819481968198819A819CC0EC2FF03BEC0F
:105E240032F012EC32F01FEC29F096EF31F04150D1
:105E340042100AE020EE2EF04150D9264250DA22D8
:105E440017C0DEFF18C0DDFF20EE2CF00FD841C0D4
:105E5400DEFF42C0DDFF17C041F018C042F020EE63
:105E64002EF004D8DE6ADD6A472A000C1750D926C2
:105E74001850DA2212007ACF2DF07BCF2EF025C0F5
:105E840017F026C018F027C019F028C01AF0CFEC7C
:105E940028F017C02FF018C030F0316A326A2DC0D4
:105EA4007AFF2EC07BFF2F502A6E296A30502B6E4A
:105EB4002C6A2910256E2A502C10266E1200196A9D
:105EC4001A6A0101CD5103E1020ECC5D0DE361CFED
:105ED4007EFE0E017E511A6E61CF7EFE0E017E5152
:105EE400196E020E07D801D0BD8119C017F01AC06F
:105EF40018F012000101CC5F000ECD5BBD91000CC7
:105F04002050211017E0010E226E04D0D8902036C4
:105F14002136222A21AEFAD720501E5C21501F5868
:105F240004E320501E5E21501F5AD89021322032A3
:105F3400222EF2D71EC01EF01FC01FF01200E2CEA8
:105F44001CF0E3CE1DF0130E1A240E01E26F1A0E9C
:105F54001B20E36F07D01750D96EDA6ADF50E8CF01
:105F640061FF172A1806D8A019061828F4E1192881
:105F7400F2E11CC0E2FE1DC0E3FE1200CD82CD861C
:105F8400CD98CD9ACD84CD80800ECF6ECE6AE00EB2
:105F9400D46FC20ED56F1E0ED66F4D0ED76F600E26
:105FA400D86F410ED96FC90EDA6FD00EDB6F9F80A8
:105FB4009D80D00C7EEC2EF0D96509D060A807D066
:105FC400130E7AEC28F081EC2EF02AEC30F060B05D
:105FD400609060B2609260B67AEC2EF060AC120011
:105FE4000101BDB3120076EF2EF01750D96EDA6AB4
:105FF40084CEDFFF0FD885CEDFFF0CD882CEDFFF43
:1060040009D883CEDFFF06D880CEDFFF03D881CE48
:10601400DFFF1200172A1750D96EDA6A1200176AC6
:10602400186A72EC2DF017C06BF018C06CF019C030
:106034006DF01AC06EF0390E0001606F6BC061F034
:106044006CC062F06DC063F06EC064F053EF31F069
:10605400110E7AEC28F003C00CF004C00DF005C05A
:106064000EF006C00FF00CC010F00DC011F00EC001
:1060740012F00FC013F011A4000C00D00101BD8573
:10608400010C60C06CF061C06DF06E6B6F6B706B77
:10609400630E6B6F6C0E236E62C024F06B0E256E64
:1060A40047EC1BF06CC0D9FF6DC0DAFFDF6A000C4F
:1060B4000101CC51175CCD51185804E3CCC117F041
:1060C400CDC118F017501810D8B4120017507A2602
:1060D40018507B221750CC5F1850CD5B1200110E64
:1060E40025EC28F019C022F01AC023F01BC024F0BC
:1060F4001CC025F022C026F023C027F024C028F0BD
:1061040025C029F027A4000C40EF30F0FF0E0E014B
:10611400E225176EFF0EE321186E0101BDA5020CE6
:10612400BDAB030CFDEC25F017C0E6FE18C0E7FE7E
:1061340000F000F0D286010C17C01DF018C01EF04C
:1061440008D01DC0D9FF1EC0DAFF19C0DFFF1D4AE9
:106154001E2A1B06D8A01C061B28F3E11C28F1E10B
:106164001200216A1FC017F020C018F068EC2BF051
:1061740000090AE020EE29F01F50D9262050DA2227
:10618400DF5002E1010E216E21501200176A010155
:10619400CC51CD1107E061CF7EFE0E017E51176E0A
:1061A40004D801D0BD81175012000101CC07D8A03A
:1061B400CD07BD911200176A186A72EC2DF017C052
:1061C4006BF018C06CF0A90E0001606F6BC061F039
:1061D4006CC062F031C063F032C064F053EF31F050
:1061E400000E176E030E186E196A20EE0CF017508D
:1061F400D9261850DA22DF2A0D0E1726000E18228F
:10620400192A070E1964F1D7070C9DB09EA012003D
:106214009E90CD90800ECF6ECE6ACD800201D42B9D
:10622400000ED523D623D723D82BD923DA23DB2377
:10623400000C216A1FC017F020C018F068EC2BF086
:10624400000908E020EE36F01F50D9262050DA224B
:10625400DF50216E2150120017501902F3CF1BF0AA
:10626400F4CF1CF017501A02F3501C2618501902D0
:10627400F3501C261BC017F01CC018F012001FC0DE
:1062840017F020C018F068EC2BF00009D8B4120005
:106294001FC0D9FF20C0DAFF21C0DEFF22C0DDFF0E
:1062A4001200666B676BA40E686F630E696F000E55
:1062B4006A6F610E656F660E236E60C024F0650E12
:1062C400256E47EF1BF0DDEC24F0F9EC31F05AECCD
:1062D40032F0ECEC31F0E60E176E010E186E72EC33
:1062E4002DF08AEC2AF0000C176E9092908417C05F
:1062F4008DFF030EE82EFED700F09080030EE82EEB
:10630400FED700F090901200176E90929094AD0E0C
:10631400E82EFED700F017C08DFF9080AD0EE82E5A
:10632400FED700F090901200176A176A1750020DFA
:10633400000EF324D96E020EF420DA6EDF6A172AF7
:10634400070E1764F3D7070C05D007D8C4EC31F057
:10635400194A1A2A02D8F9E1120019C0D9FF1AC041
:10636400DAFFDF5012000101C2510E01E25D196E25
:106374000101C3510E01E3591A6E19C017F01AC076
:1063840018F01200186E1F0E186446EF32F07F0EDC
:10639400186046EF32F0185076EC31F046EF32F0E8
:1063A400176E0A0E171804E19EA8FED70D0EAD6EE7
:1063B4009EA8FED717C0ADFF12001A50E8CF61FFA8
:1063C4001950E8CF61FF1850E8CF61FF1750E8CFAC
:1063D40061FF1200416A426A476A040E3E6E000E73
:1063E4003D6A0201246B256B266B276B1200176A2A
:1063F400000E1724D96EDA6A030EDA22DF6A172A2E
:10640400670E1764F5D7670C03D0000E55EC32F015
:106414001806D8A019061828F8E11928F6E1120080
:10642400948E949C7E6A590EAF6E7E86260EAC6E58
:10643400AB88AB8E260C33C017F034C018F035C0CF
:1064440019F036C01AF01200186E1850800F86EC3E
:1064540031F046EF32F001D000F071EC30F0000979
:10646400FBE012001850E8CF61FF1750E8CF61FF3E
:106474001200C78CC79E010EC66EC68A010C966AAE
:10648400996A8D6A906A1200AD0EE82EFED700F06C
:1064940012007ACFC0F17BCFC1F11200E2CEC2F17B
:1064A400E3CEC3F11200176E1750E8CF61FF12005C
:1064B400336A346A356A366A120007EC31F049925D
:0764C40011002E0E12000171
:020000040001F9
:06FFF800A0F4C5FFF0F3C8
:00000001FF
