:0400000014EF00F009
:060008005E82F5EF43F0FB
:100018005E80E0CF01F000F001C0E0FF5E901000CC
:040028004CEF40F069
:101000000001000A006400E803102701001000003E
:1010100001001050494331384639374A36302045AF
:10102000544845524E455400FFFFFFFFFFFF00DECE
:10103000AD00BEEF44008C60000D0A0D0A537461D0
:101040007274696E67205379736C6F6720617420C6
:1010500025750D0A00303132333435363738396171
:1010600062636465660057616974696E6720666FC4
:1010700072204C696E6B004C696E6B2073746172E8
:101080007465640025642E25642E25642E25640075
:101090002575203A2025730D0A002578203A202551
:1010A0006400286E756C6C2900000001CF6B2A0E5D
:1010B000FE25C36F000EFF21C46FC3C0F6FFC4C07E
:1010C000F7FF000EF86E0F0EF76403D00800F5501E
:1010D00005D0F6CFE9FFF7CFEAFFEF500001D36F5D
:1010E0002B0EFE25C36F000EFF21C46FC3C0F6FF99
:1010F000C4C0F7FF000EF86E0F0EF76403D00800AF
:10110000F55005D0F6CFE9FFF7CFEAFFEF50000129
:10111000D26FA0EF1CF0020EFE25C36F000EFF2160
:10112000C46FC3C0F6FFC4C0F7FF000EF86E0F0E09
:10113000F7640DD096C1F5FF0D0097C1F5FF0D00C6
:1011400098C1F5FF0D0099C1F5FF0C000CD0F6CF4A
:10115000E9FFF7CFEAFF96C1EEFF97C1EEFF98C116
:10116000EEFF99C1EFFF060E0001FE25C36F000ED2
:10117000FF21C46FC3C0F6FFC4C0F7FF000EF86EB6
:101180000F0EF76407D0BCC1F5FF0D00BDC1F5FF20
:101190000C0008D0F6CFE9FFF7CFEAFFBCC1EEFFA5
:1011A000BDC1EFFF140E0001FE25C36F000EFF212D
:1011B000C46FC3C0F6FFC4C0F7FF000EF86E0F0E79
:1011C000F76409D0F56A0D00F56A0D00F56A0D00A7
:1011D000F56A0C0008D0F6CFE9FFF7CFEAFFEE6A18
:1011E000EE6AEE6AEF6A080E0001FE25C36F000E7C
:1011F000FF21C46FC3C0F6FFC4C0F7FF000EF86E36
:101200000F0EF7640DD0C0C1F5FF0D00C1C1F5FF91
:101210000D00C2C1F5FF0D00C3C1F5FF0C000CD0DD
:10122000F6CFE9FFF7CFEAFFC0C1EEFFC1C1EEFF85
:10123000C2C1EEFFC3C1EFFF080E0001FE25C36F60
:10124000000EFF21C46FC3C0F6FFC4C0F7FF000E3D
:10125000F86E0F0EF7640DD00900F5CFC5F0090048
:10126000F5CFC6F00900F5CFC7F00900F5CFC8F0FB
:101270000CD0F6CFE9FFF7CFEAFFEECFC5F0EECF07
:10128000C6F0EECFC7F0EECFC8F0010E0001C525C5
:10129000C96F000EC621CA6F000EC721CB6F000EAA
:1012A000C821CC6F0C0EFE25CD6F000EFF21CE6F36
:1012B000CDC0F6FFCEC0F7FF000EF86E0F0EF7643C
:1012C0000DD0C9C0F5FF0D00CAC0F5FF0D00CBC0A1
:1012D000F5FF0D00CCC0F5FF0C000CD0F6CFE9FFF8
:1012E000F7CFEAFFC9C0EEFFCAC0EEFFCBC0EEFFEA
:1012F000CCC0EFFF0101CA510001C46FC36B21EEE6
:10130000CAF0DECFC5F0DDCFC6F0C6C0C5F0C66BF3
:10131000C66BC351C513C451C613180EFE25C76F43
:10132000000EFF21C86FC7C0F6FFC8C0F7FF000E50
:10133000F86E0F0EF76407D0C5C0F5FF0D00C6C0EC
:10134000F5FF0C0008D0F6CFE9FFF7CFEAFFC5C0E4
:10135000EEFFC6C0EFFF1C0E0001FE25C36F000E9E
:10136000FF21C46FC3C0F6FFC4C0F7FF000EF86EC4
:101370000F0EF76407D0A4C1F5FF0D00A5C1F5FF5E
:101380000C0008D0F6CFE9FFF7CFEAFFA4C1EEFFCB
:10139000A5C1EFFF350E0001FE25C36F000EFF2132
:1013A000C46FC3C0F6FFC4C0F7FF000EF86E0F0E87
:1013B000F76404D0120EF56E0C0006D0F6CFE9FFEC
:1013C000F7CFEAFF120EEF6E300E0001FE25C36F5D
:1013D000000EFF21C46FC3C0F6FFC4C0F7FF000EAC
:1013E000F86E0F0EF76406D0020EF56E0D00F56A6A
:1013F0000C0007D0F6CFE9FFF7CFEAFF020EEE6E42
:10140000EF6A320E0001FE25C36F000EFF21C46F8C
:10141000C3C0F6FFC4C0F7FF000EF86E0F0EF764EE
:1014200006D0020EF56E0D00F56A0C0007D0F6CF5F
:10143000E9FFF7CFEAFF020EEE6EEF6A340E00010D
:10144000FE25C36F000EFF21C46FC3C0F6FFC4C0EA
:10145000F7FF000EF86E0F0EF76404D0030EF56E62
:101460000C0006D0F6CFE9FFF7CFEAFF030EEF6ED0
:10147000FEC058F0FFC059F011EC1DF0030E97EFBD
:101480001AF00001D36BFEC002F0FFC003F0E2ECE3
:101490002EF0DAEF1CF00001D251F3E0030A01E173
:1014A0003AD6DAEF1CF0080EFE25C36F000EFF21BE
:1014B000C46FC3C0F6FFC4C0F7FF000EF86E0F0E76
:1014C000F7640DD0C0C1F5FF0D00C1C1F5FF0D00DF
:1014D000C2C1F5FF0D00C3C1F5FF0C000CD0F6CF63
:1014E000E9FFF7CFEAFFC0C1EEFFC1C1EEFFC2C105
:1014F000EEFFC3C1EFFF010E0101C0250001C36F64
:10150000000E0101C1210001C46F000E0101C221C2
:101510000001C56F000E0101C3210001C66F0C0E52
:10152000FE25C76F000EFF21C86FC7C0F6FFC8C0F9
:10153000F7FF000EF86E0F0EF7640DD0C3C0F5FF75
:101540000D00C4C0F5FF0D00C5C0F5FF0D00C6C0FD
:10155000F5FF0C000CD0F6CFE9FFF7CFEAFFC3C0D0
:10156000EEFFC4C0EEFFC5C0EEFFC6C0EFFF010135
:10157000CA510001C46FC36B21EECAF0DECFC5F0C3
:10158000DDCFC6F0C6C0C5F0C66BC66BC351C51370
:10159000C451C613180EFE25C76F000EFF21C86F79
:1015A000C7C0F6FFC8C0F7FF000EF86E0F0EF76455
:1015B00007D0C5C0F5FF0D00C6C0F5FF0C0008D070
:1015C000F6CFE9FFF7CFEAFFC5C0EEFFC6C0EFFFD9
:1015D0001C0E0001FE25C36F000EFF21C46FC3C0A7
:1015E000F6FFC4C0F7FF000EF86E0F0EF76407D0C9
:1015F000A4C1F5FF0D00A5C1F5FF0C0008D0F6CF82
:10160000E9FFF7CFEAFFA4C1EEFFA5C1EFFF300E5F
:101610000001FE25C36F000EFF21C46FC3C0F6FF9B
:10162000C4C0F7FF000EF86E0F0EF76406D0020E6E
:10163000F56E0D00F56A0C0007D0F6CFE9FFF7CF85
:10164000EAFF020EEE6EEF6A320E0001FE25C36F56
:10165000000EFF21C46FC3C0F6FFC4C0F7FF000E29
:10166000F86E0F0EF76406D0020EF56E0D00F56AE7
:101670000C0007D0F6CFE9FFF7CFEAFF020EEE6EBF
:10168000EF6A340E0001FE25C36F000EFF21C46F08
:10169000C3C0F6FFC4C0F7FF000EF86E0F0EF7646C
:1016A00004D0030EF56E0C0006D0F6CFE9FFF7CF9D
:1016B000EAFF030EEF6E350E0001FE25C36F000E2C
:1016C000FF21C46FC3C0F6FFC4C0F7FF000EF86E61
:1016D0000F0EF76404D0120EF56E0C0006D0F6CF94
:1016E000E9FFF7CFEAFF120EEF6EC2D6300EFE25ED
:1016F000C36F000EFF21C46FC3C0F6FFC4C0F7FF65
:10170000000EF86E0F0EF76405D0F56A0D00F56A4D
:101710000C0006D0F6CFE9FFF7CFEAFFEE6AEF6ADA
:10172000100E0001FE25C36F000EFF21C46FC3C061
:10173000F6FFC4C0F7FF000EF86E0F0EF7640DD071
:101740000900F5CFC5F00900F5CFC6F00900F5CFC7
:10175000C7F00900F5CFC8F00CD0F6CFE9FFF7CFFE
:10176000EAFFEECFC5F0EECFC6F0EECFC7F0EECF7A
:10177000C8F0010E0001C525C96F000EC621CA6F51
:10178000000EC721CB6F000EC821CC6F0101C451E0
:101790000001C9190FE10101C5510001CA190AE18F
:1017A0000101C6510001CB1905E10101C75100013A
:1017B000CC19D8A44FD1100EFE25C36F000EFF2107
:1017C000C46FC3C0F6FFC4C0F7FF000EF86E0F0E63
:1017D000F7640DD00900F5CFC5F00900F5CFC6F0CC
:1017E0000900F5CFC7F00900F5CFC8F00CD0F6CF4F
:1017F000E9FFF7CFEAFFEECFC5F0EECFC6F0EECFB0
:10180000C7F0EECFC8F0010E0001C525C96F000E6C
:10181000C621CA6F000EC721CB6F000EC821CC6F46
:10182000100EFE25CD6F000EFF21CE6FCDC0F6FF4E
:10183000CEC0F7FF000EF86E0F0EF7640DD0C9C0D2
:10184000F5FF0D00CAC0F5FF0D00CBC0F5FF0D0080
:10185000CCC0F5FF0C000CD0F6CFE9FFF7CFEAFFC4
:10186000C9C0EEFFCAC0EEFFCBC0EEFFCCC0EFFF99
:10187000350E0001FE25C36F000EFF21C46FC3C0EB
:10188000F6FFC4C0F7FF000EF86E0F0EF76404D029
:10189000100EF56E0C0006D0F6CFE9FFF7CFEAFF89
:1018A000100EEF6E080E0001FE25C36F000EFF2123
:1018B000C46FC3C0F6FFC4C0F7FF000EF86E0F0E72
:1018C000F7640DD0C0C1F5FF0D00C1C1F5FF0D00DB
:1018D000C2C1F5FF0D00C3C1F5FF0C000CD0F6CF5F
:1018E000E9FFF7CFEAFFC0C1EEFFC1C1EEFFC2C101
:1018F000EEFFC3C1EFFF010E0101C0250001C36F60
:10190000000E0101C1210001C46F000E0101C221BE
:101910000001C56F000E0101C3210001C66F0C0E4E
:10192000FE25C76F000EFF21C86FC7C0F6FFC8C0F5
:10193000F7FF000EF86E0F0EF7640DD0C3C0F5FF71
:101940000D00C4C0F5FF0D00C5C0F5FF0D00C6C0F9
:10195000F5FF0C000CD0F6CFE9FFF7CFEAFFC3C0CC
:10196000EEFFC4C0EEFFC5C0EEFFC6C0EFFF010131
:10197000CA510001C46FC36B21EECAF0DECFC5F0BF
:10198000DDCFC6F0C6C0C5F0C66BC66BC351C5136C
:10199000C451C613180EFE25C76F000EFF21C86F75
:1019A000C7C0F6FFC8C0F7FF000EF86E0F0EF76451
:1019B00007D0C5C0F5FF0D00C6C0F5FF0C0008D06C
:1019C000F6CFE9FFF7CFEAFFC5C0EEFFC6C0EFFFD5
:1019D0001C0E0001FE25C36F000EFF21C46FC3C0A3
:1019E000F6FFC4C0F7FF000EF86E0F0EF76407D0C5
:1019F000A4C1F5FF0D00A5C1F5FF0C0008D0F6CF7E
:101A0000E9FFF7CFEAFFA4C1EEFFA5C1EFFFFEC0DB
:101A100058F0FFC059F011EC1DF0000902E1DAEFB7
:101A20001CF0040ED36F360EFE25C36F000EFF218F
:101A3000C46FC3C0F6FFC4C0F7FF000EF86E0F0EF0
:101A4000F76404D0030EF56E0C0002D09FEF12F085
:101A5000DAEF1CF0100EFE25C36F000EFF21C46FDD
:101A6000C3C0F6FFC4C0F7FF000EF86E0F0EF76498
:101A70000DD0C4C1F5FF0D00C5C1F5FF0D00C6C1F5
:101A8000F5FF0D00C7C1F5FF0C000CD0F6CFE9FF44
:101A9000F7CFEAFFC4C1EEFFC5C1EEFFC6C1EEFF3E
:101AA000C7C1EFFF350E0001FE25C36F000EFF21F9
:101AB000C46FC3C0F6FFC4C0F7FF000EF86E0F0E70
:101AC000F76404D0140EF56E0C0006D0F6CFE9FFD3
:101AD000F7CFEAFF140EEF6EFEC058F0FFC059F0CA
:101AE00011EC1DF0000901E0CCD4DAEF1CF0300E4F
:101AF000FE25C36F000EFF21C46FC3C0F6FFC4C034
:101B0000F7FF000EF86E0F0EF76405D0F56A0D00B2
:101B1000F56A0C0006D0F6CFE9FFF7CFEAFFEE6AD0
:101B2000EF6A100E0001FE25C36F000EFF21C46F87
:101B3000C3C0F6FFC4C0F7FF000EF86E0F0EF764C7
:101B40000DD00900F5CFC5F00900F5CFC6F00900AA
:101B5000F5CFC7F00900F5CFC8F00CD0F6CFE9FFFC
:101B6000F7CFEAFFEECFC5F0EECFC6F0EECFC7F06D
:101B7000EECFC8F0010E0001C525C96F000EC621C9
:101B8000CA6F000EC721CB6F000EC821CC6F0101B8
:101B9000C4510001C9190FE10101C5510001CA1961
:101BA0000AE10101C6510001CB1905E10101C7514C
:101BB0000001CC19D8A445D1100EFE25C36F000E2C
:101BC000FF21C46FC3C0F6FFC4C0F7FF000EF86E5C
:101BD0000F0EF7640DD00900F5CFC5F00900F5CF61
:101BE000C6F00900F5CFC7F00900F5CFC8F00CD05A
:101BF000F6CFE9FFF7CFEAFFEECFC5F0EECFC6F0A4
:101C0000EECFC7F0EECFC8F0010E0001C525C96FB9
:101C1000000EC621CA6F000EC721CB6F000EC8216F
:101C2000CC6F100EFE25CD6F000EFF21CE6FCDC004
:101C3000F6FFCEC0F7FF000EF86E0F0EF7640DD062
:101C4000C9C0F5FF0D00CAC0F5FF0D00CBC0F5FF00
:101C50000D00CCC0F5FF0C000CD0F6CFE9FFF7CF9C
:101C6000EAFFC9C0EEFFCAC0EEFFCBC0EEFFCCC09A
:101C7000EFFF350E0001FE25C36F000EFF21C46F7C
:101C8000C3C0F6FFC4C0F7FF000EF86E0F0EF76476
:101C900004D0100EF56E0C0006D0F6CFE9FFF7CF9A
:101CA000EAFF100EEF6E080E0001FE25C36F000E56
:101CB000FF21C46FC3C0F6FFC4C0F7FF000EF86E6B
:101CC0000F0EF7640DD0C0C1F5FF0D00C1C1F5FFC7
:101CD0000D00C2C1F5FF0D00C3C1F5FF0C000CD013
:101CE000F6CFE9FFF7CFEAFFC0C1EEFFC1C1EEFFBB
:101CF000C2C1EEFFC3C1EFFF010E0101C02500010B
:101D0000C36F000E0101C1210001C46F000E01016B
:101D1000C2210001C56F000E0101C3210001C66F81
:101D20000C0EFE25C76F000EFF21C86FC7C0F6FF5F
:101D3000C8C0F7FF000EF86E0F0EF7640DD0C3C0D9
:101D4000F5FF0D00C4C0F5FF0D00C5C0F5FF0D0087
:101D5000C6C0F5FF0C000CD0F6CFE9FFF7CFEAFFC5
:101D6000C3C0EEFFC4C0EEFFC5C0EEFFC6C0EFFFAC
:101D70000101CA510001C46FC36B21EECAF0DECF6E
:101D8000C5F0DDCFC6F0C6C0C5F0C66BC66BC3518B
:101D9000C513C451C613180EFE25C76F000EFF21D0
:101DA000C86FC7C0F6FFC8C0F7FF000EF86E0F0E71
:101DB000F76407D0C5C0F5FF0D00C6C0F5FF0C00E5
:101DC00008D0F6CFE9FFF7CFEAFFC5C0EEFFC6C0E7
:101DD000EFFF1C0E0001FE25C36F000EFF21C46F34
:101DE000C3C0F6FFC4C0F7FF000EF86E0F0EF76415
:101DF00007D0A4C1F5FF0D00A5C1F5FF0C0008D068
:101E0000F6CFE9FFF7CFEAFFA4C1EEFFA5C1EFFFD0
:101E1000040E0001D36F360EFE25C36F000EFF21A6
:101E2000C46FC3C0F6FFC4C0F7FF000EF86E0F0EFC
:101E3000F76404D0030EF56E0C0001D080D3DAEF06
:101E40001CF0100EFE25C36F000EFF21C46FC3C02F
:101E5000F6FFC4C0F7FF000EF86E0F0EF7640DD04A
:101E6000C4C1F5FF0D00C5C1F5FF0D00C6C1F5FFEA
:101E70000D00C7C1F5FF0C000CD0F6CFE9FFF7CF7E
:101E8000EAFFC4C1EEFFC5C1EEFFC6C1EEFFC7C188
:101E9000EFFF350E0001FE25C36F000EFF21C46F5A
:101EA000C3C0F6FFC4C0F7FF000EF86E0F0EF76454
:101EB00004D0040EF56E0C0006D0F6CFE9FFF7CF84
:101EC000EAFF040EEF6EFEC058F0FFC059F011ECAF
:101ED0001DF008D6340EFE25C36F000EFF21C46F1F
:101EE000C3C0F6FFC4C0F7FF000EF86E0F0EF76414
:101EF00003D00800F55005D0F6CFE9FFF7CFEAFF91
:101F0000EF5000095AE0FEC058F0FFC059F011EC44
:101F10001DF0000902E1DAEF1CF0350EFE25C36F5B
:101F2000000EFF21C46FC3C0F6FFC4C0F7FF000E50
:101F3000F86E0F0EF76403D00800F55005D0F6CF09
:101F4000E9FFF7CFEAFFEF500001C56FC5B541EFDC
:101F50000AF0350EFE25C36F000EFF21C46FC3C00B
:101F6000F6FFC4C0F7FF000EF86E0F0EF76403D043
:101F70000800F55005D0F6CFE9FFF7CFEAFFEF50A4
:101F80000001C56FC5A9DAEF1CF0040ED36F360E41
:101F9000FE25C36F000EFF21C46FC3C0F6FFC4C08F
:101FA000F7FF000EF86E0F0EF76404D0030EF56E07
:101FB0000C0001D0C4D2DAEF1CF0350E0001FE2572
:101FC000C36F000EFF21C46FC3C0F6FFC4C0F7FF8C
:101FD000000EF86E0F0EF76404D0040EF56E0C00C0
:101FE00006D0F6CFE9FFF7CFEAFF040EEF6EFEC092
:101FF00058F0FFC059F011EC1DF074D50001D2511A
:1020000002E141EF0AF0030A02E153EF0AF0070A86
:1020100001E16DD5010A02E176EF0BF00C0A02E155
:1020200041EF0AF0030A02E141EF0AF0060A01E17A
:1020300051D7DAEF1CF0FEC0F6FFFFC0F7FF000E2D
:10204000F86E0F0EF76407D00900F5CFC3F0090052
:10205000F5CFC4F008D0F6CFE9FFF7CFEAFFEECF17
:10206000C3F0EECFC4F00101BE510001C31905E178
:102070000101BF510001C419D8A4DAEF1CF0300EE1
:10208000FE25C36F000EFF21C46FC3C0F6FFC4C09E
:10209000F7FF000EF86E0F0EF76405D0F56A0D001D
:1020A000F56A0C0006D0F6CFE9FFF7CFEAFFEE6A3B
:1020B000EF6A020E0001FE25C36F000EFF21C46F00
:1020C000C3C0F6FFC4C0F7FF000EF86E0F0EF76432
:1020D0000DD00900F5CFC5F00900F5CFC6F0090015
:1020E000F5CFC7F00900F5CFC8F00CD0F6CFE9FF67
:1020F000F7CFEAFFEECFC5F0EECFC6F0EECFC7F0D8
:10210000EECFC8F0010196510001C5190FE10101A0
:1021100097510001C6197EE1010198510001C719CC
:1021200079E1010199510001C819D8A473D0060EB4
:10213000FE25C36F000EFF21C46FC3C0F6FFC4C0ED
:10214000F7FF000EF86E0F0EF76407D00900F5CF09
:10215000C5F00900F5CFC6F008D0F6CFE9FFF7CFFC
:10216000EAFFEECFC5F0EECFC6F00101BC51000191
:10217000C51950E10101BD510001C6194BE1100E16
:10218000FE25C36F000EFF21C46FC3C0F6FFC4C09D
:10219000F7FF000EF86E0F0EF7640DD00900F5CFB3
:1021A000C5F00900F5CFC6F00900F5CFC7F009006A
:1021B000F5CFC8F00CD0F6CFE9FFF7CFEAFFEECFAE
:1021C000C5F0EECFC6F0EECFC7F0EECFC8F0010EEF
:1021D0000001C525C96F000EC621CA6F000EC721B8
:1021E000CB6F000EC821CC6F0101C4510001C91989
:1021F00011E10101C5510001CA190CE10101C651EB
:102200000001CB1907E10101C7510001CC1902E11E
:10221000040ED36F360EFE25C36F000EFF21C46F70
:10222000C3C0F6FFC4C0F7FF000EF86E0F0EF764D0
:1022300004D0030EF56E0C0001D081D1DAEF1CF052
:10224000020EFE25C36F000EFF21C46FC3C0F6FF50
:10225000C4C0F7FF000EF86E0F0EF7640DD0090032
:10226000F5CFC5F00900F5CFC6F00900F5CFC7F0EE
:102270000900F5CFC8F00CD0F6CFE9FFF7CFEAFFA1
:10228000EECFC5F0EECFC6F0EECFC7F0EECFC8F080
:10229000010196510001C5190FE10101975100019B
:1022A000C6190AE1010198510001C71905E10101B0
:1022B00099510001C819D8A4DAEF1CF0060EFE25CA
:1022C000C36F000EFF21C46FC3C0F6FFC4C0F7FF89
:1022D000000EF86E0F0EF76407D00900F5CFC5F0B9
:1022E0000900F5CFC6F008D0F6CFE9FFF7CFEAFF37
:1022F000EECFC5F0EECFC6F00101BC510001C5190B
:1023000005E10101BD510001C619D8A4DAEF1CF0A6
:102310000C0EFE25C36F000EFF21C46FC3C0F6FF75
:10232000C4C0F7FF000EF86E0F0EF7640DD0090061
:10233000F5CFC5F00900F5CFC6F00900F5CFC7F01D
:102340000900F5CFC8F00CD0F6CFE9FFF7CFEAFFD0
:10235000EECFC5F0EECFC6F0EECFC7F0EECFC8F0AF
:102360000101C0510001C5190FE10101C151000176
:10237000C6190AE10101C2510001C71905E10101B5
:10238000C3510001C819D8A4DAEF1CF0100EFE25C5
:10239000C36F000EFF21C46FC3C0F6FFC4C0F7FFB8
:1023A000000EF86E0F0EF7640DD00900F5CFC5F0E2
:1023B0000900F5CFC6F00900F5CFC7F00900F5CF49
:1023C000C8F00CD0F6CFE9FFF7CFEAFFEECFC5F0AB
:1023D000EECFC6F0EECFC7F0EECFC8F0010E000191
:1023E000C525C96F000EC621CA6F000EC721CB6F6D
:1023F000000EC821CC6F0101C4510001C9190FE1C1
:102400000101C5510001CA190AE10101C6510001CB
:10241000CB1905E10101C7510001CC19D8A4DAEFAD
:102420001CF0100EFE25C36F000EFF21C46FC3C049
:10243000F6FFC4C0F7FF000EF86E0F0EF7640DD064
:102440000900F5CFC5F00900F5CFC6F00900F5CFBA
:10245000C7F00900F5CFC8F00CD0F6CFE9FFF7CFF1
:10246000EAFFEECFC5F0EECFC6F0EECFC7F0EECF6D
:10247000C8F0010E0001C525C96F000EC621CA6F44
:10248000000EC721CB6F000EC821CC6F100EFE25A9
:10249000CD6F000EFF21CE6FCDC0F6FFCEC0F7FF8F
:1024A000000EF86E0F0EF7640DD0C9C0F5FF0D00D9
:1024B000CAC0F5FF0D00CBC0F5FF0D00CCC0F5FF85
:1024C0000C000CD0F6CFE9FFF7CFEAFFC9C0EEFF52
:1024D000CAC0EEFFCBC0EEFFCCC0EFFF300E000154
:1024E000FE25C36F000EFF21C46FC3C0F6FFC4C03A
:1024F000F7FF000EF86E0F0EF76405D0F56A0D00B9
:10250000F56A0C0006D0F6CFE9FFF7CFEAFFEE6AD6
:10251000EF6A040E0001D36F360EFE25C36F000E66
:10252000FF21C46FC3C0F6FFC4C0F7FF000EF86EF2
:102530000F0EF76404D0030EF56E0C0006D0F6CF34
:10254000E9FFF7CFEAFF030EEF6EDAEF1CF0300E73
:10255000FE25C36F000EFF21C46FC3C0F6FFC4C0C9
:10256000F7FF000EF86E0F0EF76405D0F56A0D0048
:10257000F56A0C0006D0F6CFE9FFF7CFEAFFEE6A66
:10258000EF6A350E0001FE25C36F000EFF21C46FF8
:10259000C3C0F6FFC4C0F7FF000EF86E0F0EF7645D
:1025A00004D0010EF56E0C0006D0F6CFE9FFF7CF90
:1025B000EAFF010EEF6E300E0001FE25C36F000E24
:1025C000FF21C46FC3C0F6FFC4C0F7FF000EF86E52
:1025D0000F0EF76406D0020EF56E0D00F56A0C00C2
:1025E00007D0F6CFE9FFF7CFEAFF020EEE6EEF6AF3
:1025F000320E0001FE25C36F000EFF21C46FC3C061
:10260000F6FFC4C0F7FF000EF86E0F0EF76406D099
:10261000020EF56E0D00F56A0C0007D0F6CFE9FF4B
:10262000F7CFEAFF020EEE6EEF6A340E0001FE25D0
:10263000C36F000EFF21C46FC3C0F6FFC4C0F7FF15
:10264000000EF86E0F0EF76404D0050EF56E0C0048
:1026500006D0F6CFE9FFF7CFEAFF050EEF6E050EC5
:102660000001D36FFEC058F0FFC059F011EC1DF00F
:10267000DAEF1CF0FEC0F6FFFFC0F7FF000EF86EA9
:102680000F0EF76407D00900F5CFC3F00900F5CFAE
:10269000C4F008D0F6CFE9FFF7CFEAFFEECFC3F0E2
:1026A000EECFC4F00101BE510001C31905E10101E3
:1026B000BF510001C419D8A4DAEF1CF00C0EFE259E
:1026C000C36F000EFF21C46FC3C0F6FFC4C0F7FF85
:1026D000000EF86E0F0EF7640DD00900F5CFC5F0AF
:1026E0000900F5CFC6F00900F5CFC7F00900F5CF16
:1026F000C8F00CD0F6CFE9FFF7CFEAFFEECFC5F078
:10270000EECFC6F0EECFC7F0EECFC8F00101C0515A
:102710000001C5190FE10101C1510001C6190AE10B
:102720000101C2510001C71905E10101C3510001B6
:10273000C819D8A4DAEF1CF0020EFE25C36F000EF4
:10274000FF21C46FC3C0F6FFC4C0F7FF000EF86ED0
:102750000F0EF76409D0F56A0D00F56A0D00F56AF1
:102760000D00F56A0C0008D0F6CFE9FFF7CFEAFFBD
:10277000EE6AEE6AEE6AEF6A060E0001FE25C36F8E
:10278000000EFF21C46FC3C0F6FFC4C0F7FF000EE8
:10279000F86E0F0EF76405D0F56A0D00F56A0C00AF
:1027A00006D0F6CFE9FFF7CFEAFFEE6AEF6A100E28
:1027B0000001FE25C36F000EFF21C46FC3C0F6FFEA
:1027C000C4C0F7FF000EF86E0F0EF76409D0F56A6B
:1027D0000D00F56A0D00F56A0D00F56A0C0008D0D1
:1027E000F6CFE9FFF7CFEAFFEE6AEE6AEE6AEF6A2C
:1027F000140E0001FE25C36F000EFF21C46FC3C07D
:10280000F6FFC4C0F7FF000EF86E0F0EF76409D094
:10281000F56A0D00F56A0D00F56A0D00F56A0C0009
:1028200008D0F6CFE9FFF7CFEAFFEE6AEE6AEE6A6C
:10283000EF6A080E0001FE25C36F000EFF21C46F72
:10284000C3C0F6FFC4C0F7FF000EF86E0F0EF764AA
:1028500009D0F56A0D00F56A0D00F56A0D00F56AFC
:102860000C0008D0F6CFE9FFF7CFEAFFEE6AEE6A78
:10287000EE6AEF6A0C0E0001FE25C36F000EFF2109
:10288000C46FC3C0F6FFC4C0F7FF000EF86E0F0E92
:10289000F76409D0F56A0D00F56A0D00F56A0D00C0
:1028A000F56A0C0008D0F6CFE9FFF7CFEAFFEE6A31
:1028B000EE6AEE6AEF6A180E0001FE25C36F000E85
:1028C000FF21C46FC3C0F6FFC4C0F7FF000EF86E4F
:1028D0000F0EF76405D0F56A0D00F56A0C0006D0FE
:1028E000F6CFE9FFF7CFEAFFEE6AEF6A1C0E0001B0
:1028F000FE25C36F000EFF21C46FC3C0F6FFC4C026
:10290000F7FF000EF86E0F0EF76405D0F56A0D00A4
:10291000F56A0C0006D0F6CFE9FFF7CFEAFFEE6AC2
:10292000EF6A010E000197EF1AF0340EFE25C36F17
:10293000000EFF21C46FC3C0F6FFC4C0F7FF000E36
:10294000F86E0F0EF76403D00800F55005D0F6CFEF
:10295000E9FFF7CFEAFFEF50000901E083D6350E1B
:102960000001FE25C36F000EFF21C46FC3C0F6FF38
:10297000C4C0F7FF000EF86E0F0EF76404D0040E0B
:10298000F56E0C0006D0F6CFE9FFF7CFEAFF040E94
:10299000EF6EFEC058F0FFC059F011EC1DF00009B9
:1029A00002E1DAEF1CF0020EFE25C36F000EFF21DC
:1029B000C46FC3C0F6FFC4C0F7FF000EF86E0F0E61
:1029C000F76409D0F56A0D00F56A0D00F56A0D008F
:1029D000F56A0C0008D0F6CFE9FFF7CFEAFFEE6A00
:1029E000EE6AEE6AEF6A060E0001FE25C36F000E66
:1029F000FF21C46FC3C0F6FFC4C0F7FF000EF86E1E
:102A00000F0EF76405D0F56A0D00F56A0C0006D0CC
:102A1000F6CFE9FFF7CFEAFFEE6AEF6A100E00018A
:102A2000FE25C36F000EFF21C46FC3C0F6FFC4C0F4
:102A3000F7FF000EF86E0F0EF76409D0F56A0D006F
:102A4000F56A0D00F56A0D00F56A0C0008D0F6CFA6
:102A5000E9FFF7CFEAFFEE6AEE6AEE6AEF6A140E5C
:102A60000001FE25C36F000EFF21C46FC3C0F6FF37
:102A7000C4C0F7FF000EF86E0F0EF76409D0F56AB8
:102A80000D00F56A0D00F56A0D00F56A0C0008D01E
:102A9000F6CFE9FFF7CFEAFFEE6AEE6AEE6AEF6A79
:102AA000080E0001FE25C36F000EFF21C46FC3C0D6
:102AB000F6FFC4C0F7FF000EF86E0F0EF76409D0E2
:102AC000F56A0D00F56A0D00F56A0D00F56A0C0057
:102AD00008D0F6CFE9FFF7CFEAFFEE6AEE6AEE6ABA
:102AE000EF6A0C0E0001FE25C36F000EFF21C46FBC
:102AF000C3C0F6FFC4C0F7FF000EF86E0F0EF764F8
:102B000009D0F56A0D00F56A0D00F56A0D00F56A49
:102B10000C0008D0F6CFE9FFF7CFEAFFEE6AEE6AC5
:102B2000EE6AEF6A180E0001FE25C36F000EFF214A
:102B3000C46FC3C0F6FFC4C0F7FF000EF86E0F0EDF
:102B4000F76405D0F56A0D00F56A0C0006D0F6CFE3
:102B5000E9FFF7CFEAFFEE6AEF6A1C0E0001FE25DF
:102B6000C36F000EFF21C46FC3C0F6FFC4C0F7FFE0
:102B7000000EF86E0F0EF76405D0F56A0D00F56AC9
:102B80000C0006D0F6CFE9FFF7CFEAFFEE6AEF6A56
:102B9000C8D60001D25101E1DAD4040A02E120EFE3
:102BA00011F0010A02E11BEF10F00C0A01E162D5FD
:102BB000030A01E15FD5060A01E1B7D6DAEF1CF09E
:102BC000020EFE25C36F000EFF21C46FC3C0F6FFC7
:102BD000C4C0F7FF000EF86E0F0EF7640DD00900A9
:102BE000F5CFC5F00900F5CFC6F00900F5CFC7F065
:102BF0000900F5CFC8F00CD0F6CFE9FFF7CFEAFF18
:102C0000EECFC5F0EECFC6F0EECFC7F0EECFC8F0F6
:102C1000010196510001C5190FE101019751000111
:102C2000C6190AE1010198510001C71905E1010126
:102C300099510001C819D8A4DAEF1CF00C0EFE253A
:102C4000C36F000EFF21C46FC3C0F6FFC4C0F7FFFF
:102C5000000EF86E0F0EF7640DD00900F5CFC5F029
:102C60000900F5CFC6F00900F5CFC7F00900F5CF90
:102C7000C8F00CD0F6CFE9FFF7CFEAFFEECFC5F0F2
:102C8000EECFC6F0EECFC7F0EECFC8F00101C051D5
:102C90000001C5190FE10101C1510001C6190AE186
:102CA0000101C2510001C71905E10101C351000131
:102CB000C819D8A4DAEF1CF0140EFE25C36F000E5D
:102CC000FF21C46FC3C0F6FFC4C0F7FF000EF86E4B
:102CD0000F0EF7640DD00900F5CFC5F00900F5CF50
:102CE000C6F00900F5CFC7F00900F5CFC8F00CD049
:102CF000F6CFE9FFF7CFEAFFEECFC5F0EECFC6F093
:102D0000EECFC7F0EECFC8F00101C4510001C55DA0
:102D10000101C5510001C6590101C6510001C75941
:102D20000101C7510001C85902E3DAEF1CF0100E8F
:102D3000FE25C36F000EFF21C46FC3C0F6FFC4C0E1
:102D4000F7FF000EF86E0F0EF7640DD00900F5CFF7
:102D5000C5F00900F5CFC6F00900F5CFC7F00900AE
:102D6000F5CFC8F00CD0F6CFE9FFF7CFEAFFEECFF2
:102D7000C5F0EECFC6F0EECFC7F0EECFC8F0010E33
:102D80000001C525C96F000EC621CA6F000EC721FC
:102D9000CB6F000EC821CC6F0101C4510001C95D89
:102DA0000101C5510001CA590101C6510001CB59A9
:102DB0000101C7510001CC5901E296D1100EFE2548
:102DC000C36F000EFF21C46FC3C0F6FFC4C0F7FF7E
:102DD000000EF86E0F0EF76407D00900F5CFC5F0AE
:102DE0000900F5CFC6F008D0F6CFE9FFF7CFEAFF2C
:102DF000EECFC5F0EECFC6F00101C4510001C55DB4
:102E0000D06F0101C5510001C659D16F250EFE25B5
:102E1000C36F000EFF21C46FC3C0F6FFC4C0F7FF2D
:102E2000000EF86E0F0EF76407D00900F5CFC5F05D
:102E30000900F5CFC6F008D0F6CFE9FFF7CFEAFFDB
:102E4000EECFC5F0EECFC6F00001D051C55FD15135
:102E5000C65B250EFE25C76F000EFF21C86FC7C0D9
:102E6000F6FFC8C0F7FF000EF86E0F0EF76407D02C
:102E7000C5C0F5FF0D00C6C0F5FF0C0008D0F6CFA9
:102E8000E9FFF7CFEAFFC5C0EEFFC6C0EFFF270E90
:102E90000001FE25C36F000EFF21C46FC3C0F6FF03
:102EA000C4C0F7FF000EF86E0F0EF76407D00900DC
:102EB000F5CFC5F00900F5CFC6F008D0F6CFE9FF91
:102EC000F7CFEAFFEECFC5F0EECFC6F00001D0514C
:102ED000C527D151C623270EFE25C76F000EFF213F
:102EE000C86FC7C0F6FFC8C0F7FF000EF86E0F0E20
:102EF000F76407D0C5C0F5FF0D00C6C0F5FF0C0094
:102F000008D0F6CFE9FFF7CFEAFFC5C0EEFFC6C095
:102F1000EFFF270E0001FE25C36F000EFF21C46FD7
:102F2000C3C0F6FFC4C0F7FF000EF86E0F0EF764C3
:102F300007D00900F5CFC5F00900F5CFC6F008D0DD
:102F4000F6CFE9FFF7CFEAFFEECFC5F0EECFC6F040
:102F50000001C551C61131E1290EFE25C36F000ED7
:102F6000FF21C46FC3C0F6FFC4C0F7FF000EF86EA8
:102F70000F0EF76403D00800F55005D0F6CFE9FF37
:102F8000F7CFEAFFEF50020A18E1290E0001FE25F3
:102F9000C36F000EFF21C46FC3C0F6FFC4C0F7FFAC
:102FA000000EF86E0F0EF76403D0F56A0C0005D022
:102FB000F6CFE9FFF7CFEAFFEF6A21EEC4F0FF0E8C
:102FC000DE240001C36FFF0EDE20C46FFF0EDE2083
:102FD000C56FFF0EDE20C66F140EFE25C76F000EF4
:102FE000FF21C86FC7C0F6FFC8C0F7FF000EF86E1C
:102FF0000F0EF7640DD0C3C0F5FF0D00C4C0F5FF80
:103000000D00C5C0F5FF0D00C6C0F5FF0C000CD0CB
:10301000F6CFE9FFF7CFEAFFC3C0EEFFC4C0EEFF73
:10302000C5C0EEFFC6C0EFFF100E0001FE25C36F46
:10303000000EFF21C46FC3C0F6FFC4C0F7FF000E2F
:10304000F86E0F0EF7640DD0C4C1F5FF0D00C5C1B9
:10305000F5FF0D00C6C1F5FF0D00C7C1F5FF0C005F
:103060000CD0F6CFE9FFF7CFEAFFC4C1EEFFC5C130
:10307000EEFFC6C1EEFFC7C1EFFF0101A051A111D4
:1030800002E1DAEF1CF0080E0001FE25C36F000E0E
:10309000FF21C46FC3C0F6FFC4C0F7FF000EF86E77
:1030A0000F0EF7640DD0C0C1F5FF0D00C1C1F5FFD3
:1030B0000D00C2C1F5FF0D00C3C1F5FF0C000CD01F
:1030C000F6CFE9FFF7CFEAFFC0C1EEFFC1C1EEFFC7
:1030D000C2C1EEFFC3C1EFFFA0C15AF0A1C15BF0B6
:1030E00058EC2DF0DAEF1CF0350EFE25C36F000E04
:1030F000FF21C46FC3C0F6FFC4C0F7FF000EF86E17
:103100000F0EF76404D0140EF56E0C0006D0F6CF47
:10311000E9FFF7CFEAFF140EEF6EFEC058F0FFC0D4
:1031200059F011EC1DF072EF0DF0350EFE25C36F56
:10313000000EFF21C46FC3C0F6FFC4C0F7FF000E2E
:10314000F86E0F0EF76404D0010EF56E0C0006D079
:10315000F6CFE9FFF7CFEAFF010EEF6E2FEF13F086
:10316000100EFE25C36F000EFF21C46FC3C0F6FF13
:10317000C4C0F7FF000EF86E0F0EF7640DD0C4C187
:10318000F5FF0D00C5C1F5FF0D00C6C1F5FF0D002F
:10319000C7C1F5FF0C000CD0F6CFE9FFF7CFEAFF6F
:1031A000C4C1EEFFC5C1EEFFC6C1EEFFC7C1EFFF50
:1031B0000C0E0001FE25C36F000EFF21C46FC3C0BB
:1031C000F6FFC4C0F7FF000EF86E0F0EF7640DD0C7
:1031D0000900F5CFC5F00900F5CFC6F00900F5CF1D
:1031E000C7F00900F5CFC8F00CD0F6CFE9FFF7CF54
:1031F000EAFFEECFC5F0EECFC6F0EECFC7F0EECFD0
:10320000C8F0010E0001C525C96F000EC621CA6FA6
:10321000000EC721CB6F000EC821CC6F0C0EFE250F
:10322000CD6F000EFF21CE6FCDC0F6FFCEC0F7FFF1
:10323000000EF86E0F0EF7640DD0C9C0F5FF0D003B
:10324000CAC0F5FF0D00CBC0F5FF0D00CCC0F5FFE7
:103250000C000CD0F6CFE9FFF7CFEAFFC9C0EEFFB4
:10326000CAC0EEFFCBC0EEFFCCC0EFFF360E0001B0
:10327000FE25C36F000EFF21C46FC3C0F6FFC4C09C
:10328000F7FF000EF86E0F0EF76404D0040EF56E13
:103290000C0006D0F6CFE9FFF7CFEAFF040EEF6E81
:1032A000300E0001FE25C36F000EFF21C46FC3C0A6
:1032B000F6FFC4C0F7FF000EF86E0F0EF76406D0DD
:1032C000020EF56E0D00F56A0C0007D0F6CFE9FF8F
:1032D000F7CFEAFF020EEE6EEF6A320E0001FE2516
:1032E000C36F000EFF21C46FC3C0F6FFC4C0F7FF59
:1032F000000EF86E0F0EF76406D0020EF56E0D008C
:10330000F56A0C0007D0F6CFE9FFF7CFEAFF020E0F
:10331000EE6EEF6A340E0001FE25C36F000EFF2132
:10332000C46FC3C0F6FFC4C0F7FF000EF86E0F0EE7
:10333000F76404D0050EF56E0C0006D0F6CFE9FF59
:10334000F7CFEAFF050EEF6E350E0001FE25C36FC5
:10335000000EFF21C46FC3C0F6FFC4C0F7FF000E0C
:10336000F86E0F0EF76404D0110EF56E0C0006D047
:10337000F6CFE9FFF7CFEAFF110EEF6E090E30EF3F
:1033800013F0340EFE25C36F000EFF21C46FC3C0BF
:10339000F6FFC4C0F7FF000EF86E0F0EF76403D0FF
:1033A0000800F55005D0F6CFE9FFF7CFEAFFEF5060
:1033B000000902E032EF13F0350E0001FE25C36F65
:1033C000000EFF21C46FC3C0F6FFC4C0F7FF000E9C
:1033D000F86E0F0EF76404D0040EF56E0C0006D0E4
:1033E000F6CFE9FFF7CFEAFF040EEF6EFEC058F00C
:1033F000FFC059F011EC1DF072EF0DF00001D25139
:1034000001E193D6040A02E1E0EF15F0020A01E1BE
:10341000A7D6010A01E1A4D60E0A02E141EF0AF0A3
:10342000030A02E141EF0AF0060AABE0C3D2350E0F
:10343000FE25C36F000EFF21C46FC3C0F6FFC4C0DA
:10344000F7FF000EF86E0F0EF76404D0100EF56E45
:103450000C0006D0F6CFE9FFF7CFEAFF100EEF6EB3
:10346000FEC058F0FFC059F011EC1DF0000901E159
:10347000A1D2080E5CD0300EFE25C36F000EFF21D6
:10348000C46FC3C0F6FFC4C0F7FF000EF86E0F0E86
:10349000F76406D0020EF56E0D00F56A0C0007D039
:1034A000F6CFE9FFF7CFEAFF020EEE6EEF6A340EB9
:1034B0000001FE25C36F000EFF21C46FC3C0F6FFDD
:1034C000C4C0F7FF000EF86E0F0EF76404D0010EB3
:1034D000F56E0C0006D0F6CFE9FFF7CFEAFF010E3C
:1034E000EF6E060E92EF14F0350EFE25C36F000E40
:1034F000FF21C46FC3C0F6FFC4C0F7FF000EF86E13
:103500000F0EF76404D0100EF56E0C0006D0F6CF47
:10351000E9FFF7CFEAFF100EEF6EFEC058F0FFC0D4
:1035200059F011EC1DF0000901E144D20A0ED36FED
:1035300041D2340EFE25C36F000EFF21C46FC3C0FD
:10354000F6FFC4C0F7FF000EF86E0F0EF76403D04D
:103550000800F55005D0F6CFE9FFF7CFEAFFEF50AE
:10356000000902E032EF13F0350E0001FE25C36FB3
:10357000000EFF21C46FC3C0F6FFC4C0F7FF000EEA
:10358000F86E0F0EF76404D0040EF56E0C0006D032
:10359000F6CFE9FFF7CFEAFF040EEF6EFEC058F05A
:1035A000FFC059F011EC1DF072EF0DF00001D25187
:1035B000040A01E160D7020A01E139D7010A94E067
:1035C0000B0AB7E0F7D1FEC058F0FFC059F011EC7C
:1035D0001DF0A9D7340EFE25C36F000EFF21C46F66
:1035E000C3C0F6FFC4C0F7FF000EF86E0F0EF764FD
:1035F00003D00800F55005D0F6CFE9FFF7CFEAFF7A
:10360000EF50000902E032EF13F0350E0001FE2505
:10361000C36F000EFF21C46FC3C0F6FFC4C0F7FF25
:10362000000EF86E0F0EF76404D0040EF56E0C0059
:1036300006D0F6CFE9FFF7CFEAFF040EEF6EFEC02B
:1036400058F0FFC059F011EC1DF072EF0DF00001C1
:10365000D251060AB8E00A0ABDE0ACD10001D2514D
:10366000040A01E163D7A6D1020EFE25C36F000E46
:10367000FF21C46FC3C0F6FFC4C0F7FF000EF86E91
:103680000F0EF7640DD00900F5CFC5F00900F5CF96
:10369000C6F00900F5CFC7F00900F5CFC8F00CD08F
:1036A000F6CFE9FFF7CFEAFFEECFC5F0EECFC6F0D9
:1036B000EECFC7F0EECFC8F0010196510001C51959
:1036C0000FE1010197510001C6190AE1010198516A
:1036D0000001C71905E1010199510001C819D8A4D9
:1036E00069D1060EFE25C36F000EFF21C46FC3C053
:1036F000F6FFC4C0F7FF000EF86E0F0EF76407D098
:103700000900F5CFC5F00900F5CFC6F008D0F6CF17
:10371000E9FFF7CFEAFFEECFC5F0EECFC6F001012B
:10372000BC510001C51905E10101BD510001C619D7
:103730003ED140D1340EFE25C36F000EFF21C46F71
:10374000C3C0F6FFC4C0F7FF000EF86E0F0EF7649B
:1037500003D00800F55005D0F6CFE9FFF7CFEAFF18
:10376000EF50000902E032EF13F0350E0001FE25A4
:10377000C36F000EFF21C46FC3C0F6FFC4C0F7FFC4
:10378000000EF86E0F0EF76404D0040EF56E0C00F8
:1037900006D0F6CFE9FFF7CFEAFF040EEF6EFEC0CA
:1037A00058F0FFC059F011EC1DF072EF0DF0000160
:1037B000D251040A01E158D7030A01E155D70B0A97
:1037C000B9E0F8D0300EFE25C36F000EFF21C46FA4
:1037D000C3C0F6FFC4C0F7FF000EF86E0F0EF7640B
:1037E00006D0020EF56E0D00F56A0C0007D0F6CF7C
:1037F000E9FFF7CFEAFF020EEE6EEF6A320E00012C
:10380000FE25C36F000EFF21C46FC3C0F6FFC4C006
:10381000F7FF000EF86E0F0EF76406D0020EF56E7D
:103820000D00F56A0C0007D0F6CFE9FFF7CFEAFFED
:10383000020EEE6EEF6A340E0001FE25C36F000E1D
:10384000FF21C46FC3C0F6FFC4C0F7FF000EF86EBF
:103850000F0EF76404D0030EF56E0C0006D0F6CF01
:10386000E9FFF7CFEAFF030EEF6E350E0001FE25EC
:10387000C36F000EFF21C46FC3C0F6FFC4C0F7FFC3
:10388000000EF86E0F0EF76404D0020EF56E0C00F9
:1038900006D0F6CFE9FFF7CFEAFF020EEF6EFEC0CB
:1038A00058F0FFC059F011EC1DF0020ED36F010E5D
:1038B000CF6F80D0020EFE25C36F000EFF21C46FB4
:1038C000C3C0F6FFC4C0F7FF000EF86E0F0EF7641A
:1038D00009D0F56A0D00F56A0D00F56A0D00F56A6C
:1038E0000C0008D0F6CFE9FFF7CFEAFFEE6AEE6AE8
:1038F000EE6AEF6A060E0001FE25C36F000EFF217F
:10390000C46FC3C0F6FFC4C0F7FF000EF86E0F0E01
:10391000F76405D0F56A0D00F56A0C0006D0F6CF05
:10392000E9FFF7CFEAFFEE6AEF6A010E0001BED7AA
:103930000001D251010A01E145D7030ABBE03AD0A8
:103940002A0EFE25C36F000EFF21C46FC3C0F6FF11
:10395000C4C0F7FF000EF86E0F0EF76403D0080026
:10396000F55005D0F6CFE9FFF7CFEAFFEF50000A98
:10397000DFE0010A02E14BEF0AF0030A02E1FEEF89
:103980000FF0010A02E1C9EF15F0070A01E136D58F
:10399000010A01E10BD6030A01E159D6010A0AE046
:1039A0000F0A01E15BD6010A01E101D7030A02E136
:1039B00041EF0AF02B0E0001FE25C36F000EFF2120
:1039C000C46FC3C0F6FFC4C0F7FF000EF86E0F0E41
:1039D000F76404D00D0EF56E0C0006D0F6CFE9FFAB
:1039E000F7CFEAFF0D0EEF6E2A0E0001FE25C36F22
:1039F000000EFF21C46FC3C0F6FFC4C0F7FF000E66
:103A0000F86E0F0EF76404D0D3C0F5FF0C0006D09B
:103A1000F6CFE9FFF7CFEAFFD3C0EFFF0001CF51A8
:103A2000120058C0F6FF59C0F7FF000EF86E0F0ED7
:103A3000F76407D00900F5CF67F00900F5CF68F00B
:103A400008D0F6CFE9FFF7CFEAFFEECF67F0EECF71
:103A500068F0000167516A6F696B58C0F6FF59C082
:103A6000F7FF000EF86E0F0EF76407D00900F5CFD0
:103A70006BF00900F5CF6CF008D0F6CFE9FFF7CF77
:103A8000EAFFEECF6BF0EECF6CF06CC06BF0000194
:103A90006C6B6C6B69516B11A06F6A516C11A16FEB
:103AA000060E5824676F000E5920686F67C0F6FF36
:103AB00068C0F7FF000EF86E0F0EF76407D009001C
:103AC000F5CF69F00900F5CF6AF008D0F6CFE9FF2D
:103AD000F7CFEAFFEECF69F0EECF6AF0000169514F
:103AE0006C6F6B6B060E58246D6F000E59206E6F55
:103AF0006DC0F6FF6EC0F7FF000EF86E0F0EF76494
:103B000007D00900F5CF6FF00900F5CF70F008D0AD
:103B1000F6CFE9FFF7CFEAFFEECF6FF0EECF70F010
:103B200070C06FF00001706B706B6B516F11A26F02
:103B30006C517011A36F100E5824676F000E59203E
:103B4000686F67C0F6FF68C0F7FF000EF86E0F0ED3
:103B5000F7640DD00900F5CF69F00900F5CF6AF0E0
:103B60000900F5CF6BF00900F5CF6CF00CD0F6CF63
:103B7000E9FFF7CFEAFFEECF69F0EECF6AF0EECFC4
:103B80006BF0EECF6CF0000169516D6F6E6B6F6B77
:103B9000706B6DC070F06F6B6E6B6D6B100E582498
:103BA000716F000E5920726F71C0F6FF72C0F7FF7F
:103BB000000EF86E0F0EF7640DD00900F5CF73F00C
:103BC0000900F5CF74F00900F5CF75F00900F5CFC5
:103BD00076F00CD0F6CFE9FFF7CFEAFFEECF73F027
:103BE000EECF74F0EECF75F0EECF76F00001776B8C
:103BF0007451786F796B7A6B79C07AF078C079F00C
:103C000077C078F0776B100E58247B6F000E592028
:103C10007C6F7BC0F6FF7CC0F7FF000EF86E0F0EC6
:103C2000F7640DD00900F5CF7DF00900F5CF7EF0E7
:103C30000900F5CF7FF00900F5CF80F00CD0F6CF6A
:103C4000E9FFF7CFEAFFEECF7DF0EECF7EF0EECFCB
:103C50007FF0EECF80F07EC07DF07FC07EF080C030
:103C60007FF00001806B816B7E51826F836B846B70
:103C7000100E5824856F000E5920866F85C0F6FF00
:103C800086C0F7FF000EF86E0F0EF7640DD0090026
:103C9000F5CF87F00900F5CF88F00900F5CF89F05E
:103CA0000900F5CF8AF00CD0F6CFE9FFF7CFEAFF95
:103CB000EECF87F0EECF88F0EECF89F0EECF8AF02E
:103CC00000018B6B8C6B8D6B8A518E6F190E05D03A
:103CD000D8908E338D338C338B33E82EF9D78151C6
:103CE0008B118F6F82518C11906F83518D11916F59
:103CF00084518E11926F77518F11936F785190117B
:103D0000946F79519111956F7A519211966F6D510F
:103D10009311A46F6E519411A56F6F519511A66FF9
:103D200070519611A76F0C0E5824676F000E592022
:103D3000686F67C0F6FF68C0F7FF000EF86E0F0EE1
:103D4000F7640DD00900F5CF69F00900F5CF6AF0EE
:103D50000900F5CF6BF00900F5CF6CF00CD0F6CF71
:103D6000E9FFF7CFEAFFEECF69F0EECF6AF0EECFD2
:103D70006BF0EECF6CF0000169516D6F6E6B6F6B85
:103D8000706B6DC070F06F6B6E6B6D6B0C0E5824AA
:103D9000716F000E5920726F71C0F6FF72C0F7FF8D
:103DA000000EF86E0F0EF7640DD00900F5CF73F01A
:103DB0000900F5CF74F00900F5CF75F00900F5CFD3
:103DC00076F00CD0F6CFE9FFF7CFEAFFEECF73F035
:103DD000EECF74F0EECF75F0EECF76F00001776B9A
:103DE0007451786F796B7A6B79C07AF078C079F01A
:103DF00077C078F0776B0C0E58247B6F000E59203B
:103E00007C6F7BC0F6FF7CC0F7FF000EF86E0F0ED4
:103E1000F7640DD00900F5CF7DF00900F5CF7EF0F5
:103E20000900F5CF7FF00900F5CF80F00CD0F6CF78
:103E3000E9FFF7CFEAFFEECF7DF0EECF7EF0EECFD9
:103E40007FF0EECF80F07EC07DF07FC07EF080C03E
:103E50007FF00001806B816B7E51826F836B846B7E
:103E60000C0E5824856F000E5920866F85C0F6FF12
:103E700086C0F7FF000EF86E0F0EF7640DD0090034
:103E8000F5CF87F00900F5CF88F00900F5CF89F06C
:103E90000900F5CF8AF00CD0F6CFE9FFF7CFEAFFA3
:103EA000EECF87F0EECF88F0EECF89F0EECF8AF03C
:103EB00000018B6B8C6B8D6B8A518E6F190E05D048
:103EC000D8908E338D338C338B33E82EF9D78151D4
:103ED0008B118F6F82518C11906F83518D11916F67
:103EE00084518E11926F77518F11936F7851901189
:103EF000946F79519111956F7A519211966F6D511E
:103F00009311A86F6E519411A96F6F519511AA6FFB
:103F100070519611AB6FAC91F10EAC17AC510F0B09
:103F20005009AC6F1A0E5824676F000E5920686F45
:103F300067C0F6FF68C0F7FF000EF86E0F0EF7645B
:103F400007D00900F5CF69F00900F5CF6AF008D075
:103F5000F6CFE9FFF7CFEAFFEECF69F0EECF6AF0D8
:103F6000000169516C6F6B6B1A0E58246D6F000E57
:103F700059206E6F6DC0F6FF6EC0F7FF000EF86E31
:103F80000F0EF76407D00900F5CF6FF00900F5CFE9
:103F900070F008D0F6CFE9FFF7CFEAFFEECF6FF071
:103FA000EECF70F070C06FF00001706B706B6B51F2
:103FB0006F11AE6F6C517011AF6FB06BB16BB26BB4
:103FC000B36B350E5824676F000E5920686F67C0B9
:103FD000F6FF68C0F7FF000EF86E0F0EF76403D00F
:103FE0000800F55005D0F6CFE9FFF7CFEAFFEF5014
:103FF0000001696F060E691703E09E6B9F6B88D105
:10400000270E5824676F000E5920686F67C0F6FFAF
:1040100068C0F7FF000EF86E0F0EF76407D00900B6
:10402000F5CF9EF00900F5CF9FF008D0F6CFE9FF5D
:10403000F7CFEAFFEECF9EF0EECF9FF000019E514A
:104040009F1101E165D1180E5824676F000E5920A9
:10405000686F67C0F6FF68C0F7FF000EF86E0F0EBE
:10406000F76407D00900F5CF69F00900F5CF6AF0D1
:1040700008D0F6CFE9FFF7CFEAFFEECF69F0EECF39
:104080006AF000019E51695D9F516A591EE2180E47
:104090005824676F000E5920686F67C0F6FF68C02C
:1040A000F7FF000EF86E0F0EF76407D00900F5CF8A
:1040B0009EF00900F5CF9FF008D0F6CFE9FFF7CFCB
:1040C000EAFFEECF9EF0EECF9FF01C0E58240001C9
:1040D000676F000E5920686F67C0F6FF68C0F7FF72
:1040E000000EF86E0F0EF76407D00900F5CF69F0E7
:1040F0000900F5CF6AF008D0F6CFE9FFF7CFEAFF65
:10410000EECF69F0EECF6AF000019E51695D9F51DC
:104110006A591EE21C0E5824676F000E5920686F02
:1041200067C0F6FF68C0F7FF000EF86E0F0EF76469
:1041300007D00900F5CF9EF00900F5CF9FF008D019
:10414000F6CFE9FFF7CFEAFFEECF9EF0EECF9FF07C
:10415000250E58240001676F000E5920686F67C054
:10416000F6FF68C0F7FF000EF86E0F0EF76407D079
:104170000900F5CF97F00900F5CF98F008D0F6CFF9
:10418000E9FFF7CFEAFFEECF97F0EECF98F0250EDC
:1041900058240001676F000E5920686F67C0F6FF52
:1041A00068C0F7FF000EF86E0F0EF76407D0090025
:1041B000F5CF69F00900F5CF6AF008D0F6CFE9FF36
:1041C000F7CFEAFFEECF69F0EECF6AF000019E5123
:1041D00069279F516A23250E58246B6F000E5920C2
:1041E0006C6F6BC0F6FF6CC0F7FF000EF86E0F0E21
:1041F000F76407D069C0F5FF0D006AC0F5FF0C0039
:1042000008D0F6CFE9FFF7CFEAFF69C0EEFF6AC03A
:10421000EFFF270E58240001676F000E5920686FCA
:1042200067C0F6FF68C0F7FF000EF86E0F0EF76468
:1042300007D00900F5CF69F00900F5CF6AF008D082
:10424000F6CFE9FFF7CFEAFFEECF69F0EECF6AF0E5
:1042500000019E51695F9F516A5B270E58246B6F66
:10426000000E59206C6F6BC0F6FF6CC0F7FF000E9C
:10427000F86E0F0EF76407D069C0F5FF0D006AC035
:10428000F5FF0C0008D0F6CFE9FFF7CFEAFF69C0D1
:10429000EEFF6AC0EFFF270E58240001676F000E83
:1042A0005920686F67C0F6FF68C0F7FF000EF86E10
:1042B0000F0EF76407D00900F5CF69F00900F5CFBC
:1042C0006AF008D0F6CFE9FFF7CFEAFFEECF69F04A
:1042D000EECF6AF0000169516A111AE1350E5824D7
:1042E000676F000E5920686F67C0F6FF68C0F7FF60
:1042F000000EF86E0F0EF76405D0080E0800F512D8
:104300000C0006D0F6CFE9FFF7CFEAFF080EEF1258
:10431000350E58240001676F000E5920686F67C082
:10432000F6FF68C0F7FF000EF86E0F0EF76403D0BB
:104330000800F55005D0F6CFE9FFF7CFEAFFEF50C0
:104340000001AD6F140E9E259B6F000E9F219C6F88
:10435000020E5824676F000E5920686F67C0F6FF81
:1043600068C0F7FF000EF86E0F0EF7640DD009005D
:10437000F5CF4BF00900F5CF4CF00900F5CF4DF02B
:104380000900F5CF4EF00CD0F6CFE9FFF7CFEAFFEA
:10439000EECF4BF0EECF4CF0EECF4DF0EECF4EF037
:1043A000060E4F6E0FEC34F09D6F9D5141E0A00E54
:1043B000036E046A066A140E056EFEEC3DF0000101
:1043C0009E519F110AE097C003F098C004F09EC070
:1043D00005F09FC006F0FEEC3DF0060E00019B25A7
:1043E000996F000E9C219A6F0E6A1A0E0D6E080EC0
:1043F0009B250F6E000E9C21106E99C011F09AC083
:1044000012F092EC38F00DC099F00EC09AF00C6AE0
:10441000020E0B6E0E6A320E0D6E990EA9EC3EF076
:104420009BC01DF09CC01EF064EC3DF000019D6F30
:104430009D5173E1340E5824676F000E5920686F48
:1044400067C0F6FF68C0F7FF000EF86E0F0EF76446
:1044500003D00800F55005D0F6CFE9FFF7CFEAFF0B
:10446000EF500001696F692B340E58246A6F000EFB
:1044700059206B6F6AC0F6FF6BC0F7FF000EF86E35
:104480000F0EF76404D069C0F5FF0C0006D0F6CF1C
:10449000E9FFF7CFEAFF69C0EFFF300E58240001B3
:1044A000676F000E5920686F67C0F6FF68C0F7FF9E
:1044B000000EF86E0F0EF76407D00900F5CF69F013
:1044C0000900F5CF6AF008D0F6CFE9FFF7CFEAFF91
:1044D000EECF69F0EECF6AF0000169516A117AE11E
:1044E000300E5824676F000E5920686F67C0F6FFC2
:1044F00068C0F7FF000EF86E0F0EF76406D0020ECC
:10450000F56E0D00F56A0C0007D0F6CFE9FFF7CF86
:10451000EAFF020EEE6EEF6A5DD0100E5824676F50
:10452000000E5920686F67C0F6FF68C0F7FF000EE5
:10453000F86E0F0EF7640DD00900F5CF69F0090091
:10454000F5CF6AF00900F5CF6BF00900F5CF6CF0FC
:104550000CD0F6CFE9FFF7CFEAFFEECF69F0EECF50
:104560006AF0EECF6BF0EECF6CF000019E51692542
:104570006D6F9F516A216E6F000E6B216F6F000E81
:104580006C21706F100E5824716F000E5920726FDD
:1045900071C0F6FF72C0F7FF000EF86E0F0EF764E1
:1045A0000DD06DC0F5FF0D006EC0F5FF0D006FC0A2
:1045B000F5FF0D0070C0F5FF0C000CD0F6CFE9FF41
:1045C000F7CFEAFF6DC0EEFF6EC0EEFF6FC0EEFFEB
:1045D00070C0EFFF00019D511200F66B0101966B58
:1045E000976B986B996BA06BA16BBC0E036E010E61
:1045F000046E066A140E056ED9EC3AF00001FE6BEB
:10460000FF6B0101BE51BF11D8B41200BC51BD11E6
:10461000D8B41200BC510001DB6FDA6B0101BD514F
:104620000001DC6FDD6BDA51DC110101BC6F0001B0
:10463000DB51DD110101BD6FBE510001DB6FDA6B93
:1046400021EEBEF0DECFDCF0DDCFDDF0DDC0DCF052
:10465000DD6BDD6BDA51DC110101BE6F0001DB5156
:10466000DD110101BF6FA2C1F7F0A3C1F8F048D07E
:10467000F7C0F6FFF8C0F7FF000EF86E0F0EF764F4
:1046800007D00900F5CFDAF00900F5CFDBF008D04C
:10469000F6CFE9FFF7CFEAFFEECFDAF0EECFDBF0AF
:1046A0000001DA510101BE190AE10001DB510101EB
:1046B000BF1905E1F7C0FEF0F8C0FFF02ED02C0EB8
:1046C0000001F725DA6F000EF821DB6FDAC0F6FF84
:1046D000DBC0F7FF000EF86E0F0EF76407D009007D
:1046E000F5CFF7F00900F5CFF8F008D0F6CFE9FFE5
:1046F000F7CFEAFFEECFF7F0EECFF8F00001F62BA0
:104700000001F751F81109E0F651800ADA6F010152
:10471000A751800A0001DA5DABE30001FE51FF11F1
:10472000D8B41200060EFE25DA6F000EFF21DB6FF3
:10473000DAC0F6FFDBC0F7FF000EF86E0F0EF7646D
:1047400007D00900F5CFDCF00900F5CFDDF008D087
:10475000F6CFE9FFF7CFEAFFEECFDCF0EECFDDF0EA
:104760000101BC510001DC1905E10101BD5100014D
:10477000DD192FE0020EFE25DA6F000EFF21DB6F40
:10478000DAC0F6FFDBC0F7FF000EF86E0F0EF7641D
:104790000DD00900F5CFDCF00900F5CFDDF0090000
:1047A000F5CFDEF00900F5CFDFF00CD0F6CFE9FF52
:1047B000F7CFEAFFEECFDCF0EECFDDF0EECFDEF0AC
:1047C000EECFDFF00001DC51DD11DE11DF11D8A4E6
:1047D0001200D4C096F1D5C097F1D6C098F1D7C0D9
:1047E00099F10101C8390F0B0001DA6FDB6BD8902A
:1047F000DA37DB37D890DA37DB37DA51D85D0101A9
:10480000A06F0001DB51D9590101A16FF0EC35F027
:10481000E806D8A412000101C9A338D0C9A91BD049
:104820002B0E0001FE25DA6F000EFF21DB6FDAC0D0
:10483000F6FFDBC0F7FF000EF86E0F0EF76404D032
:10484000050EF56E0C0006D0F6CFE9FFF7CFEAFFB4
:10485000050E8ED0ABD02B0E0001FE25DA6F000EB8
:10486000FF21DB6FDAC0F6FFDBC0F7FF000EF86E4A
:104870000F0EF76404D0030EF56E0C0006D0F6CFD1
:10488000E9FFF7CFEAFF030E73D090D0C9A138D06B
:10489000C9A91BD02B0E0001FE25DA6F000EFF21E7
:1048A000DB6FDAC0F6FFDBC0F7FF000EF86E0F0E0D
:1048B000F76404D0070EF56E0C0006D0F6CFE9FFC2
:1048C000F7CFEAFF070E54D071D02B0E0001FE2562
:1048D000DA6F000EFF21DB6FDAC0F6FFDBC0F7FFF7
:1048E000000EF86E0F0EF76404D0060EF56E0C0085
:1048F00006D0F6CFE9FFF7CFEAFF060E39D056D043
:10490000C9A538D0C9A91BD02B0E0001FE25DA6F2E
:10491000000EFF21DB6FDAC0F6FFDBC0F7FF000EF1
:10492000F86E0F0EF76404D00A0EF56E0C0006D078
:10493000F6CFE9FFF7CFEAFF0A0E1AD037D02B0ED9
:104940000001FE25DA6F000EFF21DB6FDAC0F6FFF3
:10495000DBC0F7FF000EF86E0F0EF76404D0090EEF
:10496000F56E0C0006D0F6CFE9FFF7CFEAFF090E8F
:10497000EF6E1CD0C9A91AD02B0E0001FE25DA6FEC
:10498000000EFF21DB6FDAC0F6FFDBC0F7FF000E81
:10499000F86E0F0EF76404D0040EF56E0C0006D00E
:1049A000F6CFE9FFF7CFEAFF040EEF6E0101C45125
:1049B0000001DA6FDB6BDC6BDD6BDAC0DDF0DC6B2A
:1049C000DB6BDA6B21EEC4F0000EDE14DE6FFF0E3F
:1049D000DE14DF6F000EDE14E06F000EDE14E16FF8
:1049E000E0C0E1F0DFC0E0F0DEC0DFF0DE6BC4C1AC
:1049F000E2F0C5C1E3F0C6C1E4F0C7C1E5F0E3C031
:104A0000E2F0E4C0E3F0E5C0E4F0E56BE66BE3510F
:104A1000E76F000EE86BE96B21EEC4F0DE14EA6F7D
:104A2000000EDE14EB6F000EDE14EC6FFF0EDE14D2
:104A3000ED6F190E05D0D890ED33EC33EB33EA333C
:104A4000E82EF9D7E651EA11EE6FE751EB11EF6F5F
:104A5000E851EC11F06FE951ED11F16FDE51EE11FB
:104A6000F26FDF51EF11F36FE051F011F46FE1518C
:104A7000F111F56FDA51F2110101C46F0001DB5140
:104A8000F3110101C56F0001DC51F4110101C66F82
:104A90000001DD51F5110101C76FC0510001DA6F4E
:104AA000DB6BDC6BDD6BDAC0DDF0DC6BDB6BDA6BF8
:104AB00021EEC0F0000EDE14DE6FFF0EDE14DF6F9D
:104AC000000EDE14E06F000EDE14E16FE0C0E1F0D6
:104AD000DFC0E0F0DEC0DFF0DE6BC0C1E2F0C1C1DC
:104AE000E3F0C2C1E4F0C3C1E5F0E3C0E2F0E4C02A
:104AF000E3F0E5C0E4F0E56BE66BE351E76F000E31
:104B0000E86BE96B21EEC0F0DE14EA6F000EDE14F4
:104B1000EB6F000EDE14EC6FFF0EDE14ED6F190E5E
:104B200005D0D890ED33EC33EB33EA33E82EF9D7E8
:104B3000E651EA11EE6FE751EB11EF6FE851EC111E
:104B4000F06FE951ED11F16FDE51EE11F26FDF51AF
:104B5000EF11F36FE051F011F46FE151F111F56FC6
:104B6000DA51F2110101C06F0001DB51F3110101B3
:104B7000C16F0001DC51F4110101C26F0001DD5170
:104B8000F5110101C36F55EF08F0390E036E046A89
:104B9000066A1C0E056ED9EC3AF003C02FF004C073
:104BA00030F01C0E2F183010D8A41200316A000EFD
:104BB000376E030E386E080E356E20EE06F0375055
:104BC000D9263850DA22DE5047182AE1DE5048183C
:104BD00027E1DE50491824E1DE504A1821E120EE99
:104BE0000AF03750D9263850DA22DE503B1818E147
:104BF000DE503C1815E120EE0CF03750D926385025
:104C0000DA22DF6A20EE41F037C0E1FF38C0E2FF70
:104C1000050EDBCFE3FFE806FCE2010E316E07D0A4
:104C20000D0E3726000E382235063550C6E18E515E
:104C30008F1190119111D8B4120051500F6E106A5B
:104C4000116A126A0FC012F0116A106A0F6A20EE20
:104C500051F0000EDE14136EFF0EDE14146E000E03
:104C6000DE14156E000EDE14166E15C016F014C09C
:104C700015F013C014F0136A51C017F052C018F0A9
:104C800053C019F054C01AF018C017F019C018F02A
:104C90001AC019F01A6A1B6A18501C6E000E1D6AA1
:104CA0001E6A20EE51F0DE141F6E000EDE14206E20
:104CB000000EDE14216EFF0EDE14226E190E05D0DA
:104CC000D8902232213220321F32E82EF9D71B50E1
:104CD0001F10236E1C502010246E1D502110256EB5
:104CE0001E502210266E13502310276E14502410CD
:104CF000286E15502510296E165026102A6E0F505A
:104D000027102B6E105028102C6E115029102D6E6C
:104D100012502A102E6E8E512B1809E18F512C182B
:104D200006E190512D1803E191512E18D8A41200DC
:104D3000315001E0BCD0000E376E030E386E000E0D
:104D4000336E030E346E080E366E20EE0CF03350C8
:104D5000D9263450DA2210EE0CF03750E1263850C4
:104D6000E222DE50E65C04E233C037F034C038F0B3
:104D70000D0E3326000E342236063650E6E120EEC4
:104D80000CF03750D9263850DA22DF6A20EE41F095
:104D900037C0E1FF38C0E2FF050EDBCFE3FFE806D6
:104DA000FCE247500F6E106A116A126A0FC012F0CF
:104DB000116A106A0F6A20EE47F0000EDE14136EBF
:104DC000FF0EDE14146E000EDE14156E000EDE14DF
:104DD000166E15C016F014C015F013C014F0136A47
:104DE00047C017F048C018F049C019F04AC01AF07F
:104DF00018C017F019C018F01AC019F01A6A1B6A07
:104E000018501C6E000E1D6A1E6A20EE47F0DE145C
:104E10001F6E000EDE14206E000EDE14216EFF0EDB
:104E2000DE14226E190E05D0D890223221322032A3
:104E30001F32E82EF9D71B501F10236E1C50201074
:104E4000246E1D502110256E1E502210266E135008
:104E50002310276E14502410286E15502510296E2B
:104E6000165026102A6E0F5027102B6E1050281047
:104E70002C6E115029102D6E12502A102E6E20EE1D
:104E800006F03750D9263850DA222BC0DEFF2CC06E
:104E9000DEFF2DC0DEFF2EC0DEFF20EE0AF0375011
:104EA000D9263850DA223BC0DEFF3CC0DDFF40048B
:104EB0003F10D8A41200410E0B6E0C6A080E0E6E45
:104EC000060E0D6E7FEC3EF0326E3204D8A4120056
:104ED00020EE41F010EE4BF0050EDBCFE3FFE806CD
:104EE000FCE2410E086E096AB6EC3CF047C051F096
:104EF00048C052F049C053F04AC054F001018E51ED
:104F00000F6E106A116A126A0FC012F0116A106AED
:104F10000F6A136A8F51146E156A166A15C016F05F
:104F200014C015F013C014F0136A176A9051186E6C
:104F3000196A17501A6E18501B6E19501C6E1D6A94
:104F40001E6A1F6A206A9151216E190E05D0D890F1
:104F5000213220321F321E32E82EF9D71A501E108D
:104F6000226E1B501F10236E1C502010246E1D50EB
:104F70002110256E13502210266E14502310276E18
:104F800015502410286E16502510296E0F5026102B
:104F9000476E10502710486E11502810496E12505D
:104FA00029104A6E020E406E3F6A390E036E046A83
:104FB000066A1C0E056EFEEC3DF0E5EF42F01B6E3E
:104FC000EBD1250E1A182FE01B50D96EDA6A020EAB
:104FD000D926DE50DE10DE1012E01B50D96EDA6AE0
:104FE000020ED92601D8D8D10500FA6EDE50FD6E2A
:104FF000DE50FE6EDE50FF6EFA501A5012001B504B
:10500000D96EDA6ADECF10F0DDCF11F010C0D9FF13
:1050100011C0DAFF1AC0DFFF1B50D96EDA6ADE2A30
:10502000000EDD22B9D1176A83D0178E9DD00F50A4
:10503000D96EDA6A020EDF26DF5CD96EDA6ADECF5D
:1050400015F0DECF16F0155016105AE1A20E156EAF
:105050001550D8A4100E166E53D01B50D96EDA6AB4
:10506000020ED926DE50DE10DE1025E01B50D96E70
:10507000DA6A020ED92601D81BD00500FA6EDE507E
:10508000FD6EDE50FE6EDE50FF6EFA5015C0F6FF6C
:1050900016C0F7FF000EF86E0F0EF76403D008007D
:1050A000F55005D0F6CFE9FFF7CFEAFFEF50120039
:1050B000154A162A25D015C0F6FF16C0F7FF000EB8
:1050C000F86E1B50D96EDA6ADECF10F0DDCF11F02A
:1050D00010C0D9FF11C0DAFF0F0EF76403D008002B
:1050E000F55005D0F6CFE9FFF7CFEAFFEF50DF6EBE
:1050F000154A162A1B50D96EDA6ADE2A000EDD2206
:1051000015C0F6FF16C0F7FF000EF86E0F0EF7641D
:1051100003D00800F55005D0F6CFE9FFF7CFEAFF3E
:10512000EF50000901E138D198D7C00E17121CD0FA
:105130000E2A0E04106E10C0F6FF100EF76E000E51
:10514000F86E0800F5CF1AF01A5001E134D1640A64
:105150000BE00D0A09E01A0A01E169D7060AE5E049
:105160000D0A01E162D718D117C010F0C00E101659
:1051700015E10F50D96EDA6A020EDF26DF5CD96EB8
:10518000DA6ADECF18F0DECF19F019AE46D0030E82
:105190001712186C191ED8B0192A3FD00F50D96EAB
:1051A000DA6A020EDF26DF5CD96EDA6ADECF18F02B
:1051B000DECF19F032D0010E1A6E1A50020DF350E4
:1051C000010F106E10C0F6FF100EF76E000EF86E95
:1051D0000900F550185C0900F550195825E31A2A02
:1051E000050E1A1821E0E9D7010E1A6E1A50020DA9
:1051F000F3500B0F106E10C0F6FF100EF76E000E7E
:10520000F86E0900F550185C0900F55019580CE3C8
:105210001A2A040E1A1808E0E9D71750C00BCBE081
:10522000800AE2E0400AC7E017C010F0030E101633
:105230002DE01B50D96EDA6A020ED926DE50DE1040
:10524000DE1011E01B50D96EDA6A020ED92601D8A1
:105250001DD00500FA6EDE50FD6EDE50FE6EDE5093
:10526000FF6EFA502D0C1B50D96EDA6ADECF10F0AB
:10527000DDCF11F010C0D9FF11C0DAFF2D0EDF6EA7
:105280001B50D96EDA6ADE2A000EDD221AC014F035
:1052900080D01450020DF350010F106E10C0F6FFB5
:1052A000100EF76E000EF86E0900F5CF04F00A003C
:1052B000F5CF05F018C002F019C003F095EC3FF0EF
:1052C00002C009F003C00AF00C6A0A0E0B6E11EC62
:1052D00041F00950300F1A6E2ED018C002F019C0DC
:1052E00003F01450020DF3500B0F106E10C0F6FFB8
:1052F000100EF76E000EF86E0900F5CF04F00A00EC
:10530000F5CF05F095EC3FF002500F0B136E1350E4
:10531000550F106E10C0F6FF100EF76E000EF86EEF
:105320000800F5CF1AF007D01750C00BB2E0800A82
:10533000D4E0400AAEE01B50D96EDA6A020ED926DC
:10534000DE50DE10DE1012E01B50D96EDA6A020E5B
:10535000D92601D81ED00500FA6EDE50FD6EDE5053
:10536000FE6EDE50FF6EFA501A5012001B50D96EBE
:10537000DA6ADECF10F0DDCF11F010C0D9FF11C016
:10538000DAFF1AC0DFFF1B50D96EDA6ADE2A000E80
:10539000DD2214061428C8E10E2A0E04106E10C077
:1053A000F6FF100EF76E000EF86E0800F5CF1AF03B
:1053B0001A5001E006D60E6A0F6A12000001FA6B5D
:1053C000FB6B0E6A140E0D6E106A0F6ACDEC37F08F
:1053D0000DC0FCF00EC0FDF00001FC51FD1101E01C
:1053E0001200A80E036E010E046E066A140E056EFE
:1053F000D9EC3AF0A8390F0B040A01E01200B851B9
:10540000006F016B026B036B00C103F1026B016B58
:10541000006B21EEB8F0000EDE14046FFF0EDE14F8
:10542000056F000EDE14066F000EDE14076F06C156
:1054300007F105C106F104C105F1046BB8C108F11B
:10544000B9C109F1BAC10AF1BBC10BF109C108F137
:105450000AC109F10BC10AF10B6B0C6B09510D6FFD
:10546000000E0E6B0F6B21EEB8F0DE14106F000E05
:10547000DE14116F000EDE14126FFF0EDE14136FB8
:10548000190E05D0D8901333123311331033E82E90
:10549000F9D70C511011146F0D511111156F0E51D8
:1054A0001211166F0F511311176F04511411186F49
:1054B00005511511196F065116111A6F0751171161
:1054C0001B6F00511811B86F01511911B96F0251BA
:1054D0001A11BA6F03511B11BB6FB451006F016BEE
:1054E000026B036B00C103F1026B016B006B21EED9
:1054F000B4F0000EDE14046FFF0EDE14056F000E14
:10550000DE14066F000EDE14076F06C107F105C139
:1055100006F104C105F1046BB4C108F1B5C109F18C
:10552000B6C10AF1B7C10BF109C108F10AC109F10D
:105530000BC10AF10B6B0C6B09510D6F000E0E6B5A
:105540000F6B21EEB4F0DE14106F000EDE14116F3D
:10555000000EDE14126FFF0EDE14136F190E05D04D
:10556000D8901333123311331033E82EF9D70C517E
:105570001011146F0D511111156F0E511211166F7C
:105580000F511311176F04511411186F0551151194
:10559000196F065116111A6F075117111B6F005121
:1055A0001811B46F01511911B56F02511A11B66F6C
:1055B00003511B11B76F8E51B81909E18F51B919F9
:1055C00006E19051BA1903E19151BB1909E0B829DC
:1055D00006E1B92904E1BA2902E1BB29D8A41200E5
:1055E000AA51016F006B21EEAAF0DECF02F1DDCFF0
:1055F00003F103C102F1036B036B00510211AA6FA7
:1056000001510311AB6FA8510F0B006FD8900037F9
:10561000D89000350001F96F0101A8510F0B006F00
:10562000050E00659CD0EC0E0001F9250B6E0C6A8E
:10563000FF0E0C22BAEC3FF092D00001F9510101AB
:10564000AA5D0001FA6F0101AB51D8A0AB050001C2
:10565000FB6FFAC00DF0FBC00EF0106A0F6ACDECC4
:1056600037F00DC0FCF00EC0FDF00001FC51FD1143
:10567000D8A41200A80E5A6E010E5B6E28EF40F0FF
:105680000001F9510101AA5D0001FA6F0101AB515E
:10569000D8A0AB050001FB6FFAC002F0FBC003F01D
:1056A0008DEC3AF002C0FCF003C0FDF0FAC00DF042
:1056B000FBC00EF0FCC00FF0FDC010F0CDEC37F0D9
:1056C0000DC0FCF00EC0FDF0FCC097F0FDC098F0DE
:1056D000F2EF36F00001F9510101AA5D0001FA6F05
:1056E0000101AB51D8A0AB050001FB6FFAC002F07D
:1056F000FBC003F08DEC3AF002C0FCF003C0FDF0FB
:10570000FAC00DF0FBC00EF0FCC00FF0FDC010F0B1
:10571000CDEC37F00DC0FCF00EC0FDF00001FC51E7
:10572000FD11D8A41200B4C12EF2B5C12FF2B6C13A
:1057300030F2B7C131F22EC2D4F02FC2D5F030C250
:10574000D6F031C2D7F0FAC0D8F0FBC0D9F0EDEFF7
:1057500022F0AAC10BF0ABC10CF0BAEF3FF001018F
:10576000B151010A01E169D7070AB4E0170A88E0DC
:10577000F0D70001DC6BDD6B02012A2B000E2B231E
:105780002C232D2301019C4B9D2B040E9D5D03E2D8
:10579000040E9D6F9C6BA2C1DEF0A3C1DFF073D13C
:1057A000300EDE25D46F000EDF21D56FD4C0F6FF9A
:1057B000D5C0F7FF000EF86E0F0EF76407D0090092
:1057C000F5CFD6F00900F5CFD7F008D0F6CFE9FF36
:1057D000F7CFEAFFEECFD6F0EECFD7F00001D651EB
:1057E000D71101E12ED1D469D569300EDE25D66FEF
:1057F000000EDF21D76FD6C0F6FFD7C0F7FF000E2F
:10580000F86E0F0EF76407D00900F5CFD8F0090045
:10581000F5CFD9F008D0F6CFE9FFF7CFEAFFEECF0A
:10582000D8F0EECFD9F00001D451D827D551D923E3
:10583000300EDE25DA6F000EDF21DB6FDAC0F6FFF7
:10584000DBC0F7FF000EF86E0F0EF76407D0D8C06C
:10585000F5FF0D00D9C0F5FF0C0008D0F6CFE9FF29
:10586000F7CFEAFFD8C0EEFFD9C0EFFF300E00013E
:10587000DE25D46F000EDF21D56FD4C0F6FFD5C072
:10588000F7FF000EF86E0F0EF76407D00900F5CF92
:10589000D6F00900F5CFD7F008D0F6CFE9FFF7CF63
:1058A000EAFFEECFD6F0EECFD7F00001D651D711F8
:1058B00001E0C7D0340EDE25D46F000EDF21D56F96
:1058C000D4C0F6FFD5C0F7FF000EF86E0F0EF764D8
:1058D00003D00800F55005D0F6CFE9FFF7CFEAFF77
:1058E000EF50000901E1ADD02B0E0001DE25D46F91
:1058F000000EDF21D56FD4C0F6FFD5C0F7FF000E34
:10590000F86E0F0EF76403D00800F55005D0F6CFFF
:10591000E9FFF7CFEAFFEF500D0A01E092D0320E17
:105920000001DE25D46F000EDF21D56FD4C0F6FF55
:10593000D5C0F7FF000EF86E0F0EF76407D0090010
:10594000F5CFD6F00900F5CFD7F008D0F6CFE9FFB4
:10595000F7CFEAFFEECFD6F0EECFD7F0300E000152
:10596000DE25D86F000EDF21D96FD8C0F6FFD9C071
:10597000F7FF000EF86E0F0EF76407D0D6C0F5FFE4
:105980000D00D7C0F5FF0C0008D0F6CFE9FFF7CF28
:10599000EAFFD6C0EEFFD7C0EFFF340E0001DE25D0
:1059A000D46F000EDF21D56FD4C0F6FFD5C0F7FF4E
:1059B000000EF86E0F0EF76403D00800F55005D006
:1059C000F6CFE9FFF7CFEAFFEF500001D66FD60719
:1059D000340EDE25D76F000EDF21D86FD7C0F6FF5B
:1059E000D8C0F7FF000EF86E0F0EF76404D0D6C0D3
:1059F000F5FF0C0006D0F6CFE9FFF7CFEAFFD6C0DF
:105A0000EFFF2B0E0001DE25D46F000EDF21D56FD6
:105A1000D4C0F6FFD5C0F7FF000EF86E0F0EF76486
:105A200004D00C0EF56E0C0006D0F6CFE9FFF7CFD0
:105A3000EAFF0C0EEF6EDEC0FEF0DFC0FFF055ECAB
:105A400008F02C0E0001DE25D46F000EDF21D56F8B
:105A5000D4C0F6FFD5C0F7FF000EF86E0F0EF76446
:105A600007D00900F5CFDEF00900F5CFDFF008D050
:105A7000F6CFE9FFF7CFEAFFEECFDEF0EECFDFF0B3
:105A80000001DC4BDD2B0001DE51DF11D8B4120028
:105A9000A7C1D4F0D56BD4BFD507D451DC5DDD519F
:105AA000800AD66FD551800AD65901E279D6120004
:105AB000220E0001FE25B46F000EFF21B56FB4C0A9
:105AC000F6FFB5C0F7FF000EF86E0F0EF76403D0B7
:105AD0000800F55005D0F6CFE9FFF7CFEAFFEF5009
:105AE000E806D8A412001A0E0001FE25B46F000EBD
:105AF000FF21B56FB4C0F6FFB5C0F7FF000EF86E1A
:105B00000F0EF76407D00900F5CFB6F00900F5CF06
:105B1000B7F008D0F6CFE9FFF7CFEAFFEECFB6F047
:105B2000EECFB7F05A500001B65D5B50B75905E3B0
:105B30005AC0C1F05BC0C2F01ED01A0EFE25B46F71
:105B4000000EFF21B56FB4C0F6FFB5C0F7FF000E21
:105B5000F86E0F0EF76407D00900F5CFC1F0090009
:105B6000F5CFC2F008D0F6CFE9FFF7CFEAFFEECFCE
:105B7000C1F0EECFC2F0200E0001FE25B46F000E82
:105B8000FF21B56FB4C0F6FFB5C0F7FF000EF86E89
:105B90000F0EF76407D00900F5CF03F00900F5CF29
:105BA00004F008D0F6CFE9FFF7CFEAFFEECF03F01D
:105BB000EECF04F0C1C005F0C2C006F0D9EC3AF057
:105BC000200E0001FE25B46F000EFF21B56FB4C09A
:105BD000F6FFB5C0F7FF000EF86E0F0EF76407D0A2
:105BE0000900F5CFB6F00900F5CFB7F008D0F6CF31
:105BF000E9FFF7CFEAFFEECFB6F0EECFB7F0000146
:105C0000C151B627C251B723200EFE25B86F000E32
:105C1000FF21B96FB8C0F6FFB9C0F7FF000EF86EEC
:105C20000F0EF76407D0B6C0F5FF0D00B7C0F5FF43
:105C30000C0008D0F6CFE9FFF7CFEAFFB6C0EEFFC1
:105C4000B7C0EFFF1A0E0001FE25B46F000EFF2152
:105C5000B56FB4C0F6FFB5C0F7FF000EF86E0F0EBB
:105C6000F76407D00900F5CFB6F00900F5CFB7F01B
:105C700008D0F6CFE9FFF7CFEAFFEECFB6F0EECFD0
:105C8000B7F00001C151B65FC251B75B1A0EFE25D5
:105C9000B86F000EFF21B96FB8C0F6FFB9C0F7FFAB
:105CA000000EF86E0F0EF76407D0B6C0F5FF0D00BA
:105CB000B7C0F5FF0C0008D0F6CFE9FFF7CFEAFF39
:105CC000B6C0EEFFB7C0EFFF080E0001FE25B46FAF
:105CD000000EFF21B56FB4C0F6FFB5C0F7FF000E90
:105CE000F86E0F0EF7640DD00900F5CFB6F009007D
:105CF000F5CFB7F00900F5CFB8F00900F5CFB9F04E
:105D00000CD0F6CFE9FFF7CFEAFFEECFB6F0EECF3B
:105D1000B7F0EECFB8F0EECFB9F00001C151B62523
:105D2000BA6FC251B721BB6F000EB821BC6F000E15
:105D3000B921BD6F0C0EFE25BE6F000EFF21BF6F97
:105D4000BEC0F6FFBFC0F7FF000EF86E0F0EF7647F
:105D50000DD0BAC0F5FF0D00BBC0F5FF0D00BCC0F3
:105D6000F5FF0D00BDC0F5FF0C000CD0F6CFE9FF2C
:105D7000F7CFEAFFBAC0EEFFBBC0EEFFBCC0EEFF3C
:105D8000BDC0EFFF350E0001FE25B46F000EFF21F0
:105D9000B56FB4C0F6FFB5C0F7FF000EF86E0F0E7A
:105DA000F76404D0100EF56E0C0006D0F6CFE9FFB4
:105DB000F7CFEAFF100EEF6EFEC058F0FFC059F0AB
:105DC00011EF1DF0020E0224046E000E0320056E7A
:105DD00004C0F6FF05C0F7FF000EF86E0F0EF76463
:105DE00009D0F56A0D00F56A0D00F56A0D00F56A37
:105DF0000C0008D0F6CFE9FFF7CFEAFFEE6AEE6AB3
:105E0000EE6AEF6A060E0224046E000E0320056E91
:105E100004C0F6FF05C0F7FF000EF86E0F0EF76422
:105E200005D0F56A0D00F56A0C0006D0F6CFE9FF43
:105E3000F7CFEAFFEE6AEF6A100E0224046E000E3E
:105E40000320056E04C0F6FF05C0F7FF000EF86ED4
:105E50000F0EF76409D0F56A0D00F56A0D00F56ABA
:105E60000D00F56A0C0008D0F6CFE9FFF7CFEAFF86
:105E7000EE6AEE6AEE6AEF6A140E0224046E000EF9
:105E80000320056E04C0F6FF05C0F7FF000EF86E94
:105E90000F0EF76409D0F56A0D00F56A0D00F56A7A
:105EA0000D00F56A0C0008D0F6CFE9FFF7CFEAFF46
:105EB000EE6AEE6AEE6AEF6A080E0224046E000EC5
:105EC0000320056E04C0F6FF05C0F7FF000EF86E54
:105ED0000F0EF76409D0F56A0D00F56A0D00F56A3A
:105EE0000D00F56A0C0008D0F6CFE9FFF7CFEAFF06
:105EF000EE6AEE6AEE6AEF6A0C0E0224046E000E81
:105F00000320056E04C0F6FF05C0F7FF000EF86E13
:105F10000F0EF76409D0F56A0D00F56A0D00F56AF9
:105F20000D00F56A0C0008D0F6CFE9FFF7CFEAFFC5
:105F3000EE6AEE6AEE6AEF6A180E0224046E000E34
:105F40000320056E04C0F6FF05C0F7FF000EF86ED3
:105F50000F0EF76405D0F56A0D00F56A0C0006D047
:105F6000F6CFE9FFF7CFEAFFEE6AEF6A300E0224C0
:105F7000046E000E0320056E04C0F6FF05C0F7FF97
:105F8000000EF86E0F0EF76405D0F56A0D00F56A85
:105F90000C0006D0F6CFE9FFF7CFEAFFEE6AEF6A12
:105FA000320E0224046E000E0320056E04C0F6FFBC
:105FB00005C0F7FF000EF86E0F0EF76405D0F56A06
:105FC0000D00F56A0C0006D0F6CFE9FFF7CFEAFF27
:105FD000EE6AEF6A340E0224046E000E0320056E92
:105FE00004C0F6FF05C0F7FF000EF86E0F0EF76451
:105FF00003D0F56A0C0005D0F6CFE9FFF7CFEAFF32
:10600000EF6A350E0224046E000E0320056E04C0F4
:10601000F6FF05C0F7FF000EF86E0F0EF76403D011
:10602000F56A0C0005D0F6CFE9FFF7CFEAFFEF6A7B
:1060300002C0F6FF03C0F7FF000EF86E0F0EF76404
:1060400005D0F56A0D00F56A0C0006D0F6CFE9FF21
:10605000F7CFEAFFEE6AEF6A360E0224046E000EF6
:106060000320056E04C0F6FF05C0F7FF000EF86EB2
:106070000F0EF76404D0010EF56E0C0006D0F6CFBB
:10608000E9FFF7CFEAFF010EEF6E12008C0E086EEB
:10609000096AB6EC3CF05ABE12005A5004E1F10E07
:1060A000595CD8A0120004EC40F003C083F004C097
:1060B00084F00001830503E1020E8419D8A41200C4
:1060C0000C6A020E0B6EBAEC3FF09BEC3DF003C085
:1060D0007FF004C080F005C081F006C082F0500E51
:1060E00000017F1909E1480E801906E1430E81196C
:1060F00003E14D0E8219D8A412000C6A080E0B6E33
:10610000BAEC3FF09BEC3DF003C093F004C094F078
:1061100005C095F006C096F000019351776F786B3B
:106120009451796F7A6B95517B6F7C6B96C07DF043
:106130007E6B0C6A080E0B6EBAEC3FF0860E036E97
:10614000046A066A060E056ED9EC3AF08C0E026EF1
:10615000046A060E036E860E49EC3FF002500310EF
:1061600001E0C1D00C6ACA0E0B6EBAEC3FF09BEC9A
:106170003DF0630E031809E1530E041806E1820E88
:10618000051803E1630E0618D8A41200100E592654
:10619000FF0E5A229AD09EEC41F00001856F9EECD2
:1061A00041F00001926F92515B6E5C6A020E5B26B9
:1061B000000E5C225B50595E5C505A5A78D09BECC2
:1061C0003DF003C092F104C093F105C094F106C004
:1061D00095F17BD09BEC3DF003C026F204C027F282
:1061E00005C028F206C029F270D0030E92656DD06A
:1061F0009BEC3DF003C010F204C011F205C012F296
:1062000006C013F2040E0001925F030E92655DD08A
:106210009BEC3DF003C014F204C015F205C016F269
:1062200006C017F2040E0001925F4FD0030E926574
:106230004CD09BEC3DF003C08AF104C08BF105C04B
:106240008CF106C08DF1EED79BEC3DF003C022F23D
:1062500004C023F205C024F206C025F2E3D793C0A0
:106260008EF194C08FF195C090F196C091F1040E1B
:106270000BD093C08EF194C08FF195C090F196C071
:1062800091F1050E01D0010E5D6E08D09EEC41F03B
:10629000020AE5E0070AEDE0030AF5E000019207D3
:1062A00014D092C00BF00C6ABAEC3FF00ED08551BE
:1062B000010A85E0020A8EE0050A97E0350AB6E099
:1062C000060AE4E0030AC0E0ECD75ABE05D05A50F3
:1062D00002E15904D8B05FD7040E5D18D8A41200AB
:1062E000030E7BEF31F0DE0E59240B6EFF0E5A20A9
:1062F0000C6EBAEF3FF00001706F710E086E096A04
:10630000B6EC3CF000016769686969696A696C6BA1
:10631000440E6B6F6E6B430E6D6FFBEC3EF0000135
:106320006F6F6F05D8A41200036A060E046E010E8B
:10633000056E066ECDEC41F0500E036E480E046EF5
:10634000430E056E4D0E066ECDEC41F0036A800ED5
:10635000046E056A066ACDEC41F0030E0001701967
:1063600007E1036A046A056A066ACDEC41F00AD0C7
:106370008EC103F08FC104F090C105F091C106F009
:10638000CDEC41F0036A046A056A066ACDEC41F07F
:10639000036A046A056A066ACDEC41F0036A046A7E
:1063A000056A066ACDEC41F0710E036E046A066A56
:1063B000060E056EFEEC3DF0056ACA0E046E83EC17
:1063C00043F0630E036E530E046E820E056E630E71
:1063D000066ECDEC41F0350E6AEC43F0010E6AEC2E
:1063E00043F0000170516AEC43F0030E0001701994
:1063F00020E1360E6AEC43F0040E6AEC43F022C250
:1064000003F023C204F024C205F025C206F0CDEC4F
:1064100041F0320E6AEC43F0040E6AEC43F08EC198
:1064200003F08FC104F090C105F091C106F0CDECEE
:1064300041F0370E6AEC43F0040E6AEC43F0010EB3
:106440006AEC43F0030E6AEC43F0060E6AEC43F08C
:106450000F0E6AEC43F0390E6AEC43F0020E6AEC60
:1064600043F0020E046E036AD4EC42F00C0E6AECA8
:1064700043F0140E6AEC43F0130E036E0350D8A4DD
:10648000100E046E066A140E056EFEEC3DF03D0E15
:106490006AEC43F0070E6AEC43F0010E6AEC43F03D
:1064A000710E036E046A066A060E056EFEEC3DF080
:1064B000FF0E6AEC43F0000E6AEC43F094EC39F006
:1064C00000017005D8A41200030E5D6E030C010ECE
:1064D000306E2F6A326A080E316E060E336E040E6D
:1064E000346E010E366E356A370E086E096AB6ECE8
:1064F0003CF001018E51136E146A156A166A13C0BE
:1065000016F0156A146A136A176A8F51186E196AA1
:106510001A6A19C01AF018C019F017C018F0176AD3
:106520001B6A90511C6E1D6A1B501E6E1C501F6E04
:106530001D50206E216A226A236A246A9151256EB9
:10654000190E05D0D8902532243223322232E82E7B
:10655000F9D71E502210266E1F502310276E205090
:106560002410286E21502510296E175026102A6EEF
:10657000185027102B6E195028102C6E1A50291005
:106580002D6E13502A103D6E14502B103E6E155078
:106590002C103F6E16502D10406E0F50136E146A63
:1065A000156A166A13C016F0156A146A136A176A18
:1065B0001050186E196A1A6A19C01AF018C019F02A
:1065C00017C018F0176A1B6A11501C6E1D6A1B5009
:1065D0001E6E1C501F6E1D50206E216A226A236A97
:1065E000246A1250256E190E05D0D8902532243217
:1065F00023322232E82EF9D71E502210266E1F5069
:106600002310276E20502410286E21502510296E4B
:10661000175026102A6E185027102B6E195028106C
:106620002C6E1A5029102D6E13502A10476E1450DC
:106630002B10486E15502C10496E16502D104A6EB6
:10664000416A426A436A446A456A466A280E0B6E8A
:106650000B50D8A4100E0C6E080E0E6E060E0D6EAA
:106660007FEC3EF02E6E2E040EE12F0E036E046AB8
:10667000066A1C0E056EFEEC3DF0E5EC42F02E6E57
:106680002E0401E1050C2E501200746F0001736B93
:1066900020EE0CF05850D9265950DA22DECF4BF0BC
:1066A000DECF4CF0DECF4DF0DECF4EF020EE09F025
:1066B0005850D9265950DA22DF504F6E0FEC34F083
:1066C000736F730501E0A9D020EE02F05850D9266F
:1066D0005950DA22DECF67F0DDCF68F0EC0E672587
:1066E000716FFF0E6821726F58C0D9FF59C0DAFF71
:1066F000DF500F0B676F686BD89067376837D8909B
:106700006737683720EE02F05850D9265950DA2200
:10671000DECF69F0DDCF6AF06751695D716F685156
:106720006A59726F046A036AD4EC42F0046A036A1D
:10673000D4EC42F000017451D96EDA6A040ED92605
:10674000DECF67F0DDCF68F067516A6F696B745117
:10675000D96EDA6A040ED926DECF6BF0DDCF6CF08D
:106760006CC06BF06C6B6C6B69516B11036E6A5192
:106770006C11046ED4EC42F000017451D96EDA6AE7
:10678000060ED926DECF67F0DDCF68F067516A6F5D
:10679000696B7451D96EDA6A060ED926DECF6BF0BA
:1067A000DDCF6CF06CC06BF06C6B6C6B69516B1176
:1067B000036E6A516C11046ED4EC42F0F80E0001C5
:1067C00071250D6EFF0E72210E6E3BEC3AF000014A
:1067D000736F730522E1AEEC43F00E6A220E0D6E6C
:1067E00071C00FF072C010F0126A116A92EC38F0AA
:1067F0000DC06FF00EC070F00C6A020E0B6E0E6AC8
:10680000240E0D6E6F0EA9EC3EF071C01DF072C02B
:106810001EF064EC3DF00001736F73511200000133
:10682000666B01018E518F119011911103E1110ED0
:106830004F1862E18E0505E17F0E91198F119011BD
:106840005BE04B2806E14C2804E14D2802E14E288C
:1068500056E08E519215506E8F519315516E905196
:106860009415526E91519515536E4B509215546E6E
:106870004C509315556E4D509415566E4E509515BF
:10688000576E5050541812E1515055180FE15250A4
:1068900056180CE15350571809E14BC060F04CC03A
:1068A00061F04DC062F04EC063F008D026C260F0C7
:1068B00027C261F028C262F029C263F060C002F012
:1068C00061C003F062C004F063C005F022EC3FF049
:1068D00002C064F003C065F000016451651116E167
:1068E00060C00FF061C010F062C011F063C012F020
:1068F00067EC32F00001666F000166511200280E4D
:106900000001646F6451D8A4100E656F64C00BF071
:1069100065C00CF0080E0E6E0D6A7FEC3EF00001B3
:10692000666F6605E9E1450E046E036AD4EC42F039
:10693000046A036AD4EC42F0036A400E046E550EFA
:10694000056EAA0E066ECDEC41F0400E6AEC43F0E7
:106950004F506AEC43F0046A036AD4EC42F08EC1F3
:1069600003F08FC104F090C105F091C106F0CDECA9
:1069700041F04BC003F04CC004F04DC005F04EC0D8
:1069800006F0CDEC41F08EC1B4F18FC1B5F190C1EC
:10699000B6F191C1B7F14BC0B8F14CC0B9F14DC0DF
:1069A000BAF14EC0BBF14FC0B1F1A6D7320E0A6E9C
:1069B000020E0B6E8CEC42F00001DA6F7ED0320ECC
:1069C0000A6E020E0B6E69EF37F0320E0A6E020E7F
:1069D0000B6E0D6A070E0C6EB1EC42F0320E0A6EB1
:1069E000020E0B6E690E0C6E020E0D6E0F6A140E07
:1069F0000E6E6BEC3BF0320E0001D46F020ED56FC1
:106A000034EF3CF0320E0A6E020E0B6E50EC42F088
:106A10000009D8B41200320E0A6E020E0B6ECDECD5
:106A20003DF00AC0DBF00BC0DCF00001DB51DC11F3
:106A3000D8B41200320E0A6E020E0B6EAEEC3BF0B2
:106A40000AC0DBF00BC0DCF00001DD6BDE6B10D0A8
:106A5000690EDD25D96E020EDE21DA6E7D0EDD2592
:106A6000E16E020EDE21E26EDFCFE7FFDD4BDE2BB3
:106A7000DB51DD5DDC51DE59EBE3320E0A6E020EB6
:106A80000B6E690E0C6E020E0D6E0F6A140E0E6EFA
:106A90006BEC3BF0DBC0D8F0DCC0D9F0320E00016B
:106AA000B46F020EB56F7D0EB66F020EB76FD8C011
:106AB000B8F0D9C0B9F030EF38F0DA5180E0010A0F
