:0400000014EF00F009
:060008005E82F0EF46F0FD
:100018005E80E0CF01F000F001C0E0FF5E901000CC
:0400280068EF43F04A
:101000000001000A006400E803102701001000003E
:1010100001001050494331384639374A36302045AF
:10102000544845524E455400FFFFFFFFFFFF00DECE
:10103000AD00BEEF4400B464000D0A0D0A537461A4
:101040007274696E67205379736C6F6720617420C6
:1010500025750D0A00303132333435363738396171
:1010600062636465660057616974696E6720666FC4
:1010700072204C696E6B004C696E6B2073746172E8
:101080007465640025642E25642E25642E25640075
:101090002575203A2025730D0A002578203A202551
:1010A0006400286E756C6C2900000001D06B2A0E5C
:1010B0000101C8250001C46F000E0101C921000112
:1010C000C56FC4C0F6FFC5C0F7FF000EF86E0F0E67
:1010D000F76403D00800F55005D0F6CFE9FFF7CF4D
:1010E000EAFFEF500001D46F2B0E0101C82500016B
:1010F000C46F000E0101C9210001C56FC4C0F6FF15
:10110000C5C0F7FF000EF86E0F0EF76403D008009D
:10111000F55005D0F6CFE9FFF7CFEAFFEF50000119
:10112000D36F71EF1EF0020E0101C8250001C46FDC
:10113000000E0101C9210001C56FC4C0F6FFC5C082
:10114000F7FF000EF86E0F0EF7640DD0BFC1F5FF6C
:101150000D00C0C1F5FF0D00C1C1F5FF0D00C2C1FA
:10116000F5FF0C000CD0F6CFE9FFF7CFEAFFBFC1C7
:10117000EEFFC0C1EEFFC1C1EEFFC2C1EFFF060E20
:101180000101C8250001C46F000E0101C921000141
:10119000C56FC4C0F6FFC5C0F7FF000EF86E0F0E96
:1011A000F76407D0EAC1F5FF0D00EBC1F5FF0C00B5
:1011B00008D0F6CFE9FFF7CFEAFFEAC1EEFFEBC1B7
:1011C000EFFF140E0101C8250001C46F000E0101DC
:1011D000C9210001C56FC4C0F6FFC5C0F7FF000EEE
:1011E000F86E0F0EF76409D0F56A0D00F56A0D0070
:1011F000F56A0D00F56A0C0008D0F6CFE9FFF7CFCD
:10120000EAFFEE6AEE6AEE6AEF6A080E0101C8258F
:101210000001C46F000E0101C9210001C56FC4C0E7
:10122000F6FFC5C0F7FF000EF86E0F0EF7640DD085
:10123000EEC1F5FF0D00EFC1F5FF0D00F0C1F5FFA8
:101240000D00F1C1F5FF0C000CD0F6CFE9FFF7CF90
:10125000EAFFEEC1EEFFEFC1EEFFF0C1EEFFF1C11C
:10126000EFFF080E0101C8250001C46F000E010147
:10127000C9210001C56FC4C0F6FFC5C0F7FF000E4D
:10128000F86E0F0EF7640DD00900F5CFC6F0090017
:10129000F5CFC7F00900F5CFC8F00900F5CFC9F0C8
:1012A0000CD0F6CFE9FFF7CFEAFFEECFC6F0EECFD6
:1012B000C7F0EECFC8F0EECFC9F0010E0001C62591
:1012C000CA6F000EC721CB6F000EC821CC6F000E75
:1012D000C921CD6F0C0E0101C8250001CE6F000E93
:1012E0000101C9210001CF6FCEC0F6FFCFC0F7FFCB
:1012F000000EF86E0F0EF7640DD0CAC0F5FF0D009A
:10130000CBC0F5FF0D00CCC0F5FF0D00CDC0F5FF43
:101310000C000CD0F6CFE9FFF7CFEAFFCAC0EEFF12
:10132000CBC0EEFFCCC0EEFFCDC0EFFF0101F85106
:101330000001C56FC46B21EEF8F0DECFC6F0DDCF43
:10134000C7F0C7C0C6F0C76BC76BC451C613C55141
:10135000C713180E0101C8250001C86F000E010156
:10136000C9210001C96FC8C0F6FFC9C0F7FF000E50
:10137000F86E0F0EF76407D0C6C0F5FF0D00C7C0AA
:10138000F5FF0C0008D0F6CFE9FFF7CFEAFFC6C0A3
:10139000EEFFC7C0EFFF1C0E0101C8250001C46F9E
:1013A000000E0101C9210001C56FC4C0F6FFC5C010
:1013B000F7FF000EF86E0F0EF76407D0D2C1F5FFED
:1013C0000D00D3C1F5FF0C0008D0F6CFE9FFF7CF31
:1013D000EAFFD2C1EEFFD3C1EFFF350E0101C825F0
:1013E0000001C46F000E0101C9210001C56FC4C016
:1013F000F6FFC5C0F7FF000EF86E0F0EF76404D0BD
:10140000120EF56E0C0006D0F6CFE9FFF7CFEAFF1B
:10141000120EEF6E300E0101C8250001C46F000EE0
:101420000101C9210001C56FC4C0F6FFC5C0F7FFA7
:10143000000EF86E0F0EF76406D0020EF56E0D006A
:10144000F56A0C0007D0F6CFE9FFF7CFEAFF020EEE
:10145000EE6EEF6A320E0101C8250001C46F000E66
:101460000101C9210001C56FC4C0F6FFC5C0F7FF67
:10147000000EF86E0F0EF76406D0020EF56E0D002A
:10148000F56A0C0007D0F6CFE9FFF7CFEAFF020EAE
:10149000EE6EEF6A340E0101C8250001C46F000E24
:1014A0000101C9210001C56FC4C0F6FFC5C0F7FF27
:1014B000000EF86E0F0EF76404D0030EF56E0C00EC
:1014C00006D0F6CFE9FFF7CFEAFF030EEF6EC8C1F3
:1014D00067F0C9C168F0ECEC1EF0030E37EF1CF0AA
:1014E0000001D46BC8C102F0C9C103F0F6EC30F0C2
:1014F000AFEF1EF00001D351F3E0030A01E113D670
:10150000AFEF1EF0080E0101C8250001C46F000EE8
:101510000101C9210001C56FC4C0F6FFC5C0F7FFB6
:10152000000EF86E0F0EF7640DD0EEC1F5FF0D0042
:10153000EFC1F5FF0D00F0C1F5FF0D00F1C1F5FFA2
:101540000C000CD0F6CFE9FFF7CFEAFFEEC1EEFFBB
:10155000EFC1EEFFF0C1EEFFF1C1EFFF010E01019F
:10156000EE250001C46F000E0101EF210001C56FDF
:10157000000E0101F0210001C66F000E0101F121F2
:101580000001C76F0C0E0101C8250001C86F000ED5
:101590000101C9210001C96FC8C0F6FFC9C0F7FF2A
:1015A000000EF86E0F0EF7640DD0C4C0F5FF0D00ED
:1015B000C5C0F5FF0D00C6C0F5FF0D00C7C0F5FFA3
:1015C0000C000CD0F6CFE9FFF7CFEAFFC4C0EEFF66
:1015D000C5C0EEFFC6C0EEFFC7C0EFFF0101F85166
:1015E0000001C56FC46B21EEF8F0DECFC6F0DDCF91
:1015F000C7F0C7C0C6F0C76BC76BC451C613C5518F
:10160000C713180E0101C8250001C86F000E0101A3
:10161000C9210001C96FC8C0F6FFC9C0F7FF000E9D
:10162000F86E0F0EF76407D0C6C0F5FF0D00C7C0F7
:10163000F5FF0C0008D0F6CFE9FFF7CFEAFFC6C0F0
:10164000EEFFC7C0EFFF1C0E0101C8250001C46FEB
:10165000000E0101C9210001C56FC4C0F6FFC5C05D
:10166000F7FF000EF86E0F0EF76407D0D2C1F5FF3A
:101670000D00D3C1F5FF0C0008D0F6CFE9FFF7CF7E
:10168000EAFFD2C1EEFFD3C1EFFF300E0101C82542
:101690000001C46F000E0101C9210001C56FC4C063
:1016A000F6FFC5C0F7FF000EF86E0F0EF76406D008
:1016B000020EF56E0D00F56A0C0007D0F6CFE9FFBB
:1016C000F7CFEAFF020EEE6EEF6A320E0101C82577
:1016D0000001C46F000E0101C9210001C56FC4C023
:1016E000F6FFC5C0F7FF000EF86E0F0EF76406D0C8
:1016F000020EF56E0D00F56A0C0007D0F6CFE9FF7B
:10170000F7CFEAFF020EEE6EEF6A340E0101C82534
:101710000001C46F000E0101C9210001C56FC4C0E2
:10172000F6FFC5C0F7FF000EF86E0F0EF76404D089
:10173000030EF56E0C0006D0F6CFE9FFF7CFEAFFF7
:10174000030EEF6E350E0101C8250001C46F000EB7
:101750000101C9210001C56FC4C0F6FFC5C0F7FF74
:10176000000EF86E0F0EF76404D0120EF56E0C002A
:1017700006D0F6CFE9FFF7CFEAFF120EEF6EA7D63D
:10178000300E0101C8250001C46F000E0101C921FE
:101790000001C56FC4C0F6FFC5C0F7FF000EF86EAC
:1017A0000F0EF76405D0F56A0D00F56A0C0006D03F
:1017B000F6CFE9FFF7CFEAFFEE6AEF6A100E0101FC
:1017C000C8250001C46F000E0101C9210001C56FC9
:1017D000C4C0F6FFC5C0F7FF000EF86E0F0EF76429
:1017E0000DD00900F5CFC6F00900F5CFC7F009000C
:1017F000F5CFC8F00900F5CFC9F00CD0F6CFE9FF5E
:10180000F7CFEAFFEECFC6F0EECFC7F0EECFC8F0CD
:10181000EECFC9F0010E0001C625CA6F000EC72128
:10182000CB6F000EC821CC6F000EC921CD6F010116
:10183000F2510001CA190FE10101F3510001CB1966
:101840000AE10101F4510001CC1905E10101F55152
:101850000001CD19D8A46CD1100E0101C8250001DA
:10186000C46F000E0101C9210001C56FC4C0F6FF9D
:10187000C5C0F7FF000EF86E0F0EF7640DD009001B
:10188000F5CFC6F00900F5CFC7F00900F5CFC8F0D5
:101890000900F5CFC9F00CD0F6CFE9FFF7CFEAFF8A
:1018A000EECFC6F0EECFC7F0EECFC8F0EECFC9F066
:1018B000010E0001C625CA6F000EC721CB6F000EB6
:1018C000C821CC6F000EC921CD6F100E0101C825B3
:1018D0000001CE6F000E0101C9210001CF6FCEC003
:1018E000F6FFCFC0F7FF000EF86E0F0EF7640DD0B5
:1018F000CAC0F5FF0D00CBC0F5FF0D00CCC0F5FF51
:101900000D00CDC0F5FF0C000CD0F6CFE9FFF7CFEE
:10191000EAFFCAC0EEFFCBC0EEFFCCC0EEFFCDC0E9
:10192000EFFF350E0101C8250001C46F000E010153
:10193000C9210001C56FC4C0F6FFC5C0F7FF000E86
:10194000F86E0F0EF76404D0100EF56E0C0006D082
:10195000F6CFE9FFF7CFEAFF100EEF6E080E010198
:10196000C8250001C46F000E0101C9210001C56F27
:10197000C4C0F6FFC5C0F7FF000EF86E0F0EF76487
:101980000DD0EEC1F5FF0D00EFC1F5FF0D00F0C168
:10199000F5FF0D00F1C1F5FF0C000CD0F6CFE9FF0B
:1019A000F7CFEAFFEEC1EEFFEFC1EEFFF0C1EEFFB1
:1019B000F1C1EFFF010E0101EE250001C46F000E21
:1019C0000101EF210001C56F000E0101F0210001AE
:1019D000C66F000E0101F1210001C76F0C0E01015D
:1019E000C8250001C86F000E0101C9210001C96F9F
:1019F000C8C0F6FFC9C0F7FF000EF86E0F0EF764FF
:101A00000DD0C4C0F5FF0D00C5C0F5FF0D00C6C068
:101A1000F5FF0D00C7C0F5FF0C000CD0F6CFE9FFB5
:101A2000F7CFEAFFC4C0EEFFC5C0EEFFC6C0EEFFB1
:101A3000C7C0EFFF0101F8510001C56FC46B21EE73
:101A4000F8F0DECFC6F0DDCFC7F0C7C0C6F0C76B79
:101A5000C76BC451C613C551C713180E0101C82561
:101A60000001C86F000E0101C9210001C96FC8C083
:101A7000F6FFC9C0F7FF000EF86E0F0EF76407D02F
:101A8000C6C0F5FF0D00C7C0F5FF0C0008D0F6CFAB
:101A9000E9FFF7CFEAFFC6C0EEFFC7C0EFFF1C0E9D
:101AA0000101C8250001C46F000E0101C921000118
:101AB000C56FC4C0F6FFC5C0F7FF000EF86E0F0E6D
:101AC000F76407D0D2C1F5FF0D00D3C1F5FF0C00BC
:101AD00008D0F6CFE9FFF7CFEAFFD2C1EEFFD3C1BE
:101AE000EFFFC8C167F0C9C168F0ECEC1EF0000957
:101AF00002E1AFEF1EF0040ED46F360E0101C825CF
:101B00000001C46F000E0101C9210001C56FC4C0EE
:101B1000F6FFC5C0F7FF000EF86E0F0EF76404D095
:101B2000030EF56E0C0002D084EF13F0AFEF1EF041
:101B3000100E0101C8250001C46F000E0101C9216A
:101B40000001C56FC4C0F6FFC5C0F7FF000EF86EF8
:101B50000F0EF7640DD0F2C1F5FF0D00F3C1F5FFD4
:101B60000D00F4C1F5FF0D00F5C1F5FF0C000CD020
:101B7000F6CFE9FFF7CFEAFFF2C1EEFFF3C1EEFFC8
:101B8000F4C1EEFFF5C1EFFF350E0101C8250001DC
:101B9000C46F000E0101C9210001C56FC4C0F6FF6A
:101BA000C5C0F7FF000EF86E0F0EF76404D0140ED8
:101BB000F56E0C0006D0F6CFE9FFF7CFEAFF140E62
:101BC000EF6EC8C167F0C9C168F0ECEC1EF0000907
:101BD00001E086D4AFEF1EF0300E0101C8250001F0
:101BE000C46F000E0101C9210001C56FC4C0F6FF1A
:101BF000C5C0F7FF000EF86E0F0EF76405D0F56A4A
:101C00000D00F56A0C0006D0F6CFE9FFF7CFEAFF2A
:101C1000EE6AEF6A100E0101C8250001C46F000EC4
:101C20000101C9210001C56FC4C0F6FFC5C0F7FF9F
:101C3000000EF86E0F0EF7640DD00900F5CFC6F058
:101C40000900F5CFC7F00900F5CFC8F00900F5CFBE
:101C5000C9F00CD0F6CFE9FFF7CFEAFFEECFC6F020
:101C6000EECFC7F0EECFC8F0EECFC9F0010E000105
:101C7000C625CA6F000EC721CB6F000EC821CC6FDE
:101C8000000EC921CD6F0101F2510001CA190FE107
:101C90000101F3510001CB190AE10101F4510001E6
:101CA000CC1905E10101F5510001CD19D8A462D18B
:101CB000100E0101C8250001C46F000E0101C921E9
:101CC0000001C56FC4C0F6FFC5C0F7FF000EF86E77
:101CD0000F0EF7640DD00900F5CFC6F00900F5CF5F
:101CE000C7F00900F5CFC8F00900F5CFC9F00CD056
:101CF000F6CFE9FFF7CFEAFFEECFC6F0EECFC7F0A1
:101D0000EECFC8F0EECFC9F0010E0001C625CA6FB4
:101D1000000EC721CB6F000EC821CC6F000EC92169
:101D2000CD6F100E0101C8250001CE6F000E01011C
:101D3000C9210001CF6FCEC0F6FFCFC0F7FF000E64
:101D4000F86E0F0EF7640DD0CAC0F5FF0D00CBC0C2
:101D5000F5FF0D00CCC0F5FF0D00CDC0F5FF0C0068
:101D60000CD0F6CFE9FFF7CFEAFFCAC0EEFFCBC039
:101D7000EEFFCCC0EEFFCDC0EFFF350E0101C82550
:101D80000001C46F000E0101C9210001C56FC4C06C
:101D9000F6FFC5C0F7FF000EF86E0F0EF76404D013
:101DA000100EF56E0C0006D0F6CFE9FFF7CFEAFF74
:101DB000100EEF6E080E0101C8250001C46F000E61
:101DC0000101C9210001C56FC4C0F6FFC5C0F7FFFE
:101DD000000EF86E0F0EF7640DD0EEC1F5FF0D008A
:101DE000EFC1F5FF0D00F0C1F5FF0D00F1C1F5FFEA
:101DF0000C000CD0F6CFE9FFF7CFEAFFEEC1EEFF03
:101E0000EFC1EEFFF0C1EEFFF1C1EFFF010E0101E6
:101E1000EE250001C46F000E0101EF210001C56F26
:101E2000000E0101F0210001C66F000E0101F12139
:101E30000001C76F0C0E0101C8250001C86F000E1C
:101E40000101C9210001C96FC8C0F6FFC9C0F7FF71
:101E5000000EF86E0F0EF7640DD0C4C0F5FF0D0034
:101E6000C5C0F5FF0D00C6C0F5FF0D00C7C0F5FFEA
:101E70000C000CD0F6CFE9FFF7CFEAFFC4C0EEFFAD
:101E8000C5C0EEFFC6C0EEFFC7C0EFFF0101F851AD
:101E90000001C56FC46B21EEF8F0DECFC6F0DDCFD8
:101EA000C7F0C7C0C6F0C76BC76BC451C613C551D6
:101EB000C713180E0101C8250001C86F000E0101EB
:101EC000C9210001C96FC8C0F6FFC9C0F7FF000EE5
:101ED000F86E0F0EF76407D0C6C0F5FF0D00C7C03F
:101EE000F5FF0C0008D0F6CFE9FFF7CFEAFFC6C038
:101EF000EEFFC7C0EFFF1C0E0101C8250001C46F33
:101F0000000E0101C9210001C56FC4C0F6FFC5C0A4
:101F1000F7FF000EF86E0F0EF76407D0D2C1F5FF81
:101F20000D00D3C1F5FF0C0008D0F6CFE9FFF7CFC5
:101F3000EAFFD2C1EEFFD3C1EFFF040E0001D46F60
:101F4000360E0101C8250001C46F000E0101C92130
:101F50000001C56FC4C0F6FFC5C0F7FF000EF86EE4
:101F60000F0EF76404D0030EF56E0C0001D0CCD335
:101F7000AFEF1EF0100E0101C8250001C46F000E66
:101F80000101C9210001C56FC4C0F6FFC5C0F7FF3C
:101F9000000EF86E0F0EF7640DD0F2C1F5FF0D00C4
:101FA000F3C1F5FF0D00F4C1F5FF0D00F5C1F5FF1C
:101FB0000C000CD0F6CFE9FFF7CFEAFFF2C1EEFF3D
:101FC000F3C1EEFFF4C1EEFFF5C1EFFF350E0101E5
:101FD000C8250001C46F000E0101C9210001C56FB1
:101FE000C4C0F6FFC5C0F7FF000EF86E0F0EF76411
:101FF00004D0040EF56E0C0006D0F6CFE9FFF7CF43
:10200000EAFF040EEF6EC8C167F0C9C168F0ECECDE
:102010001EF0DDD5340E0101C8250001C46F000E8D
:102020000101C9210001C56FC4C0F6FFC5C0F7FF9B
:10203000000EF86E0F0EF76403D00800F55005D0BF
:10204000F6CFE9FFF7CFEAFFEF50000966E0C8C11D
:1020500067F0C9C168F0ECEC1EF0000902E1AFEFD7
:102060001EF0350E0101C8250001C46F000E0101EC
:10207000C9210001C56FC4C0F6FFC5C0F7FF000E3F
:10208000F86E0F0EF76403D00800F55005D0F6CFB8
:10209000E9FFF7CFEAFFEF500001C66FC6B570EF5A
:1020A0000AF0350E0101C8250001C46F000E0101C0
:1020B000C9210001C56FC4C0F6FFC5C0F7FF000EFF
:1020C000F86E0F0EF76403D00800F55005D0F6CF78
:1020D000E9FFF7CFEAFFEF500001C66FC6A9AFEFE7
:1020E0001EF0040ED46F360E0101C8250001C46F26
:1020F000000E0101C9210001C56FC4C0F6FFC5C0B3
:10210000F7FF000EF86E0F0EF76404D0030EF56EA5
:102110000C0001D0F9D2AFEF1EF0350E0101C82539
:102120000001C46F000E0101C9210001C56FC4C0C8
:10213000F6FFC5C0F7FF000EF86E0F0EF76404D06F
:10214000040EF56E0C0006D0F6CFE9FFF7CFEAFFDC
:10215000040EEF6EC8C167F0C9C168F0ECEC1EF068
:1021600036D50001D35102E170EF0AF0030A02E113
:1021700082EF0AF0070A01E12FD5010A02E1C0EF60
:102180000BF00C0A02E170EF0AF0030A02E170EFB3
:102190000AF0060A01E13ED7AFEF1EF0C8C1F6FF14
:1021A000C9C1F7FF000EF86E0F0EF76407D00900E3
:1021B000F5CFC4F00900F5CFC5F008D0F6CFE9FFA0
:1021C000F7CFEAFFEECFC4F0EECFC5F00101EC513E
:1021D0000001C41905E10101ED510001C519D8A4A0
:1021E000AFEF1EF0300E0101C8250001C46F000ED4
:1021F0000101C9210001C56FC4C0F6FFC5C0F7FFCA
:10220000000EF86E0F0EF76405D0F56A0D00F56A42
:102210000C0006D0F6CFE9FFF7CFEAFFEE6AEF6ACF
:10222000020E0101C8250001C46F000E0101C92181
:102230000001C56FC4C0F6FFC5C0F7FF000EF86E01
:102240000F0EF7640DD00900F5CFC6F00900F5CFE9
:10225000C7F00900F5CFC8F00900F5CFC9F00CD0E0
:10226000F6CFE9FFF7CFEAFFEECFC6F0EECFC7F02B
:10227000EECFC8F0EECFC9F00101BF510001C61981
:102280000FE10101C0510001C7190AE10101C1516B
:102290000001C81905E10101C2510001C919D8A402
:1022A0007BD0060E0101C8250001C46F000E01019C
:1022B000C9210001C56FC4C0F6FFC5C0F7FF000EFD
:1022C000F86E0F0EF76407D00900F5CFC6F00900CD
:1022D000F5CFC7F008D0F6CFE9FFF7CFEAFFEECF92
:1022E000C6F0EECFC7F00101EA510001C61954E172
:1022F0000101EB510001C7194FE1100E0101C82582
:102300000001C46F000E0101C9210001C56FC4C0E6
:10231000F6FFC5C0F7FF000EF86E0F0EF7640DD084
:102320000900F5CFC6F00900F5CFC7F00900F5CFD9
:10233000C8F00900F5CFC9F00CD0F6CFE9FFF7CF10
:10234000EAFFEECFC6F0EECFC7F0EECFC8F0EECF8B
:10235000C9F0010E0001C625CA6F000EC721CB6F60
:10236000000EC821CC6F000EC921CD6F0101F251C2
:102370000001CA1911E10101F3510001CB190CE16F
:102380000101F4510001CC1907E10101F5510001EF
:10239000CD1902E1040ED46F360E0101C8250001EB
:1023A000C46F000E0101C9210001C56FC4C0F6FF52
:1023B000C5C0F7FF000EF86E0F0EF76404D0030ED1
:1023C000F56E0C0001D0A0D1AFEF1EF0020E01019E
:1023D000C8250001C46F000E0101C9210001C56FAD
:1023E000C4C0F6FFC5C0F7FF000EF86E0F0EF7640D
:1023F0000DD00900F5CFC6F00900F5CFC7F00900F0
:10240000F5CFC8F00900F5CFC9F00CD0F6CFE9FF41
:10241000F7CFEAFFEECFC6F0EECFC7F0EECFC8F0B1
:10242000EECFC9F00101BF510001C6190FE1010152
:10243000C0510001C7190AE10101C1510001C819C9
:1024400005E10101C2510001C919D8A4AFEF1EF086
:10245000060E0101C8250001C46F000E0101C9214B
:102460000001C56FC4C0F6FFC5C0F7FF000EF86ECF
:102470000F0EF76407D00900F5CFC6F00900F5CFBD
:10248000C7F008D0F6CFE9FFF7CFEAFFEECFC6F0EE
:10249000EECFC7F00101EA510001C61905E10101C3
:1024A000EB510001C719D8A4AFEF1EF00C0E0101CB
:1024B000C8250001C46F000E0101C9210001C56FCC
:1024C000C4C0F6FFC5C0F7FF000EF86E0F0EF7642C
:1024D0000DD00900F5CFC6F00900F5CFC7F009000F
:1024E000F5CFC8F00900F5CFC9F00CD0F6CFE9FF61
:1024F000F7CFEAFFEECFC6F0EECFC7F0EECFC8F0D1
:10250000EECFC9F00101EE510001C6190FE1010142
:10251000EF510001C7190AE10101F0510001C8198A
:1025200005E10101F1510001C919D8A4AFEF1EF076
:10253000100E0101C8250001C46F000E0101C92160
:102540000001C56FC4C0F6FFC5C0F7FF000EF86EEE
:102550000F0EF7640DD00900F5CFC6F00900F5CFD6
:10256000C7F00900F5CFC8F00900F5CFC9F00CD0CD
:10257000F6CFE9FFF7CFEAFFEECFC6F0EECFC7F018
:10258000EECFC8F0EECFC9F0010E0001C625CA6F2C
:10259000000EC721CB6F000EC821CC6F000EC921E1
:1025A000CD6F0101F2510001CA190FE10101F35190
:1025B0000001CB190AE10101F4510001CC1905E138
:1025C0000101F5510001CD19D8A4AFEF1EF0100E96
:1025D0000101C8250001C46F000E0101C9210001DD
:1025E000C56FC4C0F6FFC5C0F7FF000EF86E0F0E32
:1025F000F7640DD00900F5CFC6F00900F5CFC7F09C
:102600000900F5CFC8F00900F5CFC9F00CD0F6CF1E
:10261000E9FFF7CFEAFFEECFC6F0EECFC7F0EECF7F
:10262000C8F0EECFC9F0010E0001C625CA6F000E3A
:10263000C721CB6F000EC821CC6F000EC921CD6F12
:10264000100E0101C8250001CE6F000E0101C92145
:102650000001CF6FCEC0F6FFCFC0F7FF000EF86EBF
:102660000F0EF7640DD0CAC0F5FF0D00CBC0F5FF0B
:102670000D00CCC0F5FF0D00CDC0F5FF0C000CD057
:10268000F6CFE9FFF7CFEAFFCAC0EEFFCBC0EEFFFF
:10269000CCC0EEFFCDC0EFFF300E0101C825000118
:1026A000C46F000E0101C9210001C56FC4C0F6FF4F
:1026B000C5C0F7FF000EF86E0F0EF76405D0F56A7F
:1026C0000D00F56A0C0006D0F6CFE9FFF7CFEAFF60
:1026D000EE6AEF6A040E0001D46F360E0101C825C0
:1026E0000001C46F000E0101C9210001C56FC4C003
:1026F000F6FFC5C0F7FF000EF86E0F0EF76404D0AA
:10270000030EF56E0C0006D0F6CFE9FFF7CFEAFF17
:10271000030EEF6EAFEF1EF0300E0101C825000171
:10272000C46F000E0101C9210001C56FC4C0F6FFCE
:10273000C5C0F7FF000EF86E0F0EF76405D0F56AFE
:102740000D00F56A0C0006D0F6CFE9FFF7CFEAFFDF
:10275000EE6AEF6A350E0101C8250001C46F000E54
:102760000101C9210001C56FC4C0F6FFC5C0F7FF54
:10277000000EF86E0F0EF76404D0010EF56E0C001B
:1027800006D0F6CFE9FFF7CFEAFF010EEF6E300E6D
:102790000101C8250001C46F000E0101C92100011B
:1027A000C56FC4C0F6FFC5C0F7FF000EF86E0F0E70
:1027B000F76406D0020EF56E0D00F56A0C0007D026
:1027C000F6CFE9FFF7CFEAFF020EEE6EEF6A320EA8
:1027D0000101C8250001C46F000E0101C9210001DB
:1027E000C56FC4C0F6FFC5C0F7FF000EF86E0F0E30
:1027F000F76406D0020EF56E0D00F56A0C0007D0E6
:10280000F6CFE9FFF7CFEAFF020EEE6EEF6A340E65
:102810000101C8250001C46F000E0101C92100019A
:10282000C56FC4C0F6FFC5C0F7FF000EF86E0F0EEF
:10283000F76404D0050EF56E0C0006D0F6CFE9FF64
:10284000F7CFEAFF050EEF6E050E0001D46FC8C189
:1028500067F0C9C168F0ECEC1EF0AFEF1EF0C8C124
:10286000F6FFC9C1F7FF000EF86E0F0EF76407D030
:102870000900F5CFC4F00900F5CFC5F008D0F6CFB8
:10288000E9FFF7CFEAFFEECFC4F0EECFC5F00101CC
:10289000EC510001C41905E10101ED510001C51918
:1028A000D8A4AFEF1EF00C0E0101C8250001C46FC3
:1028B000000E0101C9210001C56FC4C0F6FFC5C0EB
:1028C000F7FF000EF86E0F0EF7640DD00900F5CF7C
:1028D000C6F00900F5CFC7F00900F5CFC8F0090030
:1028E000F5CFC9F00CD0F6CFE9FFF7CFEAFFEECF76
:1028F000C6F0EECFC7F0EECFC8F0EECFC9F00101C1
:10290000EE510001C6190FE10101EF510001C71995
:102910000AE10101F0510001C81905E10101F1517D
:102920000001C919D8A4AFEF1EF0020E0101C8259D
:102930000001C46F000E0101C9210001C56FC4C0B0
:10294000F6FFC5C0F7FF000EF86E0F0EF76409D052
:10295000F56A0D00F56A0D00F56A0D00F56A0C00C8
:1029600008D0F6CFE9FFF7CFEAFFEE6AEE6AEE6A2B
:10297000EF6A060E0101C8250001C46F000E0101B7
:10298000C9210001C56FC4C0F6FFC5C0F7FF000E26
:10299000F86E0F0EF76405D0F56A0D00F56A0C00AD
:1029A00006D0F6CFE9FFF7CFEAFFEE6AEF6A100E26
:1029B0000101C8250001C46F000E0101C9210001F9
:1029C000C56FC4C0F6FFC5C0F7FF000EF86E0F0E4E
:1029D000F76409D0F56A0D00F56A0D00F56A0D007F
:1029E000F56A0C0008D0F6CFE9FFF7CFEAFFEE6AF0
:1029F000EE6AEE6AEF6A140E0101C8250001C46F89
:102A0000000E0101C9210001C56FC4C0F6FFC5C099
:102A1000F7FF000EF86E0F0EF76409D0F56A0D008F
:102A2000F56A0D00F56A0D00F56A0C0008D0F6CFC6
:102A3000E9FFF7CFEAFFEE6AEE6AEE6AEF6A080E88
:102A40000101C8250001C46F000E0101C921000168
:102A5000C56FC4C0F6FFC5C0F7FF000EF86E0F0EBD
:102A6000F76409D0F56A0D00F56A0D00F56A0D00EE
:102A7000F56A0C0008D0F6CFE9FFF7CFEAFFEE6A5F
:102A8000EE6AEE6AEF6A0C0E0101C8250001C46F00
:102A9000000E0101C9210001C56FC4C0F6FFC5C009
:102AA000F7FF000EF86E0F0EF76409D0F56A0D00FF
:102AB000F56A0D00F56A0D00F56A0C0008D0F6CF36
:102AC000E9FFF7CFEAFFEE6AEE6AEE6AEF6A180EE8
:102AD0000101C8250001C46F000E0101C9210001D8
:102AE000C56FC4C0F6FFC5C0F7FF000EF86E0F0E2D
:102AF000F76405D0F56A0D00F56A0C0006D0F6CF34
:102B0000E9FFF7CFEAFFEE6AEF6A1C0E0101C82564
:102B10000001C46F000E0101C9210001C56FC4C0CE
:102B2000F6FFC5C0F7FF000EF86E0F0EF76405D074
:102B3000F56A0D00F56A0C0006D0F6CFE9FFF7CF75
:102B4000EAFFEE6AEF6A010E000137EF1CF0340E67
:102B50000101C8250001C46F000E0101C921000157
:102B6000C56FC4C0F6FFC5C0F7FF000EF86E0F0EAC
:102B7000F76403D00800F55005D0F6CFE9FFF7CF92
:102B8000EAFFEF50000901E062D6350E0101C825C9
:102B90000001C46F000E0101C9210001C56FC4C04E
:102BA000F6FFC5C0F7FF000EF86E0F0EF76404D0F5
:102BB000040EF56E0C0006D0F6CFE9FFF7CFEAFF62
:102BC000040EEF6EC8C167F0C9C168F0ECEC1EF0EE
:102BD000000902E1AFEF1EF0020E0101C82500015D
:102BE000C46F000E0101C9210001C56FC4C0F6FF0A
:102BF000C5C0F7FF000EF86E0F0EF76409D0F56A36
:102C00000D00F56A0D00F56A0D00F56A0C0008D09C
:102C1000F6CFE9FFF7CFEAFFEE6AEE6AEE6AEF6AF7
:102C2000060E0101C8250001C46F000E0101C92173
:102C30000001C56FC4C0F6FFC5C0F7FF000EF86EF7
:102C40000F0EF76405D0F56A0D00F56A0C0006D08A
:102C5000F6CFE9FFF7CFEAFFEE6AEF6A100E010147
:102C6000C8250001C46F000E0101C9210001C56F14
:102C7000C4C0F6FFC5C0F7FF000EF86E0F0EF76474
:102C800009D0F56A0D00F56A0D00F56A0D00F56AC8
:102C90000C0008D0F6CFE9FFF7CFEAFFEE6AEE6A44
:102CA000EE6AEF6A140E0101C8250001C46F000E20
:102CB0000101C9210001C56FC4C0F6FFC5C0F7FFFF
:102CC000000EF86E0F0EF76409D0F56A0D00F56A74
:102CD0000D00F56A0D00F56A0C0008D0F6CFE9FF8B
:102CE000F7CFEAFFEE6AEE6AEE6AEF6A080E0101BC
:102CF000C8250001C46F000E0101C9210001C56F84
:102D0000C4C0F6FFC5C0F7FF000EF86E0F0EF764E3
:102D100009D0F56A0D00F56A0D00F56A0D00F56A37
:102D20000C0008D0F6CFE9FFF7CFEAFFEE6AEE6AB3
:102D3000EE6AEF6A0C0E0101C8250001C46F000E97
:102D40000101C9210001C56FC4C0F6FFC5C0F7FF6E
:102D5000000EF86E0F0EF76409D0F56A0D00F56AE3
:102D60000D00F56A0D00F56A0C0008D0F6CFE9FFFA
:102D7000F7CFEAFFEE6AEE6AEE6AEF6A180E01011B
:102D8000C8250001C46F000E0101C9210001C56FF3
:102D9000C4C0F6FFC5C0F7FF000EF86E0F0EF76453
:102DA00005D0F56A0D00F56A0C0006D0F6CFE9FFF4
:102DB000F7CFEAFFEE6AEF6A1C0E0101C825000199
:102DC000C46F000E0101C9210001C56FC4C0F6FF28
:102DD000C5C0F7FF000EF86E0F0EF76405D0F56A58
:102DE0000D00F56A0C0006D0F6CFE9FFF7CFEAFF39
:102DF000EE6AEF6AA8D60001D35101E18DD4040A2E
:102E000002E1E6EF11F0010A02E1CEEF10F00C0A48
:102E100001E125D5030A01E122D5060A01E197D691
:102E2000AFEF1EF0020E0101C8250001C46F000EB5
:102E30000101C9210001C56FC4C0F6FFC5C0F7FF7D
:102E4000000EF86E0F0EF7640DD00900F5CFC6F036
:102E50000900F5CFC7F00900F5CFC8F00900F5CF9C
:102E6000C9F00CD0F6CFE9FFF7CFEAFFEECFC6F0FE
:102E7000EECFC7F0EECFC8F0EECFC9F00101BF51E1
:102E80000001C6190FE10101C0510001C7190AE193
:102E90000101C1510001C81905E10101C251000140
:102EA000C919D8A4AFEF1EF00C0E0101C82500010E
:102EB000C46F000E0101C9210001C56FC4C0F6FF37
:102EC000C5C0F7FF000EF86E0F0EF7640DD00900B5
:102ED000F5CFC6F00900F5CFC7F00900F5CFC8F06F
:102EE0000900F5CFC9F00CD0F6CFE9FFF7CFEAFF24
:102EF000EECFC6F0EECFC7F0EECFC8F0EECFC9F000
:102F00000101EE510001C6190FE10101EF5100016D
:102F1000C7190AE10101F0510001C81905E10101D9
:102F2000F1510001C919D8A4AFEF1EF0140E010130
:102F3000C8250001C46F000E0101C9210001C56F41
:102F4000C4C0F6FFC5C0F7FF000EF86E0F0EF764A1
:102F50000DD00900F5CFC6F00900F5CFC7F0090084
:102F6000F5CFC8F00900F5CFC9F00CD0F6CFE9FFD6
:102F7000F7CFEAFFEECFC6F0EECFC7F0EECFC8F046
:102F8000EECFC9F00101F2510001C65D0101F3511C
:102F90000001C7590101F4510001C8590101F5515F
:102FA0000001C95902E3AFEF1EF0100E0101C82560
:102FB0000001C46F000E0101C9210001C56FC4C02A
:102FC000F6FFC5C0F7FF000EF86E0F0EF7640DD0C8
:102FD0000900F5CFC6F00900F5CFC7F00900F5CF1D
:102FE000C8F00900F5CFC9F00CD0F6CFE9FFF7CF54
:102FF000EAFFEECFC6F0EECFC7F0EECFC8F0EECFCF
:10300000C9F0010E0001C625CA6F000EC721CB6FA3
:10301000000EC821CC6F000EC921CD6F0101F25105
:103020000001CA5D0101F3510001CB590101F451C6
:103030000001CC590101F5510001CD5901E2BCD18B
:10304000100E0101C8250001C46F000E0101C92145
:103050000001C56FC4C0F6FFC5C0F7FF000EF86ED3
:103060000F0EF76407D00900F5CFC6F00900F5CFC1
:10307000C7F008D0F6CFE9FFF7CFEAFFEECFC6F0F2
:10308000EECFC7F00101F2510001C65DD16F010121
:10309000F3510001C759D26F250E0101C825000167
:1030A000C46F000E0101C9210001C56FC4C0F6FF45
:1030B000C5C0F7FF000EF86E0F0EF76407D00900C9
:1030C000F5CFC6F00900F5CFC7F008D0F6CFE9FF7D
:1030D000F7CFEAFFEECFC6F0EECFC7F00001D15137
:1030E000C65FD251C75B250E0101C8250001C86F1C
:1030F000000E0101C9210001C96FC8C0F6FFC9C097
:10310000F7FF000EF86E0F0EF76407D0C6C0F5FF8C
:103110000D00C7C0F5FF0C0008D0F6CFE9FFF7CFD0
:10312000EAFFC6C0EEFFC7C0EFFF270E0101C825AA
:103130000001C46F000E0101C9210001C56FC4C0A8
:10314000F6FFC5C0F7FF000EF86E0F0EF76407D04C
:103150000900F5CFC6F00900F5CFC7F008D0F6CFCB
:10316000E9FFF7CFEAFFEECFC6F0EECFC7F00001E0
:10317000D151C627D251C723270E0101C82500010E
:10318000C86F000E0101C9210001C96FC8C0F6FF58
:10319000C9C0F7FF000EF86E0F0EF76407D0C6C067
:1031A000F5FF0D00C7C0F5FF0C0008D0F6CFE9FF12
:1031B000F7CFEAFFC6C0EEFFC7C0EFFF270E010141
:1031C000C8250001C46F000E0101C9210001C56FAF
:1031D000C4C0F6FFC5C0F7FF000EF86E0F0EF7640F
:1031E00007D00900F5CFC6F00900F5CFC7F008D029
:1031F000F6CFE9FFF7CFEAFFEECFC6F0EECFC7F08C
:103200000001C651C71138E1290E0101C82500018E
:10321000C46F000E0101C9210001C56FC4C0F6FFD3
:10322000C5C0F7FF000EF86E0F0EF76403D008005C
:10323000F55005D0F6CFE9FFF7CFEAFFEF50020ACD
:103240001BE1290E0101C8250001C46F000E010118
:10325000C9210001C56FC4C0F6FFC5C0F7FF000E4D
:10326000F86E0F0EF76403D0F56A0C0005D0F6CFA8
:10327000E9FFF7CFEAFFEF6A21EEF2F0FF0EDE245E
:103280000001C46FFF0EDE20C56FFF0EDE20C66F8B
:10329000FF0EDE20C76F140E0101C8250001C86FA4
:1032A000000E0101C9210001C96FC8C0F6FFC9C0E5
:1032B000F7FF000EF86E0F0EF7640DD0C4C0F5FFD7
:1032C0000D00C5C0F5FF0D00C6C0F5FF0D00C7C05D
:1032D000F5FF0C000CD0F6CFE9FFF7CFEAFFC4C032
:1032E000EEFFC5C0EEFFC6C0EEFFC7C0EFFF100E79
:1032F0000101C8250001C46F000E0101C9210001B0
:10330000C56FC4C0F6FFC5C0F7FF000EF86E0F0E04
:10331000F7640DD0F2C1F5FF0D00F3C1F5FF0D000C
:10332000F4C1F5FF0D00F5C1F5FF0C000CD0F6CF90
:10333000E9FFF7CFEAFFF2C1EEFFF3C1EEFFF4C100
:10334000EEFFF5C1EFFF0101CE51CF1102E1AFEF6A
:103350001EF0080EC8250001C46F000E0101C9212E
:103360000001C56FC4C0F6FFC5C0F7FF000EF86EC0
:103370000F0EF7640DD0EEC1F5FF0D00EFC1F5FFA4
:103380000D00F0C1F5FF0D00F1C1F5FF0C000CD0F0
:10339000F6CFE9FFF7CFEAFFEEC1EEFFEFC1EEFF98
:1033A000F0C1EEFFF1C1EFFFCEC1B6F0CFC1B7F073
:1033B000A8EC2DF0AFEF1EF0350E0101C82500017D
:1033C000C46F000E0101C9210001C56FC4C0F6FF22
:1033D000C5C0F7FF000EF86E0F0EF76404D0140E90
:1033E000F56E0C0006D0F6CFE9FFF7CFEAFF140E1A
:1033F000EF6EC8C167F0C9C168F0ECEC1EF0E7EFF2
:103400000DF0350E0101C8250001C46F000E010149
:10341000C9210001C56FC4C0F6FFC5C0F7FF000E8B
:10342000F86E0F0EF76404D0010EF56E0C0006D096
:10343000F6CFE9FFF7CFEAFF010EEF6E24EF14F0AD
:10344000100E0101C8250001C46F000E0101C92141
:103450000001C56FC4C0F6FFC5C0F7FF000EF86ECF
:103460000F0EF7640DD0F2C1F5FF0D00F3C1F5FFAB
:103470000D00F4C1F5FF0D00F5C1F5FF0C000CD0F7
:10348000F6CFE9FFF7CFEAFFF2C1EEFFF3C1EEFF9F
:10349000F4C1EEFFF5C1EFFF0C0E0101C8250001DC
:1034A000C46F000E0101C9210001C56FC4C0F6FF41
:1034B000C5C0F7FF000EF86E0F0EF7640DD00900BF
:1034C000F5CFC6F00900F5CFC7F00900F5CFC8F079
:1034D0000900F5CFC9F00CD0F6CFE9FFF7CFEAFF2E
:1034E000EECFC6F0EECFC7F0EECFC8F0EECFC9F00A
:1034F000010E0001C625CA6F000EC721CB6F000E5A
:10350000C821CC6F000EC921CD6F0C0E0101C8255A
:103510000001CE6F000E0101C9210001CF6FCEC0A6
:10352000F6FFCFC0F7FF000EF86E0F0EF7640DD058
:10353000CAC0F5FF0D00CBC0F5FF0D00CCC0F5FFF4
:103540000D00CDC0F5FF0C000CD0F6CFE9FFF7CF92
:10355000EAFFCAC0EEFFCBC0EEFFCCC0EEFFCDC08D
:10356000EFFF360E0101C8250001C46F000E0101F6
:10357000C9210001C56FC4C0F6FFC5C0F7FF000E2A
:10358000F86E0F0EF76404D0040EF56E0C0006D032
:10359000F6CFE9FFF7CFEAFF040EEF6E300E010120
:1035A000C8250001C46F000E0101C9210001C56FCB
:1035B000C4C0F6FFC5C0F7FF000EF86E0F0EF7642B
:1035C00006D0020EF56E0D00F56A0C0007D0F6CF9E
:1035D000E9FFF7CFEAFF020EEE6EEF6A320E01014D
:1035E000C8250001C46F000E0101C9210001C56F8B
:1035F000C4C0F6FFC5C0F7FF000EF86E0F0EF764EB
:1036000006D0020EF56E0D00F56A0C0007D0F6CF5D
:10361000E9FFF7CFEAFF020EEE6EEF6A340E01010A
:10362000C8250001C46F000E0101C9210001C56F4A
:10363000C4C0F6FFC5C0F7FF000EF86E0F0EF764AA
:1036400004D0050EF56E0C0006D0F6CFE9FFF7CFDB
:10365000EAFF050EEF6E350E0101C8250001C46FAB
:10366000000E0101C9210001C56FC4C0F6FFC5C02D
:10367000F7FF000EF86E0F0EF76404D0110EF56E12
:103680000C0006D0F6CFE9FFF7CFEAFF110EEF6E80
:10369000090E25EF14F0340E0101C8250001C46F96
:1036A000000E0101C9210001C56FC4C0F6FFC5C0ED
:1036B000F7FF000EF86E0F0EF76403D00800F55008
:1036C00005D0F6CFE9FFF7CFEAFFEF50000902E09F
:1036D00027EF14F0350E0101C8250001C46F000E5C
:1036E0000101C9210001C56FC4C0F6FFC5C0F7FFC5
:1036F000000EF86E0F0EF76404D0040EF56E0C0089
:1037000006D0F6CFE9FFF7CFEAFF040EEF6EC8C18F
:1037100067F0C9C168F0ECEC1EF0E7EF0DF00001B6
:10372000D35101E16ED6040A02E112EF17F0020A4A
:1037300001E186D6010A01E183D60E0A02E170EFAB
:103740000AF0030A02E170EF0AF0060AA4E007D3C8
:10375000350E0101C8250001C46F000E0101C92109
:103760000001C56FC4C0F6FFC5C0F7FF000EF86EBC
:103770000F0EF76404D0100EF56E0C0006D0F6CFD5
:10378000E9FFF7CFEAFF100EEF6EC8C167F0C9C1BD
:1037900068F0ECEC1EF0000901E1E1D2080E67D000
:1037A000300E0101C8250001C46F000E0101C921BE
:1037B0000001C56FC4C0F6FFC5C0F7FF000EF86E6C
:1037C0000F0EF76406D0020EF56E0D00F56A0C00C0
:1037D00007D0F6CFE9FFF7CFEAFF020EEE6EEF6AF1
:1037E000340E0101C8250001C46F000E0101C9217A
:1037F0000001C56FC4C0F6FFC5C0F7FF000EF86E2C
:103800000F0EF76404D0010EF56E0C0006D0F6CF53
:10381000E9FFF7CFEAFF010EEF6E060EA4EF15F0F9
:10382000350E0101C8250001C46F000E0101C92138
:103830000001C56FC4C0F6FFC5C0F7FF000EF86EEB
:103840000F0EF76404D0100EF56E0C0006D0F6CF04
:10385000E9FFF7CFEAFF100EEF6EC8C167F0C9C1EC
:1038600068F0ECEC1EF0000901E179D20A0ED46F89
:1038700076D2340E0101C8250001C46F000E01018B
:10388000C9210001C56FC4C0F6FFC5C0F7FF000E17
:10389000F86E0F0EF76403D00800F55005D0F6CF90
:1038A000E9FFF7CFEAFFEF50000902E027EF14F03D
:1038B000350E0101C8250001C46F000E0101C921A8
:1038C0000001C56FC4C0F6FFC5C0F7FF000EF86E5B
:1038D0000F0EF76404D0040EF56E0C0006D0F6CF80
:1038E000E9FFF7CFEAFF040EEF6EC8C167F0C9C168
:1038F00068F0ECEC1EF0E7EF0DF00001D351040A84
:1039000001E14ED7020A01E123D7010A89E00B0A3F
:10391000B0E025D2C8C167F0C9C168F0ECEC1EF078
:10392000A2D7340E0101C8250001C46F000E0101A9
:10393000C9210001C56FC4C0F6FFC5C0F7FF000E66
:10394000F86E0F0EF76403D00800F55005D0F6CFDF
:10395000E9FFF7CFEAFFEF50000902E027EF14F08C
:10396000350E0101C8250001C46F000E0101C921F7
:103970000001C56FC4C0F6FFC5C0F7FF000EF86EAA
:103980000F0EF76404D0040EF56E0C0006D0F6CFCF
:10399000E9FFF7CFEAFF040EEF6EC8C167F0C9C1B7
:1039A00068F0ECEC1EF0E7EF0DF00001D351060AD1
:1039B000B1E00A0AB6E0D3D10001D351040A01E113
:1039C00055D7CDD1020E0101C8250001C46F000EEC
:1039D0000101C9210001C56FC4C0F6FFC5C0F7FFD2
:1039E000000EF86E0F0EF7640DD00900F5CFC6F08B
:1039F0000900F5CFC7F00900F5CFC8F00900F5CFF1
:103A0000C9F00CD0F6CFE9FFF7CFEAFFEECFC6F052
:103A1000EECFC7F0EECFC8F0EECFC9F00101BF5135
:103A20000001C6190FE10101C0510001C7190AE1E7
:103A30000101C1510001C81905E10101C251000194
:103A4000C919D8A48CD1060E0101C8250001C46F84
:103A5000000E0101C9210001C56FC4C0F6FFC5C039
:103A6000F7FF000EF86E0F0EF76407D00900F5CFD0
:103A7000C6F00900F5CFC7F008D0F6CFE9FFF7CFC1
:103A8000EAFFEECFC6F0EECFC7F00101EA51000128
:103A9000C61905E10101EB510001C7195DD15FD1E4
:103AA000340E0101C8250001C46F000E0101C921B7
:103AB0000001C56FC4C0F6FFC5C0F7FF000EF86E69
:103AC0000F0EF76403D00800F55005D0F6CFE9FFDC
:103AD000F7CFEAFFEF50000902E027EF14F0350EB0
:103AE0000101C8250001C46F000E0101C9210001B8
:103AF000C56FC4C0F6FFC5C0F7FF000EF86E0F0E0D
:103B0000F76404D0040EF56E0C0006D0F6CFE9FF82
:103B1000F7CFEAFF040EEF6EC8C167F0C9C168F0C5
:103B2000ECEC1EF0E7EF0DF00001D351040A01E1C7
:103B300049D7030A01E146D70B0AB2E010D1300E93
:103B40000101C8250001C46F000E0101C921000157
:103B5000C56FC4C0F6FFC5C0F7FF000EF86E0F0EAC
:103B6000F76406D0020EF56E0D00F56A0C0007D062
:103B7000F6CFE9FFF7CFEAFF020EEE6EEF6A320EE4
:103B80000101C8250001C46F000E0101C921000117
:103B9000C56FC4C0F6FFC5C0F7FF000EF86E0F0E6C
:103BA000F76406D0020EF56E0D00F56A0C0007D022
:103BB000F6CFE9FFF7CFEAFF020EEE6EEF6A340EA2
:103BC0000101C8250001C46F000E0101C9210001D7
:103BD000C56FC4C0F6FFC5C0F7FF000EF86E0F0E2C
:103BE000F76404D0030EF56E0C0006D0F6CFE9FFA3
:103BF000F7CFEAFF030EEF6E350E0101C825000175
:103C0000C46F000E0101C9210001C56FC4C0F6FFD9
:103C1000C5C0F7FF000EF86E0F0EF76404D0020E59
:103C2000F56E0C0006D0F6CFE9FFF7CFEAFF020EE3
:103C3000EF6EC8C167F0C9C168F0ECEC1EF0020E6F
:103C4000D46F010ED06F8BD0020E0101C825000188
:103C5000C46F000E0101C9210001C56FC4C0F6FF89
:103C6000C5C0F7FF000EF86E0F0EF76409D0F56AB5
:103C70000D00F56A0D00F56A0D00F56A0C0008D01C
:103C8000F6CFE9FFF7CFEAFFEE6AEE6AEE6AEF6A77
:103C9000060E0101C8250001C46F000E0101C921F3
:103CA0000001C56FC4C0F6FFC5C0F7FF000EF86E77
:103CB0000F0EF76405D0F56A0D00F56A0C0006D00A
:103CC000F6CFE9FFF7CFEAFFEE6AEF6A010E0001D7
:103CD000B7D70001D351010A01E131D7030AB4E09B
:103CE0003ED02A0E0101C8250001C46F000E01015B
:103CF000C9210001C56FC4C0F6FFC5C0F7FF000EA3
:103D0000F86E0F0EF76403D00800F55005D0F6CF1B
:103D1000E9FFF7CFEAFFEF50000ADBE0010A02E11A
:103D20007AEF0AF0030A02E1B1EF10F0010A02E1B2
:103D3000FBEF16F0070A01E1F2D4010A01E1DDD53B
:103D4000030A01E132D6010A0AE00F0A01E134D682
:103D5000010A01E1E9D6030A02E170EF0AF02B0E35
:103D60000101C8250001C46F000E0101C921000135
:103D7000C56FC4C0F6FFC5C0F7FF000EF86E0F0E8A
:103D8000F76404D00D0EF56E0C0006D0F6CFE9FFF7
:103D9000F7CFEAFF0D0EEF6E2A0E0101C8250001D4
:103DA000C46F000E0101C9210001C56FC4C0F6FF38
:103DB000C5C0F7FF000EF86E0F0EF76404D0D4C034
:103DC000F5FF0C0006D0F6CFE9FFF7CFEAFFD4C02D
:103DD000EFFF0001D051120067C0F6FF68C0F7FF87
:103DE000000EF86E0F0EF76407D00900F5CF69F0EA
:103DF0000900F5CF6AF008D0F6CFE9FFF7CFEAFF68
:103E0000EECF69F0EECF6AF0000169516C6F6B6B19
:103E100067C0F6FF68C0F7FF000EF86E0F0EF7647C
:103E200007D00900F5CF6DF00900F5CF6EF008D08E
:103E3000F6CFE9FFF7CFEAFFEECF6DF0EECF6EF0F1
:103E40006EC06DF000016E6B6E6B6B516D11A26FE9
:103E50006C516E11A36F060E6725696F000E682105
:103E60006A6F69C0F6FF6AC0F7FF000EF86E0F0EAA
:103E7000F76407D00900F5CF6BF00900F5CF6CF0BF
:103E800008D0F6CFE9FFF7CFEAFFEECF6BF0EECF29
:103E90006CF000016B516E6F6D6B060E67256F6FD6
:103EA000000E6821706F6FC0F6FF70C0F7FF000E44
:103EB000F86E0F0EF76407D00900F5CF71F0090016
:103EC000F5CF72F008D0F6CFE9FFF7CFEAFFEECFDB
:103ED00071F0EECF72F072C071F00001726B726B14
:103EE0006D517111A46F6E517211A56F100E67257F
:103EF000696F000E68216A6F69C0F6FF6AC0F7FF3C
:103F0000000EF86E0F0EF7640DD00900F5CF6BF0C0
:103F10000900F5CF6CF00900F5CF6DF00900F5CF81
:103F20006EF00CD0F6CFE9FFF7CFEAFFEECF6BF0E3
:103F3000EECF6CF0EECF6DF0EECF6EF000016B5176
:103F40006F6F706B716B726B6FC072F0716B706BB7
:103F50006F6B100E6725736F000E6821746F73C04E
:103F6000F6FF74C0F7FF000EF86E0F0EF7640DD069
:103F70000900F5CF75F00900F5CF76F00900F5CF0F
:103F800077F00900F5CF78F00CD0F6CFE9FFF7CF46
:103F9000EAFFEECF75F0EECF76F0EECF77F0EECF12
:103FA00078F00001796B76517A6F7B6B7C6B7BC00C
:103FB0007CF07AC07BF079C07AF0796B100E6725BF
:103FC0007D6F000E68217E6F7DC0F6FF7EC0F7FF1B
:103FD000000EF86E0F0EF7640DD00900F5CF7FF0DC
:103FE0000900F5CF80F00900F5CF81F00900F5CF89
:103FF00082F00CD0F6CFE9FFF7CFEAFFEECF7FF0EB
:10400000EECF80F0EECF81F0EECF82F080C07FF077
:1040100081C080F082C081F00001826B836B80518F
:10402000846F856B866B100E6725876F000E682185
:10403000886F87C0F6FF88C0F7FF000EF86E0F0E7E
:10404000F7640DD00900F5CF89F00900F5CF8AF0AB
:104050000900F5CF8BF00900F5CF8CF00CD0F6CF2E
:10406000E9FFF7CFEAFFEECF89F0EECF8AF0EECF8F
:104070008BF0EECF8CF000018D6B8E6B8F6B8C51C3
:10408000906F190E05D0D89090338F338E338D33C7
:10409000E82EF9D783518D11916F84518E11926F53
:1040A00085518F11936F86519011946F79519111B1
:1040B000956F7A519211966F7B519311976F7C5146
:1040C0009411986F6F519511A66F70519611A76F4B
:1040D00071519711A86F72519811A96F0C0E672535
:1040E000696F000E68216A6F69C0F6FF6AC0F7FF4A
:1040F000000EF86E0F0EF7640DD00900F5CF6BF0CF
:104100000900F5CF6CF00900F5CF6DF00900F5CF8F
:104110006EF00CD0F6CFE9FFF7CFEAFFEECF6BF0F1
:10412000EECF6CF0EECF6DF0EECF6EF000016B5184
:104130006F6F706B716B726B6FC072F0716B706BC5
:104140006F6B0C0E6725736F000E6821746F73C060
:10415000F6FF74C0F7FF000EF86E0F0EF7640DD077
:104160000900F5CF75F00900F5CF76F00900F5CF1D
:1041700077F00900F5CF78F00CD0F6CFE9FFF7CF54
:10418000EAFFEECF75F0EECF76F0EECF77F0EECF20
:1041900078F00001796B76517A6F7B6B7C6B7BC01A
:1041A0007CF07AC07BF079C07AF0796B0C0E6725D1
:1041B0007D6F000E68217E6F7DC0F6FF7EC0F7FF29
:1041C000000EF86E0F0EF7640DD00900F5CF7FF0EA
:1041D0000900F5CF80F00900F5CF81F00900F5CF97
:1041E00082F00CD0F6CFE9FFF7CFEAFFEECF7FF0F9
:1041F000EECF80F0EECF81F0EECF82F080C07FF086
:1042000081C080F082C081F00001826B836B80519D
:10421000846F856B866B0C0E6725876F000E682197
:10422000886F87C0F6FF88C0F7FF000EF86E0F0E8C
:10423000F7640DD00900F5CF89F00900F5CF8AF0B9
:104240000900F5CF8BF00900F5CF8CF00CD0F6CF3C
:10425000E9FFF7CFEAFFEECF89F0EECF8AF0EECF9D
:104260008BF0EECF8CF000018D6B8E6B8F6B8C51D1
:10427000906F190E05D0D89090338F338E338D33D5
:10428000E82EF9D783518D11916F84518E11926F61
:1042900085518F11936F86519011946F79519111BF
:1042A000956F7A519211966F7B519311976F7C5154
:1042B0009411986F6F519511AA6F70519611AB6F51
:1042C00071519711AC6F72519811AD6FAE91F10EA3
:1042D000AE17AE510F0B5009AE6F1A0E6725696FFE
:1042E000000E68216A6F69C0F6FF6AC0F7FF000E12
:1042F000F86E0F0EF76407D00900F5CF6BF00900D8
:10430000F5CF6CF008D0F6CFE9FFF7CFEAFFEECF9C
:104310006BF0EECF6CF000016B516E6F6D6B1A0E8F
:1043200067256F6F000E6821706F6FC0F6FF70C059
:10433000F7FF000EF86E0F0EF76407D00900F5CFF7
:1043400071F00900F5CF72F008D0F6CFE9FFF7CF92
:10435000EAFFEECF71F0EECF72F072C071F00001A3
:10436000726B726B6D517111B06F6E517211B16FD2
:10437000B26BB36BB46BB56B350E6725696F000E0E
:1043800068216A6F69C0F6FF6AC0F7FF000EF86E19
:104390000F0EF76403D00800F55005D0F6CFE9FF03
:1043A000F7CFEAFFEF5000016B6F060E6B1703E0CB
:1043B000A06BA16B88D1270E6725696F000E68215D
:1043C0006A6F69C0F6FF6AC0F7FF000EF86E0F0E45
:1043D000F76407D00900F5CFA0F00900F5CFA1F0F0
:1043E00008D0F6CFE9FFF7CFEAFFEECFA0F0EECF8F
:1043F000A1F00001A051A11101E165D1180E6725BE
:10440000696F000E68216A6F69C0F6FF6AC0F7FF26
:10441000000EF86E0F0EF76407D00900F5CF6BF0B1
:104420000900F5CF6CF008D0F6CFE9FFF7CFEAFF2F
:10443000EECF6BF0EECF6CF00001A0516B5DA1519F
:104440006C591EE2180E6725696F000E68216A6FAD
:1044500069C0F6FF6AC0F7FF000EF86E0F0EF76432
:1044600007D00900F5CFA0F00900F5CFA1F008D0E2
:10447000F6CFE9FFF7CFEAFFEECFA0F0EECFA1F045
:104480001C0E00016725696F000E68216A6F69C004
:10449000F6FF6AC0F7FF000EF86E0F0EF76407D044
:1044A0000900F5CF6BF00900F5CF6CF008D0F6CF1E
:1044B000E9FFF7CFEAFFEECF6BF0EECF6CF0000133
:1044C000A0516B5DA1516C591EE21C0E6725696FEE
:1044D000000E68216A6F69C0F6FF6AC0F7FF000E20
:1044E000F86E0F0EF76407D00900F5CFA0F00900B1
:1044F000F5CFA1F008D0F6CFE9FFF7CFEAFFEECF76
:10450000A0F0EECFA1F0250E00016725696F000E27
:1045100068216A6F69C0F6FF6AC0F7FF000EF86E87
:104520000F0EF76407D00900F5CF99F00900F5CF19
:104530009AF008D0F6CFE9FFF7CFEAFFEECF99F077
:10454000EECF9AF0250E00016725696F000E6821F5
:104550006A6F69C0F6FF6AC0F7FF000EF86E0F0EB3
:10456000F76407D00900F5CF6BF00900F5CF6CF0C8
:1045700008D0F6CFE9FFF7CFEAFFEECF6BF0EECF32
:104580006CF00001A0516B27A1516C23250E67250B
:104590006D6F000E68216E6F6DC0F6FF6EC0F7FF85
:1045A000000EF86E0F0EF76407D06BC0F5FF0D001C
:1045B0006CC0F5FF0C0008D0F6CFE9FFF7CFEAFF9B
:1045C0006BC0EEFF6CC0EFFF270E00016725696F1F
:1045D000000E68216A6F69C0F6FF6AC0F7FF000E1F
:1045E000F86E0F0EF76407D00900F5CF6BF00900E5
:1045F000F5CF6CF008D0F6CFE9FFF7CFEAFFEECFAA
:104600006BF0EECF6CF00001A0516B5FA1516C5BC1
:10461000270E67256D6F000E68216E6F6DC0F6FF67
:104620006EC0F7FF000EF86E0F0EF76407D06BC078
:10463000F5FF0D006CC0F5FF0C0008D0F6CFE9FFC8
:10464000F7CFEAFF6BC0EEFF6CC0EFFF270E000153
:104650006725696F000E68216A6F69C0F6FF6AC03E
:10466000F7FF000EF86E0F0EF76407D00900F5CFC4
:104670006BF00900F5CF6CF008D0F6CFE9FFF7CF6B
:10468000EAFFEECF6BF0EECF6CF000016B516C11D6
:104690001AE1350E6725696F000E68216A6F69C0DF
:1046A000F6FF6AC0F7FF000EF86E0F0EF76405D034
:1046B000080E0800F5120C0006D0F6CFE9FFF7CF80
:1046C000EAFF080EEF12350E00016725696F000E34
:1046D00068216A6F69C0F6FF6AC0F7FF000EF86EC6
:1046E0000F0EF76403D00800F55005D0F6CFE9FFB0
:1046F000F7CFEAFFEF500001AF6F140EA0259D6FBA
:10470000000EA1219E6F020E6725696F000E6821C1
:104710006A6F69C0F6FF6AC0F7FF000EF86E0F0EF1
:10472000F7640DD00900F5CF4AF00900F5CF4BF042
:104730000900F5CF4CF00900F5CF4DF00CD0F6CFC5
:10474000E9FFF7CFEAFFEECF4AF0EECF4BF0EECF26
:104750004CF0EECF4DF0060E4E6E3BEC38F09F6FF6
:104760009F5141E0A20E036E046A066A140E056EA4
:1047700099EC41F00001A051A1110AE099C003F0A9
:104780009AC004F0A0C005F0A1C006F099EC41F079
:10479000060E00019D259B6F000E9E219C6F0B6AEB
:1047A0001A0E0A6E080E9D250C6E000E9E210D6ECF
:1047B0009BC00EF09CC00FF094EC3BF00AC09BF045
:1047C0000BC09CF00B6A020E0A6E0D6A320E0C6E64
:1047D0009B0E6BEC41F09DC018F09EC019F0D1EC1F
:1047E00040F000019F6F9F5173E1340E6725696FA0
:1047F000000E68216A6F69C0F6FF6AC0F7FF000EFD
:10480000F86E0F0EF76403D00800F55005D0F6CF10
:10481000E9FFF7CFEAFFEF5000016B6F6B2B340E0F
:1048200067256C6F000E68216D6F6CC0F6FF6DC060
:10483000F7FF000EF86E0F0EF76404D06BC0F5FFA3
:104840000C0006D0F6CFE9FFF7CFEAFF6BC0EFFF11
:10485000300E00016725696F000E68216A6F69C01C
:10486000F6FF6AC0F7FF000EF86E0F0EF76407D070
:104870000900F5CF6BF00900F5CF6CF008D0F6CF4A
:10488000E9FFF7CFEAFFEECF6BF0EECF6CF000015F
:104890006B516C117AE1300E6725696F000E68214B
:1048A0006A6F69C0F6FF6AC0F7FF000EF86E0F0E60
:1048B000F76406D0020EF56E0D00F56A0C0007D005
:1048C000F6CFE9FFF7CFEAFF020EEE6EEF6A5DD09A
:1048D000100E6725696F000E68216A6F69C0F6FFC8
:1048E0006AC0F7FF000EF86E0F0EF7640DD00900D6
:1048F000F5CF6BF00900F5CF6CF00900F5CF6DF046
:104900000900F5CF6EF00CD0F6CFE9FFF7CFEAFF44
:10491000EECF6BF0EECF6CF0EECF6DF0EECF6EF031
:104920000001A0516B256F6FA1516C21706F000EBB
:104930006D21716F000E6E21726F100E6725736FFF
:10494000000E6821746F73C0F6FF74C0F7FF000E8D
:10495000F86E0F0EF7640DD06FC0F5FF0D0070C03C
:10496000F5FF0D0071C0F5FF0D0072C0F5FF0C00E2
:104970000CD0F6CFE9FFF7CFEAFF6FC0EEFF70C0B3
:10498000EEFF71C0EEFF72C0EFFF00019F511200F9
:104990005A6A0101BF6BC06BC16BC26BCE6BCF6B30
:1049A000EA0E036E010E046E066A140E056E90EC9C
:1049B00040F00101C86BC96BEC51ED11D8B4120085
:1049C000EA51EB11D8B41200EA510001DC6FDB6B45
:1049D0000101EB510001DD6FDE6BDB51DD110101E7
:1049E000EA6F0001DC51DE110101EB6FEC510001B7
:1049F000DC6FDB6B21EEECF0DECFDDF0DDCFDEF047
:104A0000DEC0DDF0DE6BDE6BDB51DD110101EC6F32
:104A10000001DC51DE110101ED6FD0C15BF0D1C1AD
:104A20005CF047D05BC0F6FF5CC0F7FF000EF86E8D
:104A30000F0EF76407D00900F5CFDBF00900F5CFC2
:104A4000DCF008D0F6CFE9FFF7CFEAFFEECFDBF0DE
:104A5000EECFDCF00001DB510101EC190AE10001AD
:104A6000DC510101ED1905E15BC0C8F15CC0C9F181
:104A70002DD02C0E5B240001DB6F000E5C20DC6F60
:104A8000DBC0F6FFDCC0F7FF000EF86E0F0EF76418
:104A900007D00900F5CF5BF00900F5CF5CF008D036
:104AA000F6CFE9FFF7CFEAFFEECF5BF0EECF5CF099
:104AB0005A2A5B505C100AE05A50800A0001DB6FF2
:104AC0000101D551800A0001DB5DACE30101C85151
:104AD000C911D8B41200060EC8250001DB6F000E04
:104AE0000101C9210001DC6FDBC0F6FFDCC0F7FF6C
:104AF000000EF86E0F0EF76407D00900F5CFDDF059
:104B00000900F5CFDEF008D0F6CFE9FFF7CFEAFFD6
:104B1000EECFDDF0EECFDEF00101EA510001DD194C
:104B200005E10101EB510001DE1933E0020E010144
:104B3000C8250001DB6F000E0101C9210001DC6FF7
:104B4000DBC0F6FFDCC0F7FF000EF86E0F0EF76457
:104B50000DD00900F5CFDDF00900F5CFDEF009003A
:104B6000F5CFDFF00900F5CFE0F00CD0F6CFE9FF8C
:104B7000F7CFEAFFEECFDDF0EECFDEF0EECFDFF0E5
:104B8000EECFE0F00001DD51DE11DF11E011D8A41D
:104B90001200D5C0BFF1D6C0C0F1D7C0C1F1D8C096
:104BA000C2F10101F6390F0B0001DB6FDC6BD8900D
:104BB000DB37DC37D890DB37DC37DB51D95D0101DF
:104BC000CE6F0001DC51DA590101CF6F1AEC3AF0D7
:104BD000E806D8A412000101F7A33CD0F7A91DD024
:104BE0002B0EC8250001DB6F000E0101C921000159
:104BF000DC6FDBC0F6FFDCC0F7FF000EF86E0F0EB7
:104C0000F76404D0050EF56E0C0006D0F6CFE9FF70
:104C1000F7CFEAFF050E98D0B7D02B0EC8250001BC
:104C2000DB6F000E0101C9210001DC6FDBC0F6FF64
:104C3000DCC0F7FF000EF86E0F0EF76404D0030E11
:104C4000F56E0C0006D0F6CFE9FFF7CFEAFF030EB2
:104C50007BD09AD0F7A13CD0F7A91DD02B0EC82548
:104C60000001DB6F000E0101C9210001DC6FDBC018
:104C7000F6FFDCC0F7FF000EF86E0F0EF76404D0ED
:104C8000070EF56E0C0006D0F6CFE9FFF7CFEAFF6E
:104C9000070E5AD079D02B0EC8250001DB6F000E0D
:104CA0000101C9210001DC6FDBC0F6FFDCC0F7FFAA
:104CB000000EF86E0F0EF76404D0060EF56E0C00B1
:104CC00006D0F6CFE9FFF7CFEAFF060E3DD05CD065
:104CD000F7A53CD0F7A91DD02B0EC8250001DB6F2E
:104CE000000E0101C9210001DC6FDBC0F6FFDCC052
:104CF000F7FF000EF86E0F0EF76404D00A0EF56E83
:104D00000C0006D0F6CFE9FFF7CFEAFF0A0E1CD061
:104D10003BD02B0EC8250001DB6F000E0101C9211D
:104D20000001DC6FDBC0F6FFDCC0F7FF000EF86EA1
:104D30000F0EF76404D0090EF56E0C0006D0F6CF06
:104D4000E9FFF7CFEAFF090EEF6E1ED0F7A91CD0DE
:104D50002B0EC8250001DB6F000E0101C9210001E7
:104D6000DC6FDBC0F6FFDCC0F7FF000EF86E0F0E45
:104D7000F76404D0040EF56E0C0006D0F6CFE9FF00
:104D8000F7CFEAFF040EEF6E0101F2510001DB6F75
:104D9000DC6BDD6BDE6BDBC0DEF0DD6BDC6BDB6BFD
:104DA00021EEF2F0000EDE14DF6FFF0EDE14E06F76
:104DB000000EDE14E16F000EDE14E26FE1C0E2F0DF
:104DC000E0C0E1F0DFC0E0F0DF6BF2C1E3F0F3C17F
:104DD000E4F0F4C1E5F0F5C1E6F0E4C0E3F0E5C0CD
:104DE000E4F0E6C0E5F0E66BE76BE451E86F000E37
:104DF000E96BEA6B21EEF2F0DE14EB6F000EDE14CD
:104E0000EC6F000EDE14ED6FFF0EDE14EE6F190E68
:104E100005D0D890EE33ED33EC33EB33E82EF9D7F1
:104E2000E751EB11EF6FE851EC11F06FE951ED1123
:104E3000F16FEA51EE11F26FDF51EF11F36FE051B4
:104E4000F011F46FE151F111F56FE251F211F66FCB
:104E5000DB51F3110101F26F0001DC51F41101018A
:104E6000F36F0001DD51F5110101F46F0001DE5116
:104E7000F6110101F56FEE510001DB6FDC6BDD6BAC
:104E8000DE6BDBC0DEF0DD6BDC6BDB6B21EEEEF0AE
:104E9000000EDE14DF6FFF0EDE14E06F000EDE1476
:104EA000E16F000EDE14E26FE1C0E2F0E0C0E1F07D
:104EB000DFC0E0F0DF6BEEC1E3F0EFC1E4F0F0C182
:104EC000E5F0F1C1E6F0E4C0E3F0E5C0E4F0E6C0EF
:104ED000E5F0E66BE76BE451E86F000EE96BEA6B17
:104EE00021EEEEF0DE14EB6F000EDE14EC6F000E20
:104EF000DE14ED6FFF0EDE14EE6F190E05D0D890A4
:104F0000EE33ED33EC33EB33E82EF9D7E751EB1109
:104F1000EF6FE851EC11F06FE951ED11F16FEA51CB
:104F2000EE11F26FDF51EF11F36FE051F011F46FFA
:104F3000E151F111F56FE251F211F66FDB51F3110E
:104F40000101EE6F0001DC51F4110101EF6F00016E
:104F5000DD51F5110101F06F0001DE51F611010183
:104F6000F16F55EF08F0380E036E046A066A1C0EE6
:104F7000056E90EC40F003C02EF004C02FF01C0E24
:104F80002E182F10D8A41200306A000E366E030EB1
:104F9000376E080E346E20EE06F03650D9263750A4
:104FA000DA22DE5046182AE1DE50471827E1DE50AB
:104FB000481824E1DE50491821E120EE0AF036506D
:104FC000D9263750DA22DE503A1818E1DE503B1865
:104FD00015E120EE0CF03650D9263750DA22DF6A80
:104FE00020EE40F036C0E1FF37C0E2FF050EDBCF18
:104FF000E3FFE806FCE2010E306E07D00D0E362608
:10500000000E372234063450C6E10101B751B81101
:10501000B911BA11D8B4120050500E6E0F6A106A4E
:10502000116A0EC011F0106A0F6A0E6A20EE50F07D
:10503000000EDE14126EFF0EDE14136E000EDE1470
:10504000146E000EDE14156E14C015F013C014F0AB
:1050500012C013F0126A50C016F051C017F052C0BF
:1050600018F053C019F017C016F018C017F019C087
:1050700018F0196A1A6A17501B6E000E1C6A1D6A16
:1050800020EE50F0DE141E6E000EDE141F6E000EB9
:10509000DE14206EFF0EDE14216E190E05D0D8909E
:1050A000213220321F321E32E82EF9D71A501E103C
:1050B000226E1B501F10236E1C502010246E1D509A
:1050C0002110256E12502210266E13502310276EC9
:1050D00014502410286E15502510296E0E502610DD
:1050E0002A6E0F5027102B6E105028102C6E115066
:1050F00029102D6EB7512A1809E1B8512B1806E175
:10510000B9512C1803E1BA512D18D8A4120030500F
:1051100001E0BCD0000E366E030E376E000E326E0C
:10512000030E336E080E356E20EE0CF03250D92689
:105130003350DA2210EE0CF03650E1263750E222DE
:10514000DE50E65C04E232C036F033C037F00D0EBC
:105150003226000E332235063550E6E120EE0CF003
:105160003650D9263750DA22DF6A20EE40F036C0BA
:10517000E1FF37C0E2FF050EDBCFE3FFE806FCE20C
:1051800046500E6E0F6A106A116A0EC011F0106A56
:105190000F6A0E6A20EE46F0000EDE14126EFF0E4D
:1051A000DE14136E000EDE14146E000EDE14156E87
:1051B00014C015F013C014F012C013F0126A46C0E8
:1051C00016F047C017F048C018F049C019F017C0D2
:1051D00016F018C017F019C018F0196A1A6A17509B
:1051E0001B6E000E1C6A1D6A20EE46F0DE141E6E59
:1051F000000EDE141F6E000EDE14206EFF0EDE1495
:10520000216E190E05D0D890213220321F321E3265
:10521000E82EF9D71A501E10226E1B501F10236E55
:105220001C502010246E1D502110256E125022108B
:10523000266E13502310276E14502410286E15501C
:105240002510296E0E5026102A6E0F5027102B6E37
:10525000105028102C6E115029102D6E20EE06F0E3
:105260003650D9263750DA222AC0DEFF2BC0DEFFA7
:105270002CC0DEFF2DC0DEFF20EE0AF03650D9260E
:105280003750DA223AC0DEFF3BC0DDFF3F043E105C
:10529000D8A41200400E086E096A080E0B6E060EA6
:1052A0000A6E91EC33F0316E3104D8A4120020EE76
:1052B00040F010EE4AF0050EDBCFE3FFE806FCE21B
:1052C000380E080F08EC41F046C050F047C051F0CE
:1052D00048C052F049C053F00101B7510E6E0F6A39
:1052E000106A116A0EC011F0106A0F6A0E6A126A13
:1052F000B851136E146A156A14C015F013C014F077
:1053000012C013F0126A166AB951176E186A165055
:10531000196E17501A6E18501B6E1C6A1D6A1E6A91
:105320001F6ABA51206E190E05D0D89020321F3254
:105330001E321D32E82EF9D719501D10216E1A5059
:105340001E10226E1B501F10236E1C502010246E46
:1053500012502110256E13502210266E1450231067
:10536000276E15502410286E0E502510466E0F50D3
:105370002610476E10502710486E11502810496EA5
:10538000020E3F6E3E6A380E036E046A066A1C0EF9
:10539000056E99EC41F09AEF44F01B6EEBD1250EAF
:1053A0001A182FE01B50D96EDA6A020ED926DE5089
:1053B000DE10DE1012E01B50D96EDA6A020ED9261A
:1053C00001D8D8D10500FA6EDE50FD6EDE50FE6EBB
:1053D000DE50FF6EFA501A5012001B50D96EDA6A76
:1053E000DECF10F0DDCF11F010C0D9FF11C0DAFF11
:1053F0001AC0DFFF1B50D96EDA6ADE2A000EDD22EA
:10540000B9D1176A83D0178E9DD00F50D96EDA6A42
:10541000020EDF26DF5CD96EDA6ADECF15F0DECF52
:1054200016F0155016105AE1A20E156E1550D8A49C
:10543000100E166E53D01B50D96EDA6A020ED926A2
:10544000DE50DE10DE1025E01B50D96EDA6A020E47
:10545000D92601D81BD00500FA6EDE50FD6EDE5055
:10546000FE6EDE50FF6EFA5015C0F6FF16C0F7FF55
:10547000000EF86E0F0EF76403D00800F55005D04B
:10548000F6CFE9FFF7CFEAFFEF501200154A162AD0
:1054900025D015C0F6FF16C0F7FF000EF86E1B50A2
:1054A000D96EDA6ADECF10F0DDCF11F010C0D9FF6F
:1054B00011C0DAFF0F0EF76403D00800F55005D0D5
:1054C000F6CFE9FFF7CFEAFFEF50DF6E154A162A55
:1054D0001B50D96EDA6ADE2A000EDD2215C0F6FFF7
:1054E00016C0F7FF000EF86E0F0EF76403D0080029
:1054F000F55005D0F6CFE9FFF7CFEAFFEF500009EE
:1055000001E138D198D7C00E17121CD00E2A0E0414
:10551000106E10C0F6FF100EF76E000EF86E080049
:10552000F5CF1AF01A5001E134D1640A0BE00D0AEC
:1055300009E01A0A01E169D7060AE5E00D0A01E16E
:1055400062D718D117C010F0C00E101615E10F5019
:10555000D96EDA6A020EDF26DF5CD96EDA6ADECF38
:1055600018F0DECF19F019AE46D0030E1712186CE2
:10557000191ED8B0192A3FD00F50D96EDA6A020E20
:10558000DF26DF5CD96EDA6ADECF18F0DECF19F0E5
:1055900032D0010E1A6E1A50020DF350010F106E28
:1055A00010C0F6FF100EF76E000EF86E0900F550F1
:1055B000185C0900F550195825E31A2A050E1A1827
:1055C00021E0E9D7010E1A6E1A50020DF3500B0FAD
:1055D000106E10C0F6FF100EF76E000EF86E090088
:1055E000F550185C0900F55019580CE31A2A040EFE
:1055F0001A1808E0E9D71750C00BCBE0800AE2E0A8
:10560000400AC7E017C010F0030E10162DE01B5023
:10561000D96EDA6A020ED926DE50DE10DE1011E0F5
:105620001B50D96EDA6A020ED92601D81DD00500AA
:10563000FA6EDE50FD6EDE50FE6EDE50FF6EFA50EA
:105640002D0C1B50D96EDA6ADECF10F0DDCF11F0D1
:1056500010C0D9FF11C0DAFF2D0EDF6E1B50D96EBE
:10566000DA6ADE2A000EDD221AC014F080D014504F
:10567000020DF350010F106E10C0F6FF100EF76E02
:10568000000EF86E0900F5CF04F00A00F5CF05F022
:1056900018C002F019C003F0D9EC42F002C009F0C2
:1056A00003C00AF00C6A0A0E0B6E88EC43F0095036
:1056B000300F1A6E2ED018C002F019C003F014502B
:1056C000020DF3500B0F106E10C0F6FF100EF76EA8
:1056D000000EF86E0900F5CF04F00A00F5CF05F0D2
:1056E000D9EC42F002500F0B136E1350550F106E91
:1056F00010C0F6FF100EF76E000EF86E0800F5CF22
:105700001AF007D01750C00BB2E0800AD4E0400A6C
:10571000AEE01B50D96EDA6A020ED926DE50DE10DA
:10572000DE1012E01B50D96EDA6A020ED92601D8BB
:105730001ED00500FA6EDE50FD6EDE50FE6EDE50AD
:10574000FF6EFA501A5012001B50D96EDA6ADECF83
:1057500010F0DDCF11F010C0D9FF11C0DAFF1AC070
:10576000DFFF1B50D96EDA6ADE2A000EDD22140636
:105770001428C8E10E2A0E04106E10C0F6FF100E99
:10578000F76E000EF86E0800F5CF1AF01A5001E01F
:1057900006D60E6A0F6A12000001F86BF96B136AE5
:1057A000140E126E156A146AC5EC41F012C0FAF0BC
:1057B00013C0FBF00001FA51FB1101E01200D60EFC
:1057C000036E010E046E066A140E056E90EC40F036
:1057D0000101D6390F0B040A01E01200E651006FF7
:1057E000016B026B036B00C103F1026B016B006B79
:1057F00021EEE6F0000EDE14046FFF0EDE14056FDE
:10580000000EDE14066F000EDE14076F06C107F1EE
:1058100005C106F104C105F1046BE6C108F1E7C159
:1058200009F1E8C10AF1E9C10BF109C108F10AC1A6
:1058300009F10BC10AF10B6B0C6B09510D6F000ED6
:105840000E6B0F6B21EEE6F0DE14106F000EDE140F
:10585000116F000EDE14126FFF0EDE14136F190E9F
:1058600005D0D8901333123311331033E82EF9D703
:105870000C511011146F0D511111156F0E511211A1
:10588000166F0F511311176F04511411186F055132
:105890001511196F065116111A6F075117111B6F49
:1058A00000511811E66F01511911E76F02511A11D9
:1058B000E86F03511B11E96FE251006F016B026B3E
:1058C000036B00C103F1026B016B006B21EEE2F090
:1058D000000EDE14046FFF0EDE14056F000EDE14E2
:1058E000066F000EDE14076F06C107F105C106F151
:1058F00004C105F1046BE2C108F1E3C109F1E4C19F
:105900000AF1E5C10BF109C108F10AC109F10BC1A6
:105910000AF10B6B0C6B09510D6F000E0E6B0F6BC8
:1059200021EEE2F0DE14106F000EDE14116F000E97
:10593000DE14126FFF0EDE14136F190E05D0D8900F
:105940001333123311331033E82EF9D70C511011E1
:10595000146F0D511111156F0E511211166F0F5159
:105960001311176F04511411186F05511511196F88
:10597000065116111A6F075117111B6F005118119C
:10598000E26F01511911E36F02511A11E46F0351D3
:105990001B11E56FB751E61909E1B851E71906E1A6
:1059A000B951E81903E1BA51E91909E0E62906E11C
:1059B000E72904E1E82902E1E929D8A41200D85135
:1059C000016F006B21EED8F0DECF02F1DDCF03F1E5
:1059D00003C102F1036B036B00510211D86F015137
:1059E0000311D96FD6510F0B006FD8900037D890A4
:1059F00000350001F76F0101D6510F0B006F050E46
:105A000000659CD0EC0E0001F7250A6E0B6AFF0EB4
:105A10000B228DEC42F092D00001F7510101D85DCC
:105A20000001F86F0101D951D8A0D9050001F96F23
:105A3000F8C012F0F9C013F0156A146AC5EC41F011
:105A400012C0FAF013C0FBF00001FA51FB11D8A408
:105A50001200D60E716F010E726FFEEF42F0000160
:105A6000F7510101D85D0001F86F0101D951D8A0AB
:105A7000D9050001F96FF8C002F0F9C003F023EC7A
:105A80003EF002C0FAF003C0FBF0F8C012F0F9C01B
:105A900013F0FAC014F0FBC015F0C5EC41F012C0D1
:105AA000FAF013C0FBF0FAC099F0FBC09AF01DEFBA
:105AB0003BF00001F7510101D85D0001F86F0101D1
:105AC000D951D8A0D9050001F96FF8C002F0F9C08A
:105AD00003F023EC3EF002C0FAF003C0FBF0F8C084
:105AE00012F0F9C013F0FAC014F0FBC015F0C5ECC9
:105AF00041F012C0FAF013C0FBF00001FA51FB11A3
:105B0000D8A41200E2C128F2E3C129F2E4C12AF2CA
:105B1000E5C12BF228C2D5F029C2D6F02AC2D7F0AF
:105B20002BC2D8F0F8C0D9F0F9C0DAF0C8EF24F0F1
:105B3000D8C10AF0D9C10BF08DEF42F00101DF515D
:105B4000010A01E169D7070AB4E0170A88E0F0D733
:105B5000220E0101C8250001B86F000E0101C92104
:105B60000001B96FB8C0F6FFB9C0F7FF000EF86EBC
:105B70000F0EF76403D00800F55005D0F6CFE9FF0B
:105B8000F7CFEAFFEF50E806D8A412001A0E010181
:105B9000C8250001B86F000E0101C9210001B96FCD
:105BA000B8C0F6FFB9C0F7FF000EF86E0F0EF7642D
:105BB00007D00900F5CFBAF00900F5CFBBF008D047
:105BC000F6CFE9FFF7CFEAFFEECFBAF0EECFBBF0AA
:105BD0000001B651BA5DB751BB5905E3B6C058F0E4
:105BE000B7C059F022D01A0E0101C8250001B86FC4
:105BF000000E0101C9210001B96FB8C0F6FFB9C09C
:105C0000F7FF000EF86E0F0EF76407D00900F5CF0E
:105C100058F00900F5CF59F008D0F6CFE9FFF7CFDB
:105C2000EAFFEECF58F0EECF59F0200E0101C82563
:105C30000001B86F000E0101C9210001B96FB8C0A1
:105C4000F6FFB9C0F7FF000EF86E0F0EF76407D02D
:105C50000900F5CF03F00900F5CF04F008D0F6CF26
:105C6000E9FFF7CFEAFFEECF03F0EECF04F058C024
:105C700005F059C006F090EC40F0200E0101C82557
:105C80000001B86F000E0101C9210001B96FB8C051
:105C9000F6FFB9C0F7FF000EF86E0F0EF76407D0DD
:105CA0000900F5CFBAF00900F5CFBBF008D0F6CF68
:105CB000E9FFF7CFEAFFEECFBAF0EECFBBF05850D6
:105CC0000001BA275950BB23200E0101C82500014D
:105CD000BC6F000E0101C9210001BD6FBCC0F6FF01
:105CE000BDC0F7FF000EF86E0F0EF76407D0BAC004
:105CF000F5FF0D00BBC0F5FF0C0008D0F6CFE9FFA3
:105D0000F7CFEAFFBAC0EEFFBBC0EFFF1A0E0101EA
:105D1000C8250001B86F000E0101C9210001B96F4B
:105D2000B8C0F6FFB9C0F7FF000EF86E0F0EF764AB
:105D300007D00900F5CFBAF00900F5CFBBF008D0C5
:105D4000F6CFE9FFF7CFEAFFEECFBAF0EECFBBF028
:105D500058500001BA5F5950BB5B1A0E0101C825AB
:105D60000001BC6F000E0101C9210001BD6FBCC064
:105D7000F6FFBDC0F7FF000EF86E0F0EF76407D0F8
:105D8000BAC0F5FF0D00BBC0F5FF0C0008D0F6CF80
:105D9000E9FFF7CFEAFFBAC0EEFFBBC0EFFF080E86
:105DA0000101C8250001B86F000E0101C9210001E1
:105DB000B96FB8C0F6FFB9C0F7FF000EF86E0F0E4E
:105DC000F7640DD00900F5CFBAF00900F5CFBBF0AC
:105DD0000900F5CFBCF00900F5CFBDF00CD0F6CF2F
:105DE000E9FFF7CFEAFFEECFBAF0EECFBBF0EECF90
:105DF000BCF0EECFBDF058500001BA25BE6F59502F
:105E0000BB21BF6F000EBC21C06F000EBD21C16F52
:105E10000C0E0101C8250001C26F000E0101C9214D
:105E20000001C36FC2C0F6FFC3C0F7FF000EF86EDB
:105E30000F0EF7640DD0BEC0F5FF0D00BFC0F5FF1B
:105E40000D00C0C0F5FF0D00C1C0F5FF0C000CD067
:105E5000F6CFE9FFF7CFEAFFBEC0EEFFBFC0EEFF0F
:105E6000C0C0EEFFC1C0EFFF350E0101C825000123
:105E7000B86F000E0101C9210001B96FB8C0F6FF6B
:105E8000B9C0F7FF000EF86E0F0EF76404D0100EC5
:105E9000F56E0C0006D0F6CFE9FFF7CFEAFF100E43
:105EA000EF6EC8C167F0C9C168F0ECEF1EF00001E9
:105EB000DD6BDE6B0201242B000E25232623272316
:105EC0000101CA4BCB2B040ECB5D03E2040ECB6F5A
:105ED000CA6BD0C1DFF0D1C1E0F073D1300EDF2545
:105EE000D56F000EE021D66FD5C0F6FFD6C0F7FF04
:105EF000000EF86E0F0EF76407D00900F5CFD7F04B
:105F00000900F5CFD8F008D0F6CFE9FFF7CFEAFFC8
:105F1000EECFD7F0EECFD8F00001D751D81101E184
:105F20002ED1D569D669300EDF25D76F000EE0215E
:105F3000D86FD7C0F6FFD8C0F7FF000EF86E0F0E6F
:105F4000F76407D00900F5CFD9F00900F5CFDAF0F2
:105F500008D0F6CFE9FFF7CFEAFFEECFD9F0EECFCA
:105F6000DAF00001D551D927D651DA23300EDF25DA
:105F7000DB6F000EE021DC6FDBC0F6FFDCC0F7FF5B
:105F8000000EF86E0F0EF76407D0D9C0F5FF0D00B4
:105F9000DAC0F5FF0C0008D0F6CFE9FFF7CFEAFF33
:105FA000D9C0EEFFDAC0EFFF300E0001DF25D56F5C
:105FB000000EE021D66FD5C0F6FFD6C0F7FF000E69
:105FC000F86E0F0EF76407D00900F5CFD7F009007F
:105FD000F5CFD8F008D0F6CFE9FFF7CFEAFFEECF44
:105FE000D7F0EECFD8F00001D751D81101E0C7D0DB
:105FF000340EDF25D56F000EE021D66FD5C0F6FF39
:10600000D6C0F7FF000EF86E0F0EF76403D008003D
:10601000F55005D0F6CFE9FFF7CFEAFFEF500009C2
:1060200001E1ADD02B0E0001DF25D56F000EE02180
:10603000D66FD5C0F6FFD6C0F7FF000EF86E0F0E74
:10604000F76403D00800F55005D0F6CFE9FFF7CF8D
:10605000EAFFEF500D0A01E092D0320E0001DF2579
:10606000D56F000EE021D66FD5C0F6FFD6C0F7FF82
:10607000000EF86E0F0EF76407D00900F5CFD7F0C9
:106080000900F5CFD8F008D0F6CFE9FFF7CFEAFF47
:10609000EECFD7F0EECFD8F0300E0001DF25D96F6C
:1060A000000EE021DA6FD9C0F6FFDAC0F7FF000E6C
:1060B000F86E0F0EF76407D0D7C0F5FF0D00D8C0FB
:1060C000F5FF0C0008D0F6CFE9FFF7CFEAFFD7C005
:1060D000EEFFD8C0EFFF340E0001DF25D56F000EB4
:1060E000E021D66FD5C0F6FFD6C0F7FF000EF86EE0
:1060F0000F0EF76403D00800F55005D0F6CFE9FF86
:10610000F7CFEAFFEF500001D76FD707340EDF2536
:10611000D86F000EE021D96FD8C0F6FFD9C0F7FFC5
:10612000000EF86E0F0EF76404D0D7C0F5FF0C0018
:1061300006D0F6CFE9FFF7CFEAFFD7C0EFFF2B0E6F
:106140000001DF25D56F000EE021D66FD5C0F6FF28
:10615000D6C0F7FF000EF86E0F0EF76404D00C0ED9
:10616000F56E0C0006D0F6CFE9FFF7CFEAFF0C0E74
:10617000EF6EDFC0C8F1E0C0C9F155EC08F02C0E9D
:106180000001DF25D56F000EE021D66FD5C0F6FFE8
:10619000D6C0F7FF000EF86E0F0EF76407D00900A7
:1061A000F5CFDFF00900F5CFE0F008D0F6CFE9FF3A
:1061B000F7CFEAFFEECFDFF0EECFE0F00001DD4BEE
:1061C000DE2B0001DF51E011D8B41200D5C1D5F0AB
:1061D000D66BD5BFD607D551DD5DDE51800AD76FAE
:1061E000D651800AD75901E279D61200020E022454
:1061F000046E000E0320056E04C0F6FF05C0F7FF15
:10620000000EF86E0F0EF76409D0F56A0D00F56AFE
:106210000D00F56A0D00F56A0C0008D0F6CFE9FF15
:10622000F7CFEAFFEE6AEE6AEE6AEF6A060E022424
:10623000046E000E0320056E04C0F6FF05C0F7FFD4
:10624000000EF86E0F0EF76405D0F56A0D00F56AC2
:106250000C0006D0F6CFE9FFF7CFEAFFEE6AEF6A4F
:10626000100E0224046E000E0320056E04C0F6FF1B
:1062700005C0F7FF000EF86E0F0EF76409D0F56A3F
:106280000D00F56A0D00F56A0D00F56A0C0008D0E6
:10629000F6CFE9FFF7CFEAFFEE6AEE6AEE6AEF6A41
:1062A000140E0224046E000E0320056E04C0F6FFD7
:1062B00005C0F7FF000EF86E0F0EF76409D0F56AFF
:1062C0000D00F56A0D00F56A0D00F56A0C0008D0A6
:1062D000F6CFE9FFF7CFEAFFEE6AEE6AEE6AEF6A01
:1062E000080E0224046E000E0320056E04C0F6FFA3
:1062F00005C0F7FF000EF86E0F0EF76409D0F56ABF
:106300000D00F56A0D00F56A0D00F56A0C0008D065
:10631000F6CFE9FFF7CFEAFFEE6AEE6AEE6AEF6AC0
:106320000C0E0224046E000E0320056E04C0F6FF5E
:1063300005C0F7FF000EF86E0F0EF76409D0F56A7E
:106340000D00F56A0D00F56A0D00F56A0C0008D025
:10635000F6CFE9FFF7CFEAFFEE6AEE6AEE6AEF6A80
:10636000180E0224046E000E0320056E04C0F6FF12
:1063700005C0F7FF000EF86E0F0EF76405D0F56A42
:106380000D00F56A0C0006D0F6CFE9FFF7CFEAFF63
:10639000EE6AEF6A300E0224046E000E0320056ED2
:1063A00004C0F6FF05C0F7FF000EF86E0F0EF7648D
:1063B00005D0F56A0D00F56A0C0006D0F6CFE9FFAE
:1063C000F7CFEAFFEE6AEF6A320E0224046E000E87
:1063D0000320056E04C0F6FF05C0F7FF000EF86E3F
:1063E0000F0EF76405D0F56A0D00F56A0C0006D0B3
:1063F000F6CFE9FFF7CFEAFFEE6AEF6A340E022428
:10640000046E000E0320056E04C0F6FF05C0F7FF02
:10641000000EF86E0F0EF76403D0F56A0C0005D07D
:10642000F6CFE9FFF7CFEAFFEF6A350E0224046EDC
:10643000000E0320056E04C0F6FF05C0F7FF000E36
:10644000F86E0F0EF76403D0F56A0C0005D0F6CF96
:10645000E9FFF7CFEAFFEF6A02C0F6FF03C0F7FFDC
:10646000000EF86E0F0EF76405D0F56A0D00F56AA0
:106470000C0006D0F6CFE9FFF7CFEAFFEE6AEF6A2D
:10648000360E0224046E000E0320056E04C0F6FFD3
:1064900005C0F7FF000EF86E0F0EF76404D0010E72
:1064A000F56E0C0006D0F6CFE9FFF7CFEAFF010E3C
:1064B000EF6E12008E0E08EC41F0000178BF120062
:1064C000785104E1F10E775DD8A0120043EC45F05D
:1064D00003C085F004C086F00001850503E1020ECB
:1064E0008619D8A412000B6A020E0A6E8DEC42F0D7
:1064F000C6EC43F003C081F004C082F005C083F015
:1065000006C084F0500E0001811909E1480E82197D
:1065100006E1430E831903E14D0E8419D8A412003D
:106520000B6A080E0A6E8DEC42F0C6EC43F003C015
:1065300095F004C096F005C097F006C098F00001F1
:106540009551796F7A6B96517B6F7C6B97517D6F0C
:106550007E6B98C07FF0806B0B6A080E0A6E8DEC24
:1065600042F0880E036E046A066A060E056E90EC11
:1065700040F08E0E026E046A060E036E880E67EC03
:1065800042F00250031001E0C3D00B6ACA0E0A6E3B
:106590008DEC42F0C6EC43F0630E031809E1530E94
:1065A000041806E1820E051803E1630E0618D8A44C
:1065B00012000001100E7727FF0E78239AD09BEC73
:1065C00046F00001876F9BEC46F00001946F9451F8
:1065D000586E596A020E5826000E59225850775F9D
:1065E0005950785B78D0C6EC43F003C0BBF104C0CF
:1065F000BCF105C0BDF106C0BEF17BD0C6EC43F0D6
:1066000003C020F204C021F205C022F206C023F22A
:1066100070D0030E94656DD0C6EC43F003C010F249
:1066200004C011F205C012F206C013F2040E0001FC
:10663000945F030E94655DD0C6EC43F003C014F282
:1066400004C015F205C016F206C017F2040E0001D0
:10665000945F4FD0030E94654CD0C6EC43F003C05A
:10666000B3F104C0B4F105C0B5F106C0B6F1EED780
:10667000C6EC43F003C01CF204C01DF205C01EF2BC
:1066800006C01FF2E3D795C0B7F196C0B8F197C026
:10669000B9F198C0BAF1040E0BD095C0B7F196C00D
:1066A000B8F197C0B9F198C0BAF1050E01D0010E4A
:1066B0005D6E08D09BEC46F0020AE5E0070AEDE0CB
:1066C000030AF5E00001940714D094C00AF00B6AA5
:1066D0008DEC42F00ED08751010A85E0020A8EE06F
:1066E000050A97E0350AB6E0060AE4E0030AC0E0CE
:1066F000ECD7000178BF05D0785102E17705D8B01A
:106700005ED7040E5D18D8A41200030EAAEF35F070
:10671000DE0E000177250A6EFF0E78210B6E8DEFDD
:1067200042F00101ACBB030CFF0EDFEC45F00C6E38
:106730000CB6040C1A0E066E230E056E040E3AEC0F
:1067400044F01A0E066E230E056E020E3AEC44F06B
:106750000101C66BC76B8C967A0ECDEC46F0000E2D
:10676000CDEC46F008C0F6FF09C0F7FF000EF86E4A
:106770000F0EF76403D00800F55005D0F6CFE9FFFF
:10678000F7CFEAFFEF50CDEC46F008280C6E000E74
:1067900009200D6E0CC0F6FF0DC0F7FF000EF86E5D
:1067A0000F0EF76403D00800F55005D0F6CFE9FFCF
:1067B000F7CFEAFFEF50CDEC46F0020E08240C6E46
:1067C000000E09200D6E0CC0F6FF0DC0F7FF000E85
:1067D000F86E0F0EF76403D00800F55005D0F6CF21
:1067E000E9FFF7CFEAFFEF50CDEC46F0030E0824A7
:1067F0000C6E000E09200D6E0CC0F6FF0DC0F7FFE9
:10680000000EF86E0F0EF76403D00800F55005D0A7
:10681000F6CFE9FFF7CFEAFFEF50CDEC46F0040EDC
:1068200008240C6E000E09200D6E0CC0F6FF0DC082
:10683000F7FF000EF86E0F0EF76403D00800F55056
:1068400005D0F6CFE9FFF7CFEAFFEF50CDEC46F0E9
:10685000050E08240C6E000E09200D6E0CC0F6FF0C
:106860000DC0F7FF000EF86E0F0EF76403D008009E
:10687000F55005D0F6CFE9FFF7CFEAFFEF50CDECAA
:1068800046F0C3C1F6FFC4C1F7FFC5C1F8FF080059
:10689000F550CDEC46F0010E0101C325F66E000E59
:1068A000C421F76E000EC521F86E0800F550CDEC3E
:1068B00046F0020E0101C325F66E000EC421F76EEC
:1068C000000EC521F86E0800F550CDEC46F0030E21
:1068D0000101C325F66E000EC421F76E000EC5211E
:1068E000F86E0800F550CDEC46F0040E0101C3250A
:1068F000F66E000EC421F76E000EC521F86E08007A
:10690000F550CDEC46F0050E0101C325F66E000EE4
:10691000C421F76E000EC521F86E0800F550CDECCD
:1069200046F00B50CDEC46F00A50CDEC46F08C868C
:106930000F0E0101C627000EC723AC8B010C01010D
:10694000AC91AC95AC99AC9BAF6BB06BD46BD00EEB
:1069500000D0E82EFDD700F0E0EC46F0880E106E77
:10696000460EE82EFED7102EFCD700D0FD0EDFEC31
:1069700045F0106E10A0FAD70101CC6BCD6B800EE4
:10698000056EFE0E1CEC46F01A0E066E230E056E0A
:10699000040E3AEC44F01F0E066E0568060E3AEC43
:1069A00044F0066A056A080E3AEC44F01A0E066EC8
:1069B000210E056E0A0E3AEC44F0CCC105F0CDC1B3
:1069C00006F0000E3AEC44F0000E066A056A3AEC56
:1069D00044F01A0E066E230E056E020E3AEC44F0D9
:1069E000A90E056E580EFEEC45F0F4EC46F0106E64
:1069F00010C0C3F10101C351D8A4100EC46FC4511B
:106A0000D8A4000EC56F0D0E056E800EFEEC45F08D
:106A1000220E056E820EFEEC45F0400E056E830ED2
:106A2000FEEC45F00C0E066E120E056E860E3AEC6C
:106A300044F0120E056E840EFEEC45F0050E066E57
:106A4000DC0E056E8A0E3AEC44F0C3C1F6FFC4C1F9
:106A5000F7FFC5C1F8FF0800F5CF05F0C40EFEEC46
:106A600045F000F0010E0101C325F66E000EC421B1
:106A7000F76E000EC521F86E0800F5CF05F0C50EC3
:106A8000FEEC45F000F0020E0101C325F66E000E8B
:106A9000C421F76E000EC521F86E0800F5CF05F091
:106AA000C20EFEEC45F000F0030E0101C325F66EA8
:106AB000000EC421F76E000EC521F86E0800F5CF58
