:040000001DEF00F000
:060008004982DDEF31F03A
:100018004980D8CF14F0E8CF15F0E0CF16F082EC85
:100028002FF016C0E0FF15C0E8FF14C0D8FF4990B4
:0600380010008AEF2DF01C
:101000000001000A006400E803102701001000003E
:1010100001001050494331384639374A36302045AF
:10102000544845524E455400FFFFFFFFFFFF00DECE
:10103000AD00BEEF44007E39000D0A0D0A53746105
:101040007274696E67205379736C6F6720617420C6
:1010500025750D0A00303132333435363738396171
:1010600062636465660057616974696E6720666FC4
:1010700072204C696E6B00444D412054494D454FE0
:101080005554212121004C696E6B20737461727478
:1010900065640025642E25642E25642E25640025B4
:1010A00075203A2025730D0A002578203A20256402
:1010B00000286E756C6C2900000001010C6B2A0E73
:1010C0003F245AEC11F0F76403D00800F55003D028
:1010D00066EC11F0EF500101106F2B0E3F245AEC1B
:1010E00011F0F76403D00800F55003D066EC11F05E
:1010F000EF5001010F6F12EF11F0020E3F245AEC76
:1011000011F0F7640DD03BC0F5FF0D003CC0F5FFBA
:101110000D003DC0F5FF0D003EC0F5FF0C000AD0EC
:1011200066EC11F03BC0EEFF3CC0EEFF3DC0EEFFB1
:101130003EC0EFFF18EC12F05AEC11F0F76407D044
:10114000D4C1F5FF0D00D5C1F5FF0C0006D066EC4B
:1011500011F0D4C1EEFFD5C1EFFF4FEC12F05AEC05
:1011600011F0F76407D0F56A0D00F56A0D00D2ECB6
:1011700011F004D066EC11F046EC12F0CEEC11F058
:101180005AEC11F0F76403D0F1EC11F004D066ECE6
:1011900011F05CEC12F0CEEC11F05AEC11F0F764A7
:1011A00003D06FEC11F004D066EC11F090EC11F06C
:1011B00082EC11F00C0E0BEC12F0F76403D0FEEC95
:1011C00011F004D066EC11F053EC12F099EC11F030
:1011D000F76403D020EC12F004D066EC11F077EC49
:1011E00012F0CAEC11F05AEC11F0F76403D088EC5D
:1011F00012F004D066EC11F093EC12F06BEC11F0ED
:101200005AEC11F0F76404D0120EF56E0C0004D005
:1012100066EC11F0120EEF6EEDEC11F05AEC11F0DD
:10122000F76403D03BEC12F004D066EC11F08FECC5
:1012300012F0E9EC11F05AEC11F0F76403D03BEC3A
:1012400012F004D066EC11F08FEC12F0C6EC11F045
:101250005AEC11F0F76404D0030EF56E0C0004D0C4
:1012600066EC11F0030EEF6E41EC12F0ACEC12F0F4
:10127000030E19EF10F00101106B3FC017F040C0D2
:1012800018F0C2EC21F03DEF11F001010F51F3E035
:10129000030A01E132D73DEF11F0080E3F245AEC6A
:1012A00011F0F76403D0F1EC11F004D066EC11F00A
:1012B0005CEC12F0D7EC11F0B9EC11F0F76405D04A
:1012C00027EC12F020EC12F004D066EC11F065EC83
:1012D00012F099EC11F0F76403D020EC12F004D076
:1012E00066EC11F077EC12F0CAEC11F05AEC11F048
:1012F000F76403D088EC12F004D066EC11F093ECA4
:1013000012F0EDEC11F05AEC11F0F76403D03BEC65
:1013100012F004D066EC11F08FEC12F0E9EC11F051
:101320005AEC11F0F76403D03BEC12F004D066ECF9
:1013300011F08FEC12F0C6EC11F05AEC11F0F764DA
:1013400004D0030EF56E0C0004D066EC11F0030E11
:10135000EF6E6BEC11F05AEC11F0F76404D0120E42
:10136000F56E0C0004D066EC11F0120EEF6E7CD717
:10137000300E3F245AEC11F0F76403D0D2EC11F098
:1013800004D066EC11F0EE6AEF6AE5EC11F05AEC6D
:1013900011F0F76403D06FEC11F004D066EC11F09B
:1013A00090EC11F082EC11F0DC5106197EE1DD5178
:1013B00007197BE1DE51081978E1DF510919D8A43A
:1013C00074D0100E3F245AEC11F0F76403D06FEC88
:1013D00011F004D066EC11F090EC11F082EC11F0F9
:1013E000100E0BEC12F0F76403D0FEEC11F004D0F9
:1013F00066EC11F053EC12F06BEC11F05AEC11F0BA
:10140000F76404D0100EF56E0C0004D066EC11F0F9
:10141000100EEF6ECEEC11F05AEC11F0F76403D021
:10142000F1EC11F004D066EC11F05CEC12F0D7ECAA
:1014300011F0B9EC11F0F76405D027EC12F020ECB4
:1014400012F004D066EC11F065EC12F099EC11F09A
:10145000F76403D020EC12F004D066EC11F077ECC6
:1014600012F0CAEC11F05AEC11F0F76403D088ECDA
:1014700012F004D066EC11F093EC12F041EC12F093
:10148000ACEC12F0000902E13DEF11F0040E010195
:101490001CEC12F05AEC11F0F76404D0030EF56E58
:1014A0000C0001D068D23DEF11F0100E3F245AEC31
:1014B00011F0F76403D02EEC12F004D066EC11F0BA
:1014C0006EEC12F06BEC11F05AEC11F0F76404D0F2
:1014D000140EF56E0C0004D066EC11F0140EEF6ED5
:1014E00041EC12F0ACEC12F0000901E0C4D63DEF83
:1014F00011F0300E3F245AEC11F0F76403D0D2EC17
:1015000011F004D066EC11F0EE6AEF6AE5EC11F030
:101510005AEC11F0F76403D06FEC11F004D066ECD4
:1015200011F090EC11F082EC11F0DC51061976E12B
:10153000DD51071973E1DE51081970E1DF51091916
:10154000D8A46CD0100E3F245AEC11F0F76403D0ED
:101550006FEC11F004D066EC11F090EC11F082EC1D
:1015600011F0100E0BEC12F0F76403D0FEEC11F04A
:1015700004D066EC11F053EC12F06BEC11F05AEC65
:1015800011F0F76404D0100EF56E0C0004D066EC78
:1015900011F0100EEF6ECEEC11F05AEC11F0F76472
:1015A00003D0F1EC11F004D066EC11F05CEC12F019
:1015B000D7EC11F0B9EC11F0F76405D027EC12F07C
:1015C00020EC12F004D066EC11F065EC12F099EC0E
:1015D00011F0F76403D020EC12F004D066EC11F0A7
:1015E00077EC12F0CAEC11F05AEC11F0F76403D06A
:1015F00088EC12F004D066EC11F093EC12F0040EBB
:1016000001011CEC12F05AEC11F0F76404D0030E47
:10161000F56E0C0001D0AFD13DEF11F0100E3F245C
:101620005AEC11F0F76403D02EEC12F004D066EC03
:1016300011F06EEC12F06BEC11F05AEC11F0F76453
:1016400004D0040EF56E0C0004D066EC11F0040E0C
:10165000EF6E41EC12F0ACEC12F046D7340E3F24A2
:101660005AEC11F0F76403D00800F55003D066EC93
:1016700011F0EF50000937E041EC12F0ACEC12F041
:10168000000902E13DEF11F06BEC11F05AEC11F0A2
:10169000F76403D00800F55003D066EC11F0EF506A
:1016A0000101026F02B5E7D5350E3F245AEC11F067
:1016B000F76403D00800F55003D066EC11F0EF504A
:1016C0000101026F02A93DEF11F0040E1CEC12F0B3
:1016D0005AEC11F0F76404D0030EF56E0C0001D043
:1016E0004AD13DEF11F06BEC11F05AEC11F0F764B8
:1016F00004D0040EF56E0C0004D066EC11F0040E5C
:10170000EF6E41EC12F0ACEC12F0EED601010F518D
:1017100001E1B1D5030A01E1C0D5070A01E1E9D62B
:10172000010A01E125D60C0A01E1A5D5030A01E170
:10173000A2D5060A93E03DEF11F098EC12F0F764A1
:1017400003D0A0EC12F004D066EC11F0A7EC12F07C
:101750000101D651001903E1D7510119D8A43DEF79
:1017600011F0300E3F245AEC11F0F76403D0D2ECA4
:1017700011F004D066EC11F0EE6AEF6A7CEC12F026
:101780005AEC11F0F76403D06FEC11F004D066EC62
:1017900011F090EC11F03B50010102193DE13C5079
:1017A00003193AE13D50041937E13E50051934E17F
:1017B000060E3F245AEC11F0F76404D009007CECCB
:1017C00011F006D066EC11F0EECF02F1EECF03F18E
:1017D0000101D451021920E1D55103191DE1100E68
:1017E0003F245AEC11F0F76403D06FEC11F004D0F1
:1017F00066EC11F090EC11F082EC11F0DC5106195E
:101800000BE1DD51071908E1DE51081905E1DF514F
:10181000091902E1040E106F360E3F245AEC11F044
:10182000F76404D0030EF56E0C0001D0A4D03DEF98
:1018300011F0020E3F245AEC11F0F76403D06FEC64
:1018400011F004D066EC11F090EC11F03B50010166
:10185000021909E13C50031906E13D50041903E166
:101860003E500519D8A43DEF11F0060E3F245AEC66
:1018700011F0F76404D009007CEC11F006D066EC9E
:1018800011F0EECF02F1EECF03F10101D4510219B4
:1018900003E1D5510319D8A43DEF11F00C0E3F24FC
:1018A0005AEC11F0F76403D06FEC11F004D066EC41
:1018B00011F090EC11F00101D851021909E1D95150
:1018C000031906E1DA51041903E1DB510519D8A423
:1018D0003DEF11F0100E3F245AEC11F0F76403D0E5
:1018E0006FEC11F004D066EC11F090EC11F082EC8A
:1018F00011F0DC51061909E1DD51071906E1DE514D
:10190000081903E1DF510919D8A43DEF11F0100EB9
:101910003F245AEC11F0F76403D06FEC11F004D0BF
:1019200066EC11F090EC11F082EC11F0100E0BEC63
:1019300012F0F76403D0FEEC11F004D066EC11F065
:1019400053EC12F0EDEC11F05AEC11F0F76403D007
:10195000D2EC11F004D066EC11F0EE6AEF6A040EDE
:1019600001011CEC12F05AEC11F0F76404D0030EE4
:10197000F56E0C0004D066EC11F0030EEF6E3DEF37
:1019800011F0300E3F245AEC11F0F76403D0D2EC82
:1019900011F004D066EC11F0EE6AEF6A6BEC11F016
:1019A0005AEC11F0F76404D0010EF56E0C0004D06F
:1019B00066EC11F0010EEF6EEDEC11F05AEC11F047
:1019C000F76403D03BEC12F004D066EC11F08FEC1E
:1019D00012F0E9EC11F05AEC11F0F76403D03BEC93
:1019E00012F004D066EC11F08FEC12F0C6EC11F09E
:1019F0005AEC11F0F76404D0050EF56E0C0004D01B
:101A000066EC11F0050EEF6E050E0101106F41EC52
:101A100012F0ACEC12F03DEF11F098EC12F0F7641C
:101A200003D0A0EC12F004D066EC11F0A7EC12F099
:101A30000101D651001903E1D7510119D8A43DEF96
:101A400011F00C0E3F245AEC11F0F76403D06FEC48
:101A500011F004D066EC11F090EC11F00101D851B6
:101A6000021909E1D951031906E1DA51041903E118
:101A7000DB510519D8A43DEF11F0020E3F245AECBA
:101A800011F0F76407D0F56A0D00F56A0D00D2EC8D
:101A900011F004D066EC11F046EC12F018EC12F0E4
:101AA0005AEC11F0F76403D0D2EC11F004D066ECDC
:101AB00011F0EE6AEF6AE5EC11F0FCDBF76407D099
:101AC000F56A0D00F56A0D00D2EC11F003D0FEDBD3
:101AD00046EC12F04FEC12F0EDDBF76407D0F56A3C
:101AE0000D00F56A0D00D2EC11F003D0EFDB46ECEF
:101AF00012F0CEEC11F0DEDBF76407D0F56A0D00D2
:101B0000F56A0D00D2EC11F003D0E0DB46EC12F0E8
:101B10004BEC12F0CFDBF76407D0F56A0D00F56AE5
:101B20000D00D2EC11F003D0D1DB46EC12F084ECC6
:101B300012F0C0DBF76403D0D2EC11F003D0C6DBA7
:101B4000EE6AEF6ACAEC11F0B5DBF76403D0D2ECB1
:101B500011F003D0BBDBEE6AEF6A010E6AD2340EDD
:101B60003F24A8DBF76403D00800F55002D0AEDBB9
:101B7000EF50000901E04BD7AEDB9CDBF76404D0EB
:101B8000040EF56E0C0003D0A1DB040EEF6E41ECE9
:101B900012F0ACEC12F0000901E16FD37CEC12F012
:101BA00089DBF76406D0F56A0D00F56A0D00FADBF3
:101BB00003D08CDB46EC12F018EC12F07BDBF76400
:101BC00002D0F0DB03D082DBEE6AEF6AFEDB72DB71
:101BD000F76406D0F56A0D00F56A0D00E3DB03D06B
:101BE00075DB46EC12F04FEC12F064DBF76406D0C4
:101BF000F56A0D00F56A0D00D5DB03D067DB46EC16
:101C000012F0CCDB57DBF76406D0F56A0D00F56AFD
:101C10000D00C8DB03D05ADB46EC12F04BEC12F09F
:101C200049DBF76406D0F56A0D00F56A0D00BADBF2
:101C300003D04CDB46EC12F084EC12F03BDBF76493
:101C400002D0B0DB03D042DBEE6AEF6AA3DB32DB0B
:101C5000F76402D0A7DB03D039DBEE6AEF6A7DD7E9
:101C600001010F5101E18DD6040A01E1E2D5010A1B
:101C700001E163D50C0A01E1D0D6030A01E1CDD61A
:101C8000060A01E16CD7F9D2020E3F2413DBF76498
:101C900002D025DB02D01ADB43DB3B5001010219E5
:101CA00009E13C50031906E13D50041903E13E509F
:101CB0000519D8A4E2D20C0E3F24FCDAF76402D056
:101CC0000EDB02D003DB2CDB0101D851021909E144
:101CD000D951031906E1DA51041903E1DB51051961
:101CE000D8A4CBD2140E3F24E5DAF76402D0F7DA99
:101CF00002D0ECDA15DB0101DC51025DDD51035944
:101D0000DE510459DF51055901E3B7D2100E3F24CB
:101D1000D1DAF76402D0E3DA02D0D8DA01DBF2DA02
:101D2000DC51065DDD510759DE510859DF51095973
:101D300001E2A3D0100E3F24BDDAF76403D00900FE
:101D4000DBDA05D0C3DAEECF02F1EECF03F1010109
:101D5000DC51025D0D6FDD5103590E6F250E3F24DE
:101D6000A9DAF76403D00900C7DA05D0AFDAEECFFD
:101D700002F1EECF03F101010D51025F0E51035B41
:101D8000250EF7DAF76402D05BDB02D09FDAAFDB17
:101D9000B7DB90DAF76403D00900AEDA05D096DA43
:101DA000EECF02F1EECF03F101010D5102270E51EA
:101DB0000323270EDEDAF76402D042DB02D086DA94
:101DC00096DB9EDB77DAF76403D0090095DA05D05D
:101DD0007DDAEECF02F1EECF03F1010102510311E2
:101DE00017E1290E3F2466DAF76403D00800F550A6
:101DF00002D06CDAEF50020A0BE1290E3F240101F8
:101E000059DAF76403D0F56A0C0002D05FDAEF6AA2
:101E100021EEDCF0FF0EDE240101006FFF0EDE205C
:101E2000016FFF0EDE20026FFF0EDE20036F140E27
:101E3000A0DAF76403D00BDB03DB02D047DA45DB23
:101E4000C4DA38DAF76402D009DB02D03FDA46DBC5
:101E50000101D251D31101E110D2080E3F242ADA38
:101E6000F76402D0BEDA02D031DA26DBD2C1EEF05E
:101E7000D3C1EFF01DEC1FF000D2350E3F241ADA6B
:101E8000F76404D0140EF56E0C0003D01FDA140EA4
:101E9000EF6EF7DAACEC12F074EF0AF0350E3F2477
:101EA00009DAF76404D0010EF56E0C0003D00EDAE7
:101EB000010EEF6EA9D5100E3F24FCD9F76402D0B5
:101EC000CDDA02D003DA0ADBE6DAF4D9F76402D01D
:101ED00006DA02D0FBD924DA15DA0C0E9CDAF764A4
:101EE00002D08CDA02D0F2D9DEDA360E3F240101BC
:101EF000E1D9F76404D0040EF56E0C0003D0E6D9E6
:101F0000040EEF6E6ADAD6D9F76402D0B4DA02D0E2
:101F1000DDD905DB5EDACED9F76402D0ACDA02D0C7
:101F2000D5D9FDDA33DAC6D9F76404D0050EF56EDB
:101F30000C0003D0CBD9050EEF6ECDD9BBD9F76419
:101F400004D0110EF56E0C0003D0C0D9110EEF6E47
:101F5000090E5BD5340E3F24ADD9F76403D00800D9
:101F6000F55002D0B3D9EF50000901E050D5B3D9F4
:101F7000A1D9F76404D0040EF56E0C0003D0A6D9E5
:101F8000040EEF6E7EDAACEC12F074EF0AF0010191
:101F90000F5184E0040A01E177D6020A8CE0010ABD
:101FA0008AE00E0A02E13BEF09F0030A02E13BEF8F
:101FB00009F0060ACFE061D1350E3F247BD9F764E2
:101FC00004D0100EF56E0C0003D080D9100EEF6E09
:101FD00058DAACEC12F0000901E14FD1080E29D01B
:101FE000300E3F2467D9F76402D045DA02D06ED9AB
:101FF00096DACCD95FD9F76404D0010EF56E0C00E7
:1020000003D064D9010EEF6E060E13D0350E3F24B7
:1020100051D9F76404D0100EF56E0C0003D056D9D8
:10202000100EEF6E2EDAACEC12F0000901E125D1B2
:102030000A0E0101106F21D1340E3F243BD9F76401
:1020400003D00800F55002D041D9EF50000901E05B
:10205000DED441D92FD9F76404D0040EF56E0C00FC
:1020600003D034D9040EEF6E0CDAACEC12F074EF3E
:102070000AF001010F51040AB3E0020A9DE0010ACF
:10208000C5E00B0AD9E0F9D0FCD9ACEC12F0CDD701
:10209000340E3F240FD9F76403D00800F55002D066
:1020A00015D9EF50000901E0B2D415D903D9F7646E
:1020B00004D0040EF56E0C0003D008D9040EEF6EA8
:1020C000E0D9ACEC12F074EF0AF001010F51060AEE
:1020D000DBE00A0ADDE0D1D001010F51040AA8E0DB
:1020E000CCD0020E3F24E6D8F76402D0F8D802D054
:1020F000EDD816D93B500101021909E13C500319F2
:1021000006E13D50041903E13E500519D8A4B5D0AD
:10211000060E3F24CFD8F76403D00900EDD805D0D0
:10212000D5D8EECF02F1EECF03F10101D45102195F
:1021300003E1D55103199ED0A0D0340E3F24BAD864
:10214000F76403D00800F55002D0C0D8EF50000962
:1021500001E05DD4C0D8AED8F76404D0040EF56EAB
:102160000C0003D0B3D8040EEF6E8BD9ACEC12F098
:1021700074EF0AF001010F51040AB3E0030AB1E061
:102180000B0ADBE07AD0300E3F2494D8F76402D0FB
:1021900072D902D09BD8C3D91CD98CD8F76402D08D
:1021A0006AD902D093D8BBD9F1D884D8F76404D0C7
:1021B000030EF56E0C0003D089D8030EEF6E8BD89A
:1021C00079D8F76404D0020EF56E0C0003D07ED8E7
:1021D000020EEF6E56D9ACEC12F0020E0101106F38
:1021E000010E0C6F4AD0020E3F2464D8F76406D06B
:1021F000F56A0D00F56A0D00D5D802D067D846D92A
:1022000017D958D8F76402D0CDD803D05FD8EE6A7A
:10221000EF6A010EE3D701010F51010AB4E0030A8E
:10222000E2E02BD02A0E3F2445D8F76403D0080003
:10223000F55002D04BD8EF50000AEDE0010A02E160
:1022400045EF09F0030A02E186EF0BF0010A01E114
:1022500007D5070A01E19BD6010A01E10AD7030A63
:1022600001E133D7010A09E00F0A01E135D7010A7C
:1022700081E0030A02E13BEF09F02B0E3F2401014C
:1022800019D8F76404D00D0EF56E0C0003D01ED8DB
:102290000D0EEF6E2A0E3F2401010CD8F76404D016
:1022A00010C1F5FF0C0003D011D810C1EFFF0101E0
:1022B0000C511200006F000E4020016F00C1F6FFAC
:1022C00001C1F7FF000EF86E0F0E1200F6CFE9FF06
:1022D000F7CFEAFF1200350E3F240101120009007A
:1022E000F5CF02F10900F5CF03F10900F5CF04F1B4
:1022F0000900F5CF05F11200F5CF02F10900F5CF85
:1023000003F11200010E01010225066F000E0321E8
:10231000076F000E0421086F000E0521096F1200DF
:10232000EECF02F1EECF03F1EECF04F1EECF05F1E7
:1023300012000101E251016F006B21EEE2F0DECFED
:1023400002F1DDCF03F103C102F1036B036B005116
:10235000021301510313180E3F24046F000E402096
:10236000056F04C1F6FF05C1F7FF000EF86E0F0EF2
:1023700012003F24046F000E4020056F04C1F6FFD9
:1023800005C1F7FF000EF86E0F0E1200340E3F2449
:10239000010112001C0E3F2401011200080E3F240F
:1023A00001011200F56A0D00F56A0C001200010E21
:1023B0000101D825006F000ED921016F000EDA212E
:1023C000026F000EDB21036F0C0C100E3F24010185
:1023D0001200320E3F2401011200300E3F24010191
:1023E0001200D8C1F5FF0D00D9C1F5FF0D00DAC10B
:1023F000F5FF0D00DBC1F5FF0C00120006C1F5FF73
:102400000D0007C1F5FF0D0008C1F5FF0D0009C162
:10241000F5FF0C0012003F240A6F000E40200B6FE6
:102420000AC1F6FF0BC1F7FF000EF86E0F0E120087
:10243000060E3F2401011200106F360E3F241200D9
:1024400002C1F5FF0D0003C1F5FF0C00120000C131
:10245000F5FF0D0001C1F5FF0D001200DCC1F5FF15
:102460000D00DDC1F5FF0D00DEC1F5FF0D00DFC180
:10247000F5FF0C001200020EF56E0D00F56A0C005F
:10248000020C3FC09FF040C0A0F01200EE6AEE6A5E
:10249000EE6AEF6A12000C0E3F2401011200140EC6
:1024A0003F240101120006C1EEFF07C1EEFF08C183
:1024B000EEFF09C1EFFF1200D8C1EEFFD9C1EEFF58
:1024C000DAC1EEFFDBC1EFFF120000C1EEFF01C178
:1024D000EEFF02C1EEFF03C1EFFF1200DCC1EEFF11
:1024E000DDC1EEFFDEC1EEFFDFC1EFFF120002C172
:1024F000EEFF03C1EFFF1200020E3F2401011200A4
:10250000270E3F2401011200180E3F240101120082
:1025100045C0F5FF0D0046C0F5FF0C001200020E8D
:10252000EE6EEF6A020C45C0EEFF46C0EFFF1200F0
:102530003FC0F6FF40C0F7FF000EF86E0F0E12000E
:102540000900F5CF00F10900F5CF01F11200EECF3F
:1025500000F1EECF01F112005CDBF76407D0090057
:10256000F5CFA1F00900F5CFA2F006D066EC11F08E
:10257000EECFA1F0EECFA2F00001A151A46FA36BAA
:1025800048DBF76402D09ADA03D066EC11F034DB52
:10259000A6C0A5F00001A66BA66BA351A511DA6F2A
:1025A000A451A611DB6F060E2BDAF76402D05FDAB6
:1025B00003D066EC11F06FDA4DDB060E94DAF764A7
:1025C00002D036DB03D066EC11F049DB1ADBDC6F9E
:1025D000A651AA11DD6F100E13DAF76403D047DAA3
:1025E0006DDA04D066EC11F056DA06DBD7DA100E9D
:1025F00045DAF76402D091DA03D066EC11F0E1DA43
:1026000064DA100E7DDAF76402D094DA03D066EC57
:1026100011F0E0DA45DA100EA7DAF76402D097DAA3
:1026200003D066EC11F0DFDAF8D9DE6FA851CE11D5
:10263000DF6FA951CF11E06FAA51D011E16F0C0EDD
:10264000DFD9F76403D013DA39DA04D066EC11F07D
:1026500022DAD2DAA3DA0C0E11DAF76402D05DDAEC
:1026600003D066EC11F0ADDA30DA0C0E49DAF7641B
:1026700002D060DA03D066EC11F0ACDA11DA0C0E9D
:1026800073DAF76402D063DA03D066EC11F0ABDAE8
:10269000C4D9E26FA851CE11E36FA951CF11E46FF5
:1026A000AA51D011E56FE691F10EE617E6510F0B36
:1026B0005009E66F1A0EA4D9F76402D0D8D903D016
:1026C00066EC11F0E8D9C6DA1A0E0DDAF76402D01A
:1026D000AFDA03D066EC11F0C2DA93DAE86FA651F4
:1026E000AA11E96FEA6BEB6BEC6BED6B350E88D9D9
:1026F000F76403D00800F55003D066EC11F0EF50FA
:102700000001A36F060EA31703E0D86BD96B94D01A
:10271000270E76D9F76402D04DDA03D066EC11F0BB
:102720008EDA0001D851D91101E186D0180E68D98E
:10273000F76402D09CD903D066EC11F0ACD984DAEE
:1027400009E2180E5DD9F76402D034DA03D066ECE2
:1027500011F075DA1C0E000153D9F76402D087D945
:1027600003D066EC11F097D96FDA09E21C0E48D954
:10277000F76402D01FDA03D066EC11F060DA250EA0
:1027800000013ED9F76407D00900F5CFD1F0090068
:10279000F5CFD2F006D066EC11F0EECFD1F0EECF4F
:1027A000D2F0250E00012CD9F76402D060D903D0F5
:1027B00066EC11F070D90001D851A327D951A42398
:1027C000250EDFD9F76402D02CDA03D066EC11F0C5
:1027D0004FDA270E000114D9F76402D048D903D08C
:1027E00066EC11F058D90001D851A35FD951A45B10
:1027F000270EC7D9F76402D014DA03D066EC11F0C3
:1028000037DA270E0001FCD8F76402D030D903D0A4
:1028100066EC11F040D90001A351A4110DE1350E71
:10282000EFD8F76405D0080E0800F5120C0004D0AC
:1028300066EC11F0080EEF12350E0001E1D8F764D6
:1028400003D00800F55003D066EC11F0EF50000102
:10285000E76F140ED825D56F000ED921D66F020E62
:10286000CFD8F7640DD00900F5CF22F00900F5CFDD
:1028700023F00900F5CF24F00900F5CF25F00AD0A8
:1028800066EC11F0EECF22F0EECF23F0EECF24F085
:10289000EECF25F0060E266E01EC21F0D76FD75152
:1028A00039E0DA0E176E186AE8D922EC2EF0000132
:1028B000D851D9110AE0D1C017F0D2C018F0D8C051
:1028C00019F0D9C01AF022EC2EF0060E0001D52521
:1028D000D36F000ED621D46FC7D9D525276E000E31
:1028E000D621286ED3C029F0D4C02AF01BEC2AF0E0
:1028F00025C0D3F026C0D4F09AEC2BF0320E196E1E
:10290000D30ED6EC2EF0D5C031F0D6C032F067EC45
:102910002BF0D76FD7513EE1340E72D8F76403D055
:102920000800F55003D066EC11F0EF500001A36FE2
:10293000A32B340E9F25A46F000EA021A56FA4C069
:10294000F6FFA5C0F7FF000EF86E0F0EF76404D077
:10295000A3C0F5FF0C0004D066EC11F0A3C0EFFF9C
:10296000300E00014DD8F76402D081D803D066EC58
:1029700011F091D80001A351A4113FE1300E40D8CD
:10298000F76403D03BEC12F004D066EC11F08FEC4E
:1029900012F033D0100E34D8F76403D068D88ED834
:1029A00004D066EC11F077D827D90001D851A325BF
:1029B000A76FD951A421A86F000EA521A96F000E01
:1029C000A621AA6F100E5AD8F7640DD0A7C0F5FF44
:1029D0000D00A8C0F5FF0D00A9C0F5FF0D00AAC0AD
:1029E000F5FF0C000AD066EC11F0A7C0EEFFA8C0FE
:1029F000EEFFA9C0EEFFAAC0EFFF0001D751120001
:102A00009F25A16F000EA021A26FA1C0F6FFA2C05A
:102A1000F7FF000EF86E0F0E12000001C56BC66BBB
:102A2000C76BC451C86F190E05D0D890C833C733CF
:102A3000C633C533E82EF9D7BB51C511C96FBC5198
:102A4000C611CA6FBD51C711CB6FBE51C811CC6F33
:102A5000B151C911CD6FB251CA11CE6FB351CB1163
:102A6000CF6FB451CC11D06FA751CD111200090016
:102A7000F5CFA3F00900F5CFA4F012009F25AB6FAE
:102A8000000EA021AC6FABC0F6FFACC0F7FF000E8C
:102A9000F86E0F0E1200EECFA3F0EECFA4F01200EE
:102AA000B8C0B7F0B9C0B8F0BAC0B9F00001BA6B9D
:102AB000BB6BB851BC6FBD6BBE6B12000900F5CF8C
:102AC000A5F00900F5CFA6F012000001B16BAE51E0
:102AD000B26FB36BB46BB3C0B4F0B2C0B3F0B1C0FB
:102AE000B2F0B16B12009F25A76F000EA021A86F56
:102AF000A7C0F6FFA8C0F7FF000EF86E0F0E120079
:102B00009F25B56F000EA021B66FB5C0F6FFB6C009
:102B1000F7FF000EF86E0F0E12000900F5CFADF0B2
:102B20000900F5CFAEF00900F5CFAFF00900F5CF01
:102B3000B0F012000900F5CFB7F00900F5CFB8F0FA
:102B40000900F5CFB9F00900F5CFBAF0120009007D
:102B5000F5CFC1F00900F5CFC2F00900F5CFC3F001
:102B60000900F5CFC4F012009F25BF6F000EA02111
:102B7000C06FBFC0F6FFC0C0F7FF000EF86E0F0EAB
:102B800012009F25A56F000EA021A66FA5C0F6FF1D
:102B9000A6C0F7FF000EF86E0F0E12000001A35141
:102BA000A76FA86BA96BAA6BA7C0AAF0A96BA86BAB
:102BB000A76B12000900F5CFD8F00900F5CFD9F0C6
:102BC0001200EECFADF0EECFAEF0EECFAFF0EECF25
:102BD000B0F01200EECFB7F0EECFB8F0EECFB9F014
:102BE000EECFBAF01200EECFC1F0EECFC2F0EECFD2
:102BF000C3F0EECFC4F01200EECFA5F0EECFA6F0FA
:102C00001200AAC0A9F00001AA6BAA6BA551A911D4
:102C100012009FC0F6FFA0C0F7FF000EF86E0F0E67
:102C20001200A3C0F5FF0D00A4C0F5FF0C001200B8
:102C30000900F5CFA9F00900F5CFAAF01200EECFF8
:102C4000D8F0EECFD9F012000001D851A35DD951D0
:102C5000A45912000001A351A66FA56B1200EECF7C
:102C6000A9F0EECFAAF01200266A1A0E256E080C03
:102C7000A3C0EEFFA4C0EFFF12001A6A140E196E73
:102C8000140C336B3B6A3C6A3D6A3E6AD26BD36B71
:102C9000D40E176E010ED9D90CEC2CF03F6A406AA5
:102CA000D651D711D8B41200D451D511D8B41200CE
:102CB000D451186F176BD551196F1A6B1751191121
:102CC000D46F18511A11D56FD651186F176B21EEAA
:102CD000D6F0DECF19F1DDCF1AF11AC119F11A6B56
:102CE0001A6B17511911D66F18511A11D76F43C0AB
:102CF00034F144C035F140D034C1F6FF35C1F7FF9F
:102D0000000EF86E0F0EF76407D00900F5CF17F12B
:102D10000900F5CF18F106D066EC11F0EECF17F1EF
:102D2000EECF18F101011751D61908E11851D71942
:102D300005E134C13FF035C140F028D02C0E3425D8
:102D4000176F000E3521186F17C1F6FF18C1F7FF76
:102D5000000EF86E0F0EF76407D00900F5CF34F1BE
:102D60000900F5CF35F106D066EC11F0EECF34F165
:102D7000EECF35F10101332B3451351107E03351DA
:102D8000800A176F4750800A175DB6E33F50401026
:102D9000D8B41200060EE6D8F76402D04AD903D0A0
:102DA00066EC11F04DD90101D451191903E1D55147
:102DB0001A191AE0020ED6D8F76408D03AD90900D9
:102DC000F5CF1BF10900F5CF1CF107D066EC11F02F
:102DD00037D9EECF1BF1EECF1CF1010119511A11B9
:102DE0001B111C11D8A4120011C13BF012C13CF000
:102DF00013C13DF014C13EF0E0390F0B176F186B93
:102E0000D89017371837D890173718371751155DDE
:102E1000D26F18511659D36FF9EC24F0E806D8A4F4
:102E20001200E1A31CD0E1A90DD02B0E9BD8F764B2
:102E300004D0050EF56E0C0004D066EC11F0050E02
:102E400048D057D02B0E8ED8F76404D0030EF56E01
:102E50000C0004D066EC11F0030E3BD04AD0E1A187
:102E60001CD0E1A90DD02B0E7DD8F76404D0070E3D
:102E7000F56E0C0004D066EC11F0070E2AD039D0A4
:102E80002B0E70D8F76404D0060EF56E0C0004D03B
:102E900066EC11F0060E1DD02CD0E1A51CD0E1A9E6
:102EA0000DD02B0E5FD8F76404D00A0EF56E0C001F
:102EB00004D066EC11F00A0E0CD01BD02B0E52D8A9
:102EC000F76404D0090EF56E0C0004D066EC11F026
:102ED000090EEF6E0ED0E1A90CD02B0E43D8F7648B
:102EE00004D0040EF56E0C0004D066EC11F0040E54
:102EF000EF6E0101DC5193D821EEDCF06FD8DCC11C
:102F00001FF1DDC120F1DEC121F1DFC122F17AD84C
:102F100021EEDCF034D8DC6F18513011DD6F19511F
:102F20003111DE6F1A513211DF6FD85178D821EE8E
:102F3000D8F054D8D8C11FF1D9C120F1DAC121F19C
:102F4000DBC122F15FD821EED8F019D8D86F185123
:102F50003011D96F19513111DA6F1A513211DB6FFB
:102F60005DEF08F03F24176F000E4020186F17C167
:102F7000F6FF18C1F7FF000EF86E0F0E1200DE14F8
:102F8000276F000EDE14286F000EDE14296FFF0E6F
:102F9000DE142A6F190E05D0D8902A33293328332E
:102FA0002733E82EF9D7235127112B6F24512811ED
:102FB0002C6F255129112D6F26512A112E6F1B516F
:102FC0002B112F6F1C512C11306F1D512D11316F92
:102FD0001E512E11326F17512F111200000EDE14E8
:102FE0001B6FFF0EDE141C6F000EDE141D6F000E33
:102FF000DE141E6F1DC11EF11CC11DF11BC11CF191
:103000001B6B120020C11FF121C120F122C121F14F
:10301000226B236B2051246F256B266B000C176FDE
:10302000186B196B1A6B17C11AF1196B186B176BA8
:1030300012000900F5CF19F10900F5CF1AF11200BD
:10304000EECF19F1EECF1AF11200186E1A6A140EB3
:10305000196E140C8A0E176E186A1A6A1C0E196EF5
:103060000CEC2CF017C080F018C081F01C0E000191
:1030700080198111D8A41200826B88D9080E866F3E
:1030800020EE06F07ED9DE5098191AE1DE5099192B
:1030900017E1DE509A1914E1DE509B1911E120EE80
:1030A0000AF06FD9DE508C190BE1DE508D1908E162
:1030B0004DD9DBCFE3FFE806FCE2010E826F07D0BB
:1030C0000D0E8827000E892386078651D9E1BDECB5
:1030D00021F0D8B41200A2512FD920EEA2F018D9B5
:1030E000A2C068F0A3C069F0A4C06AF0A5C06BF0EC
:1030F0003BD920EEA2F0D3D837507C1909E13850E3
:103100007D1906E139507E1903E13A507F19D8A4A0
:103110001200825149E13AD9000E846F030E856F87
:10312000080E876F20EE0CF08451D9268551DA22E3
:1031300010EE0CF08851E1268951E222DE50E65C67
:1031400004E284C088F085C089F00D0E8427000E4B
:10315000852387078751E6E1F9D8DBCFE3FFE8064F
:10316000FCE29851E9D820EE98F0D2D898C068F0E7
:1031700099C069F09AC06AF09BC06BF0F5D820EE58
:1031800098F08DD820EE06F0FCD87CC0DEFF7DC024
:10319000DEFF7EC0DEFF7FC0DEFF20EE0AF0F1D84A
:1031A0008CC0DEFF8DC0DDFF91059011D8A4120008
:1031B000920E176E186A24EC23F069EC24F00001DB
:1031C000836F8305D8A4120020EE92F010EE9CF0DD
:1031D000050EDBCFE3FFE806FCE28A0E080F4CEC9D
:1031E0002FF098C0A2F099C0A3F09AC0A4F09BC0A1
:1031F000A5F037500001A0D8646B3850656F666B3E
:10320000676B66C067F065C066F064C065F0646BAC
:10321000686B3950696F6A6B68516B6F69516C6F7D
:103220006A516D6F6E6B6F6B706B716B3A50726F32
:10323000190E05D0D8907233713370336F33E82E86
:10324000F9D76B516F11736F6C517011746F6D51B1
:103250007111756F6E517211766F64517311776FC2
:1032600065517411786F66517511796F67517611D8
:103270007A6F60517711986F61517811996F62512F
:1032800079119A6F63517A119B6F020E916F906B57
:103290008A0E18EC23F022EC2EF067EF2FF0DE14EC
:1032A000706F000EDE14716F000EDE14726FFF0E71
:1032B000DE14736F190E05D0D890733372337133E7
:1032C0007033E82EF9D76C517011746F6D51711114
:1032D000756F6E517211766F6F517311776F645104
:1032E0007411786F65517511796F665176117A6F27
:1032F000675177117B6F605178117C6F6151791143
:103300007D6F62517A117E6F63517B117F6F120066
:10331000000EDE14646FFF0EDE14656F000EDE1407
:10332000666F000EDE14676F66C067F065C066F0FA
:1033300064C065F0646B1200606F616B626B636BFD
:1033400060C063F0626B616B606B120020EE0CF08A
:103350008851D9268951DA22DF6A20EE92F088C09E
:10336000E1FF89C0E2FF050C69C068F06AC069F03E
:103370006BC06AF06B6B6C6B69516D6F6E6B6F6BD2
:10338000000C8851D9268951DA221200000E886F6C
:10339000030E896F12000101536B546B266A140EE1
:1033A000256E286A276A6DEC2EF045D901E01200DF
:1033B000870E176E020E25EC18F00CEC2CF00201B3
:1033C00087390F0B040A01E0120097513CD922EE15
:1033D00097F0FAD897C23EF198C23FF199C240F1F6
:1033E0009AC241F10ED922EE97F0BED8976F45D917
:1033F000986F34D9996F3CD99A6F935124D922EEA2
:1034000093F0E2D893C23EF194C23FF195C240F1ED
:1034100096C241F1F6D822EE93F0A6D8936F2DD93B
:10342000946F1CD9956F24D9966F3750971909E17D
:103430003850981906E13950991903E13A509A1910
:1034400009E0972906E1982904E1992902E19A29DE
:10345000D8A4120089510101376F366B22EE89F032
:10346000DECF38F1DDCF39F139C138F1396B396B45
:10347000365138110201896F0101375139110201AA
:103480008A6FF1D8D8903637D8903635526F02010E
:10349000EAD8050E36655FD0EC0E5225176E186A15
:1034A000FF0E1822CDEC2FF056D00101525102012F
:1034B000895D9ED853C125F054C126F0286A276A39
:1034C0006DEC2EF0B8D8D8A41200870E0001AF6FB3
:1034D000020EB06FD6EF2DF0010152510201895D4D
:1034E00087D8D0D887EC29F099D86DEC2EF025C07C
:1034F00055F126C056F155C1D3F056C1D4F07FEF37
:1035000026F0010152510201895D72D8BBD887ECC7
:1035100029F084D86DEC2EF08ED8D8A4120093C276
:1035200024F294C225F295C226F296C227F224C252
:1035300011F125C212F126C213F127C214F153C1B1
:1035400015F154C116F141EF16F089C217F08AC285
:1035500018F0CDEF2FF002019051010AA6E0070A02
:10356000D0E0170AB9E0F1D7DE14466F000EDE1482
:10357000476F000EDE14486FFF0EDE14496F190E00
:1035800005D0D8904933483347334633E82EF9D72E
:10359000425146114A6F435147114B6F44514811F4
:1035A0004C6F455149114D6F3A514A114E6F3B5185
:1035B0004B114F6F3C514C11506F3D514D11516F9C
:1035C00036514E1102011200000EDE143A6FFF0E4A
:1035D000DE143B6F000EDE143C6F000EDE143D6FF8
:1035E0003CC13DF13BC13CF13AC13BF13A6B1200A9
:1035F0000101536F02018A51D8A08A050101546F5D
:1036000012003FC13EF140C13FF141C140F1416B69
:10361000426B3F51436F446B456B000C17C055F133
:1036200018C056F153C125F054C126F055C127F0FA
:1036300056C128F0120025C055F126C056F10101EF
:103640005551561112000101366F376B386B396BCB
:1036500036C139F1386B376B366B120001013851C6
:1036600050110201120087510F0B0101366F120039
:1036700001013951511102011200010137514F115D
:103680000201120053C117F054C118F01200306E3D
:103690001ED1250E2F1818E037D9DE50DE10DE10AF
:1036A0000EE032D901D813D10500FA6EDE50FD6E5E
:1036B000DE50FE6EDE50FF6EFA502F50120018D909
:1036C0002FC0DFFF30D903D12C6A50D02C8E5FD0B1
:1036D00021D9DECF2AF0DECF2BF02A502B1035E196
:1036E000B10E2A6E2A50D8A4100E2B6E2ED00CD9F3
:1036F000DE50DE10DE101AE007D901D814D0050024
:10370000FA6EDE50FD6EDE50FE6EDE50FF6EFA5039
:1037100019D90F0EF76403D00800F55003D066ECFA
:1037200011F0EF5012002A4A2B2A0FD00BD9E0D803
:103730000F0EF76403D00800F55003D066EC11F0CB
:10374000EF50DF6E2A4A2B2AEED8FCD80F0EF76412
:1037500003D00800F55003D066EC11F0EF500009DB
:1037600001E1B5D0C4D7C00E2C1211D0232A2304F6
:10377000B7D8F6D801E1B1D0640A09E00D0A07E034
:103780001A0AA6E0060AEFE00D0AA0E0A0D02CC0BD
:1037900025F0C00E25160BE1BDD8ECD82EAE2CD0EE
:1037A000030E2C122D6C2E1ED8B02E2A25D0B2D886
:1037B000E1D822D0010E2F6E2F50C0D891D8090029
:1037C000F5502D5C0900F5502E581DE32F2A050EEB
:1037D0002F1819E0F1D7010E2F6E2F50ABD880D8DB
:1037E0000900F5502D5C0900F5502E580CE32F2AE6
:1037F000040E2F1808E0F1D72C50C00BDBE0800A34
:10380000EAE0400AD7E02CC025F0030E251616E0AA
:103810007BD8DE50DE10DE100DE076D801D80ED059
:103820000500FA6EDE50FD6EDE50FE6EDE50FF6E5D
:10383000FA502D0C5DD82D0EDF6E75D82FC029F0F3
:1038400043D029507BD84CD884D88FD848EC2EF060
:1038500017C01EF018C01FF0216A0A0E206EF6EC89
:103860002EF01E50300F2F6E18D07FD8295062D8FE
:1038700037D86FD848EC2EF017500F0B286E285011
:10388000550F2ED80800F5CF2FF007D02C50C00BC5
:10389000D8E0800AEAE0400AD4E036D8DE50DE10F4
:1038A000DE100EE031D801D80FD00500FA6EDE50E0
:1038B000FD6EDE50FE6EDE50FF6EFA502F5012008D
:1038C00017D82FC0DFFF2FD829062928DFE1232AA8
:1038D000230406D845D801E0DCD6236A246A120006
:1038E000256E25C0F6FF100EF76E000EF86E120062
:1038F0003050D96EDA6ADECF25F0DDCF26F025C054
:10390000D9FF26C0DAFF12003050D96EDA6A020EF3
:10391000D926020C2450D96EDA6A020EDF26DF5C4B
:10392000D96EDA6A12003050D96EDA6ADE2A000ED9
:10393000DD22000C020DF3500B0F1200020DF350AC
:10394000010F12002AC0F6FF2BC0F7FF000EF86E21
:1039500012000900F5CF19F00A00F5CF1AF0120095
:103960000800F5CF2FF02F5012002DC017F02EC0F9
:1039700018F01200DECF2DF0DECF2EF01200C80EB0
:103980004CEC2FF00001B0BF1200B05104E1F10E79
:10399000AF5DD8A01200B5EC2EF017C0BFF018C074
:1039A000C0F00001BF0503E1020EC019D8A4120047
:1039B000186A020E176ECDEC2FF06BEC2CF017C0CE
:1039C000BBF018C0BCF019C0BDF01AC0BEF0500E5C
:1039D0000001BB1909E1480EBC1906E1430EBD19EF
:1039E00003E14D0EBE19D8A41200F7D8CDEC2FF08C
:1039F0006BEC2CF017C0CFF018C0D0F019C0D1F08C
:103A00001AC0D2F00001CF51B36FB46BD051B56F73
:103A1000B66BD151B76FB86BD2C0B9F0BA6BDDD805
:103A2000CDEC2FF0C20E176E186A1A6A060E196EC8
:103A30000CEC2CF0C80E176E196A060E186EC20E2A
:103A4000B0EC2DF01750181001E0B5D0186ACA0E6E
:103A5000176ECDEC2FF06BEC2CF0630E171809E10C
:103A6000530E181806E1820E191803E1630E1A1896
:103A7000D8A412000001100EAF27FF0EB0238CD087
:103A800026EC30F00001C16F26EC30F00001CE6F63
:103A9000CE51B16FB26B020EB127000EB223B151FD
:103AA000AF5FB251B05B6AD06BEC2CF017C0C8F1BD
:103AB00018C0C9F119C0CAF11AC0CBF16DD06BECB6
:103AC0002CF017C0C4F118C0C5F119C0C6F11AC056
:103AD000C7F162D0030ECE655FD06BEC2CF017C03F
:103AE00010F218C011F219C012F21AC013F2040E2B
:103AF0000001CE5F030ECE654FD06BEC2CF017C0EB
:103B000014F218C015F219C016F21AC017F2040EFA
:103B10000001CE5F41D0030ECE653ED06BEC2CF0A1
:103B200017C033F018C034F019C035F01AC036F0A1
:103B3000EED76BEC2CF017C01CF218C01DF219C0A8
:103B40001EF21AC01FF2E3D73FD8040E04D03CD8AF
:103B5000050E01D0010E486E08D026EC30F0020AA6
:103B6000F3E0070AF4E0030AF5E00001CE0714D001
:103B7000CEC017F0186ACDEC2FF00ED0C151010A5B
:103B800093E0020A9CE0050AA5E0350AC4E0060AB3
:103B9000E4E0030ACEE0ECD70001B0BF05D0B0519D
:103BA00002E1AF05D8B06CD7040E4818D8A41200B3
:103BB000030E28EF20F0DE0E0001AF25176EFF0E7A
:103BC000B021186ECDEF2FF0CFC037F0D0C038F055
:103BD000D1C039F0D2C03AF01200186A080E176E40
:103BE000080C0101196B1A6B0201202B000E212316
:103BF000222323230101D04BD12B040ED15D03E2FC
:103C0000040ED16FD06B43C01BF144C01CF1E8D04F
:103C1000300EFAD8F76402D004D903D066EC11F064
:103C200007D901011351141101E1C5D011691269BD
:103C3000300E1B25136F000E1C21146F13C1F6FFED
:103C400014C1F7FF000EF86E0F0EF76407D00900DD
:103C5000F5CF15F10900F5CF16F106D066EC11F09D
:103C6000EECF15F1EECF16F10101115115271251CA
:103C70001623300E1B25176F000E1C21186F17C15D
:103C8000F6FF18C1F7FF000EF86E0F0EF76407D0AD
:103C900015C1F5FF0D0016C1F5FF0C0006D066EC4E
:103CA00011F015C1EEFF16C1EFFF300E0101ACD8C7
:103CB000F76402D0B6D803D066EC11F0B9D8010190
:103CC0001351141178E1340E9FD8F76403D0080023
:103CD000F55003D066EC11F0EF5000096CE02B0EAC
:103CE000010192D8F76403D00800F55003D066ECC8
:103CF00011F0EF500D0A5FE1320E010185D8F76433
:103D000002D08FD803D066EC11F092D8300E0101AA
:103D10001B25156F000E1C21166F15C1F6FF16C16D
:103D2000F7FF000EF86E0F0EF76407D013C1F5FF12
:103D30000D0014C1F5FF0C0006D066EC11F013C1A4
:103D4000EEFF14C1EFFF340E01015ED8F76403D01B
:103D50000800F55003D066EC11F0EF500101136F2D
:103D60001307340E1B25146F000E1C21156F14C190
:103D7000F6FF15C1F7FF000EF86E0F0EF76404D0C2
:103D800013C1F5FF0C0004D066EC11F013C1EFFF76
:103D90002B0E010139D8F76404D00C0EF56E0C001F
:103DA00004D066EC11F00C0EEF6E1BC13FF01CC18D
:103DB00040F05DEC08F02C0E010126D8F76407D026
:103DC0000900F5CF1BF10900F5CF1CF106D066EC18
:103DD00011F0EECF1BF1EECF1CF10101194B1A2BA4
:103DE0001B511C11D8B4120047C011F1126B11BF46
:103DF00012071151195D1A51800A136F1251800A6E
:103E0000135901E205D712001B25116F000E1C216A
:103E1000126F11C1F6FF12C1F7FF000EF86E0F0E00
:103E200012000900F5CF13F10900F5CF14F11200CB
:103E3000EECF13F1EECF14F11200220ED6D8F764B4
:103E400003D00800F55003D066EC11F0EF50E806FF
:103E5000D8A412001A0EC9D8F76402D0D4D803D05F
:103E600066EC11F0E4D80001EE51F25DEF51F35928
:103E700005E3EEC0FDF0EFC0FEF01CD01A0E3F24AB
:103E8000F06F000E4020F16FF0C0F6FFF1C0F7FFB9
:103E9000000EF86E0F0EF76407D00900F5CFFDF0A5
:103EA0000900F5CFFEF006D066EC11F0EECFFDF084
:103EB000EECFFEF0200E99D8F76407D00900F5CFB9
:103EC00017F00900F5CF18F006D066EC11F0EECF30
:103ED00017F0EECF18F0FDC019F0FEC01AF00CEC90
:103EE0002CF0200E82D8F76402D08DD803D066EC77
:103EF00011F09DD80001FD51F227FE51F323200E51
:103F000089D8F76402D098D803D066EC11F09BD81A
:103F10001A0E6BD8F76402D076D803D066EC11F095
:103F200086D80001FD51F25FFE51F35B1A0E72D884
:103F3000F76402D081D803D066EC11F084D8080E63
:103F400054D8F76408D05FD80900F5CFF4F0090021
:103F5000F5CFF5F007D066EC11F069D8EECFF4F0AC
:103F6000EECFF5F00001FD51F225F66FFE51F32181
:103F7000F76F000EF421F86F000EF521F96F0C0EAB
:103F80003F24FA6F000E4020FB6FFAC0F6FFFBC023
:103F9000F7FF000EF86E0F0EF7640DD0F6C0F5FFB8
:103FA0000D00F7C0F5FF0D00F8C0F5FF0D00F9C0DA
:103FB000F5FF0C000AD066EC11F0F6C0EEFFF7C07A
:103FC000EEFFF8C0EEFFF9C0EFFF350E0ED8F76434
:103FD00004D0100EF56E0C0004D066EC11F0100E3B
:103FE000EF6E41EC12F0ACEF12F03F240001F06FE5
:103FF000000E4020F16FF0C0F6FFF1C0F7FF000E99
:10400000F86E0F0E12000900F5CFF2F00900F5CF9F
:10401000F3F012003F24F46F000E4020F56FF4C05F
:10402000F6FFF5C0F7FF000EF86E0F0E1200EECF90
:10403000F2F0EECFF3F01200F2C0F5FF0D00F3C086
:10404000F5FF0C001200F2C0EEFFF3C0EFFF12000C
:104050000001A86FA90E4CEC2FF000019F69A06928
:10406000A169A269A46B440EA36FA66B430EA56F52
:104070003CEC2DF00001A76FA705D8A41200176A29
:10408000060E186E010E196E1A6E6CEC31F0500EA1
:10409000176E480E186E430E196E4D0E1A6E6CECAC
:1040A00031F0176A800E186E196A1A6A6CEC31F0DA
:1040B000030E0001A81904E198D86CEC31F003D08C
:1040C0008BD86CEC31F091D86CEC31F08ED86CEC74
:1040D00031F08BD86CEC31F08DD822EC2EF0196ACF
:1040E000CA0E186E79EC31F0630E176E530E186E0F
:1040F000820E196E630E1A6E6CEC31F0350ED3EC35
:1041000031F0010ED3EC31F00001A851D3EC31F0C5
:10411000030E0001A81919E1360ED3EC31F0040E9C
:10412000D3EC31F01CC217F01DC218F01EC219F0FA
:104130001FC21AF06CEC31F0320ED3EC31F0040EE9
:10414000D3EC31F049D86CEC31F0370ED3EC31F0D0
:10415000040ED3EC31F0010ED3EC31F0030ED3ECAE
:1041600031F0060ED3EC31F00F0ED3EC31F0390EF6
:10417000D3EC31F0020ED3EC31F0020E186E176A58
:10418000B2EC31F00C0ED3EC31F0140ED3EC31F074
:10419000130E176E1750D8A4100E186E3DEC16F0C3
:1041A00022EC2EF03D0ED3EC31F0070ED3EC31F0C3
:1041B000010ED3EC31F01ED822EC2EF0FF0ED3EC22
:1041C00031F0000ED3EC31F062EC2AF0A805D8A44F
:1041D0001200030E486E030C37C017F038C018F0F9
:1041E00039C019F03AC01AF01200176A186A196A31
:1041F0001A6A1200A90E176E186A1A6A060E196E4C
:10420000060C00019E6BB9D803E1110E261862E17D
:10421000370405E17F0E3A18381039105BE0222888
:1042200006E1232804E1242802E1252856E037503E
:104230000101C815276E3850C915286E3950CA15A6
:10424000296E3A50CB152A6E2250C8152B6E23507A
:10425000C9152C6E2450CA152D6E2550CB152E6E07
:1042600027502B1812E128502C180FE129502D1837
:104270000CE12A502E1809E122C098F023C099F0D1
:1042800024C09AF025C09BF008D0C4C198F0C5C1E5
:1042900099F0C6C19AF0C7C19BF098C017F099C0B9
:1042A00018F09AC019F09BC01AF063EC2DF017C0FB
:1042B0009CF018C09DF000019C519D1114E198C024
:1042C0001DF099C01EF09AC01FF09BC020F077EC43
:1042D00022F09E6F00019E511200280E9C6F9C518F
:1042E000D8A4100E9D6F9CC017F09DC018F0080E4A
:1042F0001A6E196A69EC24F000019E6F9E05EAE1CE
:10430000450E186E176AB2EC31F0186A176AB2ECF3
:1043100031F0176A400E186E550E196EAA0E1A6EFD
:104320006CEC31F0400ED3EC31F02650D3EC31F090
:10433000186A176AB2EC31F0ECEC20F06CEC31F05A
:1043400022C017F023C018F024C019F025C01AF0BD
:104350006CEC31F037C093F238C094F239C095F26A
:104360003AC096F222C097F223C098F224C099F284
:1043700025C09AF226C090F2ADD7375038103910C8
:104380003A101200020EA6D8F76407D0F56A0D00A5
:10439000F56A0D00D2EC11F004D066EC11F046EC99
:1043A00012F0060E97D8F76403D0D2EC11F004D0C7
:1043B00066EC11F0EE6AEF6A100E8CD8F76407D045
:1043C000F56A0D00F56A0D00D2EC11F004D066EC30
:1043D00011F046EC12F0140E7DD8F76407D0F56AA0
:1043E0000D00F56A0D00D2EC11F004D066EC11F06E
:1043F00046EC12F0080E6ED8F76407D0F56A0D008F
:10440000F56A0D00D2EC11F004D066EC11F046EC28
:1044100012F00C0E5FD8F76407D0F56A0D00F56A4C
:104420000D00D2EC11F004D066EC11F046EC12F065
:10443000180E50D8F76403D0D2EC11F004D066EC1B
:1044400011F0EE6AEF6A300E45D8F76403D0D2EC73
:1044500011F004D066EC11F0EE6AEF6A320E3AD831
:10446000F76403D0D2EC11F004D066EC11F0EE6AE0
:10447000EF6A340E2FD8F76403D0F56A0C0003D02E
:1044800066EC11F0EF6A350E25D8F76403D0F56AB3
:104490000C0003D066EC11F0EF6A17C0F6FF18C0ED
:1044A000F7FF000EF86E0F0EF76403D0D2EC11F098
:1044B00004D066EC11F0EE6AEF6A360E0BD8F764A2
:1044C00004D0010EF56E0C0004D066EC11F0010E64
:1044D000EF6E12001724196E000E18201A6E19C004
:1044E000F6FF1AC0F7FF000EF86E0F0E1200010E55
:1044F0007D6F7C6B7F6B080E7E6F060E806F040EE7
:10450000816F010E836F826B7C0E080F4CEC2FF0D5
:104510003750000182D8385074D8395065D83A5095
:10452000726F190E01D08AD8E82EFDD742D88A6F53
:10453000615178118B6F625179118C6F63517A11CF
:104540008D6F1D506AD81E505CD81F504DD820501A
:10455000726F190E01D072D8E82EFDD72AD8946F49
:1045600061517811956F62517911966F63517A118B
:10457000976F8E6B8F6B906B916B926B936B280E1A
:10458000176E1750D8A4100E186E5ED869EC24F080
:1045900000017B6F7B050BE17C0E4AD822EC2EF0EC
:1045A00067EC2FF000017B6F7B0501E1050C7B516F
:1045B00012006B516F11736F6C517011746F6D51EC
:1045C0007111756F6E517211766F64517311776F3F
:1045D00065517411786F66517511796F6751761155
:1045E0007A6F605177111200696F6A6B68516B6F57
:1045F00069516C6F6A516D6F6E6B6F6B706B716B25
:104600001200656F666B676B66C067F065C066F029
:1046100064C065F0646B686B1200606F616B626B05
:10462000636B60C063F0626B616B606B646B120004
:10463000176E186A1A6A1C0E196E1C0CD890723309
:10464000713370336F331200080E1A6E060E196E36
:10465000060CAE6F0001AD6B20EE0CF09AD8DECFE9
:1046600022F0DECF23F0DECF24F0DECF25F020EEE7
:1046700009F08FD8DF50266E01EC21F0AD6FAD054B
:104680006AE120EE02F085D8DECFA1F0DDCFA2F006
:10469000EC0EA125AB6FFF0EA221AC6F9FC0D9FF1E
:1046A000A0C0DAFFDF500F0BA16FA26BD890A1372B
:1046B000A237D890A137A23720EE02F06AD8DECF19
:1046C000A3F0DDCFA4F0A151A35DAB6FA251A4591B
:1046D000AC6F186A176AB2EC31F0186A176AB2EC5C
:1046E00031F05CD8040E49D8040E37D8B2EC31F062
:1046F00055D8060E42D8060E30D8B2EC31F0F80E7E
:104700000001AB256D6FFF0EAC216E6FEEEC26F055
:104710000001AD6FAD051FE1C9EC31F0266A220E34
:10472000256EABC027F0ACC028F02A6A296A1BECC2
:104730002AF025C0A9F026C0AAF09AEC2BF0240E8E
:10474000196EA90ED6EC2EF0ABC031F0ACC032F031
:1047500067EC2BF0AD6FAD511200D926DECFA5F07E
:10476000DDCFA6F0A6C0A5F0A66BA66BA351A51140
:10477000176EA451A611186E1200D926DECFA1F033
:10478000DDCFA2F0A151A46FA36BAE51D96EDA6A4E
:1047900012009F51D926A051DA2212000001AE5119
:1047A000D96EDA6A12000101BD91BD95BD99BD9B1C
:1047B000C06BC16B416A426AA00E0E01FE6FFDA183
:1047C000FED70D0EA06F00F0B30E0E01A26F00F029
:1047D000A36B00F0150EA46F00F0A76B120EA66F6E
:1047E00000F01A0EE56F120EE46F1F0EE76FE66918
:1047F000E86BE96B1A0EEB6F100EEA6F7A6A7B6A50
:10480000F4EC24F0EC69ED69050EAB6FEE0EAA6FC7
:10481000E1EC31F02D6E2DC0F6FF51D8F5CF84FEBE
:1048200000F02DC02AF02A2A2AC0F6FF48D8F5CF7A
:1048300085FE00F02DC02AF0020E47D840D8F5CFF3
:1048400082FE00F02DC02AF0030E3FD838D8F5CFF5
:1048500083FE00F02DC02AF0040E37D830D8F5CFF3
:1048600080FE00F02DC02AF0050E2FD828D8F5CFF5
:1048700081FE00F0AB0E0E01D86F040ED26E010E59
:104880001A6E000E196A14EC2DF0010E1A6E100E3D
:10489000196E14EC2DF01D0E1A6E4A0E196E140EC0
:1048A00014EC2DF09DEC2FF0590E0E01FB6F1A6ADF
:1048B000120E196E14EC2DF0A29AA08A1200100E9E
:1048C000F76E000EF86E080012002A262AC0F6FFC6
:1048D00012000101BDBB030CD2B6040C7CEC2FF01E
:1048E00083D8D8EC31F0060EE8CF61FF17C0F6FF91
:1048F00018C0F7FF000EF86E0F0EF76403D0080023
:10490000F55003D066EC11F0EF50E8CF61FF1728A7
:104910005FD8F76403D00800F55003D066EC11F0BF
:10492000EF50E8CF61FF020E172452D8F76403D08E
:104930000800F55003D066EC11F0EF50E8CF61FFAE
:10494000030E172445D8F76403D00800F55003D0B0
:1049500066EC11F0EF50E8CF61FF040E172438D851
:10496000F76403D00800F55003D066EC11F0EF5067
:10497000E8CF61FF050E17242BD8F76403D0080099
:10498000F55003D066EC11F0EF50E8CF61FF0E0157
:104990008451E8CF61FF0E018551E8CF61FF0E0120
:1049A0008251E8CF61FF0E018351E8CF61FF0E0114
:1049B0008051E8CF61FF0E018151E8CF61FF1A50AD
:1049C000E8CF61FF1950E8CF61FF0101BD8B010CF9
:1049D0001B6E000E18201C6E1BC0F6FF1CC0F7FFDC
:1049E000000EF86E0F0E12001A0EE36F120EE26F39
:1049F000120C1D6AE0390F0B1B6E1C6AD8901B3617
:104A00001C36D8901B361C36EC0E1B241F6EFF0E76
:104A10001C20206E1F106BE0020E466E180E456EB5
:104A2000E1A362D059D026EC30F01E6E4ED01F505C
:104A3000201005E060D8CDEC2FF01F6A206A010E2F
:104A40001D6E4AD0205003E1030E1F5C1DE326ECCF
:104A500030F01E6E040E1E1814E1B5EC2EF017C0D7
:104A600045F018C046F0FD0E1F26FF0E2022B50EA1
:104A7000455C050E4658E3E3050E466EB40E456EE2
:104A8000DED71F6A206A28D01F6A206A1D6A24D0D8
:104A900026EC30F01E6E1F06D8A02006010E1E6404
:104AA000F3D7FE0E1E261E501B6E1C6A1B501F5C89
:104AB0001C502058E9E31EC017F0186ACDEC2FF007
:104AC0001E501F5E000E205ABAD71E50B0E0010AD9
:104AD00003E0030AB7E0DCD71F06D8A020061F2892
:104AE000A2E1202806E09FD706D8CDEC2FF0010EDA
:104AF0001D6E1D5012001FC017F020C018F01200CC
:104B0000280E1F6E020E206EB2EC30F00101176FFE
:104B10006AD0280E1F6E020E206E3AEF29F0280E82
:104B20001F6E020E206E226A070E216EC5EC30F059
:104B300061D8D6EC2BF0280E0101116F020E126F16
:104B40002BEF2BF0280E1F6E020E206E50EC30F073
:104B50000009D8B41200280E1F6E020E206E3EEC23
:104B60002CF01FC018F120C019F1010118511911C2
:104B7000D8B41200280E1F6E020E206E9FEC2BF090
:104B80001FC018F120C019F101011A6B1B6B10D066
:104B90005F0E1A25D96E020E1B21DA6E730E1A25CE
:104BA000E16E020E1B21E26EDFCFE7FF1A4B1B2BDB
:104BB00018511A5D19511B59EBE31CD8D6EC2BF098
:104BC00018C115F119C116F1280E0001EE6F020E81
:104BD000EF6F730EF06F020EF16F15C1F2F016C198
:104BE000F3F04AEF28F0175194E0010A98E0020A26
:104BF000A9E01200280E1F6E020E206E5F0E216EBD
:104C0000020E226E246A140E236E140C010E020191
:104C1000AB6F31EC2FF0D7EC30F0B6EC2FF0D08E3C
:104C2000F28EF28C660E65D88CEC30F0ABEC31F085
:104C3000860E5FD88CEC30F0D3EC29F0A70E176EFF
:104C4000020E186EC2EC2CF09BEC31F017C0CCF2C7
:104C500018C0CDF219C0CEF21AC0CFF20201AB518A
:104C60000CE1CC51A31909E1CD51A41906E1CE51B3
:104C7000A51903E1CF51A61939E0CCC2A3F2CDC2E8
:104C8000A4F2CEC2A5F2CFC2A6F2AC0E176E020EEF
:104C9000186E1A6A196A1C6A200E1B6E11EC30F02D
:104CA000AC0E0001606F020E616F930E626FCFC297
:104CB00063F0646BCEC265F0666BCDC267F0686B63
:104CC000CCC269F06A6BFBEC2FF0000EA4EC31F063
:104CD000AC0E196E020E1A6E18EC31F0AC0E316E7D
:104CE000020E326E8CEC30F00201AB6B80EC25F0E2
:104CF000A3D7316E3150D8A4100E326E1200340E8C
:104D00000001DD6F9B0E176E020E186EF8EC2DF091
:104D10000CEC2CF00201A151A21105E00001D351CD
:104D2000D411D8A4120002019D510001D66FD56B99
:104D300022EE9DF049D8D71102019D6F0001D65196
:104D4000D81102019E6F0001DB6BDC6BDDC0F6FF4A
:104D500036D802019D510900F51828E19E5109003D
:104D6000F51824E19F510001D66FD56B22EE9FF01C
:104D70002BD8D713D651D813F80ED725AF6FFF0E07
:104D8000D821B06FDDC0D9F0020ED927D9C0F6FF07
:104D900016D80500FA6E0900F550FD6E0900F550B1
:104DA000FE6E0900F550FF6EFA501200050E00016C
:104DB000DD27DB4BDC2BDB51DC11C8E01200100ED1
:104DC000F76E000EF86E1200DECFD7F0DDCFD8F010
:104DD000D8C0D7F0D86BD86BD5511200D8906D35AC
:104DE0006F6F6E35706F01D000F0D2AA02D04AD832
:104DF000FBE1D2BA40D0E2CEF4FEE3CEF5FEC0C174
:104E0000F0FEC1C1F1FE00016D510101C02500019C
:104E1000716F6E510101C1210001726F110E715D40
:104E20001A0E725904E3F00E7127E50E722371C059
:104E3000F2FE72C0F3FED298D28A6DC017F06EC037
:104E400018F01A6A280E196E79EC30F017C06FF05E
:104E500018C070F001D000F0D2AA02D013D8FBE144
:104E6000D2BA09D000016D510E01E22700016E5146
:104E70000E01E323010C770E79EC26F08CEC30F078
:104E8000FF000C0C00016F07D8A070076F51701164
:104E900012000101BDA3120097EC2CF0AB0E176EAF
:104EA000010E186E1A6A0E0E196E0CEC2CF0B7512A
:104EB000586F576B21EEB7F0DECF59F1DDCF5AF1C5
:104EC0005AC159F15A6B5A6B57515911B76F585112
:104ED0005A11B86F1BD02AEC18F0ECEF2CF0CBEC89
:104EE00019F0ECEF2CF05B0E0001606F010E616FAA
:104EF000A90E626FB7C163F0B8C164F0B7C165F0C5
:104F0000B8C166F0FBEC2FF0ECEF2CF021EEB7F01F
:104F1000DECF57F1DDCF58F15851080A05E0890A74
:104F200008E0070A08E0DFD75751D9E0060AD3E0C6
:104F3000DAD7575102D05751DD0AD5E1ECEF2CF00A
:104F40001D6E176A186A00F0182A090E1864FBD73C
:104F500001D0F9D75A0E186E01D000F00E018AA1C7
:104F600002D0182EFAD71850D8A401D017681750BD
:104F700000092CE11DC0B4FEB26BB28100F000F05C
:104F8000176A186A00F0182A090E1864FBD701D0B6
:104F9000F9D75A0E186E01D000F00E018AA102D086
:104FA000182EFAD71850D8A401D017681750FF0A46
:104FB00005E1FD0E1E6EFF0E14D80AD0B291B8CED8
:104FC0001EF0B9CE1FF0206A216A02D01E6809D8EF
:104FD0001EC019F01FC01AF020C01BF021C01CF029
:104FE00012001F68206821681200076E016A026AB9
:104FF00000F0022A090E0264FBD701D0F9D75A0E3D
:10500000026E01D000F00E018AA102D0022EFAD762
:105010000250D8A401D00168015000092CE107C05A
:10502000B4FEB26BB28100F000F0016A026A00F0D7
:10503000022A090E0264FBD701D0F9D75A0E026E7C
:1050400001D000F00E018AA102D0022EFAD7025040
:10505000D8A401D001680150FF0A05E1FD0E086ED9
:10506000FF0E14D80AD0B291B8CE08F0B9CE09F02C
:105070000A6A0B6A02D0086809D808C003F009C0A0
:1050800004F00AC005F00BC006F0120009680A68B7
:105090000B681200EEC01FF0EFC020F0B2EC30F051
:1050A000030AD8A41200000120EE29F039D8DF50FD
:1050B000D8A41200F051F111D8B4120020EE23F060
:1050C0002FD8F0C0DEFFF1C0DDFF20EE23F028D89E
:1050D00010EE25F0EE51E126EF5127D820EE27F013
:1050E0001FD8F2C0DEFFF3C0DDFF20EE29F018D894
:1050F000020EDF6E20EE32F013D8020EDE6EDD6A95
:1051000020EE34F00DD8050EDF6E20EE35F008D815
:10511000100EDF6EEEC09FF0EFC0A0F0ACEF12F00B
:10512000EE51D926EF51DA221200E222DECFE6FF5D
:10513000DDCFE5FF120019C01FF01AC020F0216A70
:10514000226A11D0236A246A61CF7EFE0E017E514D
:10515000246E61CF7EFE0E017E51236E34D8020E86
:10516000175E000E185A1850EDE1020E175CEAE2C5
:10517000175018101CE0236A246A61CF7EFE0E01CE
:105180007E51246E236A1FD812D01F501B6E2050F0
:105190001C6E1D6A1E6A21501B241F6E22501C208B
:1051A000206E000E1D20216E000E1E20226E21504A
:1051B0002210EBE11F1E201E211E221E1FC017F011
:1051C00020C018F0FF0C23501F2624502022000E70
:1051D00021222222000CBFEC31F046D8E82EFED767
:1051E000182EFCD700D040D8E82EFED7182EFCD7BA
:1051F00000D03AD8E82EFED7182EFCD700D034D8ED
:10520000E82EFED7182EFCD700D0030EF8EC30F0B5
:105210002ED8E82EFED7182EFCD700F0030EF8EC9F
:1052200030F025D8E82EFED7182EFCD700F0030E5C
:10523000F8EC30F0380EF8EC30F0C4EC31F00C0E35
:10524000F8EC30F0C4EC31F0010EF8EC30F0C4ECC6
:1052500031F0010EF8EC30F01C0E186E0D0EE82E39
:10526000FED7182EFCD71200880E186E460C370E8B
:10527000186E1B0C1FC017F020C018F0ECEC2AF0C1
:105280000009D8A412001FC017F020C018F0C2EC0B
:1052900021F020EE1AF031D8DE6ADD6A20EE1CF033
:1052A0002CD8B40EDE6E050EDD6E20EE2AF025D869
:1052B000DF6A20EE2BF021D80D0EDF6E20EE1EF0FF
:1052C0001CD820D81AD8DF6A20EE23F016D8DE6A60
:1052D000DD6A20EE25F011D8DE6ADD6A20EE27F0C7
:1052E0000CD8DE6ADD6A20EE29F007D8DF6A1FC01D
:1052F00017F020C018F091EF2EF01F50D926205043
:10530000DA221200DE6ADD6A20EE22F012001F6A45
:10531000206A216A226A93C223F094C224F095C2C3
:1053200025F096C226F097C227F098C228F099C2BD
:1053300029F09AC22AF090C22BF02C6A17C02DF0E7
:1053400018C02EF00C0E1E6ED8901E32230E1D6E4D
:1053500011D01D50D96EDA6ADECF19F0DDCF1AF008
:1053600019501F261A502022000E212222221E062A
:10537000020E1D261E50EDE11F50196E20501A6EB0
:105380001B6A1C6A215019241F6E22501A20206E9D
:10539000000E1B20216E000E1C20226E1FC017F075
:1053A00020C018F01200FCEC2DF049EC27F0B90EEB
:1053B000176E010E186EC2EC2CF00101E851B95DB8
:1053C000E951BA59EA51BB59BC5130D8EB51800A66
:1053D0000001FF5903E33BEC30F020D80101B95143
:1053E0000201185D0101BA51020119590101BB51B5
:1053F00002011A591B511AD8BC51800A0001FF59E9
:1054000004E2A8EC2AF0F1EC1DF0B9C118F2BAC11F
:1054100019F2BBC11AF2BCC11BF212000A0E010143
:10542000E827000EE923EA23EB23000C800A0001A1
:10543000FF6F010112007ACF2BF07BCF2CF0130EFF
:1054400025247A6E1A0E26207B6E27C017F028C0FE
:1054500018F029C019F02AC01AF09BEC28F017C0E8
:105460002DF018C02EF02F6A306A2BC07AFF2CC0A6
:105470007BFF2D500001606F616B626B636B62C0DC
:1054800063F061C062F060C061F0606B2E50646FC9
:10549000656B666B6451676F6551686F6651696FC4
:1054A0006A6B605167112D6E615168112E6E6251E9
:1054B00069112F6E63516A11306E2DC025F02EC018
:1054C00026F0120027EC31F017C07BF018C07CF0FA
:1054D00031D89AEC2BF0260E196E7B0ED6EC2EF0FE
:1054E00029D8110E7B25796F000E7C217A6F34EC60
:1054F00016F07B25276E000E7C21286E79C029F0DE
:105500007AC02AF01BEC2AF025C079F026C07AF088
:1055100079517A1102E179697A699AEC2BF0280EB7
:10552000196E790ED6EC2EF07BC031F07CC032F0D3
:1055300067EF2BF000017B51756F746B7C51766FB8
:10554000776B745176117B6F755177117C6F1200F8
:105550000101BDA915D0050E48180BE138D809E0A6
:1055600002011C691D691E691F69030E28EC20F0E9
:1055700004D0010E486E28EC20F00101BD99120004
:10558000480403E0020E481804E1010E486E28EFBB
:1055900020F036503510341009E1640E335C06E219
:1055A000050E481803E1030E28EF20F0050E4818F9
:1055B00008E10DD806E03306000E345A355A365A43
:1055C000000C05D8D8A41200020E486E020C33500D
:1055D00034103510361012001B6A1C6A43504410F8
:1055E00038E01750181035E043C01DF044C01EF0DD
:1055F00026D017501D1806E118501E1803E1010EA1
:105600001B6E27D02C0E1D24196E000E1E201A6E44
:1056100019C0F6FF1AC0F7FF000EF86E0F0EF76400
:1056200007D00900F5CF1DF00900F5CF1EF006D018
:1056300066EC11F0EECF1DF0EECF1EF01C2A1D50CF
:105640001E1007E01C50800A196E4750800A195C32
:10565000D0E31B50120011C117F012C118F0ECEC8E
:105660002AF00009D8B41200010120EE2BF025D851
:10567000020EDF6E20EE36F020D8020EDF6E20EE36
:1056800010F01BD820C2DEFF21C2DEFF22C2DEFFE7
:1056900023C2DEFF11C13FF012C140F013D8DE502B
:1056A000DE1002E05DEF08F00DD8D0C1DEFFD1C101
:1056B000DDFFD04BD12B5DEF08F01151D9261251EF
:1056C000DA22120011C1D9FF12C1DAFF1200140E42
:1056D00031240001726F000E3220736F72516C6FB3
:1056E0006B6B73516D6F6E6B6B516D11726F6C5193
:1056F0006E11736F1FD8100E196E720ED6EC2EF04D
:10570000266A0E0E256E286A140E276E2A6A296AEA
:105710001BEC2AF025C070F026C071F00BD8180ED3
:10572000196E700ED6EC2EF067EC2FF000016F6F43
:105730006F511200186A020E176E1A6A020C256A5F
:10574000266A1FC017F020C018F0ECEC2AF0000900
:1057500023E020EE22F025D8DE041EE120EE1EF02C
:1057600020D8DECF21F0DDCF22F020EE20F019D8B6
:10577000DECF23F0DDCF24F02150235C256E2250B4
:105780002458266E251008E020EE1AF00AD882EC84
:1057900029F007D8000EDF6A25C01FF026C020F0D0
:1057A00012001F50D9262050DA2212001FC017F015
:1057B00020C018F0ECEC2AF00009D8B4120020EE5A
:1057C00022F025D8DF50D8A4120021502210D8B4DE
:1057D000120020EE1EF01BD821C0DEFF22C0DDFF2C
:1057E00020EE1EF014D810EE20F01F50E1262050BD
:1057F00095EC28F020EE1AF00AD823C0DEFF24C072
:10580000DDFF20EE22F003D8010EDF6E010C1F50E9
:10581000D9262050DA2212001C6A1D6A17C01EF019
:1058200018C01FF01FD01EC0F6FF1FC0F7FF000EEC
:10583000F86E61CF7EFE0E017E511B6E0F0EF76477
:1058400004D01BC0F5FF0C0004D066EC11F01BC0A7
:10585000EFFF1E4A1F2A1C4A1D2A1906D8A01A0645
:1058600035EC30F00101CC51CD1103E019501A1084
:10587000DAE11CC017F01DC018F01200256A266A74
:105880001FC017F020C018F0ECEC2AF0000919E056
:1058900020EE22F01BD8DE0414E120EE1EF016D814
:1058A000DECF21F0DDCF22F020EE20F00FD8DECFCA
:1058B00023F0DDCF24F02150235C256E22502458A4
:1058C000266E25C01FF026C020F012001F50D926DA
:1058D0002050DA2212001B6A1C6A1D6A1E6A01012E
:1058E000CD5103E1040ECC5D18E361CF7EFE0E01C5
:1058F0007E511E6E61CF7EFE0E017E511D6E61CF08
:105900007EFE0E017E511C6E61CF7EFE0E017E5129
:105910001B6E040ED0EC2EF001D0BD811BC017F021
:105920001CC018F01DC019F01EC01AF0120041C0B2
:105930007AFF42C07BFF61CF7EFE0E017E51416E39
:1059400061CF7EFE0E017E51426E61CF7EFE0E0162
:105950007E510101CC6F61CF7EFE0E017E510101AF
:10596000CD6F61CF7EFE0E017E510101CE6F61CF02
:105970007EFE0E017E510101CF6F040ECC5F000E42
:10598000CD5B000C000EF2BE010E1B6EF29ED0C26B
:105990001CF0D1C21DF0D2C21EF0D3C21FF01BA05A
:1059A00002D0F28E01D0F29E175018100CE017C0F2
:1059B000D9FF18C0DAFF1CC0DEFF1DC0DEFF1EC00D
:1059C000DEFF1FC0DEFF1CC017F01DC018F01EC098
:1059D00019F01FC01AF012000101BD930E01FE8DD7
:1059E00018D8E851195CE9511A5806E312D8195031
:1059F000EA5D1A50EB5905E2EACEECFEEBCEEDFE85
:105A000006D0FF0E4124EC6FFF0E4220ED6FFB8DA0
:105A100012001768186841C019F042C01AF01750F8
:105A2000192618501A2212001B6E1BC0B4FE19C092
:105A30007EFE1AC07FFEF2CF1CF0F26A7ECEB6FE6A
:105A40007FCEB7FE1CC0F2FF176A186A00F0182A52
:105A5000090E1864FBD701D0F9D75A0E186E01D081
:105A600000F00E018AA102D0182EFAD71850D8A43F
:105A700001D01768175012009FC022F0A0C023F079
:105A8000A1C024F0A2C025F0110E266E01EC21F079
:105A90002F6E2F0416E1D8EC31F0A3C017F0A4C08C
:105AA00018F0B2EC31F0A5C017F0A6C018F0B2ECB7
:105AB00031F0186A176AB2EC31F0186A176AB2EC62
:105AC00031F02F501200000E1F6E030E206E216A5F
:105AD00020EE06F01F50D9262050DA221750DE188B
:105AE0000EE11850DE180BE11950DE1808E11A50CB
:105AF000DE1805E11FC017F020C018F012000D0ECF
:105B00001F26000E2022212A070E2164E1D7176AE2
:105B1000186A120003EE00F0680EEE6AE806FDE176
:105B200002EE00F0A30EEE6AE806FDE101EEBDF024
:105B30002F0EEE6AE806FDE100EE33F0150EEE6A78
:105B4000E806FDE1C60EF66E630EF76E000EF86E07
:105B50000900F5CF48F049904992000106EF26F080
:105B60001C6E1AD01750D96EDA6A1C50E16EE26AC8
:105B7000DE50E6180FE01C50D96EDA6ADF501A6E5C
:105B80001750D96EDA6ADF501A5C176E186AD8A0FF
:105B9000180612001C2A172A1806D8A01906182859
:105BA000E1E11928DFE1176A186A1200B60E176ED4
:105BB000186A1ED80CEC2CF0C9EC31F007D0AFC03D
:105BC0009FF0B0C0A0F0B60E29EF23F00001B6514F
:105BD000B26FB16BB751B36FB46BB151B313B25174
:105BE000B413B451080AD8A41200B351E8E012006B
:105BF0001A6A080E196E080C1ED8D96508D060A85C
:105C000006D0130EA0EC27F019D89DEC2FF060B051
:105C1000609060B2609260B60AD860AC1200010178
:105C2000BDB3120000D0BD830E01FB9D1200609633
:105C30000101BD9B1200A19A0E01020C0101BD8958
:105C4000BD95120017C01BF018C01CF013D01BC06C
:105C5000F6FF1CC0F7FF000EF86E0F0EF76403D0BE
:105C60000800F55003D066EC11F0EF50E8CF61FF6B
:105C70001B4A1C2A1906D8A01A06192803E11A285B
:105C8000D8B412000E01E2291F0EE359E0E312001E
:105C90001C6A1D6A19501A101BE0010E1B6E04D0FD
:105CA000D89019361A361B2A1AAEFAD7D8901C3655
:105CB0001D361950175C1A50185805E31950175E15
:105CC0001A50185A1C80D8901A3219321B2EEED74F
:105CD0001CC017F01DC018F012007ACF2DF07BCF3A
:105CE0002EF025C017F026C018F027C019F028C0E4
:105CF0001AF09BEC28F017C02FF018C030F0316A72
:105D0000326A2DC07AFF2EC07BFF2F502A6E296A7F
:105D100030502B6E2C6A2910256E2A502C10266EBE
:105D20001200435044100AE020EE2EF04350D926D2
:105D30004450DA2217C0DEFF18C0DDFF20EE2CF041
:105D40000FD843C0DEFF44C0DDFF17C043F018C0CA
:105D500044F020EE2EF004D8DE6ADD6A472A000CFB
:105D60001750D9261850DA221200196A1A6A01014E
:105D7000CD5103E1020ECC5D0DE361CF7EFE0E013D
:105D80007E511A6E61CF7EFE0E017E51196E020E9B
:105D900007D801D0BD8119C017F01AC018F0120041
:105DA0000101CC5F000ECD5BBD91000C1D6EE2CEFB
:105DB0001BF0E3CE1CF0130E19240E01E26F1A0E35
:105DC0001A20E36F07D01D50D96EDA6ADF50E8CF92
:105DD00061FF1D2A1706D8A018061728F4E1182815
:105DE000F2E11BC0E2FE1CC0E3FE120020502110B5
:105DF00017E0010E226E04D0D89020362136222AD8
:105E000021AEFAD720501E5C21501F5804E32050C9
:105E10001E5E21501F5AD89021322032222EF2D7F6
:105E20001EC01EF01FC01FF01200CD82CD86CD987F
:105E3000CD9ACD84CD80800ECF6ECE6AE00ED06F2D
:105E4000C20ED16F1E0ED26F4D0ED36F600ED46F87
:105E5000410ED56FC90ED66FD00ED76F9F809D8033
:105E6000D00C020ED36E400E9B6E9A6A916A959684
:105E70008C8694969488949AFC0E926E0F0E936E74
:105E800015EC2FF0B9EC31F085EC31F0EBEC28F0AB
:105E900090EC31F008EF31F0176E1750D96EDA6AD6
:105EA00084CEDFFF0FD885CEDFFF0CD882CEDFFF98
:105EB00009D883CEDFFF06D880CEDFFF03D881CE9E
:105EC000DFFF1200172A1750D96EDA6A1200FF0E90
:105ED0000E01E225176EFF0EE321186E0101BDA52C
:105EE000020CBDAB030C08D817C0E6FE18C0E7FED5
:105EF00000F000F0D286010C1A0E0E01E56F120EB2
:105F0000E46F120C1BEC2EF0D96509D060A807D005
:105F1000130EF5EC27F01EEC2EF0E4EC2FF060B041
:105F2000609060B2609260B617EC2EF060AC120028
:105F30000101BDB3120013EF2EF0110EA0EC27F0FB
:105F400019C022F01AC023F01BC024F01CC025F099
:105F500022C026F023C027F024C028F025C029F055
:105F600027A4000C00D00101BD85010C176A186A36
:105F7000C2EC2CF017C06BF018C06CF019C06DF0BB
:105F80001AC06EF06BC060F06CC061F06DC062F062
:105F90006EC063F0390E9FEF30F00101CC51175CF9
:105FA000CD51185804E3CCC117F0CDC118F01750EB
:105FB0001810D8B4120017507A2618507B221750A8
:105FC000CC5F1850CD5B1200110EF5EC27F003C02A
:105FD0000CF004C00DF005C00EF006C00FF00CC0B0
:105FE00010F00DC011F00EC012F00FC013F011A48C
:105FF000000CB3EF2FF060C06CF061C06DF06E6B01
:106000006F6B706B630E6B6F62C023F06B0E246E50
:106010006C0E47EC1BF06CC0D9FF6DC0DAFFDF6A75
:10602000000C17C01DF018C01EF008D01DC0D9FF0D
:106030001EC0DAFF19C0DFFF1D4A1E2A1B06D8A0AA
:106040001C061B28F3E11C28F1E11200176A01016C
:10605000CC51CD1107E061CF7EFE0E017E51176E4F
:1060600004D801D0BD81175012000101CC07D8A07F
:10607000CD07BD911200000E176E030E186E196A3F
:1060800020EE0CF01750D9261850DA22DF2A0D0E18
:106090001726000E1822192A070E1964F1D7070CCB
:1060A000216A1FC017F020C018F0ECEC2AF000099C
:1060B0000AE020EE29F01F50D9262050DA22DF50C6
:1060C00002E1010E216E215012009DB09EA012002F
:1060D0009E90CD90800ECF6ECE6ACD800201D02BE7
:1060E000000ED123D223D323D42BD523D623D723D9
:1060F000000C17501902F3CF1BF0F4CF1CF017500F
:106100001A02F3501C2618501902F3501C261BC00B
:1061100017F01CC018F01200176A186AC2EC2CF0B5
:1061200017C06BF018C06CF06BC060F06CC061F011
:1061300031C062F032C063F09F0E9FEF30F000017B
:10614000646F666B676BA40E686F620E696F000EFA
:106150006A6F600E656F64C023F0650E246E660E74
:1061600047EF1BF0216A1FC017F020C018F0ECECBD
:106170002AF0000908E020EE36F01F50D926205002
:10618000DA22DF50216E215012001FC017F020C00C
:1061900018F0ECEC2AF00009D8B412001FC0D9FFA7
:1061A00020C0DAFF21C0DEFF22C0DDFF1200D3ECE9
:1061B00023F05FEC31F0CEEC31F044EC31F0E80E3E
:1061C000176E010E186EC2EC2CF00EEC2AF0000CCB
:1061D000176E9092908417C08DFF030EE82EFED7A5
:1061E00000F09080030EE82EFED700F09090120091
:1061F000176E90929094AD0EE82EFED700F017C067
:106200008DFF9080AD0EE82EFED700F0909012002A
:10621000176A176A1750020D000EF324D96E020E8A
:10622000F420DA6EDF6A172A070E1764F3D7070C1B
:1062300005D007D836EC31F0194A1A2A02D8F9E10C
:10624000120019C0D9FF1AC0DAFFDF501200010195
:10625000C2510E01E25D196E0101C3510E01E359F5
:106260001A6E19C017F01AC018F01200186E1F0E1F
:106270001864C4EF31F07F0E1860C4EF31F018508D
:10628000E8EC30F0C4EF31F0436A446A476A040E28
:106290000101D16F000ED06B0201206B216B226BCC
:1062A000236B1200176E0A0E171804E19EA8FED782
:1062B0000D0EAD6E9EA8FED717C0ADFF1200176A77
:1062C000000E1724D96EDA6A030EDA22DF6A172A63
:1062D000670E1764F5D7670C1A50E8CF61FF1950A5
:1062E000E8CF61FF1850E8CF61FF1750E8CF61FF9A
:1062F000120003D0000ED3EC31F01806D8A0190616
:106300001828F8E11928F6E11200948E949C7E6A10
:10631000590EAF6E7E86260EAC6EAB88AB8E260C09
:10632000928492860D0EC26E060EC16EBE0EC06EB7
:10633000C36AC46A120037C017F038C018F039C0F9
:1063400019F03AC01AF01200186E1850800FF8ECCD
:1063500030F0C4EF31F001D000F09DEC2FF00009D7
:10636000FBE012001850E8CF61FF1750E8CF61FF43
:106370001200C78CC79E010EC66EC68A010C966AB3
:10638000996A8D6A906A1200AD0EE82EFED700F071
:1063900012007ACFC0F17BCFC1F11200376A386AA0
:1063A000396A3A6A1200176E1750E8CF61FF12007F
:1063B000E2CEC2F1E3CEC3F1120065EC30F04992B7
:0863C00011002E0E1200010075
:020000040001F9
:06FFF800A0F4C5FFF0F7C4
:00000001FF
