:0400000014EF00F009
:060008005E8225EF33F0DB
:100018005E80E0CF01F000F001C0E0FF5E901000CC
:0400280042EF30F083
:101000000001000A006400E803102701001000003E
:1010100001001050494331384639374A36302045AF
:10102000544845524E455400FCFF086200FBFFB88F
:1010300030004400E23D00FFFFFFFFFFFF00DEAD98
:1010400000BEEF0D0A0D0A5374617274696E672059
:101050005379736C6F672061742025750D0A003019
:10106000313233343536373839616263646566004E
:1010700057616974696E6720666F72204C696E6B88
:10108000004C696E6B207374617274656400256432
:101090002E25642E25642E2564002575203A2025F2
:1010A000730D0A002578203A20256400286E756C9F
:1010B0006C2900000001CF6B2A0E08EC11F0F764D8
:1010C00003D00800F55003D03CEC11F0EF500001C4
:1010D000D36F2B0E08EC11F0F76403D00800F55025
:1010E00003D03CEC11F0EF500001D26FC5EF10F0CF
:1010F000020E08EC11F0F7640DD09AC1F5FF0D0057
:101100009BC1F5FF0D009CC1F5FF0D009DC1F5FFD2
:101110000C000AD03CEC11F09AC1EEFF9BC1EEFF2F
:101120009CC1EEFF9DC1EFFF060E08EC11F0F764C5
:1011300007D0B4C1F5FF0D00B5C1F5FF0C0006D016
:101140003CEC11F0B4C1EEFFB5C1EFFF140E08EC9A
:1011500011F0F76407D0F56A0D00F56A0D00ABECED
:1011600011F004D03CEC11F0F0EC11F0080E08EC9A
:1011700011F0F76403D0B0EC11F004D03CEC11F0A6
:10118000FEEC11F0080E08EC11F0F76403D053ECFC
:1011900011F004D03CEC11F099EC11F08BEC11F053
:1011A0000C0EA6EC11F033EC22F007EC12F0F76411
:1011B00003D0BDEC11F004D03CEC11F0F5EC11F0D3
:1011C00077EC11F066EC11F0F76403D0CAEC11F083
:1011D00004D03CEC11F029EC12F01C0E08EC11F0DC
:1011E000F76403D02EEC12F004D03CEC11F052EC7A
:1011F00012F0350E08EC11F0F76404D0120EF56E03
:101200000C0004D03CEC11F0120EEF6E300E08EC26
:1012100011F0F76403D0E5EC11F004D03CEC11F0D0
:1012200035EC12F0320E08EC11F0F76403D0E5EC67
:1012300011F004D03CEC11F035EC12F0340E08EC57
:1012400011F0F76404D0030EF56E0C0004D03CECF2
:1012500011F0030EEF6EEBEC11F0A2EC12F0030EA6
:10126000DCEF0FF00001D36BA0C102F0A1C103F0CD
:10127000FAEC23F0EFEF10F00001D251F3E0030A93
:1012800001E136D7EFEF10F0080E08EC11F0F7642B
:1012900003D0B0EC11F004D03CEC11F0FEEC11F0F6
:1012A000A2EC11F019EC11F0F76405D0D1EC11F0BB
:1012B000CAEC11F004D03CEC11F014EC12F077EC15
:1012C00011F066EC11F0F76403D0CAEC11F004D011
:1012D0003CEC11F029EC12F01C0E08EC11F0F76454
:1012E00003D02EEC12F004D03CEC11F052EC12F0D2
:1012F000300E08EC11F0F76403D0E5EC11F004D0E7
:101300003CEC11F035EC12F0320E08EC11F0F76401
:1013100003D0E5EC11F004D03CEC11F035EC12F008
:10132000340E08EC11F0F76404D0030EF56E0C00D7
:1013300004D03CEC11F0030EEF6E350E08EC11F00A
:10134000F76404D0120EF56E0C0004D03CEC11F0E2
:10135000120EEF6E80D7300E08EC11F0F76403D058
:10136000ABEC11F004D03CEC11F0EE6AEF6A100E19
:1013700008EC11F0F76403D053EC11F004D03CEC0E
:1013800011F099EC11F08BEC11F043EC12F079E1D3
:1013900057EC12F076E15CEC12F073E169EC12F0BC
:1013A000D8A46FD0100E08EC11F0F76403D053EC02
:1013B00011F004D03CEC11F099EC11F08BEC11F031
:1013C00041EC11F0F76403D0BDEC11F004D03CEC1B
:1013D00011F0F5EC11F0350E08EC11F0F76404D0C3
:1013E000100EF56E0C0004D03CEC11F0100EEF6EF8
:1013F000080E08EC11F0F76403D0B0EC11F004D043
:101400003CEC11F0FEEC11F0A2EC11F019EC11F033
:10141000F76405D0D1EC11F0CAEC11F004D03CEC2B
:1014200011F014EC12F077EC11F066EC11F0F764A7
:1014300003D0CAEC11F004D03CEC11F029EC12F00E
:101440001C0E08EC11F0F76403D02EEC12F004D05F
:101450003CEC11F052EC12F0EBEC11F0A2EC12F0BB
:10146000000902E1EFEF10F01DEC12F008EC11F0B2
:10147000F76404D0030EF56E0C0001D045D2EFEFF7
:1014800010F0100E08EC11F0F76403D0D8EC11F056
:1014900004D03CEC11F020EC12F0350E08EC11F009
:1014A000F76404D0140EF56E0C0004D03CEC11F07F
:1014B000140EEF6EEBEC11F0A2EC12F0000901E05B
:1014C000D1D6EFEF10F0300E08EC11F0F76403D036
:1014D000ABEC11F004D03CEC11F0EE6AEF6A100EA8
:1014E00008EC11F0F76403D053EC11F004D03CEC9D
:1014F00011F099EC11F08BEC11F043EC12F071E16A
:1015000057EC12F06EE15CEC12F06BE169EC12F05A
:10151000D8A467D0100E08EC11F0F76403D053EC98
:1015200011F004D03CEC11F099EC11F08BEC11F0BF
:1015300041EC11F0F76403D0BDEC11F004D03CECA9
:1015400011F0F5EC11F0350E08EC11F0F76404D051
:10155000100EF56E0C0004D03CEC11F0100EEF6E86
:10156000080E08EC11F0F76403D0B0EC11F004D0D1
:101570003CEC11F0FEEC11F0A2EC11F019EC11F0C2
:10158000F76405D0D1EC11F0CAEC11F004D03CECBA
:1015900011F014EC12F077EC11F066EC11F0F76436
:1015A00003D0CAEC11F004D03CEC11F029EC12F09D
:1015B0001C0E08EC11F0F76403D02EEC12F004D0EE
:1015C0003CEC11F052EC12F010EC12F008EC11F0BF
:1015D000F76404D0030EF56E0C0001D095D1EFEF47
:1015E00010F0100E08EC11F0F76403D0D8EC11F0F5
:1015F00004D03CEC11F020EC12F0350E08EC11F0A8
:10160000F76404D0040EF56E0C0004D03CEC11F02D
:10161000040EEF6EEBEC11F0A2EC12F04FD7340E8B
:1016200008EC11F0F76403D00800F55003D03CEC4F
:1016300011F0EF50000934E0EBEC11F0A2EC12F0E5
:10164000000902E1EFEF10F0350E08EC11F0F7643D
:1016500003D00800F55003D03CEC11F0EF5000012E
:10166000C56FC5B5FFD5350E08EC11F0F76403D092
:101670000800F55003D03CEC11F0EF500001C56FAD
:10168000C5A9EFEF10F01DEC12F008EC11F0F764B3
:1016900004D0030EF56E0C0001D036D1EFEF10F040
:1016A000350E08EC11F0F76404D0040EF56E0C0052
:1016B00004D03CEC11F0040EEF6EEBEC11F0A2EC58
:1016C00012F0FCD60001D25101E1CCD5030A01E1B0
:1016D000DBD5070A01E1F7D6010A01E13CD60C0A85
:1016E00001E1C0D5030A01E1BDD5060A98E0EFEF9C
:1016F00010F061EC12F0F76403D06EEC12F004D03D
:101700003CEC11F09DEC12F098EC12F003E193EC3C
:1017100012F0D8A4EFEF10F0300E08EC11F0F764DF
:1017200003D0ABEC11F004D03CEC11F0EE6AEF6AA0
:10173000020E08EC11F0F76403D053EC11F004D062
:101740003CEC11F099EC11F039EC12F03BE13EEC7D
:1017500012F038E148EC12F035E14DEC12F0D8A46B
:1017600031D0060E08EC11F0F76404D0090060ECEB
:1017700011F006D03CEC11F0EECFC5F0EECFC6F084
:1017800084EC12F01FE17AEC12F01CE1100E08EC70
:1017900011F0F76403D053EC11F004D03CEC11F0DD
:1017A00099EC11F08BEC11F043EC12F00BE157ECDB
:1017B00012F008E15CEC12F005E169EC12F002E1D4
:1017C000040ED36F360E08EC11F0F76404D0030E4C
:1017D000F56E0C0001D098D0EFEF10F0020E08EC7F
:1017E00011F0F76403D053EC11F004D03CEC11F08D
:1017F00099EC11F039EC12F009E13EEC12F006E13F
:1018000048EC12F003E14DEC12F0D8A4EFEF10F029
:10181000060E08EC11F0F76404D0090060EC11F03A
:1018200006D03CEC11F0EECFC5F0EECFC6F084EC64
:1018300012F003E17AEC12F0D8A4EFEF10F00C0EE6
:1018400008EC11F0F76403D053EC11F004D03CEC39
:1018500011F099EC11F089EC12F009E18EEC12F024
:1018600006E175EC12F003E17FEC12F0D8A4EFEF83
:1018700010F0100E08EC11F0F76403D053EC11F0E7
:1018800004D03CEC11F099EC11F08BEC11F043EC2E
:1018900012F009E157EC12F006E15CEC12F003E102
:1018A00069EC12F0D8A4EFEF10F0100E08EC11F074
:1018B000F76403D053EC11F004D03CEC11F099EC38
:1018C00011F08BEC11F041EC11F0F76403D0BDEC9A
:1018D00011F004D03CEC11F0F5EC11F0300E08ECF6
:1018E00011F0F76403D0ABEC11F004D03CEC11F034
:1018F000EE6AEF6A10EC12F008EC11F0F76404D015
:10190000030EF56E0C0004D03CEC11F0030EEF6EEC
:10191000EFEF10F0300E08EC11F0F76403D0ABECF1
:1019200011F004D03CEC11F0EE6AEF6A350E08ECD1
:1019300011F0F76404D0010EF56E0C0004D03CECFD
:1019400011F0010EEF6E300E08EC11F0F76403D0C9
:10195000E5EC11F004D03CEC11F035EC12F0320E55
:1019600008EC11F0F76403D0E5EC11F004D03CEC86
:1019700011F035EC12F0340E08EC11F0F76404D0DD
:10198000050EF56E0C0004D03CEC11F0050EEF6E68
:10199000050E0001D36FEBEC11F0A2EC12F0EFEFAB
:1019A00010F061EC12F0F76403D06EEC12F004D08A
:1019B0003CEC11F09DEC12F098EC12F003E193EC8A
:1019C00012F0D8A4EFEF10F00C0E08EC11F0F76451
:1019D00003D053EC11F004D03CEC11F099EC11F071
:1019E00089EC12F009E18EEC12F006E175EC12F0D0
:1019F00003E17FEC12F0D8A4F2D3020E08EC11F050
:101A0000F76407D0F56A0D00F56A0D00ABEC11F034
:101A100004D03CEC11F0F0EC11F0060EF9DBF764A9
:101A200003D0ABEC11F004D03CEC11F0EE6AEF6A9D
:101A3000100EEEDBF76407D0F56A0D00F56A0D00B5
:101A4000ABEC11F004D03CEC11F0F0EC11F0140E02
:101A5000DFDBF76407D0F56A0D00F56A0D00ABEC2B
:101A600011F004D03CEC11F0F0EC11F0080ED0DBDA
:101A7000F76407D0F56A0D00F56A0D00ABEC11F0C4
:101A800003D0FADBF0EC11F00C0EC2DBF76407D0E8
:101A9000F56A0D00F56A0D00ABEC11F003D0ECDB3C
:101AA000F0EC11F0180EB4DBF76403D0ABEC11F0DE
:101AB00003D0E2DBEE6AEF6A1C0EAADBF76403D008
:101AC000ABEC11F003D0D8DBEE6AEF6A010E000137
:101AD00073D2340E9DDBF76403D00800F55002D0BA
:101AE000CBDBEF50000901E056D7350E91DBF764F0
:101AF00004D0040EF56E0C0003D0BEDB040EEF6EB6
:101B0000EBEC11F0A2EC12F0000901E168D3020E37
:101B10007FDBF76407D0F56A0D00F56A0D00ABECCA
:101B200011F003D0A9DBF0EC11F0060E71DBF764C5
:101B300003D0ABEC11F003D09FDBEE6AEF6A100E1E
:101B400067DBF76407D0F56A0D00F56A0D00ABECB2
:101B500011F003D091DBF0EC11F0140E59DBF764B7
:101B600006D0F56A0D00F56A0D00F5DB03D084DBC5
:101B7000F0EC11F0080E4CDBF76406D0F56A0D00AE
:101B8000F56A0D00E8DB03D077DBF0EC11F00C0E0A
:101B90003FDBF76406D0F56A0D00F56A0D00DBDB6C
:101BA00003D06ADBF0EC11F0180E32DBF76402D0E0
:101BB000D2DB03D061DBEE6AEF6A1C0E29DBF7642F
:101BC00002D0C9DB03D058DBEE6AEF6A7FD7000191
:101BD000D25101E19FD6040A01E100D6010A01E1D8
:101BE00088D50C0A01E1DDD6030A01E1DAD6060A3E
:101BF00001E16FD7F4D2020E0BDBF76402D053DBA6
:101C000002D03ADB96DB39EC12F009E13EEC12F03F
:101C100006E148EC12F003E14DEC12F0D8A4DFD25B
:101C20000C0EF6DAF76402D03EDB02D025DB81DB56
:101C300089EC12F009E18EEC12F006E175EC12F07D
:101C400003E17FEC12F0D8A4CAD2140EE1DAF764F3
:101C500002D029DB02D010DB6CDB0101BC5100019A
:101C6000C55D0101BD510001C6590101BE51000110
:101C7000C7590101BF510001C85901E3B0D2100E8C
:101C8000C7DAF76402D00FDB02D0F6DA52DB43DBAF
:101C90000101BC510001C95D0101BD510001CA59DA
:101CA0000101BE510001CB590101BF510001CC59C6
:101CB00001E2ACD0100EACDAF76403D0090000DB0F
:101CC00005D0DADAEECFC5F0EECFC6F00101BC5197
:101CD0000001C55DD06F0101BD510001C659D16F32
:101CE000250E96DAF76403D00900EADA05D0C4DAE3
:101CF000EECFC5F0EECFC6F00001D051C55FD15197
:101D0000C65B250EE3DAF76402D044DB02D0B4DA16
:101D1000A0DB270E7DDAF76403D00900D1DA05D005
:101D2000ABDAEECFC5F0EECFC6F00001D051C5273B
:101D3000D151C623270ECADAF76402D02BDB02D0BA
:101D40009BDA87DB270E64DAF76403D00900B8DA80
:101D500005D092DAEECFC5F0EECFC6F00001C55146
:101D6000C61114E1290E54DAF76403D00800F550C7
:101D700002D082DAEF50020A09E1290E49DAF7644B
:101D800003D0F56A0C0002D077DAEF6A21EEBCF0DE
:101D9000FF0EDE240001C36FFF0EDE20C46FFF0EB6
:101DA000DE20C56FFF0EDE20C66F140E8FDAF764DB
:101DB00003D0F7DAEFDA02D05FDA36DB100E28DA7A
:101DC000F76402D0F5DA02D057DA3ADB0101AA5102
:101DD000AB1101E104D2080EA0250001C36F33EC62
:101DE00022F0C46FC3C0F6FFC4C0F7FF000EF86E48
:101DF0000F0EF76402D0B4DA02D03EDAFFDAAAC1DD
:101E00005AF0ABC15BF04AEC21F0E9D1350E00DAB3
:101E1000F76404D0140EF56E0C0003D02DDA140E06
:101E2000EF6ED9DAA2EC12F05EEF0AF0350EF0D9BF
:101E3000F76404D0010EF56E0C0003D01DDA010E1C
:101E4000EF6EA6D5100EE4D9F76402D0B1DA02D055
:101E500013DAF6DA0C0EDCD9F76402D024DA02D0F9
:101E60000BDA67DA58DA0C0E71DA33EC22F0CFDADB
:101E7000F76402D082DA02D0FFD9B7DA360EC8D9B9
:101E8000F76404D0040EF56E0C0003D0F5D9040EEF
:101E9000EF6E300EBDD9F76402D097DA02D0ECD9DC
:101EA000E4DA320EB5D9F76402D08FDA02D0E4D981
:101EB000DCDA340EADD9F76404D0050EF56E0C00F3
:101EC00003D0DAD9050EEF6E350EA2D9F76404D02F
:101ED000110EF56E0C0003D0CFD9110EEF6E090E66
:101EE00058D5340E95D9F76403D00800F55002D0C8
:101EF000C3D9EF50000901E04ED5350E89D9F764FA
:101F000004D0040EF56E0C0003D0B6D9040EEF6EAB
:101F100062DAA2EC12F05EEF0AF00001D25186E024
:101F2000040A01E168D6020A8DE0010A8BE00E0A7C
:101F300002E132EF09F0030A02E132EF09F0060A8A
:101F4000D0E04DD1350E64D9F76404D0100EF56E93
:101F50000C0003D091D9100EEF6E3DDAA2EC12F016
:101F6000000901E13CD1080E27D0300E51D9F764A9
:101F700002D02BDA02D080D978DA340E49D9F7644E
:101F800004D0010EF56E0C0003D076D9010EEF6E71
:101F9000060E9DD5350E3CD9F76404D0100EF56EB3
:101FA0000C0003D069D9100EEF6E15DAA2EC12F016
:101FB000000901E114D10A0ED36F11D1340E28D9D2
:101FC000F76403D00800F55002D056D9EF5000094D
:101FD00001E0E1D4350E1CD9F76404D0040EF56E8F
:101FE0000C0003D049D9040EEF6EF5D9A2EC12F023
:101FF0005EEF0AF00001D251040AB7E0020AA2E043
:10200000010AC8E00B0ADAE0EAD0E5D9A2EC12F046
:10201000CFD7340EFDD8F76403D00800F55002D0B6
:102020002BD9EF50000901E0B6D4350EF1D8F76492
:1020300004D0040EF56E0C0003D01ED9040EEF6E12
:10204000CAD9A2EC12F05EEF0AF00001D251060AE2
:10205000DCE00A0ADEE0C3D00001D251040AABE0A2
:10206000BED0020ED5D8F76402D01DD902D004D953
:1020700060D9FFD906E102DA04E10ADA02E10DDAF9
:10208000D8A4ADD0060EC4D8F76403D0090018D97F
:1020900005D0F2D8EECFC5F0EECFC6F035DA02E1CA
:1020A00029DA9AD09CD0340EB3D8F76403D0080054
:1020B000F55002D0E1D8EF50000901E06CD4350EA4
:1020C000A7D8F76404D0040EF56E0C0003D0D4D862
:1020D000040EEF6E80D9A2EC12F05EEF0AF0000160
:1020E000D251040ABEE0030ABCE00B0ADCE077D060
:1020F000300E8ED8F76402D068D902D0BDD8B5D9D9
:10210000320E86D8F76402D060D902D0B5D8ADD9E6
:10211000340E7ED8F76404D0030EF56E0C0003D0A5
:10212000ABD8030EEF6E350E73D8F76404D0020EF1
:10213000F56E0C0003D0A0D8020EEF6E4CD9A2ECC5
:1021400012F0020ED36F010ECF6F49D0020E60D88D
:10215000F76406D0F56A0D00F56A0D00FCD802D0D0
:102160008BD83ED9060E54D8F76402D0F4D803D0E9
:1021700083D8EE6AEF6A010E0001E4D70001D25164
:10218000010AB6E0030AE2E02AD02A0E41D8F76439
:1021900003D00800F55002D06FD8EF50000AEEE0EF
:1021A000010A02E13CEF09F0030A02E162EF0BF0E1
:1021B000010A01E10CD5070A01E1AFD6010A01E1EC
:1021C00019D7030A01E141D7010A09E00F0A01E129
:1021D00043D7010A84E0030A02E132EF09F02B0E33
:1021E00017D8F76404D00D0EF56E0C0003D044D858
:1021F0000D0EEF6E2A0E0CD8F76404D0D3C0F5FF95
:102200000C0003D039D8D3C0EFFF0001CF5112002A
:102210000101A0250001C36F000E0101A1210001F1
:10222000C46FC3C0F6FFC4C0F7FF000EF86E0F0EF8
:1022300012000001C36F000E0101B9210001C46F3B
:10224000000E0101BA210001C56F000E0101BB2182
:102250000001C66F0C0E0101A0250001C76F000E22
:102260000101A1210001C86FC7C0F6FFC8C0F7FF78
:10227000000EF86E0F0E1200F6CFE9FFF7CFEAFF5F
:102280001200100E0101A0250001CD6F000E01010A
:10229000A1210001CE6FCDC0F6FFCEC0F7FF000E2A
:1022A000F86E0F0E12000900F5CFC5F00900F5CF4A
:1022B000C6F00900F5CFC7F00900F5CFC8F012004D
:1022C000F5CFC5F00900F5CFC6F012000101A02539
:1022D0000001C76F000E0101A1210001C86FC7C036
:1022E000F6FFC8C0F7FF000EF86E0F0E12000101D6
:1022F000C2510001C46FC36B21EEC2F0DECFC5F046
:10230000DDCFC6F0C6C0C5F0C66BC66BC351C513E2
:10231000C451C613180C010E0001C525C96F000E6B
:10232000C621CA6F000EC721CB6F000EC821CC6F2B
:102330001200EECFC5F0EECFC6F0EECFC7F0EECF75
:10234000C8F01200010E0101B82512000101A025FC
:102350000001CD6F1200F56A0D00F56A0C00120045
:10236000B8C1F5FF0D00B9C1F5FF0D00BAC1F5FF09
:102370000D00BBC1F5FF0C001200C9C0F5FF0D0038
:10238000CAC0F5FF0D00CBC0F5FF0D00CCC0F5FFB6
:102390000C001200C5C0F5FF0D00C6C0F5FF0C0013
:1023A0001200C3C0F5FF0D00C4C0F5FF0D00120000
:1023B000BCC1F5FF0D00BDC1F5FF0D00BEC1F5FFAD
:1023C0000D00BFC1F5FF0C001200020EF56E0D00EE
:1023D000F56A0C00020CA0C158F0A1C159F012001E
:1023E000EE6AEE6AEE6AEF6A1200C9C0EEFFCAC07A
:1023F000EEFFCBC0EEFFCCC0EFFF1200B8C1EEFF86
:10240000B9C1EEFFBAC1EEFFBBC1EFFF1200CE6F44
:10241000CDC0F6FFCEC0F7FF000EF86E0F0E120013
:10242000040E0001D36F360CC3C0EEFFC4C0EEFF34
:10243000C5C0EEFFC6C0EFFF1200040ED36F360C0E
:10244000BCC1EEFFBDC1EEFFBEC1EEFFBFC1EFFFDD
:102450001200C5C0EEFFC6C0EFFF1200AEC1F5FF0F
:102460000D00AFC1F5FF0C001200020EEE6EEF6A18
:10247000020C01019A510001C519120001019B5182
:102480000001C61912000101BC510001C919120056
:1024900001019C510001C719120001019D51000169
:1024A000C8191200AEC1EEFFAFC1EFFF120001016B
:1024B000BD510001CA1912000101BE510001CB1922
:1024C0001200A0C1F6FFA1C1F7FF000EF86E0F0EBB
:1024D00012000101BF510001CC1912000900F5CF13
:1024E000C3F00900F5CFC4F012000101BA51000198
:1024F000C71912000101B5510001C61912000101EE
:10250000BB510001C81912000101B4510001C519E5
:1025100012000101B8510001C51912000101B951A1
:102520000001C61912000101B7510001C4191200BF
:102530000101B6510001C3191200EECFC3F0EECF76
:10254000C4F0120071DBF76407D00900F5CF67F023
:102550000900F5CF68F006D03CEC11F0EECF67F043
:10256000EECF68F0000167516A6F696B5DDBF7645D
:1025700002D0AFDA03D03CEC11F049DB6CC06BF059
:1025800000016C6B6C6B69516B11A06F6A516C111F
:10259000A16F060E582438DAF76402D06BDA03D044
:1025A0003CEC11F07BDA61DB060EA8DAF76402D0AE
:1025B0004ADB03D03CEC11F05DDB2EDBA26F6C51EB
:1025C0007011A36F100E58241FDAF76403D052DA8B
:1025D00080DA04D03CEC11F061DA19DBEADA100E93
:1025E00050DAF76402D0B1DA03D03CEC11F0F4DA3F
:1025F00077DA100E90DAF76402D0B4DA03D03CEC4C
:1026000011F0F3DA58DA100E93DAF76402D0B7DA81
:1026100003D03CEC11F0F2DA03DAA46F6E5194119E
:10262000A56F6F519511A66F70519611A76F0C0E83
:102630005824EAD9F76403D01DDA4BDA04D03CEC15
:1026400011F02CDAE4DAB5DA0C0E1BDAF76402D0FA
:102650007CDA03D03CEC11F0BFDA42DA0C0E5BDA24
:10266000F76402D07FDA03D03CEC11F0BEDA23DA53
:102670000C0E5EDAF76402D082DA03D03CEC11F083
:10268000BDDACED9A86F6E519411A96F6F51951113
:10269000AA6F70519611AB6FAC91F10EAC17AC51A3
:1026A0000F0B5009AC6F1A0E5824AED9F76402D044
:1026B000E1D903D03CEC11F0F1D9D7DA1A0E1EDAC9
:1026C000F76402D0C0DA03D03CEC11F0D3DAA4DA1C
:1026D000AE6F6C517011AF6FB06BB16BB26BB36B0F
:1026E000350E582491D9F76403D00800F55003D073
:1026F0003CEC11F0EF500001696F060E691703E022
:102700009E6B9F6B96D0270E58247ED9F76402D01B
:102710005CDA03D03CEC11F09DDA00019E519F1170
:1027200001E187D0180E58246FD9F76402D0A2D9DE
:1027300003D03CEC11F0B2D992DA0AE2180E582418
:1027400063D9F76402D041DA03D03CEC11F082DAAD
:102750001C0E5824000158D9F76402D08BD903D03D
:102760003CEC11F09BD97BDA0AE21C0E58244CD9C0
:10277000F76402D02ADA03D03CEC11F06BDA93D97B
:1027800043D9F76407D00900F5CF97F00900F5CFDA
:1027900098F006D03CEC11F0EECF97F0EECF98F029
:1027A00082D932D9F76402D065D903D03CEC11F05C
:1027B00075D900019E5169279F516A23250EECD9D6
:1027C000F76402D039DA03D03CEC11F05CDA6FD94F
:1027D0001BD9F76402D04ED903D03CEC11F05ED97E
:1027E00000019E51695F9F516A5B270ED5D9F7643E
:1027F00002D022DA03D03CEC11F045DA58D904D9E2
:10280000F76402D037D903D03CEC11F047D900016E
:1028100069516A110EE1350E5824F6D8F76405D0D7
:10282000080E0800F5120C0004D03CEC11F0080E64
:10283000EF12350E58240001E7D8F76403D00800E2
:10284000F55003D03CEC11F0EF500001AD6F140EC9
:102850009E259B6F000E9F219C6F020E5824D4D89A
:10286000F7640DD00900F5CF4BF00900F5CF4CF01F
:102870000900F5CF4DF00900F5CF4EF00AD03CEC41
:1028800011F0EECF4BF0EECF4CF0EECF4DF0EECF9F
:102890004EF0060E4F6E37EC23F09D6F9D513AE0DF
:1028A000A00E036E046AF4D9A6EC2DF000019E512F
:1028B0009F110AE097C003F098C004F09EC005F095
:1028C0009FC006F0A6EC2DF0060E00019B25996F27
:1028D000000E9C219A6FD3D99B250F6E000E9C2170
:1028E000106E99C011F09AC012F071EC29F00DC071
:1028F00099F00EC09AF0C9EC2CF0320E0D6E990EC4
:10290000D0EC2DF09BC01DF09CC01EF098EC2CF07C
:1029100000019D6F9D5141E1340E582475D8F76434
:1029200003D00800F55003D03CEC11F0EF5000014B
:10293000696F692B340E58246A6F000E59206B6F33
:102940006AC0F6FF6BC0F7FF000EF86E0F0EF7645B
:1029500004D069C0F5FF0C0004D03CEC11F069C054
:10296000EFFF300E582400014FD8F76402D082D810
:1029700003D03CEC11F092D8000169516A1141E199
:10298000300E582441D8F76403D0E5EC11F004D0A0
:102990003CEC11F035EC12F034D0100E582434D841
:1029A000F76403D067D895D804D03CEC11F076D802
:1029B0002ED900019E5169256D6F9F516A216E6F5E
:1029C000000E6B216F6F000E6C21706F100E59D8C6
:1029D000F7640DD06DC0F5FF0D006EC0F5FF0D0062
:1029E0006FC0F5FF0D0070C0F5FF0C000AD03CEC85
:1029F00011F06DC0EEFF6EC0EEFF6FC0EEFF70C055
:102A0000EFFF00019D511200676F000E5920686FA3
:102A100067C0F6FF68C0F7FF000EF86E0F0E1200D9
:102A200000018B6B8C6B8D6B8A518E6F190E05D0EC
:102A3000D8908E338D338C338B33E82EF9D7815178
:102A40008B118F6F82518C11906F83518D11916F0B
:102A500084518E11926F77518F11936F785190112D
:102A6000946F79519111956F7A519211966F6D51C2
:102A7000931112000900F5CF69F00900F5CF6AF053
:102A800012005824716F000E5920726F71C0F6FF4A
:102A900072C0F7FF000EF86E0F0E1200EECF69F055
:102AA000EECF6AF01200250E582400011200270E06
:102AB0005824000112007EC07DF07FC07EF080C0EF
:102AC0007FF00001806B816B7E51826F836B846B22
:102AD00012000900F5CF6BF00900F5CF6CF0120081
:102AE0000001776B7451786F796B7A6B79C07AF0EB
:102AF00078C079F077C078F0776B120058246D6F4A
:102B0000000E59206E6F6DC0F6FF6EC0F7FF000E0D
:102B1000F86E0F0E120058247B6F000E59207C6F48
:102B20007BC0F6FF7CC0F7FF000EF86E0F0E1200A0
:102B30005824856F000E5920866F85C0F6FF86C029
:102B4000F7FF000EF86E0F0E12000900F5CF73F0BC
:102B50000900F5CF74F00900F5CF75F00900F5CF45
:102B600076F012000900F5CF7DF00900F5CF7EF078
:102B70000900F5CF7FF00900F5CF80F012000900C1
:102B8000F5CF87F00900F5CF88F00900F5CF89F07F
:102B90000900F5CF8AF0120058246B6F000E5920FF
:102BA0006C6F6BC0F6FF6CC0F7FF000EF86E0F0E77
:102BB0001200000169516D6F6E6B6F6B706B6DC0B1
:102BC00070F06F6B6E6B6D6B12000900F5CF9EF0AD
:102BD0000900F5CF9FF01200EECF73F0EECF74F046
:102BE000EECF75F0EECF76F01200EECF7DF0EECFA7
:102BF0007EF0EECF7FF0EECF80F01200EECF87F0C8
:102C0000EECF88F0EECF89F0EECF8AF01200EECF53
:102C10006BF0EECF6CF0120070C06FF00001706BC3
:102C2000706B6B516F11120058C0F6FF59C0F7FF5F
:102C3000000EF86E0F0E120069C0F5FF0D006AC09D
:102C4000F5FF0C0012000900F5CF6FF00900F5CF79
:102C500070F01200EECF9EF0EECF9FF01200000158
:102C60009E51695D9F516A591200000169516C6F54
:102C70006B6B1200EECF6FF0EECF70F012000E6AA9
:102C80001A0E0D6E080C69C0EEFF6AC0EFFF12004D
:102C9000066A140E056E140CF66B01019A6B9B6BA1
:102CA0009C6B9D6BAA6BAB6BB40E036E010EF5D9DA
:102CB0009AEC2BF0A06BA16BB651B711D8B41200EF
:102CC000B451B511D8B41200B4510001DB6FDA6B06
:102CD0000101B5510001DC6FE5D9B46FE8D9B56FDA
:102CE000B6510001DB6FDA6B21EEB6F0DECFDCF01F
:102CF000DDCFDDF0DDC0DCF0DD6BD4D9B66FD7D928
:102D0000B76FACC1F7F0ADC1F8F044D0F7C0F6FF33
:102D1000F8C0F7FF000EF86E0F0EF76407D0090039
:102D2000F5CFDAF00900F5CFDBF006D03CEC11F07E
:102D3000EECFDAF0EECFDBF00001DA510101B61987
:102D40000AE10001DB510101B71905E1F7C0A0F16B
:102D5000F8C0A1F12AD02C0E0001F725DA6F000E81
:102D6000F821DB6FDAC0F6FFDBC0F7FF000EF86E6C
:102D70000F0EF76407D00900F5CFF7F00900F5CF83
:102D8000F8F006D03CEC11F0EECFF7F0EECFF8F013
:102D90000001F62B0001F751F81107E0F651800A07
:102DA000DA6F5D50800ADA5DB1E30101A051A11133
:102DB000D8B41200060EEAD8F76402D053D903D073
:102DC0003CEC11F056D90101B4510001DC1905E1C8
:102DD0000101B5510001DD191BE0020E0101D6D839
:102DE000F76408D03FD90900F5CFDEF00900F5CF30
:102DF000DFF007D03CEC11F03CD9EECFDEF0EECFA7
:102E0000DFF00001DC51DD11DE11DF11D8A412006A
:102E1000D4C09AF1D5C09BF1D6C09CF1D7C09DF12A
:102E20000101C0390F0B0001DA6FDB6BD890DA3784
:102E3000DB37D890DA37DB37DA51D85D0101AA6F7A
:102E40000001DB51D9590101AB6F38EC27F0E806DE
:102E5000D8A412000101C1A31CD0C1A90DD02B0E12
:102E600095D8F76404D0050EF56E0C0004D03CEC48
:102E700011F0050E48D057D02B0E88D8F76404D037
:102E8000030EF56E0C0004D03CEC11F0030E3BD0A9
:102E90004AD0C1A11CD0C1A90DD02B0E77D8F764A0
:102EA00004D0070EF56E0C0004D03CEC11F0070EB8
:102EB0002AD039D02B0E6AD8F76404D0060EF56EEE
:102EC0000C0004D03CEC11F0060E1DD02CD0C1A596
:102ED0001CD0C1A90DD02B0E59D8F76404D00A0E0E
:102EE000F56E0C0004D03CEC11F00A0E0CD01BD097
:102EF0002B0E4CD8F76404D0090EF56E0C0004D0EC
:102F00003CEC11F0090EEF6E0ED0C1A90CD02B0EC7
:102F10003DD8F76404D0040EF56E0C0004D03CECF0
:102F200011F0040EEF6E0101BC5191D821EEBCF0FE
:102F30006DD8BCC1E2F0BDC1E3F0BEC1E4F0BFC1D9
:102F4000E5F078D821EEBCF031D8BC6F9CD8BD6FCD
:102F50009FD8BE6F93D8BF6FB85179D821EEB8F023
:102F600055D8B8C1E2F0B9C1E3F0BAC1E4F0BBC1D1
:102F7000E5F060D821EEB8F019D8B86F84D8B96FF1
:102F800087D8BA6F7BD8BB6F5AEF08F0A025000135
:102F9000DA6F000E0101A1210001DB6FDAC0F6FF3C
:102FA000DBC0F7FF000EF86E0F0E1200DE14EA6FA2
:102FB000000EDE14EB6F000EDE14EC6FFF0EDE145D
:102FC000ED6F190E05D0D890ED33EC33EB33EA33C7
:102FD000E82EF9D7E651EA11EE6FE751EB11EF6FEA
:102FE000E851EC11F06FE951ED11F16FDE51EE1186
:102FF000F26FDF51EF11F36FE051F011F46FE15117
:10300000F111F56FDA51F21101011200000EDE1418
:10301000DE6FFF0EDE14DF6F000EDE14E06F000EB9
:10302000DE14E16FE0C0E1F0DFC0E0F0DEC0DFF011
:10303000DE6B1200E3C0E2F0E4C0E3F0E5C0E4F0D0
:10304000E56BE66BE351E76FE86BE96B000C0001A1
:10305000DA6FDB6BDC6BDD6BDAC0DDF0DC6BDB6B5E
:10306000DA6B12000900F5CFDCF00900F5CFDDF0D6
:103070001200EECFDCF0EECFDDF012000001DD51EA
:10308000F511010112000001DB51F31101011200E1
:103090000001DC51F41101011200046E066A140EE5
:1030A000056E140CDD6BDA51DC1101011200000118
:1030B000DB51DD1101011200C80E0C6E010E15EC82
:1030C00031F0ABEC32F0430EC81901E188D11200A7
:1030D00059EC32F0D8B01200010E21EC33F01CECA8
:1030E00033F0D7D9B5EC32F002C0C2F003C0C3F060
:1030F00004C0C4F005C0C5F0C2C08AF1C3C08BF1E2
:10310000C4C08CF1C5C08DF19ED9FAEC2DF0000140
:10311000C16FC10508E1010E046E04504CEC32F0A1
:10312000E3EC2BF003D0000E21EC33F0010E010193
:10313000B36F010C1CEC33F0ACD9B5EC32F092C19A
:10314000B9F093C1BAF094C1BBF095C1BCF059EC91
:1031500032F003E3000E21EC33F075D9FAEC2DF0D8
:103160000001C16FC10510E10A6A040E096EB90EB3
:103170000B6E0BC003F0046A09C005F00AC006F02C
:10318000A6EC2DF0E3EC2BF0886A0101B36BA3EF02
:1031900031F059EC32F0D8A01200B5EC32F046D93B
:1031A00006E167D904E16AD902E15ED9D8A4120028
:1031B00088B002D0888012008890120059EC32F05A
:1031C000D8A01200B5EC32F031D906E152D904E1B1
:1031D00055D902E149D9D8A4120088B202D0888218
:1031E00012008892120059EC32F0D8A01200B5EC0F
:1031F00032F01CD906E13DD904E140D902E134D9CD
:10320000D8A4120088B402D08884120088941200D6
:1032100059EC32F0D8A01200B5EC32F007D906E133
:1032200028D904E12BD902E11FD9D8A4120088B60D
:1032300002D0888612008896120059EC32F0D8A08D
:103240001200B5EC32F0F2D806E113D904E116D938
:1032500002E10AD9D8A4120088B802D088881200E6
:103260008898120059EC32F0D8A01200B5EC32F078
:10327000DDD806E1FED804E101D902E1F5D8D8A4F1
:10328000120088BA02D0888A1200889A120059EC7B
:1032900032F0D8A01200B5EC32F0C8D806E1E9D877
:1032A00004E1ECD802E1E0D8D8A4120088BC02D036
:1032B000888C1200889C120059EC32F0D8A01200C1
:1032C000B5EC32F0B3D806E1D4D804E1D7D802E1A6
:1032D000CBD8D8A4120088BE02D0888E1200889E57
:1032E000120059EC32F0D8A01200A3EC31F0770EA6
:1032F000CAD8200E066E1AEC31F0970EC4D8100E04
:10330000066E1AEC31F0A70EBED8100E066E1AEC3F
:1033100031F0B5EC32F08AD806E1ABD804E1AED892
:1033200002E1A2D8D8A4120091EC30F00001BE6FE7
:10333000100EBE651CD0970E0C6E0D6A0F6A100E33
:103340000E6EABEC32F0000EE5EC32F0970E046E30
:10335000056A06EC32F0100E0001BE5FA70E9ED883
:10336000ABEC32F0000EDEEC32F0A70E08D0770E98
:1033700095D8ABEC32F0000EE5EC32F0770E046E2F
:10338000056A0CEF32F059EC32F0D8A01200B5EC1F
:1033900032F04CD84AE16DD848E170D846E164D8A3
:1033A000D8A412001CEC33F074D866EC32F006C0DE
:1033B000B7F007C0B8F047D8FAEC2DF00001C16FA4
:1033C000C105D8A41200B7C005F0B8C006F005C00A
:1033D00003F006C004F091EC31F0E3EF2BF0C9519B
:1033E000310A01E1D6D6030A01E1E8D6010A01E17A
:1033F000FAD6070A01E10CD7010A01E11ED7030A38
:1034000001E130D7010A01E142D70F0A01E154D7A7
:103410007B0A01E15DD6070A01E163D7160A01E1E3
:1034200089D6060AD8A41200AED7120002C0C2F094
:1034300003C0C3F004C0C4F005C0C5F00001C25110
:1034400001018A1912008AC167F08BC168F08CC132
:1034500069F08DC16AF000016C69FD0E6B6FBFC031
:103460006DF0C0C06EF0FD0C0001C55101018D1959
:1034700012000001C35101018B1912000001C45157
:1034800001018C191200026E036A056A046A076A58
:10349000120002C0BFF003C0C0F012000C6E0D6A33
:1034A000BEC00EF00F6A1200390E036E046A066A7F
:1034B0001C0E056E9AEC2BF003C02FF004C030F008
:1034C0001C0E2F183010D8A41200316A88D9080EAB
:1034D000356E20EE06F07ED9DE5047181AE1DE5038
:1034E000481817E1DE50491814E1DE504A1811E17E
:1034F00020EE0AF06FD9DE503B180BE1DE503C188D
:1035000008E14DD9DBCFE3FFE806FCE2010E316EA6
:1035100007D00D0E3726000E382235063550D9E17A
:10352000F5EC23F0D8B4120051502FD920EE51F011
:1035300018D951C017F052C018F053C019F054C038
:103540001AF03BD920EE51F0D3D892512B1809E153
:1035500093512C1806E194512D1803E195512E1822
:10356000D8A41200315049E13AD92E0E336E020E22
:10357000346E080E366E20EE0CF03350D9263450DF
:10358000DA2210EE0CF03750E1263850E222DE50FD
:10359000E65C04E233C037F034C038F00D0E332659
:1035A000000E342236063650E6E1F9D8DBCFE3FFD1
:1035B000E806FCE24750E9D820EE47F0D2D847C0F1
:1035C00017F048C018F049C019F04AC01AF0F5D8F1
:1035D00020EE47F08DD820EE06F0FCD82BC0DEFFA1
:1035E0002CC0DEFF2DC0DEFF2EC0DEFF20EE0AF075
:1035F000F1D83BC0DEFF3CC0DDFF40043F10D8A443
:103600001200410E0B6E0C6A5BEC25F07CEC2DF089
:10361000326E3204D8A4120020EE41F010EE4BF0CE
:10362000050EDBCFE3FFE806FCE2410E086E096AF7
:10363000FCEC2CF047C051F048C052F049C053F0A8
:103640004AC054F001019251A0D8136A9351146EEC
:10365000156A166A15C016F014C015F013C014F0E0
:10366000136A176A9451186E196A17501A6E185017
:103670001B6E19501C6E1D6A1E6A1F6A206A9551C6
:10368000216E190E05D0D890213220321F321E3201
:10369000E82EF9D71A501E10226E1B501F10236EF1
:1036A0001C502010246E1D502110256E1350221026
:1036B000266E14502310276E15502410286E1650B5
:1036C0002510296E0F502610476E10502710486E97
:1036D00011502810496E125029104A6E020E406E89
:1036E0003F6A390E4FEC25F0A6EC2DF0C5EF31F016
:1036F000DE141F6E000EDE14206E000EDE14216E2E
:10370000FF0EDE14226E190E05D0D890223221321F
:1037100020321F32E82EF9D71B501F10236E1C5089
:103720002010246E1D502110256E1E502210266E72
:1037300013502310276E14502410286E1550251096
:10374000296E165026102A6E0F5027102B6E10501F
:1037500028102C6E115029102D6E12502A102E6E2A
:103760001200000EDE14136EFF0EDE14146E000E37
:10377000DE14156E000EDE14166E15C016F014C0A1
:1037800015F013C014F0136A12000F6E106A116A5C
:10379000126A0FC012F0116A106A0F6A120020EE4E
:1037A0000CF03750D9263850DA22DF6A20EE41F08B
:1037B00037C0E1FF38C0E2FF050C18C017F019C090
:1037C00018F01AC019F01A6A1B6A18501C6E1D6A8C
:1037D0001E6A000C3750D9263850DA2212002E0EFD
:1037E000376E020E386E12000001FA6BFB6B0E6A28
:1037F000140E0D6E106A0F6ABCEC28F04ED901E071
:103800001200960E036E020E4DEC18F09AEC2BF09F
:10381000020196390F0B040A01E01200A65145D9A6
:1038200022EEA6F003D9A6C208F1A7C209F1A8C2E8
:103830000AF1A9C20BF117D922EEA6F0C7D8A66FDC
:103840004ED9A76F3DD9A86F45D9A96FA2512DD9DF
:1038500022EEA2F0EBD8A2C208F1A3C209F1A4C2E1
:103860000AF1A5C20BF1FFD822EEA2F0AFD8A26FE9
:1038700036D9A36F25D9A46F2DD9A56F0101925117
:103880000201A6190FE1010193510201A7190AE1F2
:10389000010194510201A81905E1010195510201AC
:1038A000A91909E0A62906E1A72904E1A82902E14E
:1038B000A929D8A4120098510101016F006B22EED2
:1038C00098F0DECF02F1DDCF03F103C102F1036B0B
:1038D000036B005102110201986F010101510311A4
:1038E0000201996FF2D8D8900037D89000350001C6
:1038F000F96F0201EAD8050E00655FD0EC0E0001F9
:10390000F9250B6E0C6AFF0E0C22DFEC2EF055D061
:103910000001F9510201985D9DD8FAC00DF0FBC07D
:103920000EF0106A0F6ABCEC28F0B7D8D8A41200C9
:10393000960E5A6E020E5B6E94EF2EF00001F95156
:103940000201985D87D8D0D802EC2BF099D8BCEC56
:1039500028F00DC0FCF00EC0FDF0FCC0C6F0FDC0AC
:10396000C7F0BFEF27F00001F9510201985D72D84E
:10397000BBD802EC2BF084D8BCEC28F08ED8D8A4AD
:103980001200A2C22AF2A3C22BF2A4C22CF2A5C238
:103990002DF22AC2D4F02BC2D5F02CC2D6F02DC203
:1039A000D7F0FAC0D8F0FBC0D9F04CEF16F098C2AF
:1039B0000BF099C20CF0DFEF2EF002019F51010ACB
:1039C000A7E0070AD0E0170AB9E0F1D7DE14106FBC
:1039D000000EDE14116F000EDE14126FFF0EDE14E7
:1039E000136F190E05D0D8901333123311331033DF
:1039F000E82EF9D70C511011146F0D511111156FDC
:103A00000E511211166F0F511311176F045114112B
:103A1000186F05511511196F065116111A6F0751BC
:103A200017111B6F0051181102011200000EDE1455
:103A3000046FFF0EDE14056F000EDE14066F000E1D
:103A4000DE14076F06C107F105C106F104C105F1D7
:103A5000046B12000001FA6F02019951D8A0990578
:103A60000001FB6F120009C108F10AC109F10BC185
:103A70000AF10B6B0C6B09510D6F0E6B0F6B000C89
:103A800002C0FCF003C0FDF0FAC00DF0FBC00EF068
:103A9000FCC00FF0FDC010F012000DC0FCF00EC015
:103AA000FDF00001FC51FD1112000101006F016BDE
:103AB000026B036B00C103F1026B016B006B120020
:103AC000010102511A110201120096510F0B01015E
:103AD000006F1200010103511B11020112000101CC
:103AE0000151191102011200FAC002F0FBC003F0EB
:103AF00012001B6E1ED1250E1A1818E037D9DE50A1
:103B0000DE10DE100EE032D901D813D10500FA6EB6
:103B1000DE50FD6EDE50FE6EDE50FF6EFA501A5023
:103B2000120018D91AC0DFFF30D903D1176A50D05C
:103B3000178E5FD021D9DECF15F0DECF16F01550ED
:103B4000161035E1AC0E156E1550D8A4100E166E79
:103B50002ED00CD9DE50DE10DE101AE007D901D8C5
:103B600014D00500FA6EDE50FD6EDE50FE6EDE50A3
:103B7000FF6EFA5019D90F0EF76403D00800F55004
:103B800003D03CEC11F0EF501200154A162A0FD06A
:103B90000BD9E0D80F0EF76403D00800F55003D01E
:103BA0003CEC11F0EF50DF6E154A162AEED8FCD827
:103BB0000F0EF76403D00800F55003D03CEC11F071
:103BC000EF50000901E1B5D0C4D7C00E171211D0D3
:103BD0000E2A0E04B7D8F6D801E1B1D0640A09E084
:103BE0000D0A07E01A0AA6E0060AEFE00D0AA0E0B7
:103BF000A0D017C010F0C00E10160BE1BDD8ECD845
:103C000019AE2CD0030E1712186C191ED8B0192A31
:103C100025D0B2D8E1D822D0010E1A6E1A50C0D8E1
:103C200091D80900F550185C0900F55019581DE3AA
:103C30001A2A050E1A1819E0F1D7010E1A6E1A5039
:103C4000ABD880D80900F550185C0900F550195818
:103C50000CE31A2A040E1A1808E0F1D71750C00B0B
:103C6000DBE0800AEAE0400AD7E017C010F0030E5C
:103C7000101616E07BD8DE50DE10DE100DE076D890
:103C800001D80ED00500FA6EDE50FD6EDE50FE6EDD
:103C9000DE50FF6EFA502D0C5DD82D0EDF6E75D8FC
:103CA0001AC014F043D014507BD84CD884D88FD885
:103CB000BAEC2EF002C009F003C00AF00C6A0A0E3A
:103CC0000B6EE9EC2FF00950300F1A6E18D07FD828
:103CD000145062D837D86FD8BAEC2EF002500F0BC0
:103CE000136E13505F0F2ED80800F5CF1AF007D0CF
:103CF0001750C00BD8E0800AEAE0400AD4E036D87A
:103D0000DE50DE10DE100EE031D801D80FD00500F5
:103D1000FA6EDE50FD6EDE50FE6EDE50FF6EFA5023
:103D20001A50120017D81AC0DFFF2FD81406142813
:103D3000DFE10E2A0E0406D845D801E0DCD60E6A73
:103D40000F6A1200106E10C0F6FF100EF76E000E14
:103D5000F86E12001B50D96EDA6ADECF10F0DDCF9C
:103D600011F010C0D9FF11C0DAFF12001B50D96E3C
:103D7000DA6A020ED926020C0F50D96EDA6A020EE8
:103D8000DF26DF5CD96EDA6A12001B50D96EDA6A60
:103D9000DE2A000EDD22000C020DF3500B0F120084
:103DA000020DF350010F120015C0F6FF16C0F7FF09
:103DB000000EF86E12000900F5CF04F00A00F5CFEE
:103DC00005F012000800F5CF1AF01A50120018C0C2
:103DD00002F019C003F01200DECF18F0DECF19F0A8
:103DE00012008C0E086E096AFCEC2CF05ABE120010
:103DF0005A5004E1F10E595CD8A012006EEC2EF07E
:103E000003C083F004C084F00001830503E1020EC7
:103E10008419D8A412000C6A020E0B6EDFEC2EF08F
:103E2000CEEC2CF003C07FF004C080F005C081F020
:103E300006C082F0500E00017F1909E1480E80197A
:103E400006E1430E811903E14D0E8219D8A4120038
:103E5000F6D8DFEC2EF0CEEC2CF003C093F004C0CB
:103E600094F005C095F006C096F000019351776F6D
:103E7000786B9451796F7A6B95517B6F7C6B96C0A0
:103E80007DF07E6BDCD8DFEC2EF0860E036E046ACC
:103E9000066A060E056E9AEC2BF08C0E026E046A12
:103EA000060E036E860E48EC2EF00250031001E061
:103EB000B5D00C6ACA0E0B6EDFEC2EF0CEEC2CF0F7
:103EC000630E031809E1530E041806E1820E05186B
:103ED00003E1630E0618D8A41200100E5926FF0E37
:103EE0005A228DD091EC30F00001856F91EC30F0CA
:103EF0000001926F92515B6E5C6A020E5B26000EAF
:103F00005C225B50595E5C505A5A6BD0CEEC2CF060
:103F100003C096F104C097F105C098F106C099F16D
:103F20006ED0CEEC2CF003C026F204C027F205C000
:103F300028F206C029F263D0030E926560D0CEEC61
:103F40002CF003C010F204C011F205C012F206C03A
:103F500013F2040E0001925F030E926550D0CEEC76
:103F60002CF003C014F204C015F205C016F206C00E
:103F700017F2040E0001925F42D0030E92653FD00B
:103F8000CEEC2CF003C08EF104C08FF105C090F18F
:103F900006C091F1EED7CEEC2CF003C022F204C0A3
:103FA00023F205C024F206C025F2E3D73FD8040E61
:103FB00004D03CD8050E01D0010E0001FF6F08D0DF
:103FC00091EC30F0020AF2E0070AF3E0030AF4E0B1
:103FD0000001920714D092C00BF00C6ADFEC2EF0B7
:103FE0000ED08551010A92E0020A9BE0050AA4E086
:103FF000350AC3E0060AE4E0030ACDE0ECD75ABE76
:1040000005D05A5002E15904D8B06CD7040E000113
:10401000FF19D8A41200030E5EEF22F0DE0E592421
:104020000B6EFF0E5A200C6EDFEF2EF093C092F154
:1040300094C093F195C094F196C095F112000C6A6A
:10404000080E0B6E080C0001DC6BDD6B0101A44B4C
:10405000A52B040EA55D03E2040EA56FA46BACC1F5
:10406000DEF0ADC1DFF0E8D0300EFBD8F76402D04F
:1040700005D903D03CEC11F008D90001D651D71175
:1040800001E1C5D0D469D569300EDE25D66F000EAA
:10409000DF21D76FD6C0F6FFD7C0F7FF000EF86E4E
:1040A0000F0EF76407D00900F5CFD8F00900F5CF5F
:1040B000D9F006D03CEC11F0EECFD8F0EECFD9F02D
:1040C0000001D451D827D551D923300EDE25DA6F1F
:1040D000000EDF21DB6FDAC0F6FFDBC0F7FF000E5A
:1040E000F86E0F0EF76407D0D8C0F5FF0D00D9C0E9
:1040F000F5FF0C0006D03CEC11F0D8C0EEFFD9C0A3
:10410000EFFF300E0001ADD8F76402D0B7D803D06E
:104110003CEC11F0BAD80001D651D71178E1340E39
:10412000A0D8F76403D00800F55003D03CEC11F0A0
:10413000EF5000096CE02B0E000193D8F76403D018
:104140000800F55003D03CEC11F0EF500D0A5FE190
:10415000320E000186D8F76402D090D803D03CEC30
:1041600011F093D8300E0001DE25D86F000EDF214C
:10417000D96FD8C0F6FFD9C0F7FF000EF86E0F0E4A
:10418000F76407D0D6C0F5FF0D00D7C0F5FF0C00CF
:1041900006D03CEC11F0D6C0EEFFD7C0EFFF340ED6
:1041A00000015FD8F76403D00800F55003D03CEC61
:1041B00011F0EF500001D66FD607340EDE25D76F11
:1041C000000EDF21D86FD7C0F6FFD8C0F7FF000E72
:1041D000F86E0F0EF76404D0D6C0F5FF0C0004D0C3
:1041E0003CEC11F0D6C0EFFF2B0E00013AD8F7647B
:1041F00004D00C0EF56E0C0004D03CEC11F00C0E4B
:10420000EF6EDEC0A0F1DFC0A1F15AEC08F02C0E79
:10421000000127D8F76407D00900F5CFDEF00900C8
:10422000F5CFDFF006D03CEC11F0EECFDEF0EECFB4
:10423000DFF00001DC4BDD2B0001DE51DF11D8B4D3
:1042400012005DC0D4F0D56BD4BFD507D451DC5D6E
:10425000DD51800AD66FD551800AD65901E204D7C4
:104260001200DE25D46F000EDF21D56FD4C0F6FF1B
:10427000D5C0F7FF000EF86E0F0E12000900F5CF43
:10428000D6F00900F5CFD7F01200EECFD6F0EECF82
:10429000D7F01200220E0101D6D8F76403D008002F
:1042A000F55003D03CEC11F0EF50E806D8A4120012
:1042B0001A0E0101C8D8F76402D0DFD803D03CEC55
:1042C00011F0EBD85A500001B65D5B50B75905E3C9
:1042D0005AC0C1F05BC0C2F012D01A0E0101B3D8AF
:1042E000F76407D00900F5CFC1F00900F5CFC2F09F
:1042F00006D03CEC11F0EECFC1F0EECFC2F0200EB4
:104300000101A1D8F76407D00900F5CF03F0090037
:10431000F5CF04F006D03CEC11F0EECF03F0EECF79
:1043200004F0C1C005F0C2C006F09AEC2BF0200EDC
:104330008AD8F76402D0A1D803D03CEC11F0ADD8F4
:104340000001C151B627C251B723200E91D88BD896
:104350009BD8F76402D0A6D803D03CEC11F0A9D8C2
:104360001A0E010170D8F76402D087D803D03CEC54
:1043700011F093D80001C151B65FC251B75B1A0E5C
:1043800077D871D881D8F76402D08CD803D03CECB0
:1043900011F08FD8080E010156D8F76408D06DD8F7
:1043A0000900F5CFB8F00900F5CFB9F007D03CEC23
:1043B00011F073D8EECFB8F0EECFB9F00001C151D3
:1043C000B625BA6FC251B721BB6F000EB821BC6FC2
:1043D000000EB921BD6F0C0E0101A0250001BE6FBA
:1043E00042D8BF6FBEC0F6FFBFC0F7FF000EF86E29
:1043F0000F0EF7640DD0BAC0F5FF0D00BBC0F5FF7E
:104400000D00BCC0F5FF0D00BDC0F5FF0C000AD0CB
:104410003CEC11F0BAC0EEFFBBC0EEFFBCC0EEFF3B
:10442000BDC0EFFF350E01010ED8F76404D0100EA9
:10443000F56E0C0004D03CEC11F0100EEF6EEBECBE
:1044400011F0A2EF12F0A0250001B46F000E0101DF
:10445000A1210001B56FB4C0F6FFB5C0F7FF000E93
:10446000F86E0F0E1200000E0101A12100011200D2
:104470000101A0250001B86F12000900F5CFB6F0C8
:104480000900F5CFB7F01200B96FB8C0F6FFB9C098
:10449000F7FF000EF86E0F0E1200EECFB6F0EECF63
:1044A000B7F01200B6C0F5FF0D00B7C0F5FF0C0065
:1044B0001200B6C0EEFFB7C0EFFF12000001706F30
:1044C000710E086E096AFCEC2CF0B6EC28F06C6BEF
:1044D000440E6B6F6E6B430E6D6FFAEC2DF00001A6
:1044E0006F6F6F05D8A41200036A060E046E010EEA
:1044F000056E066E44EC31F0500E036E480E046EED
:10450000430E056E4D0E066E44EC31F0036A800ECC
:10451000046E056A066A44EC31F0030E000170195E
:1045200004E199D844EC31F003D08CD844EC31F05C
:1045300092D844EC31F08FD844EC31F08CD844EC74
:1045400031F08ED8A6EC2DF0056ACA0E046E7EEC12
:1045500032F0630E036E530E046E820E056E630E10
:10456000066E44EC31F0350E4CEC32F0010E4CECA2
:1045700032F0000170514CEC32F0030E0001701962
:1045800019E1360E4CEC32F0040E4CEC32F022C243
:1045900003F023C204F024C205F025C206F044EC67
:1045A00031F0320E4CEC32F0040E4CEC32F04AD8C2
:1045B00044EC31F0370E4CEC32F0040E4CEC32F09F
:1045C000010E4CEC32F0030E4CEC32F0060E4CECCB
:1045D00032F00F0E4CEC32F0390E4CEC32F0020E91
:1045E0004CEC32F0020E046E036A91EC31F00C0ECA
:1045F0004CEC32F0140E4CEC32F0130E036E035000
:10460000D8A4100E046E48EC16F0A6EC2DF03D0E6A
:104610004CEC32F0070E4CEC32F0010E4CEC32F068
:104620001FD8A6EC2DF0FF0E4CEC32F0000E4CEC37
:1046300032F0E3EC2BF000017005D8A41200030E59
:10464000FF6F030C92C103F093C104F094C105F015
:1046500095C106F01200036A046A056A066A120030
:10466000710E036E046A066A060E056E060C0001E2
:10467000666B0101BAD803E1110E4F1862E1920591
:1046800005E17F0E9519931194115BE04B2806E12B
:104690004C2804E14D2802E14E2856E0925196152F
:1046A000506E93519715516E94519815526E9551C5
:1046B0009915536E4B509615546E4C509715556E78
:1046C0004D509815566E4E509915576E50505418BF
:1046D00012E1515055180FE1525056180CE1535049
:1046E000571809E14BC060F04CC061F04DC062F05A
:1046F0004EC063F008D026C260F027C261F028C225
:1047000062F029C263F060C002F061C003F062C0D1
:1047100004F063C005F021EC2EF002C064F003C089
:1047200065F000016451651116E160C00FF061C0D1
:1047300010F062C011F063C012F0AFEC24F0000181
:10474000666F000166511200370E0001646F6451FC
:10475000D8A4100E656F64C00BF065C00CF0080E95
:104760000E6E0D6A7CEC2DF00001666F6605E9E1C6
:10477000450E046E036A91EC31F0046A036A91EC11
:1047800031F0036A400E046E550E056EAA0E066ED9
:1047900044EC31F0400E4CEC32F04F504CEC32F027
:1047A000046A036A91EC31F022EC23F044EC31F01E
:1047B0004BC003F04CC004F04DC005F04EC006F0F5
:1047C00044EC31F092C1A2F293C1A3F294C1A4F2DD
:1047D00095C1A5F24BC0A6F24CC0A7F24DC0A8F2FD
:1047E0004EC0A9F24FC09FF2ACD7925193119411D1
:1047F00095111200020EA6D8F76407D0F56A0D00D5
:10480000F56A0D00ABEC11F004D03CEC11F0F0ECCB
:1048100011F0060E97D8F76403D0ABEC11F004D07A
:104820003CEC11F0EE6AEF6A100E8CD8F76407D0FA
:10483000F56A0D00F56A0D00ABEC11F004D03CEC0C
:1048400011F0F0EC11F0140E7DD8F76407D0F56A82
:104850000D00F56A0D00ABEC11F004D03CEC11F04A
:10486000F0EC11F0080E6ED8F76407D0F56A0D0071
:10487000F56A0D00ABEC11F004D03CEC11F0F0EC5B
:1048800011F00C0E5FD8F76407D0F56A0D00F56AD9
:104890000D00ABEC11F004D03CEC11F0F0EC11F099
:1048A000180E50D8F76403D0ABEC11F004D03CECF8
:1048B00011F0EE6AEF6A300E45D8F76403D0ABEC26
:1048C00011F004D03CEC11F0EE6AEF6A320E3AD8E7
:1048D000F76403D0ABEC11F004D03CEC11F0EE6ABD
:1048E000EF6A340E2FD8F76403D0F56A0C0003D0BA
:1048F0003CEC11F0EF6A350E25D8F76403D0F56A69
:104900000C0003D03CEC11F0EF6A02C0F6FF03C0CC
:10491000F7FF000EF86E0F0EF76403D0ABEC11F04A
:1049200004D03CEC11F0EE6AEF6A360E0BD8F76457
:1049300004D0010EF56E0C0004D03CEC11F0010E19
:10494000EF6E12000224046E000E0320056E04C0F8
:10495000F6FF05C0F7FF000EF86E0F0E1200010EF5
:10496000306E2F6A326A080E316E060E336E040EF8
:10497000346E010E366E356A370E086E096AFCEC2D
:104980002CF00101925180D8935172D8945163D880
:104990009551256E190E01D088D8E82EFDD740D844
:1049A0003D6E14502B103E6E15502C103F6E16505D
:1049B0002D10406E0F5068D810505AD811504BD857
:1049C0001250256E190E01D070D8E82EFDD728D8C8
:1049D000476E14502B10486E15502C10496E16500F
:1049E0002D104A6E416A426A436A446A456A466AC1
:1049F000370E0B6E0B50D8A4100E0C6E5CD87CECEE
:104A00002DF02E6E2E040AE12F0E49D8A6EC2DF0C3
:104A1000C5EC31F02E6E2E0401E1050C2E50120073
:104A20001E502210266E1F502310276E2050241077
:104A3000286E21502510296E175026102A6E185006
:104A400027102B6E195028102C6E1A5029102D6E1D
:104A500013502A1012001C6E1D6A1B501E6E1C5033
:104A60001F6E1D50206E216A226A236A246A12007A
:104A7000186E196A1A6A19C01AF018C019F017C00E
:104A800018F0176A1B6A1200136E146A156A166A08
:104A900013C016F0156A146A136A176A1200036EBF
:104AA000046A066A1C0E056E1C0CD890253224324E
:104AB000233222321200080E0E6E060E0D6E060C08
:104AC000746F0001736B20EE0CF09BD8DECF4BF0BF
:104AD000DECF4CF0DECF4DF0DECF4EF020EE09F011
:104AE00090D8DF504F6E37EC23F0736F73056BE196
:104AF00020EE02F086D8DECF67F0DDCF68F0EC0E56
:104B00006725716FFF0E6821726F58C0D9FF59C0B9
:104B1000DAFFDF500F0B676F686BD8906737683725
:104B2000D8906737683720EE02F06BD8DECF69F097
:104B3000DDCF6AF06751695D716F68516A59726FB4
:104B4000046A036A91EC31F0046A036A91EC31F073
:104B50005DD8040E4AD8040E38D891EC31F056D8FE
:104B6000060E43D8060E31D891EC31F0F80E000154
:104B700071250D6EFF0E72210E6EB5EC2AF000014C
:104B8000736F730520E1C7EC32F00E6A220E0D6ED2
:104B900071C00FF072C010F0126A116A71EC29F046
:104BA0000DC06FF00EC070F0C9EC2CF0240E0D6E2D
:104BB0006F0ED0EC2DF071C01DF072C01EF098EC9D
:104BC0002CF00001736F73511200D926DECF6BF009
:104BD000DDCF6CF06CC06BF06C6B6C6B69516B1162
:104BE000036E6A516C11046E1200D926DECF67F095
:104BF000DDCF68F067516A6F696B7451D96EDA6AFC
:104C000012005850D9265950DA221200000174516E
:104C1000D96EDA6A1200010E0201C46FCAEC2FF0DD
:104C2000B4EC31F0A9EC30F0D08EF28EF28C700E34
:104C300088D86CEC31F0D7EC32F0810E82D86CEC75
:104C400031F0C90E026E020E036E52EC2DF002011D
:104C5000C92B000ECA23CB23CC23C50E026E020E35
:104C6000036E52EC2DF067EC2AF0C00E026E020EBD
:104C7000036E52EC2DF0BEEC32F002C0EDF203C038
:104C8000EEF204C0EFF205C0F0F20201C4510CE1F3
:104C9000ED51BC1909E1EE51BD1906E1EF51BE1904
:104CA00003E1F051BF1938E0EDC2BCF2EEC2BDF233
:104CB000EFC2BEF2F0C2BFF2CD0E026E020E036E64
:104CC000056A046A076A200E066E1AEC31F0CD0EF2
:104CD0001C6E020E1D6E8E0E1E6EF0C21FF0206A3C
:104CE000EFC221F0226AEEC223F0246AEDC225F061
:104CF000266AEEEC30F0000EE5EC32F0CD0E046EDC
:104D0000020E056E06EC32F0CD0E276E020E286EF6
:104D10006CEC31F00201C46BC951C55DCA51C65972
:104D2000CB51C759C851800A0101826F0201CC5191
:104D3000800A0101825991E3A0EC32F043EC28F0A3
:104D400086D7276E2750D8A4100E286E12008A9A94
:104D5000939A880E146E460EE82EFED7142EFCD7BA
:104D600000D0818493948A8A060E146E680EE82E11
:104D7000FED7142EFCD793848A86010183918395F4
:104D80008399839B866B876B60EC2CF065D8000E53
:104D9000066A056A29EC2FF0160E67D829EC2FF069
:104DA00056D829EC2FF0160E066E056AF60E29EC81
:104DB0002FF0160E066E056AF80E29EC2FF0000E85
:104DC0006AEC2FF00BC016F00CC017F0179616C047
:104DD0000BF017C00CF0000EC0EC30F0050E0C6E9E
:104DE000E10E0B6E040EC0EC30F008D0040E146E11
:104DF000750EE82EFED7142EFCD700F0146A110EA3
:104E0000156EFA0E04EC2FF0145005161550061608
:104E1000110E06180510EAE1066A590E056E340EE9
:104E200029EC2FF0880E066E4B0E056E720E29ECE3
:104E30002FF017D88AEC2FF0C00EF3EC32F0B20E40
:104E4000086E020E096EFCEC2CF077EF30F05F0E6E
:104E5000066EFE0E056E060C160E0101A76FA66B00
:104E6000160C066A010E056EFE0C066E056A040C31
:104E7000116AC0390F0B0F6E106AD8900F361036BA
:104E8000D8900F361036EC0E0F24136EFF0E102044
:104E9000146E13106BE0020EAF6F180EAE6FC1A34D
:104EA00062D059D091EC30F0126E4ED013501410E5
:104EB00005E060D8DFEC2EF0136A146A010E116E63
:104EC0004AD0145003E1030E135C1DE391EC30F063
:104ED000126E040E121814E16EEC2EF003C0AEF147
:104EE00004C0AFF1FD0E1326FF0E1422B50EAE5D09
:104EF000050EAF59E3E3050EAF6FB40EAE6FDED70C
:104F0000136A146A28D0136A146A116A24D091ECC7
:104F100030F0126E1306D8A01406010E1264F3D7F7
:104F2000FE0E122612500F6E106A0F50135C1050B6
:104F30001458E9E312C00BF00C6ADFEC2EF01250AB
:104F4000135E000E145ABAD71250B0E0010A03E003
:104F5000030AB7E0DCD71306D8A014061328A2E191
:104F6000142806E09FD706D8DFEC2EF0010E116E54
:104F70001150120013C00BF014C00CF01200280ED8
:104F80000001D06FAA0E036E020E046EB6EC2EF076
:104F90009AEC2BF00201B051B11105E00001C651AD
:104FA000C711D8A412000201AC510001C96FC86B2F
:104FB00022EEACF05ED8CA110201AC6F0001C951FB
:104FC000CB110201AD6FAA510001C96FC86B02017C
:104FD000AB510001CA6FCB6BC851CA110101A26F5E
:104FE0000001C951CB110101A36F0001CE6BCF6B42
:104FF000D0C0F6FF39D80201AC510900F51828E1FC
:10500000AD510900F51824E1AE510001C96FC86B1C
:1050100022EEAEF02ED8CA13C951CB13F80ECA2512
:10502000596EFF0ECB215A6ED0C0CCF0020ECC27A9
:10503000CCC0F6FF19D80500FA6E0900F550FD6ED8
:105040000900F550FE6E0900F550FF6EFA5012008F
:10505000050E0001D027CE4BCF2BCF5104E1030E1C
:10506000CE5DC6E312001200100EF76E000EF86E51
:105070001200DECFCAF0DDCFCBF0CBC0CAF0CB6BD5
:10508000CB6BC851120059EC32F00FE26FD867D8E1
:10509000FAEC2DF000016F6F6F0507E14C0E046E06
:1050A00004504CEC32F0E3EC2BF00101B351D8B4D6
:1050B0001200020ED7EC30F002C070F003C071F0A5
:1050C000640E0101A825596E000EA9215A6E000137
:1050D0007051595C71515A5811E39C0E596E5A68BF
:1050E000A8C15BF0A9C15CF059505B265A505C2204
:1050F0005B50705D5C507159D8B01200715104E181
:10510000650E705DD8A012008AC167F08BC168F08F
:105110008CC169F08DC16AF022D8FAEC2DF0000143
:105120006F6F6F0517E1500E046E04504CEC32F0B7
:1051300070C007F071C008F0096A0A6A07C003F07E
:1051400008C004F009C005F00AC006F044EC31F0D4
:10515000E3EC2BF070C0A8F171C0A9F112006C69EA
:10516000FD0E6B6F6E69FB0E6D6FFB0C00016769C6
:10517000686969696A691200FE0E04EC2FF051D863
:105180000BBAFAD7C1EC29F0AAEC2FF08A0E04EC86
:105190002FF005C017F006C018F048D80A0E29EC09
:1051A0002FF00DC005F00EC006F00C0E29EC2FF00C
:1051B0001A6A200E196E0F50101016E019860F1E75
:1051C000101E0F50126E116A1050136E146A115097
:1051D00013100F6E12501410106E0FC005F010C097
:1051E00006F0100E29EC2FF019C005F01AC006F0D9
:1051F000FE0E8AEC2FF0FE0E04EC2FF012D80BBA44
:10520000FAD7100E04EC2FF005C015F006C016F00A
:105210000DD88A0E29EC2FF015C00DF016C00EF037
:10522000120005C00BF006C00CF0120017C005F00C
:1052300018C006F01200010183A3120028EC2CF024
:10524000700E036E010E046E066A0E0E056E9AEC69
:105250002BF07C511D6F1C6B21EE7CF0DECF1EF11C
:10526000DDCF1FF11FC11EF11F6B1F6B1C511E11E3
:105270007C6F1D511F117D6F1AD054EC1AF05DEF39
:1052800030F0F4EC1BF05DEF30F0200E1C6E010EE0
:105290001D6EA40E1E6E7CC11FF07DC120F07CC16E
:1052A00021F07DC122F0EEEC30F05DEF30F021EE28
:1052B0007CF0DECF1CF1DDCF1DF11D51080A05E0A9
:1052C000890A08E0070A08E0E0D71C51DAE0060A7C
:1052D000D4E0DBD71C5102D01C51DD0AD6E15DEFD2
:1052E00030F0FE0E04EC2FF011EC29F00BBAF9D7D8
:1052F00048D8AAEC2FF00DC005F00EC006F00A0E3B
:1053000029EC2FF00FC005F010C006F00C0E29ECB0
:105310002FF01C6A200E1B6E1150121016E01B8617
:10532000111E121E1150146E136A1250156E166A59
:1053300013501510116E14501610126E11C005F096
:1053400012C006F0100E29EC2FF01BC005F01CC097
:1053500006F0FE0E8AEC2FF0FE0E04EC2FF011EC9E
:1053600029F00BBAF9D7100E04EC2FF005C017F096
:1053700006C018F0196A1A6A17C00DF018C00EF0AE
:105380001200066A1C0E056EFE0CFA0E04EC2FF0DD
:1053900005C00FF006C010F0FC0E04EC2FF005C0A5
:1053A00011F006C012F011501210D8B4120012A65B
:1053B00029D001018389420E04EC2FF005C00DF0C5
:1053C00006C00EF00101839510B0838510A405D0AE
:1053D0000C6A150E0B6E0D8007D00C6A120E0B6E48
:1053E000FE0E0D12FF0E0E120BC005F00CC006F0E3
:1053F000440E29EC2FF00DC005F00EC006F0420E51
:1054000029EC2FF011A602D00101839B11A211B04B
:105410004AEC2FF00F5002E111AC03D0010183A33D
:10542000838311C005F012C006F0FC0EAAEF2FF026
:1054300012EC33F046D8E82EFED7032EFCD700D06E
:1054400040D8E82EFED7032EFCD700D03AD8E82E5D
:10545000FED7032EFCD700D034D8E82EFED7032E7B
:10546000FCD700D0030EF6EC31F02ED8E82EFED794
:10547000032EFCD700F0030EF6EC31F025D8E82E11
:10548000FED7032EFCD700F0030EF6EC31F0380EF9
:10549000F6EC31F017EC33F00C0EF6EC31F017ECC3
:1054A00033F0010EF6EC31F017EC33F0010EF6ECB0
:1054B00031F01C0E036E0D0EE82EFED7032EFCD726
:1054C0001200880E036E460C370E036E1B0CC5ECE3
:1054D00029F01BEC29F07E0E026E010E036E52ECD9
:1054E0002DF00201B85101017E5D0201B9510101A7
:1054F0007F590201BA51010180598151800A00018E
:10550000FE6F0201BB51800A0001FE5903E32FEC3C
:1055100031F023D801017E5102011E5D01017F514E
:1055200002011F5901018051020120592151800AB5
:105530000001FE6F01018151800A0001FE5904E261
:105540004EEC2BF023EC20F07EC11EF27FC11FF247
:1055500080C120F281C121F212000A0E0201B82797
:10556000000EB923BA23BB23000CFE0E04EC2FF06F
:1055700011EC29F00BBAF9D7FE0E04EC2FF005BAA6
:105580003AD0880E04EC2FF005C00FF006C010F0E2
:1055900086C105F087C106F00A0E29EC2FF00DC078
:1055A00005F00EC006F00C0E29EC2FF026D80E0EDA
:1055B00029EC2FF0066A040E056EFE0EAAEC2FF001
:1055C000066A380E056EFE0E8AEC2FF0FE0E04EC15
:1055D0002FF011EC29F00BBAF9D70D500F260E5011
:1055E00010220BD8880E29EC2FF00D5001019E27B8
:1055F0000E509F23010CFF000C0C0FC005F010C0D3
:1056000006F012000A6A0B6A0C6A0D6AA2C20EF05A
:10561000A3C20FF0A4C210F0A5C211F0A6C212F0EE
:10562000A7C213F0A8C214F0A9C215F09FC216F0C9
:10563000176A02C018F003C019F00C0E096ED8905A
:1056400009320E0E086E11D00850D96EDA6ADECF1C
:1056500004F0DDCF05F004500A2605500B22000EA1
:105660000C220D220906020E08260950EDE10A500F
:10567000046E0B50056E066A076A0C5004240A6E0D
:105680000D5005200B6E000E06200C6E000E07203C
:105690000D6E0AC002F00BC003F01200010183A9D5
:1056A00017D0050E0001FF190BE13ED809E00201F9
:1056B0002269236924692569030E5EEC22F005D076
:1056C000010E0001FF6F5EEC22F0010183991200D0
:1056D0000001FF0503E0020EFF1904E1010EFF6F58
:1056E0005EEF22F00101915190118F110AE1640ED9
:1056F0008E5D07E2050E0001FF1903E1030E5EEF68
:1057000022F0050E0001FF1908E10ED806E08E0711
:10571000000E8F5B905B915B000C06D8D8A4120042
:10572000020E0001FF6F020C01018E518F119011CA
:105730009111120005C00AF006C00BF003C008F07A
:1057400004C009F002011851191138E00550185D24
:105750000650195904E218C20AF019C20BF00A5097
:10576000185F0B50195B8A962C0EF3EC32F017D0B1
:1057700008C0F6FF09C0F7FF000EF86E000EF3EC4C
:1057800032F0076E0F0EF76404D007C0F5FF0C006F
:1057900004D03CEC11F007C0EFFF084A092A0A06C2
:1057A000D8A00B060A28E4E10B28E2E18A86010171
:1057B000839105C003F006C004F01200010183814B
:1057C000036A046A120015EC32F00BC02FF00CC013
:1057D00030F031D8C9EC2CF0260E0D6E2F0ED0EC27
:1057E0002DF029D8110E2F242D6E000E30202E6E94
:1057F0003FEC16F02F240F6E000E3020106E2DC0DF
:1058000011F02EC012F071EC29F00DC02DF00EC079
:105810002EF02D502E1002E12D682E68C9EC2CF0D0
:10582000280E0D6E2D0ED0EC2DF02FC01DF030C0C7
:105830001EF098EF2CF02F50296E286A30502A6EF7
:105840002B6A28502A102F6E29502B10306E120010
:10585000A6C103F0A7C104F072EC32F08A962C0EB8
:10586000F3EC32F0000EF3EC32F00101A66F000E03
:10587000F3EC32F00101A76F000EF3EC32F00201FD
:10588000186F000EF3EC32F00201196F000EF3EC0A
:1058900032F002011A6F000EF3EC32F002011B6FBE
:1058A000000EF3EC32F002011C6F000EF3EC32F04C
:1058B00002011D6F8A86040E185F000E195B000C32
:1058C000120E066E340E056EF60E29EC2FF0F60E53
:1058D00004EC2FF0340E0518F3E1120E0618F0E177
:1058E000066A100E056E6E0E8AEC2FF00B6A1A0E09
:1058F0000C6EFA0E04EC2FF00B5005160C50061629
:105900001A0E06180510F2E110D8E82EFED70B2E5D
:10591000FCD7F60E04EC2FF005500610D1E105D8A7
:10592000E82EFED70B2EFCD712000E0E0B6E860C47
:10593000140E1D24266E000E1E20276E2650206E8B
:105940001F6A2750216E226A1F502110266E205098
:105950002210276E1ED8100E0D6E260ED0EC2DF0E4
:105960000E6A0E0E0D6E106A140E0F6E126A116A18
:1059700071EC29F00DC024F00EC025F00AD8180EE5
:105980000D6E240ED0EC2DF0C5EC31F0236E2350BB
:1059900012000C6A020E0B6E0E6A020C0201195103
:1059A00003E1040E185D21E38A962C0EF3EC32F02D
:1059B000000EF3EC32F00A6E000EF3EC32F0096EDA
:1059C000000EF3EC32F0086E000EF3EC32F0076ECE
:1059D0008A86040E8DEC2EF007C003F008C004F098
:1059E00009C005F00AC006F0000C01018381036ABA
:1059F000046A056A066A1200640E08EC30F021D8C9
:105A0000084A092A650E08EC30F01BD8084A092A12
:105A1000620E08EC30F015D8084A092A630E08EC2B
:105A200030F00FD8084A092A600E08EC30F009D887
:105A3000084A092A610E08EC30F003D8084A092AFE
:105A4000120008C0D9FF09C0DAFFDF6E1200036E32
:105A50000350E00B046E0101B219D8B41200800E9D
:105A60000418D8B4120004C0B2F18A9610D0C00E47
:105A7000F3EC32F015D0C20EF3EC32F011D0C40EBC
:105A8000F3EC32F00DD0C60EF3EC32F009D0045036
:105A9000EEE0200AF0E0600AF2E0200AF4E0800A7A
:105AA0008A861200000EF2BE010E066EF29EF1C250
:105AB00007F0F2C208F0F3C209F0F4C20AF006A03F
:105AC00002D0F28E01D0F29E025003100CE002C010
:105AD000D9FF03C0DAFF07C0DEFF08C0DEFF09C040
:105AE000DEFF0AC0DEFF07C002F008C003F009C0F5
:105AF00004F00AC005F0120001019E6B9F6B83BB8E
:105B0000030CFE0E04EC2FF005B2040C066A056AC5
:105B1000880E29EC2FF00BC003F00CC004F012D853
:105B2000A6EC2DF0B20E036E020E046E0BD8A6EC9E
:105B30002DF00DC003F00EC004F091EC31F0010126
:105B4000838B010C066A060E056E060C03C007F077
:105B500004C008F08A96055001019E2706509F2335
:105B60002A0EF3EC32F013D007C0F6FF08C0F7FF9F
:105B7000000EF86E0F0EF76403D00800F55003D046
:105B80003CEC11F0EF50F3EC32F0074A082A05061E
:105B9000D8A006060528E8E10628E6E18A86120074
:105BA000116E880E04EC2FF005C00FF006C010F047
:105BB0000DC005F00EC006F0880E29EC2FF08A9675
:105BC0002A0EF3EC32F007D01150D96EDA6ADF50AA
:105BD000F3EC32F0112A0B06D8A00C060B28F4E1E6
:105BE0000C28F2E18A860FC005F010C006F0880E7E
:105BF00029EF2FF067C04BF068C04CF069C04DF042
:105C00006AC04EF0110E4F6E37EC23F0586E5804F8
:105C100016E1CFEC32F06BC003F06CC004F091ECF5
:105C200031F06DC003F06EC004F091EC31F0046A05
:105C3000036A91EC31F0046A036A91EC31F0585038
:105C400012002E0E0A6E020E0B6E0C6A20EE06F08B
:105C50000A50D9260B50DA220250DE180EE103500A
:105C6000DE180BE10450DE1808E10550DE1805E1EE
:105C70000AC002F00BC003F012000D0E0A26000E3F
:105C80000B220C2A070E0C64E1D7026A036A120089
:105C9000076E1AD00250D96EDA6A0750E16EE26AD6
:105CA000DE50E6180FE00750D96EDA6ADF50056E55
:105CB0000250D96EDA6ADF50055C026E036AD8A022
:105CC00003061200072A022A0306D8A004060328A6
:105CD000E1E10428DFE1026A036A120002011951BE
:105CE00003E1020E185D14E38A962C0EF3EC32F0F9
:105CF000000EF3EC32F0066E000EF3EC32F0056E9F
:105D00008A86020E0AD805C003F006C004F0000C13
:105D100001018381036A046A12000201185F000E08
:105D2000195B01018391000C7A0E036E046A1ED880
:105D30009AEC2BF0C7EC32F007D05AC058F05BC099
:105D400059F07A0E60EF25F000017A51766F756B8D
:105D50007B51776F786B7551771376517813785143
:105D6000080AD8A412007751E8E01200066A080E6B
:105D7000056E080C076A086A045005101BE0010E46
:105D8000066E04D0D89004360536062A05AEFAD73A
:105D9000D890073608360450025C0550035805E3D6
:105DA0000450025E0550035A0780D8900532043231
:105DB000062EEED707C002F008C003F01200020161
:105DC00018510B5C19510C5804E318C20BF019C29E
:105DD0000CF00B500C1012E08A0E04EC2FF005C0F2
:105DE0000DF006C00EF00B500D260C500E220DC00B
:105DF00005F00EC006F08A0E29EC2FF00B500201C0
:105E0000185F0C50195B12000A6E0A50E00B076E07
:105E1000800E071809E00A5027EC2DF08A960A50E8
:105E20001F0BF3EC32F007D08A96200EF3EC32F021
:105E30000A50F3EC32F0000EF3EC32F0086E000E74
:105E4000F3EC32F0096E8A8608C005F009C006F04E
:105E50001200086E0850E00B076E800E07180BE06A
:105E6000085027EC2DF08A961F0E0816085040099E
:105E7000F3EC32F007D08A96220EF3EC32F00850A1
:105E8000F3EC32F00550F3EC32F00650F3EC32F064
:105E90008A861200066A200E056E6E0E8AEC2FF0BE
:105EA000066A200E056E6E0EAAEC2FF0066A010E31
:105EB000056EFE0EAAEC2FF02CEC27F035EC27F047
:105EC00029EC2FF027EC27F029EC2FF031EC27F00C
:105ED0008AEF2FF00D6E000E0D10D3EC30F029EC90
:105EE0002FF0066A010E056E520E8AEC2FF06A0E34
:105EF00004EC2FF005B0FBD7066A010E056E520EBA
:105F0000AAEC2FF0680E04EC2FF005C00BF006C0D1
:105F10000CF01200086E0850E00B076E800E071898
:105F20000AE0085027EC2DF08A9608501F0B8009D4
:105F3000F3EC32F007D08A96240EF3EC32F00850DE
:105F4000F3EC32F00550F3EC32F00650F3EC32F0A3
:105F50008A861200086E0850E00B076E800E071844
:105F60000AE0085027EC2DF08A9608501F0BA00974
:105F7000F3EC32F007D08A96260EF3EC32F008509C
:105F8000F3EC32F00550F3EC32F00650F3EC32F063
:105F90008A861200020ED36E400E9B6E9A6A916A38
:105FA00095968C8694969488949AFC0E926EF19EA7
:105FB000938493988A9893968A9626EC30F0FAEC1C
:105FC00032F08AEC32F018EC2AF095EC32F0D6EF91
:105FD00031F00B500C1017E0010E0D6E04D0D8906C
:105FE0000B360C360D2A0CAEFAD70B50095C0C5050
:105FF0000A5804E30B50095E0C500A5AD8900C3230
:106000000B320D2EF2D709C009F00AC00AF01200B7
:10601000076E0750E00B066E800E061809E0075069
:1060200027EC2DF08A9607501F0BF3EC32F007D0C7
:106030008A96200EF3EC32F00750F3EC32F0000EAB
:10604000F3EC32F0056E8A8605501200CD82CD86C3
:10605000CD98CD9ACD84CD80800ECF6ECE6AE00EE5
:10606000F16FC20EF26F1E0EF36F4D0EF46F600EE5
:10607000F56F410EF66FC90EF76FD00EF86F9F8067
:106080009D80D00C02EE00F0BC0EEE6AE806FDE149
:1060900001EE83F0490EEE6AE806FDE15D6A520EFC
:1060A000F66E660EF76E000EF86E0900F5CFFFF083
:1060B0005E905E9200010BEF26F0FE0E0101A62518
:1060C000096EFF0EA7210A6E160EA719A61104E18C
:1060D0005F0E0A6EFE0E096E00EC33F00101839331
:1060E00009C005F00AC006F0060E29EF2FF0136A6A
:1060F000FA0E04EC2FF005C00BF006C00CF00D6A90
:106100000E6A0BC00FF00CC010F00DC011F00EC0E5
:1061100012F010A004D001018385010E136E1350FC
:10612000120002011851191111E08A962C0EF3EC9D
:1061300032F0000EF3EC32F0036E8A86020118078B
:10614000D8A0190701018391035012000101838136
:10615000000C026A036A52EC2DF002C027F003C063
:1061600028F004C029F005C02AF027C01CF028C080
:106170001DF029C01EF02AC01FF0430E7FEF31F042
:106180000D6E000E0D100FD829EC2FF00BC005F08E
:106190000CC006F0660E29EC2FF06A0E04EC2FF00E
:1061A00005A01200FAD7056E010E066E540C056E9E
:1061B00005C004F004460446C2500418C30B04187A
:1061C000C26EC280110EE82EFED700F0C282C2B2AB
:1061D000FED7C3CF02F0C4CF03F012001CC028F0DA
:1061E0001DC029F02A6A2B6A2C6A1F0E276E1EC05A
:1061F0000EF0270E0F6E280E79EC1DF028C0D9FF87
:1062000029C0DAFFDF6A000CCA0E0C6E010E0DD831
:10621000ABEC32F0430ECA1904E01200010EB16F6C
:10622000010CCB51490AFAE012000D6E0F6A020E02
:106230000E6E020C02C008F003C009F008D008C0BE
:10624000D9FF09C0DAFF04C0DFFF084A092A0606A1
:10625000D8A007060628F3E10728F1E112002E0E68
:10626000026E020E036E046A20EE0CF00250D92674
:106270000350DA22DF2A0D0E0226000E0322042A22
:10628000070E0464F1D7070C8A96040E9EEC31F0D9
:10629000F3EC32F00650F3EC32F00550F3EC32F050
:1062A0000450F3EC32F00350F3EC32F08A86120023
:1062B0009DB09EA012009E90CD90800ECF6ECE6AB3
:1062C000CD800201F12B000EF223F323F423F52BF2
:1062D000F623F723F823000C026A036A52EC2DF030
:1062E00002C029F003C02AF029C01CF02AC01DF00A
:1062F00027C01EF028C01FF09A0E7FEF31F0206EED
:10630000226A236A640E246E640E256E000E266EC9
:106310001C0E216E20C00EF0210E0F6E220E79EFA2
:106320001DF08A96020E0AD8F3EC32F00450F3EC1A
:1063300032F00350F3EC32F08A86120001019E27FE
:10634000000E9F232A0C010EF6EC31F0880E036E2E
:10635000460EE82EFED7032EFCD700D0060EF6EC34
:1063600031F00F0EF6EF31F0A7EC26F03FEC32F0F3
:1063700006EC33F0ECEC32F0B80E026E020E036E57
:1063800052EC2DF0ADEC2AF0000C9EC105F09FC13F
:1063900006F0020E29EC2FF0010183A5020C83AB5D
:1063A000030C0CEC33F00101839B010C026A026ABE
:1063B0000250020D000EF324D96E020EF420DA6EA4
:1063C000DF6A022A070E0264F3D7070C026E90926E
:1063D000908402C08DFF030EE82EFED700F090805F
:1063E000030EE82EFED700F090901200026E9092FD
:1063F0009094AD0EE82EFED700F002C08DFF908085
:10640000AD0EE82EFED700F09090120005D007D810
:1064100024EC32F0044A052A02D8F9E1120004C043
:10642000D9FF05C0DAFFDF501200880E04EC2FF010
:1064300005C00DF006C00EF0010188510D5C0B6E19
:1064400089510E580C6E1200036E1F0E036417EF75
:1064500033F07F0E036017EF33F00350E6EC31F0BA
:1064600017EF33F0026E0A0E021804E19EA8FED761
:106470000D0EAD6E9EA8FED702C0ADFF1200026ADF
:106480002E0E0224D96EDA6A020EDA22DF6A022A9E
:10649000670E0264F5D7670C036E8A9601019E4B66
:1064A0009F2B2A0EF3EC32F00350F3EC32F08A8685
:1064B00012000101B00503E1010E036E03D0B051DB
:1064C00001E1036A03C002F002301200030ED7ECB0
:1064D00030F002C008F003C009F008C006F009C09F
:1064E00007F012008A96640EF3EC32F00350F3ECDE
:1064F00032F00450F3EC32F08A86120003D0000E22
:106500004CEC32F00406D8A005060428F8E1052872
:10651000F6E11200948E949C7E6A590EAF6E7E86D0
:10652000260EAC6EAB88AB8E260C928492860D0E36
:10653000C26E060EC16EBE0EC06EC36AC46A120081
:10654000B15103E1000E21EF33F0010E21EC33F0E5
:106550000101B16B12000CC003F00DC004F00EC0BD
:1065600005F00FC006F09AEF2BF0A2C202F0A3C212
:1065700003F0A4C204F0A5C205F0120092C102F01B
:1065800093C103F094C104F095C105F012008A0E86
:1065900004EC2FF005C086F106C087F11200880ECA
:1065A00004EC2FF005C088F106C089F1120001D07B
:1065B00000F077EC30F00009FBE01200036E0350AE
:1065C000C00FF6EC31F017EF33F0036E0350800F7D
:1065D000F6EC31F017EF33F0AC6BAD6B5D6A040E87
:1065E000A56FA46B000C026E02C0C9FFC7A0FED746
:1065F000C9501200C78CC79E010EC66EC68A010C18
:106600008A96CC0EF3EC32F08A8612000101926B6E
:10661000936B946B956B12008A96D40EF3EC32F068
:106620008A861200966A996A8D6A906A1200AD0E87
:10663000E82EFED700F01200A2C102F0A3C103F0C1
:106640001200026E02C0B0F1120058EC31F05E92FE
:046650001100010034
:020000040001F9
:06FFF800A0F4C5FFF0F7C4
:00000001FF
