:040000001DEF00F000
:0600080049829DEF33F078
:100018004980D8CF14F0E8CF15F0E0CF16F012ECF5
:1000280031F016C0E0FF15C0E8FF14C0D8FF4990B2
:0600380010001AEF2FF08A
:101000000001000A006400E803102701001000003E
:1010100001001050494331384639374A36302045AF
:10102000544845524E455400FFFFFFFFFFFF00DECE
:10103000AD00BEEF4400BE3D0054656D7065726149
:10104000747572653A2030782533783B204C4544DE
:101050003A2030782531783B20427574746F6E7376
:101060003A2030782531783B20506F743A20307820
:10107000253378200A000D0A0D0A537461727469D1
:101080006E67205379736C6F672061742025750D2E
:101090000A003031323334353637383961626364AF
:1010A00065660057616974696E6720666F72204CCF
:1010B000696E6B00444D412054494D454F555421B4
:1010C0002121004C696E6B20737461727465640039
:1010D00025642E25642E25642E2564002575203A6E
:1010E0002025730D0A002578203A20256400286EFB
:1010F000756C6C2900257300000001010C6B2A0E31
:1011000040247AEC11F0F76403D00800F55003D0C6
:1011100086EC11F0EF500101106F2B0E40247AEC99
:1011200011F0F76403D00800F55003D086EC11F0FD
:10113000EF5001010F6F32EF11F0020E40247AECF4
:1011400011F0F7640DD03CC0F5FF0D003DC0F5FF78
:101150000D003EC0F5FF0D003FC0F5FF0C000AD0AA
:1011600086EC11F03CC0EEFF3DC0EEFF3EC0EEFF4E
:101170003FC0EFFF3CEC12F07AEC11F0F76407D0BF
:10118000D1C1F5FF0D00D2C1F5FF0C0006D086ECF1
:1011900011F0D1C1EEFFD2C1EFFF6FEC12F07AEC8B
:1011A00011F0F76407D0F56A0D00F56A0D00F2EC56
:1011B00011F004D086EC11F066EC12F0E6EC11F0C0
:1011C0007AEC11F0F76403D011EC12F004D086EC45
:1011D00011F07CEC12F0E6EC11F07AEC11F0F7640F
:1011E00003D08FEC11F004D086EC11F0B0EC11F0CC
:1011F000A2EC11F00C0E2BEC12F0F76403D01EECF5
:1012000012F004D086EC11F073EC12F0B9EC11F08E
:10121000F76403D040EC12F004D086EC11F097ECA8
:1012200012F0EEEC11F07AEC11F0F76403D0A8ECB8
:1012300012F004D086EC11F0BBEC12F08BEC11F044
:101240007AEC11F0F76404D0120EF56E0C0004D0A5
:1012500086EC11F0120EEF6E0DEC12F07AEC11F03C
:10126000F76403D05BEC12F004D086EC11F0AFEC25
:1012700012F009EC12F07AEC11F0F76403D05BEC99
:1012800012F004D086EC11F0AFEC12F0EAEC11F0A1
:101290007AEC11F0F76404D0030EF56E0C0004D064
:1012A00086EC11F0030EEF6E61EC12F0CCEC12F054
:1012B000030E39EF10F00101106B40C017F041C070
:1012C00018F0E3EC23F05DEF11F001010F51F3E0B2
:1012D000030A01E132D75DEF11F0080E40247AECE9
:1012E00011F0F76403D011EC12F004D086EC11F089
:1012F0007CEC12F0F7EC11F0D9EC11F0F76405D0AA
:1013000047EC12F040EC12F004D086EC11F085ECC2
:1013100012F0B9EC11F0F76403D040EC12F004D0F5
:1013200086EC11F097EC12F0EEEC11F07AEC11F083
:10133000F76403D0A8EC12F004D086EC11F0BBECFB
:1013400012F00DEC12F07AEC11F0F76403D05BECC4
:1013500012F004D086EC11F0AFEC12F009EC12F0B0
:101360007AEC11F0F76403D05BEC12F004D086EC59
:1013700011F0AFEC12F0EAEC11F07AEC11F0F76436
:1013800004D0030EF56E0C0004D086EC11F0030EB1
:10139000EF6E8BEC11F07AEC11F0F76404D0120EC2
:1013A000F56E0C0004D086EC11F0120EEF6E7CD7B7
:1013B000300E40247AEC11F0F76403D0F2EC11F017
:1013C00004D086EC11F0EE6AEF6A05EC12F07AECCC
:1013D00011F0F76403D08FEC11F004D086EC11F01B
:1013E000B0EC11F0A2EC11F0D95106197EE1DA51FE
:1013F00007197BE1DB51081978E1DC510919D8A400
:1014000074D0100E40247AEC11F0F76403D08FEC06
:1014100011F004D086EC11F0B0EC11F0A2EC11F058
:10142000100E2BEC12F0F76403D01EEC12F004D077
:1014300086EC11F073EC12F08BEC11F07AEC11F0F9
:10144000F76404D0100EF56E0C0004D086EC11F099
:10145000100EEF6EE6EC11F07AEC11F0F76403D0A9
:1014600011EC12F004D086EC11F07CEC12F0F7ECE9
:1014700011F0D9EC11F0F76405D047EC12F040EC14
:1014800012F004D086EC11F085EC12F0B9EC11F0FA
:10149000F76403D040EC12F004D086EC11F097EC26
:1014A00012F0EEEC11F07AEC11F0F76403D0A8EC36
:1014B00012F004D086EC11F0BBEC12F061EC12F0EB
:1014C000CCEC12F0000902E15DEF11F0040E010115
:1014D00038EC12F07AEC11F0F76404D0030EF56EDC
:1014E0000C0001D068D25DEF11F0100E40247AECB0
:1014F00011F0F76403D04EEC12F004D086EC11F03A
:101500008EEC12F08BEC11F07AEC11F0F76404D051
:10151000140EF56E0C0004D086EC11F0140EEF6E74
:1015200061EC12F0CCEC12F0000901E0C4D65DEFE2
:1015300011F0300E40247AEC11F0F76403D0F2EC95
:1015400011F004D086EC11F0EE6AEF6A05EC12F0AF
:101550007AEC11F0F76403D08FEC11F004D086EC34
:1015600011F0B0EC11F0A2EC11F0D951061976E1AE
:10157000DA51071973E1DB51081970E1DC510919DF
:10158000D8A46CD0100E40247AEC11F0F76403D08C
:101590008FEC11F004D086EC11F0B0EC11F0A2EC5D
:1015A00011F0100E2BEC12F0F76403D01EEC12F0C9
:1015B00004D086EC11F073EC12F08BEC11F07AECA5
:1015C00011F0F76404D0100EF56E0C0004D086EC18
:1015D00011F0100EEF6EE6EC11F07AEC11F0F764FA
:1015E00003D011EC12F004D086EC11F07CEC12F078
:1015F000F7EC11F0D9EC11F0F76405D047EC12F0DC
:1016000040EC12F004D086EC11F085EC12F0B9EC4D
:1016100011F0F76403D040EC12F004D086EC11F026
:1016200097EC12F0EEEC11F07AEC11F0F76403D0C5
:10163000A8EC12F004D086EC11F0BBEC12F0040E12
:10164000010138EC12F07AEC11F0F76404D0030ECB
:10165000F56E0C0001D0AFD15DEF11F0100E4024FB
:101660007AEC11F0F76403D04EEC12F004D086EC63
:1016700011F08EEC12F08BEC11F07AEC11F0F764B3
:1016800004D0040EF56E0C0004D086EC11F0040EAC
:10169000EF6E61EC12F0CCEC12F046D7340E402421
:1016A0007AEC11F0F76403D00800F55003D086EC13
:1016B00011F0EF50000937E061EC12F0CCEC12F0C1
:1016C000000902E15DEF11F08BEC11F07AEC11F002
:1016D000F76403D00800F55003D086EC11F0EF500A
:1016E0000101026F02B5E7D5350E40247AEC11F006
:1016F000F76403D00800F55003D086EC11F0EF50EA
:101700000101026F02A95DEF11F0040E38EC12F036
:101710007AEC11F0F76404D0030EF56E0C0001D0E2
:101720004AD15DEF11F08BEC11F07AEC11F0F76417
:1017300004D0040EF56E0C0004D086EC11F0040EFB
:10174000EF6E61EC12F0CCEC12F0EED601010F510D
:1017500001E1B1D5030A01E1C0D5070A01E1E9D6EB
:10176000010A01E125D60C0A01E1A5D5030A01E130
:10177000A2D5060A93E05DEF11F0B3EC12F0F76426
:1017800003D0C0EC12F004D086EC11F0C7EC12F0DC
:101790000101D351001903E1D4510119D8A45DEF1F
:1017A00011F0300E40247AEC11F0F76403D0F2EC23
:1017B00011F004D086EC11F0EE6AEF6AA0EC12F0A2
:1017C0007AEC11F0F76403D08FEC11F004D086ECC2
:1017D00011F0B0EC11F03C50010102193DE13D5017
:1017E00003193AE13E50041937E13F50051934E13D
:1017F000060E40247AEC11F0F76404D009009CEC4A
:1018000011F006D086EC11F0EECF02F1EECF03F12D
:101810000101D151021920E1D25103191DE1100E2D
:1018200040247AEC11F0F76403D08FEC11F004D06F
:1018300086EC11F0B0EC11F0A2EC11F0D9510619C0
:101840000BE1DA51071908E1DB51081905E1DC5118
:10185000091902E1040E106F360E40247AEC11F0E3
:10186000F76404D0030EF56E0C0001D0A4D05DEF38
:1018700011F0020E40247AEC11F0F76403D08FECE3
:1018800011F004D086EC11F0B0EC11F03C500101E5
:10189000021909E13D50031906E13E50041903E124
:1018A0003F500519D8A45DEF11F0060E40247AECE4
:1018B00011F0F76404D009009CEC11F006D086EC1E
:1018C00011F0EECF02F1EECF03F10101D151021977
:1018D00003E1D2510319D8A45DEF11F00C0E40249E
:1018E0007AEC11F0F76403D08FEC11F004D086ECA1
:1018F00011F0B0EC11F00101D551021909E1D651F6
:10190000031906E1D751041903E1D8510519D8A4E8
:101910005DEF11F0100E40247AEC11F0F76403D063
:101920008FEC11F004D086EC11F0B0EC11F0A2ECC9
:1019300011F0D951061909E1DA51071906E1DB5115
:10194000081903E1DC510919D8A45DEF11F0100E5C
:1019500040247AEC11F0F76403D08FEC11F004D03E
:1019600086EC11F0B0EC11F0A2EC11F0100E2BECA3
:1019700012F0F76403D01EEC12F004D086EC11F0E4
:1019800073EC12F00DEC12F07AEC11F0F76403D066
:10199000F2EC11F004D086EC11F0EE6AEF6A040E5E
:1019A000010138EC12F07AEC11F0F76404D0030E68
:1019B000F56E0C0004D086EC11F0030EEF6E5DEFB7
:1019C00011F0300E40247AEC11F0F76403D0F2EC01
:1019D00011F004D086EC11F0EE6AEF6A8BEC11F096
:1019E0007AEC11F0F76404D0010EF56E0C0004D00F
:1019F00086EC11F0010EEF6E0DEC12F07AEC11F0A6
:101A0000F76403D05BEC12F004D086EC11F0AFEC7D
:101A100012F009EC12F07AEC11F0F76403D05BECF1
:101A200012F004D086EC11F0AFEC12F0EAEC11F0F9
:101A30007AEC11F0F76404D0050EF56E0C0004D0BA
:101A400086EC11F0050EEF6E050E0101106F61ECD2
:101A500012F0CCEC12F05DEF11F0B3EC12F0F76481
:101A600003D0C0EC12F004D086EC11F0C7EC12F0F9
:101A70000101D351001903E1D4510119D8A45DEF3C
:101A800011F00C0E40247AEC11F0F76403D08FECC7
:101A900011F004D086EC11F0B0EC11F00101D55139
:101AA000021909E1D651031906E1D751041903E1DE
:101AB000D8510519D8A45DEF11F0020E40247AEC3C
:101AC00011F0F76407D0F56A0D00F56A0D00F2EC2D
:101AD00011F004D086EC11F066EC12F03CEC12F040
:101AE0007AEC11F0F76403D0F2EC11F004D086EC3C
:101AF00011F0EE6AEF6A05EC12F0FCDBF76407D038
:101B0000F56A0D00F56A0D00F2EC11F003D0FEDB72
:101B100066EC12F06FEC12F0EDDBF76407D0F56ABB
:101B20000D00F56A0D00F2EC11F003D0EFDB66EC6E
:101B300012F0E6EC11F0DEDBF76407D0F56A0D0079
:101B4000F56A0D00F2EC11F003D0E0DB66EC12F068
:101B50006BEC12F0CFDBF76407D0F56A0D00F56A85
:101B60000D00F2EC11F003D0D1DB66EC12F09CEC2E
:101B700012F0C0DBF76403D0F2EC11F003D0C6DB47
:101B8000EE6AEF6AEEEC11F0B5DBF76403D0F2EC2D
:101B900011F003D0BBDBEE6AEF6A010E6AD2340E9D
:101BA0004024A8DBF76403D00800F55002D0AEDB78
:101BB000EF50000901E04BD7AEDB9CDBF76404D0AB
:101BC000040EF56E0C0003D0A1DB040EEF6E61EC89
:101BD00012F0CCEC12F0000901E16FD3A0EC12F08E
:101BE00089DBF76406D0F56A0D00F56A0D00FADBB3
:101BF00003D08CDB66EC12F03CEC12F07BDBF7647C
:101C000002D0F0DB03D082DBEE6AEF6AFEDB72DB30
:101C1000F76406D0F56A0D00F56A0D00E3DB03D02A
:101C200075DB66EC12F06FEC12F064DBF76406D043
:101C3000F56A0D00F56A0D00D5DB03D067DB66ECB5
:101C400012F0C4DB57DBF76406D0F56A0D00F56AC5
:101C50000D00C8DB03D05ADB66EC12F06BEC12F01F
:101C600049DBF76406D0F56A0D00F56A0D00BADBB2
:101C700003D04CDB66EC12F09CEC12F03BDBF7641B
:101C800002D0B0DB03D042DBEE6AEF6AA7DB32DBC7
:101C9000F76402D0A7DB03D039DBEE6AEF6A7DD7A9
:101CA00001010F5101E18DD6040A01E1E2D5010ADB
:101CB00001E163D50C0A01E1D0D6030A01E1CDD6DA
:101CC000060A01E16CD7F9D2020E402413DBF76457
:101CD00002D025DB02D01ADB43DB3C5001010219A4
:101CE00009E13D50031906E13E50041903E13F505C
:101CF0000519D8A4E2D20C0E4024FCDAF76402D015
:101D00000EDB02D003DB2CDB0101D551021909E106
:101D1000D651031906E1D751041903E1D851051929
:101D2000D8A4CBD2140E4024E5DAF76402D0F7DA57
:101D300002D0ECDA15DB0101D951025DDA51035909
:101D4000DB510459DC51055901E3B7D2100E402490
:101D5000D1DAF76402D0E3DA02D0D8DA01DBF2DAC2
:101D6000D951065DDA510759DB510859DC5109593F
:101D700001E2A3D0100E4024BDDAF76403D00900BD
:101D8000DBDA05D0C3DAEECF02F1EECF03F10101C9
:101D9000D951025D0D6FDA5103590E6F250E4024A3
:101DA000A9DAF76403D00900C7DA05D0AFDAEECFBD
:101DB00002F1EECF03F101010D51025F0E51035B01
:101DC000250EF7DAF76402D05BDB02D09FDAAFDBD7
:101DD000BBDB90DAF76403D00900AEDA05D096DAFF
:101DE000EECF02F1EECF03F101010D5102270E51AA
:101DF0000323270EDEDAF76402D042DB02D086DA54
:101E000096DBA2DB77DAF76403D0090095DA05D018
:101E10007DDAEECF02F1EECF03F1010102510311A1
:101E200017E1290E402466DAF76403D00800F55064
:101E300002D06CDAEF50020A0BE1290E40240101B6
:101E400059DAF76403D0F56A0C0002D05FDAEF6A62
:101E500021EED9F0FF0EDE240101006FFF0EDE201F
:101E6000016FFF0EDE20026FFF0EDE20036F140EE7
:101E7000A0DAF76403D00BDB03DB02D047DA45DBE3
:101E8000C4DA38DAF76402D009DB02D03FDA46DB85
:101E90000101CF51D01101E110D2080E40242ADAFD
:101EA000F76402D0BEDA02D031DA26DBCFC1EEF021
:101EB000D0C1EFF03EEC21F000D2350E40241ADA0A
:101EC000F76404D0140EF56E0C0003D01FDA140E64
:101ED000EF6EF7DACCEC12F094EF0AF0350E4024F6
:101EE00009DAF76404D0010EF56E0C0003D00EDAA7
:101EF000010EEF6EA9D5100E4024FCD9F76402D074
:101F0000CDDA02D003DA0ADBE6DAF4D9F76402D0DC
:101F100006DA02D0FBD924DA15DA0C0E9CDAF76463
:101F200002D08CDA02D0F2D9DEDA360E402401017A
:101F3000E1D9F76404D0040EF56E0C0003D0E6D9A5
:101F4000040EEF6E6ADAD6D9F76402D0B4DA02D0A2
:101F5000DDD905DB5EDACED9F76402D0ACDA02D087
:101F6000D5D9FDDA37DAC6D9F76404D0050EF56E97
:101F70000C0003D0CBD9050EEF6ECDD9BBD9F764D9
:101F800004D0110EF56E0C0003D0C0D9110EEF6E07
:101F9000090E5BD5340E4024ADD9F76403D0080098
:101FA000F55002D0B3D9EF50000901E050D5B3D9B4
:101FB000A1D9F76404D0040EF56E0C0003D0A6D9A5
:101FC000040EEF6E7EDACCEC12F094EF0AF0010111
:101FD0000F5184E0040A01E177D6020A8CE0010A7D
:101FE0008AE00E0A02E15BEF09F0030A02E15BEF0F
:101FF00009F0060ACFE061D1350E40247BD9F764A1
:1020000004D0100EF56E0C0003D080D9100EEF6EC8
:1020100058DACCEC12F0000901E14FD1080E29D0BA
:10202000300E402467D9F76402D045DA02D06ED969
:1020300096DAD0D95FD9F76404D0010EF56E0C00A2
:1020400003D064D9010EEF6E060E13D0350E402476
:1020500051D9F76404D0100EF56E0C0003D056D998
:10206000100EEF6E2EDACCEC12F0000901E125D152
:102070000A0E0101106F21D1340E40243BD9F764C0
:1020800003D00800F55002D041D9EF50000901E01B
:10209000DED441D92FD9F76404D0040EF56E0C00BC
:1020A00003D034D9040EEF6E0CDACCEC12F094EFBE
:1020B0000AF001010F51040AB3E0020A9DE0010A8F
:1020C000C5E00B0AD9E0F9D0FCD9CCEC12F0CDD7A1
:1020D000340E40240FD9F76403D00800F55002D025
:1020E00015D9EF50000901E0B2D415D903D9F7642E
:1020F00004D0040EF56E0C0003D008D9040EEF6E68
:10210000E0D9CCEC12F094EF0AF001010F51060A6D
:10211000DBE00A0ADDE0D1D001010F51040AA8E09A
:10212000CCD0020E4024E6D8F76402D0F8D802D012
:10213000EDD816D93C500101021909E13D500319AF
:1021400006E13E50041903E13F500519D8A4B5D06B
:10215000060E4024CFD8F76403D00900EDD805D08F
:10216000D5D8EECF02F1EECF03F10101D151021922
:1021700003E1D25103199ED0A0D0340E4024BAD826
:10218000F76403D00800F55002D0C0D8EF50000922
:1021900001E05DD4C0D8AED8F76404D0040EF56E6B
:1021A0000C0003D0B3D8040EEF6E8BD9CCEC12F038
:1021B00094EF0AF001010F51040AB3E0030AB1E001
:1021C0000B0ADBE07AD0300E402494D8F76402D0BA
:1021D00072D902D09BD8C3D91CD98CD8F76402D04D
:1021E0006AD902D093D8BBD9F5D884D8F76404D083
:1021F000030EF56E0C0003D089D8030EEF6E8BD85A
:1022000079D8F76404D0020EF56E0C0003D07ED8A6
:10221000020EEF6E56D9CCEC12F0020E0101106FD7
:10222000010E0C6F4AD0020E402464D8F76406D029
:10223000F56A0D00F56A0D00D5D802D067D846D9E9
:102240001BD958D8F76402D0CDD803D05FD8EE6A36
:10225000EF6A010EE3D701010F51010AB4E0030A4E
:10226000E2E02BD02A0E402445D8F76403D00800C2
:10227000F55002D04BD8EF50000AEDE0010A02E120
:1022800065EF09F0030A02E1A6EF0BF0010A01E194
:1022900007D5070A01E19BD6010A01E10AD7030A23
:1022A00001E133D7010A09E00F0A01E135D7010A3C
:1022B00081E0030A02E15BEF09F02B0E40240101EB
:1022C00019D8F76404D00D0EF56E0C0003D01ED89B
:1022D0000D0EEF6E2A0E402401010CD8F76404D0D5
:1022E00010C1F5FF0C0003D011D810C1EFFF0101A0
:1022F0000C511200006F000E4120016F00C1F6FF6B
:1023000001C1F7FF000EF86E0F0E1200F6CFE9FFC5
:10231000F7CFEAFF1200350E402401011200090038
:10232000F5CF02F10900F5CF03F10900F5CF04F173
:102330000900F5CF05F11200F5CF02F10900F5CF44
:1023400003F11200010E01010225066F000E0321A8
:10235000076F000E0421086F000E0521096F12009F
:10236000EECF02F1EECF03F1EECF04F1EECF05F1A7
:1023700012000101DF51016F006B21EEDFF0DECFB3
:1023800002F1DDCF03F103C102F1036B036B0051D6
:10239000021301510313180E4024046F000E412054
:1023A000056F04C1F6FF05C1F7FF000EF86E0F0EB2
:1023B00012004024046F000E4120056F04C1F6FF97
:1023C00005C1F7FF000EF86E0F0E1200080E402434
:1023D00001011200340E4024010112001C0E4024A1
:1023E00001011200F56A0D00F56A0C001200010EE1
:1023F0000101D525006F000ED621016F000ED721F7
:10240000026F000ED821036F0C0C100E4024010146
:102410001200320E402401011200300E402401014E
:102420001200D5C1F5FF0D00D6C1F5FF0D00D7C1D3
:10243000F5FF0D00D8C1F5FF0C00120006C1F5FF35
:102440000D0007C1F5FF0D0008C1F5FF0D0009C122
:10245000F5FF0C00120040240A6F000E41200B6FA4
:102460000AC1F6FF0BC1F7FF000EF86E0F0E120047
:10247000106F360E40241200060E40240101120097
:1024800002C1F5FF0D0003C1F5FF0C00120000C1F1
:10249000F5FF0D0001C1F5FF0D001200D9C1F5FFD8
:1024A0000D00DAC1F5FF0D00DBC1F5FF0D00DCC149
:1024B000F5FF0C001200020EF56E0D00F56A0C001F
:1024C000020C40C09FF041C0A0F01200EE6AEE6A1C
:1024D000EE6AEF6A12000C0E402401011200140E85
:1024E00040240101120006C1EEFF07C1EEFF08C142
:1024F000EEFF09C1EFFF1200D5C1EEFFD6C1EEFF1E
:10250000D7C1EEFFD8C1EFFF120000C1EEFF01C13D
:10251000EEFF02C1EEFF03C1EFFF1200D9C1EEFFD3
:10252000DAC1EEFFDBC1EEFFDCC1EFFF120002C13A
:10253000EEFF03C1EFFF1200180E4024010112004C
:10254000020E402401011200270E40240101120056
:1025500046C0F5FF0D0047C0F5FF0C001200020E4B
:10256000EE6EEF6A020C40C0F6FF41C0F7FF000EAE
:10257000F86E0F0E120046C0EEFF47C0EFFF1200CC
:102580000900F5CF00F10900F5CF01F11200EECFFF
:1025900000F1EECF01F112004FDBF76407D0090024
:1025A000F5CFA1F00900F5CFA2F006D086EC11F02E
:1025B000EECFA1F0EECFA2F00001A151A46FA36B6A
:1025C0003BDBF76402D08CDA03D086EC11F03CDB05
:1025D000A6C0A5F00001A66BA66BA351A511DA6FEA
:1025E000A451A611DB6F060E2BDAF76402D05FDA76
:1025F00003D086EC11F06FDA4DDB060EA1DAF7643A
:1026000002D036DB03D086EC11F049DB22DBDC6F35
:10261000A651AA11DD6F100E13DAF76403D047DA62
:102620005FDA04D086EC11F056DA0EDBD7DA100E42
:1026300045DAF76402D09EDA03D086EC11F0E1DAD5
:1026400056DA100E8ADAF76402D0A1DA03D086ECEB
:1026500011F0E0DA5ADA100EB4DAF76402D0A4DA34
:1026600003D086EC11F0DFDAF8D9DE6FA851CE1175
:10267000DF6FA951CF11E06FAA51D011E16F0C0E9D
:10268000DFD9F76403D013DA2BDA04D086EC11F02B
:1026900022DADADAA3DA0C0E11DAF76402D06ADA97
:1026A00003D086EC11F0ADDA22DA0C0E56DAF764BC
:1026B00002D06DDA03D086EC11F0ACDA26DA0C0E1B
:1026C00080DAF76402D070DA03D086EC11F0ABDA6E
:1026D000C4D9E26FA851CE11E36FA951CF11E46FB5
:1026E000AA51D011E56FE691F10EE617E6510F0BF6
:1026F0005009E66F1A0EA4D9F76402D0D8D903D0D6
:1027000086EC11F0E8D9C6DA1A0E1ADAF76402D0AC
:10271000AFDA03D086EC11F0C2DA9BDAE86FA6518B
:10272000AA11E96FEA6BEB6BEC6BED6B350E88D998
:10273000F76403D00800F55003D086EC11F0EF5099
:102740000001A36F060EA31703E0D86BD96B94D0DA
:10275000270E76D9F76402D04DDA03D086EC11F05B
:102760008EDA0001D851D91101E186D0180E68D94E
:10277000F76402D09CD903D086EC11F0ACD984DA8E
:1027800009E2180E5DD9F76402D034DA03D086EC82
:1027900011F075DA1C0E000153D9F76402D087D905
:1027A00003D086EC11F097D96FDA09E21C0E48D9F4
:1027B000F76402D01FDA03D086EC11F060DA250E40
:1027C00000013ED9F76407D00900F5CFD1F0090028
:1027D000F5CFD2F006D086EC11F0EECFD1F0EECFEF
:1027E000D2F0250E00012CD9F76402D060D903D0B5
:1027F00086EC11F070D90001D851A327D951A42338
:10280000250E91D9F76402D02CDA03D086EC11F0B2
:102810004FDA270E000114D9F76402D048D903D04B
:1028200086EC11F058D90001D851A35FD951A45BAF
:10283000270E79D9F76402D014DA03D086EC11F0B0
:1028400037DA270E0001FCD8F76402D030D903D064
:1028500086EC11F040D90001A351A4110DE1350E11
:10286000EFD8F76405D0080E0800F5120C0004D06C
:1028700086EC11F0080EEF12350E0001E1D8F76476
:1028800003D00800F55003D086EC11F0EF500001A2
:10289000E76F140ED825D56F000ED921D66F020E22
:1028A000CFD8F7640DD00900F5CF22F00900F5CF9D
:1028B00023F00900F5CF24F00900F5CF25F00AD068
:1028C00086EC11F0EECF22F0EECF23F0EECF24F025
:1028D000EECF25F0060E266E22EC23F0D76FD751EF
:1028E00039E0DA0E176E186AE8D9B2EC2FF0000161
:1028F000D851D9110AE0D1C017F0D2C018F0D8C011
:1029000019F0D9C01AF0B2EC2FF0060E0001D5254F
:10291000D36F000ED621D46FC7D9D525276E000EF0
:10292000D621286ED3C029F0D4C02AF0C8EC2BF0F1
:1029300025C0D3F026C0D4F0C4EC2DF0320E196EB1
:10294000D30E66EC30F0D5C031F0D6C032F091EC49
:102950002DF0D76FD7513EE1340E72D8F76403D013
:102960000800F55003D086EC11F0EF500001A36F82
:10297000A32B340E9F25A46F000EA021A56FA4C029
:10298000F6FFA5C0F7FF000EF86E0F0EF76404D037
:10299000A3C0F5FF0C0004D086EC11F0A3C0EFFF3C
:1029A000300E00014DD8F76402D081D803D086ECF8
:1029B00011F091D80001A351A4113FE1300E40D88D
:1029C000F76403D05BEC12F004D086EC11F0AFECAE
:1029D00012F033D0100E34D8F76403D068D880D802
:1029E00004D086EC11F077D82FD90001D851A32557
:1029F000A76FD951A421A86F000EA521A96F000EC1
:102A0000A621AA6F100E5AD8F7640DD0A7C0F5FF03
:102A10000D00A8C0F5FF0D00A9C0F5FF0D00AAC06C
:102A2000F5FF0C000AD086EC11F0A7C0EEFFA8C09D
:102A3000EEFFA9C0EEFFAAC0EFFF0001D7511200C0
:102A40009F25A16F000EA021A26FA1C0F6FFA2C01A
:102A5000F7FF000EF86E0F0E12000001C56BC66B7B
:102A6000C76BC451C86F190E05D0D890C833C7338F
:102A7000C633C533E82EF9D7BB51C511C96FBC5158
:102A8000C611CA6FBD51C711CB6FBE51C811CC6FF3
:102A9000B151C911CD6FB251CA11CE6FB351CB1123
:102AA000CF6FB451CC11D06FA751CD1112000900D6
:102AB000F5CFA3F00900F5CFA4F012009F25AB6F6E
:102AC000000EA021AC6FABC0F6FFACC0F7FF000E4C
:102AD000F86E0F0E1200EECFA3F0EECFA4F01200AE
:102AE0000900F5CFA5F00900F5CFA6F0120000010E
:102AF000B16BAE51B26FB36BB46BB3C0B4F0B2C0D4
:102B0000B3F0B1C0B2F0B16B1200B8C0B7F0B9C049
:102B1000B8F0BAC0B9F00001BA6BBB6BB851BC6F6A
:102B2000BD6BBE6B12009F25A56F000EA021A66F86
:102B3000A5C0F6FFA6C0F7FF000EF86E0F0E12003C
:102B40009F25A76F000EA021A86FA7C0F6FFA8C001
:102B5000F7FF000EF86E0F0E12009F25B56F000EE6
:102B6000A021B66FB5C0F6FFB6C0F7FF000EF86E35
:102B70000F0E12000900F5CFADF00900F5CFAEF051
:102B80000900F5CFAFF00900F5CFB0F01200090051
:102B9000F5CFB7F00900F5CFB8F00900F5CFB9F0DF
:102BA0000900F5CFBAF012000900F5CFC1F0090015
:102BB000F5CFC2F00900F5CFC3F00900F5CFC4F09E
:102BC00012009F25BF6F000EA021C06FBFC0F6FF8F
:102BD000C0C0F7FF000EF86E0F0E12000001A351E7
:102BE000A76FA86BA96BAA6BA7C0AAF0A96BA86B6B
:102BF000A76B12000900F5CFD8F00900F5CFD9F086
:102C00001200EECFADF0EECFAEF0EECFAFF0EECFE4
:102C1000B0F01200EECFB7F0EECFB8F0EECFB9F0D3
:102C2000EECFBAF01200EECFC1F0EECFC2F0EECF91
:102C3000C3F0EECFC4F012009FC0F6FFA0C0F7FFB4
:102C4000000EF86E0F0E1200EECFA5F0EECFA6F03C
:102C50001200AAC0A9F00001AA6BAA6BA551A91184
:102C60001200A3C0F5FF0D00A4C0F5FF0C00120078
:102C70000900F5CFA9F00900F5CFAAF01200EECFB8
:102C8000D8F0EECFD9F012000001D851A35DD95190
:102C9000A45912000001A351A66FA56B1200EECF3C
:102CA000A9F0EECFAAF01200266A1A0E256E080CC3
:102CB000A3C0EEFFA4C0EFFF12001A6A140E196E33
:102CC000140C00016C6FD9D1250E6B1918E0F6D9E0
:102CD000DE50DE10DE100EE0F1D901D8CED10500B5
:102CE000FA6EDE50FD6EDE50FE6EDE50FF6EFA5064
:102CF0006B511200CCD96BC0DFFFEAD9BED1696B32
:102D00006A6B666B23C0F6FFCED9F550EFEC32F05C
:102D100001E2C2D00001696B6A6B69C017F06AC03A
:102D200018F01A6A0A0E196E5BEC32F017C069F0DF
:102D300018C06AF0D00E256E266823C0F6FFB3D9FE
:102D4000F550276E286A255027262650282227501E
:102D50000001692728506A23232A23C0F6FFA3D93C
:102D6000F550EFEC32F001E297D0D7D7668FA8D0BC
:102D7000B6D9DECF64F0DECF65F06451651106E1AF
:102D8000EE0E646F6451D8A4100E656F626B636BB6
:102D900003D00001624B632B62516425256E6351A1
:102DA0006521266E25C0F6FF26C0F7FF000EF86EDF
:102DB0000F0EF76403D00800F55003D086EC11F035
:102DC000EF500009E6E100016951625D6A51635903
:102DD00005E26251695F63516A5B19D0696B6A6B86
:102DE00016D06CD9DE50DE10DE100DE067D901D8A8
:102DF0000ED00500FA6EDE50FD6EDE50FE6EDE5027
:102E0000FF6EFA50200C43D9200EDF6E61D900010D
:102E10006907D8A06A076929E4E16A2931E0E1D7A6
:102E20004DD9DE50DE10DE101BE048D901D814D099
:102E30000500FA6EDE50FD6EDE50FE6EDE50FF6E57
:102E4000FA505ED90F0EF76403D00800F55003D096
:102E500086EC11F0EF5012000001644B652B10D08E
:102E60004FD915D90F0EF76403D00800F55003D0E1
:102E700086EC11F0EF50DF6E0001644B652B28D912
:102E80006207D8A063076229CBE1632901E1F5D08D
:102E9000C7D7C00E661314D0232A230415D903D92B
:102EA00042D901E1F1D0640A0BE00D0A09E01A0AE7
:102EB00001E15ED7060AEDE00D0A01E157D7DDD04A
:102EC00066C025F0C00E25160BE109D936D968AFCA
:102ED0002ED0030E6613676D681FD8B0682B27D0FD
:102EE000FED82BD924D0010E6B6F6B5101D9ECD8D1
:102EF000E0D80900F550675D0900F55068591EE3F8
:102F00006B2B050E6B191AE0F0D7010E6B6F6B512E
:102F1000F3D8DAD8CED80900F550675D0900F5502E
:102F200068590CE36B2B040E6B1908E0F0D766515F
:102F3000C00BD9E0800AE9E0400AD5E069516A1186
:102F400005E0ECD803E06907D8A06A07800E6BBFE4
:102F50007F0E256E69516B5D6A51800A255807E224
:102F60006B51695F000E6BBFFF0E6A5B02D0696B2D
:102F70006A6B69516A111DE0A1D8DE50DE10DE10C7
:102F80000DE09CD801D80ED00500FA6EDE50FD6E23
:102F9000DE50FE6EDE50FF6EFA50200C78D8200E08
:102FA000DF6E96D800016907D8A06A0769516A11D7
:102FB000E3E1B4D816E082D8DE50DE10DE100DE07A
:102FC0007DD801D80ED00500FA6EDE50FD6EDE50C1
:102FD000FE6EDE50FF6EFA502D0C59D82D0EDF6EAE
:102FE00077D86BC061F045D0615182D86DD861D877
:102FF0008ED89ED8D8EC2FF017C01EF018C01FF046
:10300000216A0A0E206E86EC30F01E50300F6B6F76
:1030100019D08ED8615170D857D84BD878D8D8EC01
:103020002FF017500F0B606F6051920F4DD83BD8A7
:10303000F5CF6BF007D06651C00BD6E0800AE9E00F
:10304000400AD2E03BD8DE50DE10DE100EE036D86B
:1030500001D80FD00500FA6EDE50FD6EDE50FE6E18
:10306000DE50FF6EFA506B51120011D86BC0DFFFBB
:103070002FD8000161076129DEE1232A230424D827
:1030800012D851D801E020D6236A246A12006C516C
:10309000D96EDA6ADECF25F0DDCF26F025C0D9FF64
:1030A00026C0DAFF1200100EF76E000EF86E080050
:1030B0001200100EF76E000EF86E12006C51D96EF1
:1030C000DA6A020ED926020C256E25C0F6FF120020
:1030D0006C51D96EDA6ADE2A000EDD22000C245013
:1030E000D96EDA6A020EDF26DF5CD96EDA6A120068
:1030F000020DF350010F1200020DF3500B0F1200DE
:1031000064C0F6FF65C0F7FF000EF86E12000900FC
:10311000F5CF19F00A00F5CF1AF0120066C025F0BD
:10312000030E2516030CF5CF6BF000016B51120056
:1031300067C017F068C018F01200DECF67F0DECF6E
:1031400068F01200336B3C6A3D6A3E6A3F6ACF6B9F
:10315000D06BD10E176E010ED9D9C9EC2DF0406A93
:10316000416AD351D411D8B41200D151D211D8B47C
:103170001200D151186F176BD251196F1A6B17517A
:103180001911D16F18511A11D26FD351186F176BD3
:1031900021EED3F0DECF19F1DDCF1AF11AC119F10A
:1031A0001A6B1A6B17511911D36F18511A11D46F6A
:1031B00044C034F145C035F140D034C1F6FF35C1CB
:1031C000F7FF000EF86E0F0EF76407D00900F5CF79
:1031D00017F10900F5CF18F106D086EC11F0EECF0B
:1031E00017F1EECF18F101011751D31908E1185169
:1031F000D41905E134C140F035C141F028D02C0E7E
:103200003425176F000E3521186F17C1F6FF18C14E
:10321000F7FF000EF86E0F0EF76407D00900F5CF28
:1032200034F10900F5CF35F106D086EC11F0EECF80
:1032300034F1EECF35F10101332B3451351107E074
:103240003351800A176F4850800A175DB6E340502B
:103250004110D8B41200060EE6D8F76402D04AD95D
:1032600003D086EC11F04DD90101D151191903E1B8
:10327000D2511A191AE0020ED6D8F76408D03AD9FA
:103280000900F5CF1BF10900F5CF1CF107D086EC42
:1032900011F037D9EECF1BF1EECF1CF1010119511E
:1032A0001A111B111C11D8A4120011C13CF012C13B
:1032B0003DF013C13EF014C13FF0DD390F0B176F25
:1032C000186BD89017371837D89017371837175109
:1032D000155DCF6F18511659D06F1AEC27F0E8061C
:1032E000D8A41200DEA31CD0DEA90DD02B0E9BD8D3
:1032F000F76404D0050EF56E0C0004D086EC11F0D6
:10330000050E48D057D02B0E8ED8F76404D0030E8C
:10331000F56E0C0004D086EC11F0030E3BD04AD0C1
:10332000DEA11CD0DEA90DD02B0E7DD8F76404D011
:10333000070EF56E0C0004D086EC11F0070E2AD0B3
:1033400039D02B0E70D8F76404D0060EF56E0C0041
:1033500004D086EC11F0060E1DD02CD0DEA51CD0BA
:10336000DEA90DD02B0E5FD8F76404D00A0EF56EDF
:103370000C0004D086EC11F00A0E0CD01BD02B0EE2
:1033800052D8F76404D0090EF56E0C0004D086EC18
:1033900011F0090EEF6E0ED0DEA90CD02B0E43D823
:1033A000F76404D0040EF56E0C0004D086EC11F026
:1033B000040EEF6E0101D95193D821EED9F06FD8E8
:1033C000D9C11FF1DAC120F1DBC121F1DCC122F149
:1033D0007AD821EED9F034D8D96F18513011DA6F7C
:1033E00019513111DB6F1A513211DC6FD55178D878
:1033F00021EED5F054D8D5C11FF1D6C120F1D7C1E7
:1034000021F1D8C122F15FD821EED5F019D8D56FBE
:1034100018513011D66F19513111D76F1A5132111D
:10342000D86F7DEF08F04024176F000E4120186F11
:1034300017C1F6FF18C1F7FF000EF86E0F0E12004D
:10344000DE14276F000EDE14286F000EDE14296FC5
:10345000FF0EDE142A6F190E05D0D8902A332933B7
:1034600028332733E82EF9D7235127112B6F245106
:1034700028112C6F255129112D6F26512A112E6FDD
:103480001B512B112F6F1C512C11306F1D512D1101
:10349000316F1E512E11326F17512F111200000E75
:1034A000DE141B6FFF0EDE141C6F000EDE141D6F8A
:1034B000000EDE141E6F1DC11EF11CC11DF11BC1CB
:1034C0001CF11B6B120020C11FF121C120F122C190
:1034D00021F1226B236B2051246F256B266B000C8E
:1034E000176F186B196B1A6B17C11AF1196B186BE0
:1034F000176B12000900F5CF19F10900F5CF1AF189
:103500001200EECF19F1EECF1AF11200186E1A6AFE
:10351000140E196E140C8A0E176E186A1A6A1C0E95
:10352000196EC9EC2DF017C080F018C081F01C0E88
:10353000000180198111D8A41200826B88D9080E6D
:10354000866F20EE06F07ED9DE5098191AE1DE5023
:10355000991917E1DE509A1914E1DE509B1911E117
:1035600020EE0AF06FD9DE508C190BE1DE508D1978
:1035700008E14DD9DBCFE3FFE806FCE2010E826FE4
:1035800007D00D0E8827000E892386078651D9E1C2
:10359000DEEC23F0D8B41200A2512FD920EEA2F015
:1035A00018D9A2C068F0A3C069F0A4C06AF0A5C091
:1035B0006BF03BD920EEA2F0D3D838507C1909E14A
:1035C00039507D1906E13A507E1903E13B507F19CD
:1035D000D8A41200825149E13AD9000E846F030E3B
:1035E000856F080E876F20EE0CF08451D926855127
:1035F000DA2210EE0CF08851E1268951E222DE50E9
:10360000E65C04E284C088F085C089F00D0E842752
:10361000000E852387078751E6E1F9D8DBCFE3FF6A
:10362000E806FCE29851E9D820EE98F0D2D898C08C
:1036300068F099C069F09AC06AF09BC06BF0F5D849
:1036400020EE98F08DD820EE06F0FCD87CC0DEFF8E
:103650007DC0DEFF7EC0DEFF7FC0DEFF20EE0AF011
:10366000F1D88CC0DEFF8DC0DDFF91059011D8A48C
:103670001200920E176E186A45EC25F08AEC26F0BF
:103680000001836F8305D8A4120020EE92F010EEA3
:103690009CF0050EDBCFE3FFE806FCE28A0E080F84
:1036A000DCEC30F098C0A2F099C0A3F09AC0A4F06E
:1036B0009BC0A5F038500001A0D8646B3950656FED
:1036C000666B676B66C067F065C066F064C065F0E6
:1036D000646B686B3A50696F6A6B68516B6F6951C4
:1036E0006C6F6A516D6F6E6B6F6B706B716B3B5073
:1036F000726F190E05D0D8907233713370336F33F7
:10370000E82EF9D76B516F11736F6C517011746F94
:103710006D517111756F6E517211766F6451731125
:10372000776F65517411786F66517511796F6751B4
:1037300076117A6F60517711986F61517811996F96
:10374000625179119A6F63517A119B6F020E916FDA
:10375000906B8A0E3FEC25F0B2EC2FF0F7EF30F0D3
:10376000DE14706F000EDE14716F000EDE14726FC7
:10377000FF0EDE14736F190E05D0D89073337233B9
:1037800071337033E82EF9D76C517011746F6D512D
:103790007111756F6E517211766F6F517311776F72
:1037A00064517411786F65517511796F6651761196
:1037B0007A6F675177117B6F605178117C6F61511F
:1037C00079117D6F62517A117E6F63517B117F6F2A
:1037D0001200000EDE14646FFF0EDE14656F000E23
:1037E000DE14666F000EDE14676F66C067F065C09A
:1037F00066F064C065F0646B1200606F616B626BB1
:10380000636B60C063F0626B616B606B120020EEF3
:103810000CF08851D9268951DA22DF6A20EE92F025
:1038200088C0E1FF89C0E2FF050C69C068F06AC08A
:1038300069F06BC06AF06B6B6C6B69516D6F6E6B8E
:103840006F6B000C8851D9268951DA221200000EC4
:10385000886F030E896F12000101536B546B266A47
:10386000140E256E286A276AFDEC2FF045D901E079
:103870001200990E176E020E86EC1AF0C9EC2DF0AC
:10388000020199390F0B040A01E01200A9513CD939
:1038900022EEA9F0FAD8A9C23EF1AAC23FF1ABC20A
:1038A00040F1ACC241F10ED922EEA9F0BED8A96F09
:1038B0004AD9AA6F39D9AB6F41D9AC6FA55124D978
:1038C00022EEA5F0E2D8A5C23EF1A6C23FF1A7C202
:1038D00040F1A8C241F1F6D822EEA5F0A6D8A56F16
:1038E00032D9A66F21D9A76F29D9A86F3850A91945
:1038F00009E13950AA1906E13A50AB1903E13B50EE
:10390000AC1909E0A92906E1AA2904E1AB2902E1E1
:10391000AC29D8A412009B510101376F366B22EEFF
:103920009BF0DECF38F1DDCF39F139C138F1396B99
:10393000396B3651381102019B6F01013751391132
:1039400002019C6FF6D8D8903637D8903635526F32
:103950000201EFD8050E36655FD0EC0E5225176ECA
:10396000186AFF0E18225DEC31F056D00101525159
:1039700002019B5D9ED853C125F054C126F0286AF0
:10398000276AFDEC2FF0B8D8D8A41200990E0001D8
:10399000AF6F020EB06F66EF2FF0010152510201BE
:1039A0009B5D87D8BCD8E7EC2AF099D8FDEC2FF0C6
:1039B00025C055F126C056F155C1D3F056C1D4F0FB
:1039C00027EF28F00101525102019B5D72D8A7D860
:1039D000E7EC2AF084D8FDEC2FF08ED8D8A41200A2
:1039E000A5C22CF2A6C22DF2A7C22EF2A8C22FF2B7
:1039F0002CC211F12DC212F12EC213F12FC214F1FB
:103A000053C115F154C116F1A2EF18F09BC217F083
:103A10009CC218F05DEF31F00201A251010AA6E04C
:103A2000070AD0E0170AB9E0F1D7DE14466F000E9E
:103A3000DE14476F000EDE14486FFF0EDE14496F70
:103A4000190E05D0D8904933483347334633E82E12
:103A5000F9D7425146114A6F435147114B6F4451B8
:103A600048114C6F455149114D6F3A514A114E6FF3
:103A70003B514B114F6F3C514C11506F3D514D110B
:103A8000516F36514E1102011200000EDE143A6FD2
:103A9000FF0EDE143B6F000EDE143C6F000EDE14D2
:103AA0003D6F3CC13DF13BC13CF13AC13BF13A6B4A
:103AB00012000101536F02019C51D8A09C05010125
:103AC000546F12003FC13EF140C13FF141C140F18E
:103AD000416B426B3F51436F446B456B000C17C009
:103AE00055F118C056F153C125F054C126F055C107
:103AF00027F056C128F0120025C055F126C056F116
:103B000001015551561112000101366F376B386BA8
:103B1000396B36C139F1386B376B366B120053C1D4
:103B200017F054C118F01200010138515011020170
:103B3000120099510F0B0101366F1200010139512A
:103B4000511102011200010137514F1102011200FF
:103B5000300E1F6E020E206E6EEC32F001011D6FF2
:103B6000E50E176E010E186E52EC2EF0DED0300E00
:103B70001F6E020E206E7FEF2BF002011851010123
:103B8000E55D020119510101E659FBD8D8A01200E8
:103B9000D7D804D91BEC2DF0300E0101116F020EA5
:103BA000126FB50E136F020E146FEFEF28F0300E88
:103BB0001F6E020E206EF8EC31F00009D8B412002E
:103BC000300E1F6E020E206E56EC2DF01FC01EF13F
:103BD00020C01FF101011E511F1162E01F5103E1BE
:103BE000110E1E5D03E30201776B07D0670E1E25E1
:103BF000D96E020E1F21DA6EDF6A6BC220F12F0E22
:103C00000101206505D0380E206102D0D00E20279A
:103C10006C0E020167191DE1650E68191AE1640E48
:103C2000691917E16F0E6D1907E16E0E6E1904E147
:103C30009BD81851881231D06F0E6D192EE1660E87
:103C40006E192BE1660E6F1928E18ED8181D8816A3
:103C500024D0210E176E010E186E1A6A200E196EEE
:103C60001C6A110E1B6EE3EC31F0000E6BEC33F0AE
:103C7000A1D8D2EC32F0210E296E010E2A6EF50E7B
:103C80002B6E670E2C6E020E2D6E74EC31F0000E52
:103C90006BEC33F08FD8D2EC32F080D81BEC2DF0E7
:103CA000020118510101E55D020119510101E659B6
:103CB00068D8D8A0120044D8030E8BEC31F017C09E
:103CC00019F118C01AF1020E8BEC31F017C01BF17C
:103CD00018C01CF1680E296E030E2A6E390E2B6E69
:103CE00019C12CF01AC12DF088CF2EF02F6A815007
:103CF0000F0B306E316A1BC132F01CC133F074EC13
:103D000031F0300EEE6F020EEF6F680EF06F030EA3
:103D1000F16F680E176E030E186E0DEC32F017C0BF
:103D2000F2F018C0F3F033EF2BF001011D5101E167
:103D30001ED7010A01E121D7020A01E138D712009A
:103D4000020EE5250201186F000E0101E6210201B5
:103D5000196F000E0101E72102011A6F000E010127
:103D6000E82102011B6F120020C117F1010E0101B1
:103D7000186F172B02D0D8901837172FFCD70101D6
:103D8000120002011A510101E759E851800A176F28
:103D900002011B51800A010117591200300E1F6EDB
:103DA000020E206E670E216E020E226E246A320E03
:103DB000236E320C210E196E010E1A6E1200C80EFF
:103DC000DCEC30F00001B0BF1200B05104E1F10EA4
:103DD000AF5DD8A0120045EC30F017C0BFF018C09E
:103DE000C0F00001BF0503E1020EC019D8A4120003
:103DF000186A020E176E5DEC31F0FBEC2DF017C067
:103E0000BBF018C0BCF019C0BDF01AC0BEF0500E17
:103E10000001BB1909E1480EBC1906E1430EBD19AA
:103E200003E14D0EBE19D8A41200F8D85DEC31F0B4
:103E3000FBEC2DF017C0CFF018C0D0F019C0D1F0B6
:103E40001AC0D2F00001CF51B36FB46BD051B56F2F
:103E5000B66BD151B76FB86BD2C0B9F0BA6BDED8C0
:103E60005DEC31F0C20E176E186A1A6A060E196EF2
:103E7000C9EC2DF0C80E176E196A060E186EC20E28
:103E800040EC2FF01750181001E0B6D0186ACA0E97
:103E9000176E5DEC31F0FBEC2DF0630E171809E1A5
:103EA000530E181806E1820E191803E1630E1A1852
:103EB000D8A412000001100EAF27FF0EB0238DD042
:103EC000B9EC31F00001C16FB9EC31F00001CE6FF7
:103ED000CE51B16FB26B020EB127000EB223B151B9
:103EE000AF5FB251B05B6BD0FBEC2DF017C0C5F1EA
:103EF00018C0C6F119C0C7F11AC0C8F16ED0FBECEA
:103F00002DF017C024F218C025F219C026F21AC0ED
:103F100027F263D0030ECE6560D0FBEC2DF017C006
:103F200010F218C011F219C012F21AC013F2040EE6
:103F30000001CE5F030ECE6550D0FBEC2DF017C014
:103F400014F218C015F219C016F21AC017F2040EB6
:103F50000001CE5F42D0030ECE653FD0FBEC2DF0CA
:103F600017C034F018C035F019C036F01AC037F059
:103F7000EED7FBEC2DF017C020F218C021F219C0CB
:103F800022F21AC023F2E3D740D8040E04D03DD861
:103F9000050E01D0010E0001FF6F08D0B9EC31F021
:103FA000020AF2E0070AF3E0030AF4E00001CE0798
:103FB00014D0CEC017F0186A5DEC31F00ED0C151AC
:103FC000010A92E0020A9BE0050AA4E0350AC3E078
:103FD000060AE4E0030ACDE0ECD70001B0BF05D04B
:103FE000B05102E1AF05D8B06BD7040EFF19D8A4C9
:103FF0001200030E49EF22F0DE0E0001AF25176E0E
:10400000FF0EB021186E5DEF31F0CFC038F0D0C098
:1040100039F0D1C03AF0D2C03BF01200186A080E55
:10402000176E080C0101196B1A6B0201282B000E88
:1040300029232A232B230101CD4BCE2B040ECE5D49
:1040400003E2040ECE6FCD6B44C01BF145C01CF1E2
:10405000E8D0300EFAD8F76402D004D903D086EC49
:1040600011F007D901011351141101E1C5D01169F3
:104070001269300E1B25136F000E1C21146F13C123
:10408000F6FF14C1F7FF000EF86E0F0EF76407D0AD
:104090000900F5CF15F10900F5CF16F106D086EC31
:1040A00011F0EECF15F1EECF16F1010111511527E8
:1040B00012511623300E1B25176F000E1C21186F8E
:1040C00017C1F6FF18C1F7FF000EF86E0F0EF76468
:1040D00007D015C1F5FF0D0016C1F5FF0C0006D085
:1040E00086EC11F015C1EEFF16C1EFFF300E010195
:1040F000ACD8F76402D0B6D803D086EC11F0B9D8AA
:1041000001011351141178E1340E9FD8F76403D0E4
:104110000800F55003D086EC11F0EF5000096CE078
:104120002B0E010192D8F76403D00800F55003D09C
:1041300086EC11F0EF500D0A5FE1320E010185D8D7
:10414000F76402D08FD803D086EC11F092D8300EED
:1041500001011B25156F000E1C21166F15C1F6FFFE
:1041600016C1F7FF000EF86E0F0EF76407D013C1EB
:10417000F5FF0D0014C1F5FF0C0006D086EC11F020
:1041800013C1EEFF14C1EFFF340E01015ED8F764D6
:1041900003D00800F55003D086EC11F0EF50010178
:1041A000136F1307340E1B25146F000E1C21156F9F
:1041B00014C1F6FF15C1F7FF000EF86E0F0EF7647D
:1041C00004D013C1F5FF0C0004D086EC11F013C12C
:1041D000EFFF2B0E010139D8F76404D00C0EF56EF9
:1041E0000C0004D086EC11F00C0EEF6E1BC140F0F9
:1041F0001CC141F07DEC08F02C0E010126D8F764BB
:1042000007D00900F5CF1BF10900F5CF1CF106D04E
:1042100086EC11F0EECF1BF1EECF1CF10101194B32
:104220001A2B1B511C11D8B4120048C011F1126B8B
:1042300011BF12071151195D1A51800A136F1251E3
:10424000800A135901E205D712001B25116F000ED9
:104250001C21126F11C1F6FF12C1F7FF000EF86E9C
:104260000F0E12000900F5CF13F10900F5CF14F17C
:104270001200EECF13F1EECF14F11200220ED6D8B9
:10428000F76403D00800F55003D086EC11F0EF502E
:10429000E806D8A412001A0EC9D8F76402D0D4D800
:1042A00003D086EC11F0E4D80001EE51F25DEF513D
:1042B000F35905E3EEC0FDF0EFC0FEF01CD01A0E7E
:1042C0004024F06F000E4120F16FF0C0F6FFF1C006
:1042D000F7FF000EF86E0F0EF76407D00900F5CF58
:1042E000FDF00900F5CFFEF006D086EC11F0EECF20
:1042F000FDF0EECFFEF0200E99D8F76407D009004C
:10430000F5CF17F00900F5CF18F006D086EC11F0C4
:10431000EECF17F0EECF18F0FDC019F0FEC01AF086
:10432000C9EC2DF0200E82D8F76402D08DD803D0CE
:1043300086EC11F09DD80001FD51F227FE51F323C8
:10434000200E89D8F76402D098D803D086EC11F0FB
:104350009BD81A0E6BD8F76402D076D803D086ECBF
:1043600011F086D80001FD51F25FFE51F35B1A0E89
:1043700072D8F76402D081D803D086EC11F084D8CB
:10438000080E54D8F76408D05FD80900F5CFF4F0D0
:104390000900F5CFF5F007D086EC11F069D8EECF23
:1043A000F4F0EECFF5F00001FD51F225F66FFE516D
:1043B000F321F76F000EF421F86F000EF521F96F6D
:1043C0000C0E4024FA6F000E4120FB6FFAC0F6FF7E
:1043D000FBC0F7FF000EF86E0F0EF7640DD0F6C0AD
:1043E000F5FF0D00F7C0F5FF0D00F8C0F5FF0D005B
:1043F000F9C0F5FF0C000AD086EC11F0F6C0EEFF14
:10440000F7C0EEFFF8C0EEFFF9C0EFFF350E0ED893
:10441000F76404D0100EF56E0C0004D086EC11F099
:10442000100EEF6E61EC12F0CCEF12F040240001A0
:10443000F06F000E4120F16FF0C0F6FFF1C0F7FF02
:10444000000EF86E0F0E12000900F5CFF2F0090011
:10445000F5CFF3F012004024F46F000E4120F56F09
:10446000F4C0F6FFF5C0F7FF000EF86E0F0E120055
:10447000EECFF2F0EECFF3F01200F2C0F5FF0D0038
:10448000F3C0F5FF0C001200F2C0EEFFF3C0EFFF27
:1044900012000001A86FA90EDCEC30F000019F694A
:1044A000A069A169A269A46B440EA36FA66B430E19
:1044B000A56FCCEC2EF00001A76FA705D8A41200C1
:1044C000176A060E186E010E196E1A6E25EC33F07F
:1044D000500E176E480E186E430E196E4D0E1A6E62
:1044E00025EC33F0176A800E186E196A1A6A25ECEB
:1044F00033F0030E0001A81904E198D825EC33F03D
:1045000003D08BD825EC33F091D825EC33F08ED83E
:1045100025EC33F08BD825EC33F08DD8B2EC2FF0AE
:10452000196ACA0E186E32EC33F0630E176E530E12
:10453000186E820E196E630E1A6E25EC33F0350E6E
:1045400093EC33F0010E93EC33F00001A85193EC9F
:1045500033F0030E0001A81919E1360E93EC33F085
:10456000040E93EC33F020C217F021C218F022C2DF
:1045700019F023C21AF025EC33F0320E93EC33F02D
:10458000040E93EC33F049D825EC33F0370E93EC5E
:1045900033F0040E93EC33F0010E93EC33F0030E82
:1045A00093EC33F0060E93EC33F00F0E93EC33F0F4
:1045B000390E93EC33F0020E93EC33F0020E186ECA
:1045C000176A72EC33F00C0E93EC33F0140E93EC8C
:1045D00033F0130E176E1750D8A4100E186E5DEC42
:1045E00016F0B2EC2FF03D0E93EC33F0070E93EC87
:1045F00033F0010E93EC33F01ED8B2EC2FF0FF0E27
:1046000093EC33F0000E93EC33F00FEC2CF0A80594
:10461000D8A41200030EFF6F030C38C017F039C086
:1046200018F03AC019F03BC01AF01200176A186A65
:10463000196A1A6A1200A90E176E186A1A6A060E0B
:10464000196E060C00019E6BB9D803E1110E2618F5
:1046500062E1380405E17F0E3B1839103A105BE047
:10466000222806E1232804E1242802E1252856E037
:1046700038500101C515276E3950C615286E3A50BD
:10468000C715296E3B50C8152A6E2250C5152B6ED2
:104690002350C6152C6E2450C7152D6E2550C815F5
:1046A0002E6E27502B1812E128502C180FE129509C
:1046B0002D180CE12A502E1809E122C098F023C0D1
:1046C00099F024C09AF025C09BF008D024C298F03D
:1046D00025C299F026C29AF027C29BF098C017F025
:1046E00099C018F09AC019F09BC01AF0F3EC2EF0A4
:1046F00017C09CF018C09DF000019C519D1114E161
:1047000098C01DF099C01EF09AC01FF09BC020F009
:1047100098EC24F09E6F00019E511200280E9C6FB1
:104720009C51D8A4100E9D6F9CC017F09DC018F02E
:10473000080E1A6E196A8AEC26F000019E6F9E051B
:10474000EAE1450E186E176A72EC33F0186A176AC0
:1047500072EC33F0176A400E186E550E196EAA0EE1
:104760001A6E25EC33F0400E93EC33F0265093ECA8
:1047700033F0186A176A72EC33F00DEC23F025EC75
:1047800033F022C017F023C018F024C019F025C060
:104790001AF025EC33F038C0A5F239C0A6F23AC0C1
:1047A000A7F23BC0A8F222C0A9F223C0AAF224C0FB
:1047B000ABF225C0ACF226C0A2F2ADD7385039100A
:1047C0003A103B101200020EA6D8F76407D0F56A23
:1047D0000D00F56A0D00F2EC11F004D086EC11F03A
:1047E00066EC12F0060E97D8F76403D0F2EC11F0E5
:1047F00004D086EC11F0EE6AEF6A100E8CD8F764E4
:1048000007D0F56A0D00F56A0D00F2EC11F004D046
:1048100086EC11F066EC12F0140E7DD8F76407D028
:10482000F56A0D00F56A0D00F2EC11F004D086EC8B
:1048300011F066EC12F0080E6ED8F76407D0F56A36
:104840000D00F56A0D00F2EC11F004D086EC11F0C9
:1048500066EC12F00C0E5FD8F76407D0F56A0D0015
:10486000F56A0D00F2EC11F004D086EC11F066EC64
:1048700012F0180E50D8F76403D0F2EC11F004D007
:1048800086EC11F0EE6AEF6A300E45D8F76403D07B
:10489000F2EC11F004D086EC11F0EE6AEF6A320E01
:1048A0003AD8F76403D0F2EC11F004D086EC11F0A2
:1048B000EE6AEF6A340E2FD8F76403D0F56A0C0065
:1048C00003D086EC11F0EF6A350E25D8F76403D0DB
:1048D000F56A0C0003D086EC11F0EF6A17C0F6FF02
:1048E00018C0F7FF000EF86E0F0EF76403D0F2EC5D
:1048F00011F004D086EC11F0EE6AEF6A360E0BD898
:10490000F76404D0010EF56E0C0004D086EC11F0B3
:10491000010EEF6E12001724196E000E18201A6E89
:1049200019C0F6FF1AC0F7FF000EF86E0F0E120046
:10493000010E7D6F7C6B7F6B080E7E6F060E806FA5
:10494000040E816F010E836F826B7C0E080FDCEC0E
:1049500030F03850000182D8395074D83A5065D8B8
:104960003B50726F190E01D084D8E82EFDD742D883
:104970008A6F615178118B6F625179118C6F63511D
:104980007A118D6F1D506AD81E505CD81F504DD8BB
:104990002050726F190E01D06CD8E82EFDD72AD89E
:1049A000946F61517811956F62517911966F6351CF
:1049B0007A11976F8E6B8F6B906B916B926B936B81
:1049C000280E176E1750D8A4100E186E5ED88AECF9
:1049D00026F000017B6F7B050BE17C0E50D8B2EC1A
:1049E0002FF0F7EC30F000017B6F7B0501E1050C47
:1049F0007B5112006B516F11736F6C517011746F9A
:104A00006D517111756F6E517211766F6451731122
:104A1000776F65517411786F66517511796F6751B1
:104A200076117A6F605177111200696F6A6B685165
:104A30006B6F69516C6F6A516D6F6E6B6F6B706BE2
:104A4000716B1200656F666B676B66C067F065C05F
:104A500066F064C065F0646B686B1200606F616B38
:104A6000626B636B60C063F0626B616B606B646B05
:104A70001200D8907233713370336F331200176E97
:104A8000186A1A6A1C0E196E1C0C080E1A6E060E95
:104A9000196E060CAE6F0001AD6B20EE0CF09AD8CB
:104AA000DECF22F0DECF23F0DECF24F0DECF25F004
:104AB00020EE09F08FD8DF50266E22EC23F0AD6F88
:104AC000AD056AE120EE02F085D8DECFA1F0DDCFA2
:104AD000A2F0EC0EA125AB6FFF0EA221AC6F9FC020
:104AE000D9FFA0C0DAFFDF500F0BA16FA26BD890E7
:104AF000A137A237D890A137A23720EE02F06AD8AA
:104B0000DECFA3F0DDCFA4F0A151A35DAB6FA25126
:104B1000A459AC6F186A176A72EC33F0186A176AF6
:104B200072EC33F05CD8040E49D8040E37D872EC1E
:104B300033F055D8060E42D8060E30D872EC33F05A
:104B4000F80E0001AB25716FFF0EAC21726F93EC74
:104B500028F00001AD6FAD051FE184EC33F0266A4B
:104B6000220E256EABC027F0ACC028F02A6A296A55
:104B7000C8EC2BF025C0A9F026C0AAF0C4EC2DF09B
:104B8000240E196EA90E66EC30F0ABC031F0ACC04B
:104B900032F091EC2DF0AD6FAD511200D926DECF81
:104BA000A5F0DDCFA6F0A6C0A5F0A66BA66BA3511D
:104BB000A511176EA451A611186E1200D926DECFCA
:104BC000A1F0DDCFA2F0A151A46FA36BAE51D96EBD
:104BD000DA6A12009F51D926A051DA221200000190
:104BE000AE51D96EDA6A12000101BE91BE95BE992E
:104BF000BE9BC16BC26B426A436AA00E0E01FE6F80
:104C0000FDA1FED70D0EA06F00F0B30E0E01A26F36
:104C100000F0A36B00F0150EA46F00F0A76B120E4E
:104C2000A66F00F01A0EE56F120EE46F1F0EE76F0D
:104C3000E669E86BE96B1A0EEB6F100EEA6F7A6AA1
:104C40007B6A15EC27F0EC69ED69050EAB6FEE0E93
:104C5000AA6FA1EC33F02D6E2DC0F6FF53EC18F0C7
:104C6000F5CF84FE00F02DC02AF02A2A2AC0F6FFD4
:104C700053EC18F0F5CF85FE00F02DC02AF0020E9F
:104C800045D853EC18F0F5CF82FE00F02DC02AF085
:104C9000030E3CD853EC18F0F5CF83FE00F02DC086
:104CA0002AF0040E33D853EC18F0F5CF80FE00F054
:104CB0002DC02AF0050E2AD853EC18F0F5CF81FE4E
:104CC00000F0AB0E0E01D86F040ED26E010E1A6EFC
:104CD000000E196AA4EC2EF0010E1A6E100E196E59
:104CE000A4EC2EF01D0E1A6E4A0E196E140EA4ECD2
:104CF0002EF02DEC31F0590E0E01FB6F1A6A120ED8
:104D0000196EA4EC2EF0A29AA08A12002A262AC0BC
:104D1000F6FF12000101BEBB030CD2B6040C0CEC72
:104D200031F083D898EC33F0060EE8CF61FF17C05E
:104D3000F6FF18C0F7FF000EF86E0F0EF76403D0F1
:104D40000800F55003D086EC11F0EF50E8CF61FF7A
:104D500017285FD8F76403D00800F55003D086EC1D
:104D600011F0EF50E8CF61FF020E172452D8F7641C
:104D700003D00800F55003D086EC11F0EF50E8CFD7
:104D800061FF030E172445D8F76403D00800F550DF
:104D900003D086EC11F0EF50E8CF61FF040E17242A
:104DA00038D8F76403D00800F55003D086EC11F032
:104DB000EF50E8CF61FF050E17242BD8F76403D01E
:104DC0000800F55003D086EC11F0EF50E8CF61FFFA
:104DD0000E018451E8CF61FF0E018551E8CF61FFDC
:104DE0000E018251E8CF61FF0E018351E8CF61FFD0
:104DF0000E018051E8CF61FF0E018151E8CF61FFC4
:104E00001A50E8CF61FF1950E8CF61FF0101BE8B56
:104E1000010C1B6E000E18201C6E1BC0F6FF1CC080
:104E2000F7FF000EF86E0F0E12001A0EE36F120E4F
:104E3000E26F120C1D6ADD390F0B1B6E1C6AD890D5
:104E40001B361C36D8901B361C36EC0E1B241F6EEE
:104E5000FF0E1C20206E1F106BE0020E476E180E16
:104E6000466EDEA362D059D0B9EC31F01E6E4ED042
:104E70001F50201005E060D85DEC31F01F6A206AF9
:104E8000010E1D6E4AD0205003E1030E1F5C1DE38E
:104E9000B9EC31F01E6E040E1E1814E145EC30F032
:104EA00017C046F018C047F0FD0E1F26FF0E202247
:104EB000B50E465C050E4758E3E3050E476EB40E8B
:104EC000466EDED71F6A206A28D01F6A206A1D6AD4
:104ED00024D0B9EC31F01E6E1F06D8A02006010EBA
:104EE0001E64F3D7FE0E1E261E501B6E1C6A1B503E
:104EF0001F5C1C502058E9E31EC017F0186A5DECD7
:104F000031F01E501F5E000E205ABAD71E50B0E07E
:104F1000010A03E0030AB7E0DCD71F06D8A0200689
:104F20001F28A2E1202806E09FD706D85DEC31F0CB
:104F3000010E1D6E1D5012001FC017F020C018F08A
:104F40001200010E0201C36FC1EC30F048EC32F0E8
:104F500046EC31F0D08EF28EF28CA30E72D835EC86
:104F600032F064EC33F0C30E00016BD835EC32F054
:104F70008D0E0201B76F050EB86F0E0EB96F0A0ED7
:104F8000BA6FB66B3C0EB56FBF0E176E020E186E81
:104F900052EC2EF09AEC2CF054EC33F017C0E4F203
:104FA00018C0E5F219C0E6F21AC0E7F20201C351D7
:104FB0000CE1E451BB1909E1E551BC1906E1E651E8
:104FC000BD1903E1E751BE1939E0E4C2BBF2E5C205
:104FD000BCF2E6C2BDF2E7C2BEF2C40E176E020E0C
:104FE000186E1A6A196A1C6A200E1B6EE3EC31F007
:104FF000C40E296E020E2A6ED00E2B6EE7C22CF064
:105000002D6AE6C22EF02F6AE5C230F0316AE4C2A2
:1050100032F0336A74EC31F0000E5DEC33F0C40E04
:10502000196E020E1A6ED2EC32F0C40E00016D6FD2
:10503000020E6E6F35EC32F00201C36BA8EC1DF06E
:10504000A3D76D6F6D51D8A4100E6E6F1200340E81
:105050000001DD6FAD0E176E020E186E88EC2FF09A
:10506000C9EC2DF00201B351B41105E00001D35198
:10507000D411D8A412000201AF510001D66FD56B34
:1050800022EEAFF046D8D7110201AF6F0001D65122
:10509000D8110201B06F0001DB6BDC6BDDC0F6FFE5
:1050A00059EC18F00201AF510900F51829E1B0518F
:1050B0000900F51825E1B1510001D66FD56B22EE3C
:1050C000B1F027D8D713D651D813F80ED725AF6F24
:1050D000FF0ED821B06FDDC0D9F0020ED927D9C09C
:1050E000F6FF59EC18F00500FA6E0900F550FD6E58
:1050F0000900F550FE6E0900F550FF6EFA501200DF
:10510000050E0001DD27DB4BDC2BDB51DC11C6E09B
:105110001200DECFD7F0DDCFD8F0D8C0D7F0D86BF3
:10512000D86BD5511200D8907135736F7235746F8A
:1051300001D000F0D2AA02D04BD8FBE1D2BA40D0C5
:10514000E2CEF4FEE3CEF5FEC1C1F0FEC2C1F1FE37
:10515000000171510101C1250001756F72510101FA
:10516000C2210001766F110E755D1A0E765904E3A7
:10517000F00E7527E50E762375C0F2FE76C0F3FEBD
:10518000D298D28A71C017F072C018F01A6A280E2D
:10519000196E5BEC32F017C073F018C074F001D0D8
:1051A00000F0D2AA02D014D8FBE1D2BA09D0000193
:1051B00071510E01E227000172510E01E323010C2F
:1051C000B40E000121EC28F035EC32F0FF000C0C9D
:1051D00000017307D8A0740773517411120011C134
:1051E0001FF012C120F06EEC32F0E806D8A41200D5
:1051F000010120EE02F01351D9261451DA2210EEEB
:1052000002F038D8E222DECFE6FFDECFE6FFDECFC7
:10521000E6FFDECFE6FF13C1D9FF14C1DAFF10EEBF
:1052200006F028D850EC2DF02ED8DE50DE1007E125
:105230002AD8CDC1DEFFCEC1DDFFCD4BCE2B20EE77
:1052400036F01CD8020EDF6E20EE10F017D828C200
:10525000DEFF29C2DEFF2AC2DEFF2BC2DEFF20EE08
:105260002BF00CD8010EDF6E11C140F012C141F0DD
:105270007DEF08F01151E126125112001151D9268B
:105280001251DA22120011C1D9FF12C1DAFF120045
:105290000101BEA3120027EC2EF0AB0E176E010E1B
:1052A000186E1A6A0E0E196EC9EC2DF0B751586FB0
:1052B000576B21EEB7F0DECF59F1DDCF5AF15AC16D
:1052C00059F15A6B5A6B57515911B76F58515A11BE
:1052D000B86F1AD08BEC1AF07CEF2EF02CEC1CF08F
:1052E0007CEF2EF05B0E296E010E2A6EE60E2B6E01
:1052F000B7C12CF0B8C12DF0B7C12EF0B8C12FF056
:1053000074EC31F07CEF2EF021EEB7F0DECF57F1E8
:10531000DDCF58F15851080A05E0890A08E0070A6C
:1053200008E0E0D75751DAE0060AD4E0DBD757515E
:1053300002D05751DD0AD6E17CEF2EF01D6E176AC0
:10534000186A00F0182A090E1864FBD701D0F9D7A3
:105350005A0E186E01D000F00E018AA102D0182E4C
:10536000FAD71850D8A401D01768175000092CE1BB
:105370001DC0B4FEB26BB28100F000F0176A186A6B
:1053800000F0182A090E1864FBD701D0F9D75A0E7D
:10539000186E01D000F00E018AA102D0182EFAD7A3
:1053A0001850D8A401D017681750FF0A05E1FD0E68
:1053B0001E6EFF0E14D80AD0B291B8CE1EF0B9CE30
:1053C0001FF0206A216A02D01E6809D81EC019F099
:1053D0001FC01AF020C01BF021C01CF012001F6873
:1053E000206821681200076E016A026A00F0022A32
:1053F000090E0264FBD701D0F9D75A0E026E01D014
:1054000000F00E018AA102D0022EFAD70250D8A4D1
:1054100001D00168015000092CE107C0B4FEB26B55
:10542000B28100F000F0016A026A00F0022A090E5F
:105430000264FBD701D0F9D75A0E026E01D000F0FA
:105440000E018AA102D0022EFAD70250D8A401D0B0
:1054500001680150FF0A05E1FD0E086EFF0E14D829
:105460000AD0B291B8CE08F0B9CE09F00A6A0B6A38
:1054700002D0086809D808C003F009C004F00AC0C7
:1054800005F00BC006F0120009680A680B681200EC
:1054900019C01FF01AC020F0216A226A11D0236AB5
:1054A000246A61CF7EFE0E017E51246E61CF7EFEA6
:1054B0000E017E51236E34D8020E175E000E185A6C
:1054C0001850EDE1020E175CEAE2175018101CE0CC
:1054D000236A246A61CF7EFE0E017E51246E236A08
:1054E0001FD812D01F501B6E20501C6E1D6A1E6AE2
:1054F00021501B241F6E22501C20206E000E1D20E8
:10550000216E000E1E20226E21502210EBE11F1E84
:10551000201E211E221E1FC017F020C018F0FF0CF5
:1055200023501F2624502022000E21222222000C6C
:105530007FEC33F046D8E82EFED7182EFCD700D0EB
:1055400040D8E82EFED7182EFCD700D03AD8E82E47
:10555000FED7182EFCD700D034D8E82EFED7182E50
:10556000FCD700D0030EB3EC32F02ED8E82EFED7D5
:10557000182EFCD700F0030EB3EC32F025D8E82E3D
:10558000FED7182EFCD700F0030EB3EC32F0380E25
:10559000B3EC32F08EEC33F00C0EB3EC32F08EEC58
:1055A00033F0010EB3EC32F08EEC33F0010EB3ECBD
:1055B00032F01C0E186E0D0EE82EFED7182EFCD7FA
:1055C0001200880E186E460C370E186E1B0C1F6AE0
:1055D000206A216A226AA5C223F0A6C224F0A7C2CB
:1055E00025F0A8C226F0A9C227F0AAC228F0ABC2B3
:1055F00029F0ACC22AF0A2C22BF02C6A17C02DF001
:1056000018C02EF00C0E1E6ED8901E32230E1D6E8A
:1056100011D01D50D96EDA6ADECF19F0DDCF1AF045
:1056200019501F261A502022000E212222221E0667
:10563000020E1D261E50EDE11F50196E20501A6EED
:105640001B6A1C6A215019241F6E22501A20206EDA
:10565000000E1B20216E000E1C20226E1FC017F0B2
:1056600020C018F01200EEC01FF0EFC020F06EEC6A
:1056700032F0030AD8A41200000120EE29F03AD833
:10568000DF50D8A41200F051F111D8B4120020EE6E
:1056900023F030D8F0C0DEFFF1C0DDFF20EE23F0B4
:1056A00029D810EE25F0EE51E126EF5150EC2DF007
:1056B00020EE27F01FD8F2C0DEFFF3C0DDFF20EEA2
:1056C00029F018D8020EDF6E20EE32F013D8020E49
:1056D000DE6EDD6A20EE34F00DD8050EDF6E20EEB2
:1056E00035F008D8100EDF6EEEC09FF0EFC0A0F0CE
:1056F000CCEF12F0EE51D926EF51DA2212001FC082
:1057000017F020C018F0DCEC2CF00009D8A412002F
:105710001FC017F020C018F0E3EC23F020EE1AF0C1
:1057200032D8DE6ADD6A20EE1CF02DD8B40EDE6EB3
:10573000050EDD6E20EE2AF026D8DF6A20EE2BF073
:1057400022D80D0EDF6E20EE1EF01DD88CEC2DF051
:105750001AD8DF6A20EE23F016D8DE6ADD6A20EE62
:1057600025F011D8DE6ADD6A20EE27F00CD8DE6A5B
:10577000DD6A20EE29F007D8DF6A1FC017F020C0CD
:1057800018F021EF30F01F50D9262050DA221200F5
:105790007ACF2BF07BCF2CF0130E25247A6E1A0EC5
:1057A00026207B6E27C017F028C018F029C019F0FA
:1057B0002AC01AF048EC2AF017C02DF018C02EF0BD
:1057C0002F6A306A2BC07AFF2CC07BFF2D5000015E
:1057D000606F616B626B636B62C063F061C062F0AB
:1057E00060C061F0606B2E50646F656B666B6451D6
:1057F000676F6551686F6651696F6A6B60516711B9
:105800002D6E615168112E6E625169112F6E6351B8
:105810006A11306E2DC025F02EC026F01200C3ECA8
:1058200032F017C07BF018C07CF031D8C4EC2DF0FA
:10583000260E196E7B0E66EC30F029D8110E7B25F2
:10584000796F000E7C217A6F54EC16F07B25276E61
:10585000000E7C21286E79C029F07AC02AF0C8ECAD
:105860002BF025C079F026C07AF079517A1102E147
:1058700079697A69C4EC2DF0280E196E790E66EC00
:1058800030F07BC031F07CC032F091EF2DF00001A0
:105890007B51756F746B7C51766F776B7451761199
:1058A0007B6F755177117C6F1200BEA916D0050E63
:1058B0000001FF190BE139D809E0020120692169D3
:1058C00022692369030E49EC22F004D0010EFF6F18
:1058D00049EC22F00101BE9912000001FF0503E02E
:1058E000020EFF1904E1010EFF6F49EF22F037505D
:1058F0003610351009E1640E345C06E2050EFF191E
:1059000003E1030E49EF22F0050EFF1908E10DD85F
:1059100006E03406000E355A365A375A000C05D8C0
:10592000D8A41200020EFF6F020C3450351036104E
:10593000371012008CEC2FF048EC29F0BA0E176EDD
:10594000010E186E52EC2EF00101E951BA5DEA51D8
:10595000BB59EB51BC59BD51800AB96FEC51800A5B
:10596000B95904E3CEEC31F00A0E20D8BA51020145
:105970001C5D0101BB5102011D590101BC51020115
:105980001E591F51800A0101B96FBD51800AB959D2
:1059900004E255EC2CF012EC20F0BAC11CF2BBC1B1
:1059A0001DF2BCC11EF2BDC11FF21200E927000E9C
:1059B000EA23EB23EC23000C1B6A1C6A44504510BD
:1059C00038E01750181035E044C01DF045C01EF0F7
:1059D00026D017501D1806E118501E1803E1010EBD
:1059E0001B6E27D02C0E1D24196E000E1E201A6E61
:1059F00019C0F6FF1AC0F7FF000EF86E0F0EF7641D
:105A000007D00900F5CF1DF00900F5CF1EF006D034
:105A100086EC11F0EECF1DF0EECF1EF01C2A1D50CB
:105A20001E1007E01C50800A196E4850800A195C4D
:105A3000D0E31B5012001FC017F020C018F0DCECA0
:105A40002CF00009D8B4120020EE22F024D8DF5048
:105A5000D8A4120021502210D8B4120020EE1EF05B
:105A60001AD821C0DEFF22C0DDFF20EE1EF013D8C1
:105A700010EE20F01F50E126205012D820EE1AF030
:105A80000AD823C0DEFF24C0DDFF20EE22F003D8B9
:105A9000010EDF6E010C1F50D9262050DA221200B1
:105AA000E222DECFE6FFDDCFE5FF1200256A266A9F
:105AB0001FC017F020C018F0DCEC2CF0000922E029
:105AC00020EE22F024D8DE041DE120EE1EF01FD8C7
:105AD000DECF21F0DDCF22F020EE20F018D8DECF8F
:105AE00023F0DDCF24F02150235C256E2250245872
:105AF000266E251007E020EE1AF009D80DD807D839
:105B0000000EDF6A25C01FF026C020F012001F50D3
:105B1000D9262050DA221200DE6ADD6A20EE22F059
:105B20001200140E31240001726F000E3220736FC8
:105B300072516C6F6B6B73516D6F6E6B6B516D113E
:105B4000726F6C516E11736F1FD8100E196E720E3A
:105B500066EC30F0266A0E0E256E286A140E276E4B
:105B60002A6A296AC8EC2BF025C070F026C071F0B3
:105B70000BD8180E196E700E66EC30F0F7EC30F0A2
:105B800000016F6F6F511200186A020E176E1A6AC9
:105B9000020C1C6A1D6A17C01EF018C01FF01FD02F
:105BA0001EC0F6FF1FC0F7FF000EF86E61CF7EFE2D
:105BB0000E017E511B6E0F0EF76404D01BC0F5FF63
:105BC0000C0004D086EC11F01BC0EFFF1E4A1F2A08
:105BD0001C4A1D2A1906D8A01A06C8EC31F001018A
:105BE000C951CA1103E019501A10DAE11CC017F0AC
:105BF0001DC018F012001B6A1C6A1D6A1E6A010192
:105C0000CA5103E1040EC95D18E361CF7EFE0E01A7
:105C10007E511E6E61CF7EFE0E017E511D6E61CFE4
:105C20007EFE0E017E511C6E61CF7EFE0E017E5106
:105C30001B6E040E60EC30F001D0BE811BC017F06B
:105C40001CC018F01DC019F01EC01AF0120042C08E
:105C50007AFF43C07BFF61CF7EFE0E017E51426E14
:105C600061CF7EFE0E017E51436E61CF7EFE0E013E
:105C70007E510101C96F61CF7EFE0E017E5101018F
:105C8000CA6F61CF7EFE0E017E510101CB6F61CFE5
:105C90007EFE0E017E510101CC6F040EC95F000E25
:105CA000CA5B000C000EF2BE010E1B6EF29EE8C233
:105CB0001CF0E9C21DF0EAC21EF0EBC21FF01BA0EF
:105CC00002D0F28E01D0F29E175018100CE017C0CF
:105CD000D9FF18C0DAFF1CC0DEFF1DC0DEFF1EC0EA
:105CE000DEFF1FC0DEFF1CC017F01DC018F01EC075
:105CF00019F01FC01AF012000101BE930E01FE8DB3
:105D000018D8E851195CE9511A5806E312D819500D
:105D1000EA5D1A50EB5905E2EACEECFEEBCEEDFE61
:105D200006D0FF0E4224EC6FFF0E4320ED6FFB8D7B
:105D300012001768186842C019F043C01AF01750D3
:105D4000192618501A2212001B6E1BC0B4FE19C06F
:105D50007EFE1AC07FFEF2CF1CF0F26A7ECEB6FE47
:105D60007FCEB7FE1CC0F2FF176A186A00F0182A2F
:105D7000090E1864FBD701D0F9D75A0E186E01D05E
:105D800000F00E018AA102D0182EFAD71850D8A41C
:105D900001D01768175012009FC022F0A0C023F056
:105DA000A1C024F0A2C025F0110E266E22EC23F033
:105DB0002F6E2F0416E198EC33F0A3C017F0A4C0A7
:105DC00018F072EC33F0A5C017F0A6C018F072EC12
:105DD00033F0186A176A72EC33F0186A176A72ECBB
:105DE00033F02F501200000E1F6E030E206E216A3A
:105DF00020EE06F01F50D9262050DA221750DE1868
:105E00000EE11850DE180BE11950DE1808E11A50A7
:105E1000DE1805E11FC017F020C018F012000D0EAB
:105E20001F26000E2022212A070E2164E1D7176ABF
:105E3000186A120003EE00F0B80EEE6AE806FDE103
:105E400002EE00F0BB0EEE6AE806FDE101EEBEF0E8
:105E50002F0EEE6AE806FDE100EE34F0150EEE6A54
:105E6000E806FDE1460EF66E670EF76E000EF86E60
:105E70000900F5CFFFF0499049920001A1EF27F00A
:105E80001C6E1AD01750D96EDA6A1C50E16EE26AA5
:105E9000DE50E6180FE01C50D96EDA6ADF501A6E39
:105EA0001750D96EDA6ADF501A5C176E186AD8A0DC
:105EB000180612001C2A172A1806D8A01906182836
:105EC000E1E11928DFE1176A186A1200B60E176EB1
:105ED000186A1ED8C9EC2DF084EC33F007D0AFC09F
:105EE0009FF0B0C0A0F0B60E4AEF25F00001B65109
:105EF000B26FB16BB751B36FB46BB151B313B25151
:105F0000B413B451080AD8A41200B351E8E0120047
:105F10001A6A080E196E080C22D8D96508D060A834
:105F200006D0130E9EEC29F012D82DEC31F060B0A3
:105F3000609060B2609260B60ED860AC1200010151
:105F4000BEB3120000D0BE830E01FB9D1200010102
:105F5000BE89BE95120060960101BE9B1200A19AF7
:105F60000E01020C17C01BF018C01CF013D01BC090
:105F7000F6FF1CC0F7FF000EF86E0F0EF76403D09B
:105F80000800F55003D086EC11F0EF50E8CF61FF28
:105F90001B4A1C2A1906D8A01A06192803E11A2838
:105FA000D8B412000E01E2291F0EE359E0E31200FB
:105FB0001C6A1D6A19501A101BE0010E1B6E04D0DA
:105FC000D89019361A361B2A1AAEFAD7D8901C3632
:105FD0001D361950175C1A50185805E31950175EF2
:105FE0001A50185A1C80D8901A3219321B2EEED72C
:105FF0001CC017F01DC018F012007ACF2DF07BCF17
:106000002EF025C017F026C018F027C019F028C0C0
:106010001AF048EC2AF017C02FF018C030F0316A9F
:10602000326A2DC07AFF2EC07BFF2F502A6E296A5C
:1060300030502B6E2C6A2910256E2A502C10266E9B
:106040001200445045100AE020EE2EF04450D926AC
:106050004550DA2217C0DEFF18C0DDFF20EE2CF01D
:106060000FD844C0DEFF45C0DDFF17C044F018C0A4
:1060700045F020EE2EF004D8DE6ADD6A482A000CD6
:106080001750D9261850DA221200196A1A6A01012B
:10609000CA5103E1020EC95D0DE361CF7EFE0E0120
:1060A0007E511A6E61CF7EFE0E017E51196E020E78
:1060B00007D801D0BE8119C017F01AC018F012001D
:1060C0000101C95F000ECA5BBE91000C1D6EE2CEDD
:1060D0001BF0E3CE1CF0130E19240E01E26F1A0E12
:1060E0001A20E36F07D01D50D96EDA6ADF50E8CF6F
:1060F00061FF1D2A1706D8A018061728F4E11828F2
:10610000F2E11BC0E2FE1CC0E3FE12002050211091
:1061100017E0010E226E04D0D89020362136222AB4
:1061200021AEFAD720501E5C21501F5804E32050A6
:106130001E5E21501F5AD89021322032222EF2D7D3
:106140001EC01EF01FC01FF01200CD82CD86CD985C
:10615000CD9ACD84CD80800ECF6ECE6AE00EE86FF2
:10616000C20EE96F1E0EEA6F4D0EEB6F600EEC6F04
:10617000410EED6FC90EEE6FD00EEF6F9F809D80C8
:10618000D00C020ED36E400E9B6E9A6A916A959661
:106190008C8694969488949AFC0E926E0F0E936E51
:1061A000A5EC30F079EC33F03EEC33F098EC2AF0CB
:1061B00049EC33F093EF32F0176E1750D96EDA6A6C
:1061C00084CEDFFF0FD885CEDFFF0CD882CEDFFF75
:1061D00009D883CEDFFF06D880CEDFFF03D881CE7B
:1061E000DFFF1200172A1750D96EDA6A1200FF0E6D
:1061F0000E01E225176EFF0EE321186E0101BEA508
:10620000020CBEAB030C08D817C0E6FE18C0E7FEB0
:1062100000F000F0D286010C1A0E0E01E56F120E8E
:10622000E46F120CAFEC2FF0D96509D060A807D04D
:10623000130EF3EC29F0A7EC2FF0A2EC31F060B0D4
:10624000609060B2609260B6ABEC2FF060AC120070
:106250000101BEB31200A3EF2FF0110E9EEC29F046
:1062600019C022F01AC023F01BC024F01CC025F076
:1062700022C026F023C027F024C028F025C029F032
:1062800027A4000C00D00101BE85010C176A186A12
:1062900052EC2EF017C06DF018C06EF019C06FF000
:1062A0001AC070F06DC029F06EC02AF06FC02BF0DC
:1062B00070C02CF0760E81EF32F00101C951175CED
:1062C000CA51185804E3C9C117F0CAC118F01750D1
:1062D0001810D8B4120017507A2618507B22175085
:1062E000C95F1850CA5B120029C06EF02AC06FF057
:1062F0000001706B716B726B2C0E6D6F2BC023F0F5
:106300006D0E246E6E0E61EC16F06EC0D9FF6FC07C
:10631000DAFFDF6A000C1A6E1AC019F01946194626
:10632000C2501918C30B1918C26EC280110EE82E84
:10633000FED700F0C282C2B2FED7C3CF17F0C4CFDF
:1063400018F01200110EF3EC29F003C00CF004C099
:106350000DF005C00EF006C00FF00CC010F00DC01F
:1063600011F00EC012F00FC013F011A4000C43EF97
:1063700031F0176A0101C951CA1107E061CF7EFEF1
:106380000E017E51176E04D801D0BE811750120045
:106390000101C907D8A0CA07BE911200000E176EEE
:1063A000030E186E196A20EE0CF01750D9261850FB
:1063B000DA22DF2A0D0E1726000E1822192A070EE0
:1063C0001964F1D7070C17C01DF018C01EF008D0D3
:1063D0001DC0D9FF1EC0DAFF19C0DFFF1D4A1E2AEB
:1063E0001B06D8A01C061B28F3E11C28F1E11200B3
:1063F000216A1FC017F020C018F0DCEC2CF0000957
:106400000AE020EE29F01F50D9262050DA22DF5072
:1064100002E1010E216E2150120017C019F018C0C0
:106420001AF002D0194A1A2A19C0D9FF1AC0DAFF85
:10643000DF50F8E11750195C176E18501A58186E93
:1064400012009DB09EA012009E90CD90800ECF6E47
:10645000CE6ACD800201E82B000EE923EA23EB236C
:10646000EC2BED23EE23EF23000C176A186A52EC95
:106470002EF017C06FF018C070F06FC029F070C018
:106480002AF06DC02BF06EC02CF0DC0E81EF32F0E4
:10649000F4EC25F00BEC33F089EC33F0E1EC32F066
:1064A000E90E176E010E186E52EC2EF00A0E010165
:1064B000D6EC2CF0000C17501902F3CF1BF0F4CFE0
:1064C0001CF017501A02F3501C2618501902F350F2
:1064D0001C261BC017F01CC018F01200216A1FC038
:1064E00017F020C018F0DCEC2CF0000908E020EEDA
:1064F00036F01F50D9262050DA22DF50216E21506D
:1065000012002D6E2F6A306A300E316E660E326EBA
:10651000000E336E290E2E6E2DC023F02E0E246E2B
:106520002F0E61EF16F0176A176A1750020D000E52
:10653000F324D96E020EF420DA6EDF6A172A070EF2
:106540001764F3D7070C176E9092908417C08DFFD5
:10655000030EE82EFED700F09080030EE82EFED743
:1065600000F090901200176E90929094AD0EE82E6D
:10657000FED700F017C08DFF9080AD0EE82EFED73D
:1065800000F0909012000101C3510E01E25D196EFE
:106590000101C4510E01E3591A6E19C017F01AC057
:1065A00018F0120005D007D8FDEC32F0194A1A2A6B
:1065B00002D8F9E1120019C0D9FF1AC0DAFFDF5082
:1065C0001200446A456A486A040E0101CE6F000E4B
:1065D000CD6B0201286B296B2A6B2B6B1200196E95
:1065E000186A3A0E196005D02F0E196402D0010EF8
:1065F000186E18C017F017301200186E1F0E1864AE
:106600008EEF33F07F0E18608EEF33F01850A3EC4E
:1066100032F08EEF33F0176A000E1724D96EDA6A63
:10662000030EDA22DF6A172A670E1764F5D7670CA4
:10663000176E0A0E171804E19EA8FED70D0EAD6E58
:106640009EA8FED717C0ADFF12001A50E8CF61FF19
:106650001950E8CF61FF1850E8CF61FF1750E8CF1D
:1066600061FF120003D0000E93EC33F01806D8A09F
:1066700019061828F8E11928F6E11200948E949C66
:106680007E6A590EAF6E7E86260EAC6EAB88AB8EE0
:10669000260C928492860D0EC26E060EC16EBE0E40
:1066A000C06EC36AC46A120038C017F039C018F04F
:1066B0003AC019F03BC01AF01200186E1850800F43
:1066C000B3EC32F08EEF33F001D000F02DEC31F06E
:1066D0000009FBE01200186E1850C00FB3EC32F046
:1066E0008EEF33F01850E8CF61FF1750E8CF61FF0D
:1066F0001200C78CC79E010EC66EC68A010C966A30
:10670000996A8D6A906A12007ACFC1F17BCFC2F18B
:106710001200386A396A3A6A3B6A1200AD0EE82EF6
:10672000FED700F01200176E1750E8CF61FF12007D
:10673000E2CEC3F1E3CEC4F1120021EC32F0499273
:0867400011002E0E12000100F1
:020000040001F9
:06FFF800A0F4C5FFF0F7C4
:00000001FF
