:040000001DEF00F000
:06000800498283EF32F093
:100018004980D8CF14F0E8CF15F0E0CF16F0CCEC3B
:100028002FF016C0E0FF15C0E8FF14C0D8FF4990B4
:0600380010001BEF2FF089
:101000000001000A006400E803102701001000003E
:1010100001001050494331384639374A36302045AF
:10102000544845524E455400FCFF126100FBFF90AE
:101030002C0044009C3D00FFFFFFFFFFFF00DEADE2
:1010400000BEEF0D0A0D0A5374617274696E672059
:101050005379736C6F672061742025750D0A003019
:10106000313233343536373839616263646566004E
:1010700057616974696E6720666F72204C696E6B88
:1010800000444D412054494D454F555421212100E4
:101090004C696E6B20737461727465640025642EF4
:1010A00025642E25642E2564002575203A2025739D
:1010B0000D0A002578203A20256400286E756C6C96
:1010C0002900000001010C6B2A0E3F2461EC11F095
:1010D000F76403D00800F55003D06DEC11F0EF5029
:1010E0000101106F2B0E3F2461EC11F0F76403D067
:1010F0000800F55003D06DEC11F0EF5001010F6FB7
:1011000019EF11F0020E3F2461EC11F0F7640DD0DD
:101110003BC0F5FF0D003CC0F5FF0D003DC0F5FFE5
:101120000D003EC0F5FF0C000AD06DEC11F03BC085
:10113000EEFF3CC0EEFF3DC0EEFF3EC0EFFF23ECF4
:1011400012F061EC11F0F76407D0D1C1F5FF0D008A
:10115000D2C1F5FF0C0006D06DEC11F0D1C1EEFF4D
:10116000D2C1EFFF56EC12F061EC11F0F76407D03A
:10117000F56A0D00F56A0D00D9EC11F004D06DECA4
:1011800011F04DEC12F0D1EC11F061EC11F0F764BC
:1011900003D0F8EC11F004D06DEC11F063EC12F018
:1011A000D1EC11F061EC11F0F76403D076EC11F0A2
:1011B00004D06DEC11F097EC11F089EC11F00C0EED
:1011C00012EC12F0F76403D005EC12F004D06DECD1
:1011D00011F05AEC12F0A0EC11F0F76403D027ECF8
:1011E00012F004D06DEC11F07EEC12F0CDEC11F0A9
:1011F00061EC11F0F76403D08FEC12F004D06DECC9
:1012000011F09AEC12F072EC11F061EC11F0F7644D
:1012100004D0120EF56E0C0004D06DEC11F0120E1D
:10122000EF6EECEC11F061EC11F0F76403D042ECDE
:1012300012F004D06DEC11F096EC12F0F4EC11F019
:1012400061EC11F0F76403D042EC12F004D06DECC5
:1012500011F096EC12F0D5EC11F061EC11F0F7649E
:1012600004D0030EF56E0C0004D06DEC11F0030EEB
:10127000EF6E48EC12F0B3EC12F0030E20EF10F01A
:101280000101106B3FC017F040C018F0C9EC23F00B
:1012900044EF11F001010F51F3E0030A01E132D7ED
:1012A00044EF11F0080E3F2461EC11F0F76403D015
:1012B000F8EC11F004D06DEC11F063EC12F0DEEC00
:1012C00011F0C0EC11F0F76405D02EEC12F027EC11
:1012D00012F004D06DEC11F06CEC12F0A0EC11F0F7
:1012E000F76403D027EC12F004D06DEC11F07EEC23
:1012F00012F0CDEC11F061EC11F0F76403D08FEC3B
:1013000012F004D06DEC11F09AEC12F0ECEC11F04C
:1013100061EC11F0F76403D042EC12F004D06DECF4
:1013200011F096EC12F0F4EC11F061EC11F0F764AE
:1013300003D042EC12F004D06DEC11F096EC12F0F8
:10134000D5EC11F061EC11F0F76404D0030EF56EEA
:101350000C0004D06DEC11F0030EEF6E72EC11F086
:1013600061EC11F0F76404D0120EF56E0C0004D09D
:101370006DEC11F0120EEF6E7CD7300E3F2461EC55
:1013800011F0F76403D0D9EC11F004D06DEC11F03A
:10139000EE6AEF6AF0EC11F061EC11F0F76403D043
:1013A00076EC11F004D06DEC11F097EC11F089ECB3
:1013B00011F0D95106197EE1DA5107197BE1DB51B1
:1013C000081978E1DC510919D8A474D0100E3F2413
:1013D00061EC11F0F76403D076EC11F004D06DEC01
:1013E00011F097EC11F089EC11F0100E12EC12F0E4
:1013F000F76403D005EC12F004D06DEC11F05AEC58
:1014000012F072EC11F061EC11F0F76404D0100EE0
:10141000F56E0C0004D06DEC11F0100EEF6ED1ECF7
:1014200011F061EC11F0F76403D0F8EC11F004D086
:101430006DEC11F063EC12F0DEEC11F0C0EC11F089
:10144000F76405D02EEC12F027EC12F004D06DEC0E
:1014500011F06CEC12F0A0EC11F0F76403D027EC63
:1014600012F004D06DEC11F07EEC12F0CDEC11F026
:1014700061EC11F0F76403D08FEC12F004D06DEC46
:1014800011F09AEC12F048EC12F0B3EC12F00009F3
:1014900002E144EF11F0040E01011FEC12F061ECC7
:1014A00011F0F76404D0030EF56E0C0001D068D281
:1014B00044EF11F0100E3F2461EC11F0F76403D0FB
:1014C00035EC12F004D06DEC11F075EC12F072EC0A
:1014D00011F061EC11F0F76404D0140EF56E0C00FD
:1014E00004D06DEC11F0140EEF6E48EC12F0B3EC7A
:1014F00012F0000901E0C4D644EF11F0300E3F2491
:1015000061EC11F0F76403D0D9EC11F004D06DEC6C
:1015100011F0EE6AEF6AF0EC11F061EC11F0F76493
:1015200003D076EC11F004D06DEC11F097EC11F0D3
:1015300089EC11F0D951061976E1DA51071973E1F6
:10154000DB51081970E1DC510919D8A46CD0100ED8
:101550003F2461EC11F0F76403D076EC11F004D075
:101560006DEC11F097EC11F089EC11F0100E12EC0B
:1015700012F0F76403D005EC12F004D06DEC11F01A
:101580005AEC12F072EC11F061EC11F0F76404D037
:10159000100EF56E0C0004D06DEC11F0100EEF6E15
:1015A000D1EC11F061EC11F0F76403D0F8EC11F01C
:1015B00004D06DEC11F063EC12F0DEEC11F0C0EC35
:1015C00011F0F76405D02EEC12F027EC12F004D0E5
:1015D0006DEC11F06CEC12F0A0EC11F0F76403D09C
:1015E00027EC12F004D06DEC11F07EEC12F0CDEC93
:1015F00011F061EC11F0F76403D08FEC12F004D01D
:101600006DEC11F09AEC12F0040E01011FEC12F0D7
:1016100061EC11F0F76404D0030EF56E0C0001D0FC
:10162000AFD144EF11F0100E3F2461EC11F0F764DC
:1016300003D035EC12F004D06DEC11F075EC12F023
:1016400072EC11F061EC11F0F76404D0040EF56E49
:101650000C0004D06DEC11F0040EEF6E48EC12F0AB
:10166000B3EC12F046D7340E3F2461EC11F0F7646E
:1016700003D00800F55003D06DEC11F0EF500009D5
:1016800037E048EC12F0B3EC12F0000902E144EF4D
:1016900011F072EC11F061EC11F0F76403D0080066
:1016A000F55003D06DEC11F0EF500101026F02B55F
:1016B000E7D5350E3F2461EC11F0F76403D0080044
:1016C000F55003D06DEC11F0EF500101026F02A94B
:1016D00044EF11F0040E1FEC12F061EC11F0F7640E
:1016E00004D0030EF56E0C0001D04AD144EF11F086
:1016F00072EC11F061EC11F0F76404D0040EF56E99
:101700000C0004D06DEC11F0040EEF6E48EC12F0FA
:10171000B3EC12F0EED601010F5101E1B1D5030A8D
:1017200001E1C0D5070A01E1E9D6010A01E125D6A8
:101730000C0A01E1A5D5030A01E1A2D5060A93E04E
:1017400044EF11F09FEC12F0F76403D0A7EC12F015
:1017500004D06DEC11F0AEEC12F00101D351001980
:1017600003E1D4510119D8A444EF11F0300E3F2405
:1017700061EC11F0F76403D0D9EC11F004D06DECFA
:1017800011F0EE6AEF6A8BEC12F061EC11F0F76485
:1017900003D076EC11F004D06DEC11F097EC11F061
:1017A0003B50010102193DE13C5003193AE13D5023
:1017B000041937E13E50051934E1060E3F2461EC6F
:1017C00011F0F76404D0090083EC11F006D06DEC41
:1017D00011F0EECF02F1EECF03F10101D151021968
:1017E00020E1D25103191DE1100E3F2461EC11F0EC
:1017F000F76403D076EC11F004D06DEC11F097ECA7
:1018000011F089EC11F0D95106190BE1DA510719E1
:1018100008E1DB51081905E1DC51091902E1040E68
:10182000106F360E3F2461EC11F0F76404D0030E04
:10183000F56E0C0001D0A4D044EF11F0020E3F244D
:1018400061EC11F0F76403D076EC11F004D06DEC8C
:1018500011F097EC11F03B500101021909E13C50E5
:10186000031906E13D50041903E13E500519D8A4BF
:1018700044EF11F0060E3F2461EC11F0F76404D040
:10188000090083EC11F006D06DEC11F0EECF02F1FF
:10189000EECF03F10101D151021903E1D251031935
:1018A000D8A444EF11F00C0E3F2461EC11F0F76462
:1018B00003D076EC11F004D06DEC11F097EC11F040
:1018C0000101D551021909E1D651031906E1D75199
:1018D000041903E1D8510519D8A444EF11F0100EF2
:1018E0003F2461EC11F0F76403D076EC11F004D0E2
:1018F0006DEC11F097EC11F089EC11F0D95106194B
:1019000009E1DA51071906E1DB51081903E1DC515D
:101910000919D8A444EF11F0100E3F2461EC11F026
:10192000F76403D076EC11F004D06DEC11F097EC75
:1019300011F089EC11F0100E12EC12F0F76403D0E4
:1019400005EC12F004D06DEC11F05AEC12F0ECEC56
:1019500011F061EC11F0F76403D0D9EC11F004D070
:101960006DEC11F0EE6AEF6A040E01011FEC12F04B
:1019700061EC11F0F76404D0030EF56E0C0004D096
:101980006DEC11F0030EEF6E44EF11F0300E3F24BA
:1019900061EC11F0F76403D0D9EC11F004D06DECD8
:1019A00011F0EE6AEF6A72EC11F061EC11F0F7647D
:1019B00004D0010EF56E0C0004D06DEC11F0010E98
:1019C000EF6EECEC11F061EC11F0F76403D042EC37
:1019D00012F004D06DEC11F096EC12F0F4EC11F072
:1019E00061EC11F0F76403D042EC12F004D06DEC1E
:1019F00011F096EC12F0D5EC11F061EC11F0F764F7
:101A000004D0050EF56E0C0004D06DEC11F0050E3F
:101A1000EF6E050E0101106F48EC12F0B3EC12F0FE
:101A200044EF11F09FEC12F0F76403D0A7EC12F032
:101A300004D06DEC11F0AEEC12F00101D35100199D
:101A400003E1D4510119D8A444EF11F00C0E3F2446
:101A500061EC11F0F76403D076EC11F004D06DEC7A
:101A600011F097EC11F00101D551021909E1D6519D
:101A7000031906E1D751041903E1D8510519D8A477
:101A800044EF11F0020E3F2461EC11F0F76407D02F
:101A9000F56A0D00F56A0D00D9EC11F004D06DEC7B
:101AA00011F04DEC12F023EC12F061EC11F0F76440
:101AB00003D0D9EC11F004D06DEC11F0EE6AEF6AAE
:101AC000F0EC11F0FEDBF76407D0F56A0D00F56A63
:101AD0000D00D9EC11F004D06DEC11F04DEC12F0CA
:101AE00056EC12F0EEDBF76407D0F56A0D00F56AEC
:101AF0000D00D9EC11F003D0F0DB4DEC12F0D1EC7D
:101B000011F0DFDBF76407D0F56A0D00F56A0D0010
:101B1000D9EC11F003D0E1DB4DEC12F052EC12F0F5
:101B2000D0DBF76407D0F56A0D00F56A0D00D9EC3B
:101B300011F003D0D2DB4DEC12F087EC12F0C1DBD8
:101B4000F76403D0D9EC11F003D0C7DBEE6AEF6A7B
:101B5000CDEC11F0B6DBF76403D0D9EC11F003D073
:101B6000BCDBEE6AEF6A010E6BD2340E3F24A9DBB8
:101B7000F76403D00800F55002D0AFDBEF50000946
:101B800001E04AD7AFDB9DDBF76404D0040EF56EAD
:101B90000C0003D0A2DB040EEF6E48EC12F0B3ECA5
:101BA00012F0000901E170D38BEC12F08ADBF764CC
:101BB00006D0F56A0D00F56A0D00FBDB03D08DDB66
:101BC0004DEC12F023EC12F07CDBF76402D0F1DB79
:101BD00003D083DBEE6AEF6AF0EC11F072DBF7649E
:101BE00006D0F56A0D00F56A0D00E3DB03D075DB66
:101BF0004DEC12F056EC12F064DBF76406D0F56A97
:101C00000D00F56A0D00D5DB03D067DB4DEC12F05B
:101C1000C8DB57DBF76406D0F56A0D00F56A0D00E6
:101C2000C8DB03D05ADB4DEC12F052EC12F049DB6A
:101C3000F76406D0F56A0D00F56A0D00BADB03D033
:101C40004CDB4DEC12F087EC12F03BDBF76402D07A
:101C5000B0DB03D042DBEE6AEF6A9FDB32DBF76476
:101C600002D0A7DB03D039DBEE6AEF6A7CD7010133
:101C70000F5101E18BD6040A01E1E0D5010A01E12F
:101C800061D50C0A01E1CED6030A01E1CBD6060AE2
:101C900001E16BD7F9D2020E3F2413DBF76402D0C7
:101CA00025DB02D01ADB43DB3B500101021909E1BD
:101CB0003C50031906E13D50041903E13E5005195B
:101CC000D8A4E2D20C0E3F24FCDAF76402D00EDB7B
:101CD00002D003DB2CDB0101D551021909E1D651F9
:101CE000031906E1D751041903E1D8510519D8A405
:101CF000CBD2140E3F24E5DAF76402D0F7DA02D033
:101D0000ECDA15DB0101D951025DDA510359DB51DF
:101D10000459DC51055901E3B7D2100E3F24D1DA42
:101D2000F76402D0E3DA02D0D8DA01DBF2DAD95173
:101D3000065DDA510759DB510859DC51095901E2B6
:101D4000A3D0100E3F24BDDAF76403D00900DBDA1C
:101D500005D0C3DAEECF02F1EECF03F10101D95184
:101D6000025D0D6FDA5103590E6F250E3F24A9DA7B
:101D7000F76403D00900C7DA05D0AFDAEECF02F17D
:101D8000EECF03F101010D51025F0E51035B250EF1
:101D9000F7DAF76402D05BDB02D09FDAAFDBB3DBAC
:101DA00090DAF76403D00900AEDA05D096DAEECF08
:101DB00002F1EECF03F101010D5102270E51032371
:101DC000270EDEDAF76402D042DB02D086DA96DB39
:101DD0009ADB77DAF76403D0090095DA05D07DDA6B
:101DE000EECF02F1EECF03F101010251031117E131
:101DF000290E3F2466DAF76403D00800F55002D0BC
:101E00006CDAEF50020A0BE1290E3F24010159DA86
:101E1000F76403D0F56A0C0002D05FDAEF6A21EEB6
:101E2000D9F0FF0EDE240101006FFF0EDE20016FEE
:101E3000FF0EDE20026FFF0EDE20036F140EA0DA0D
:101E4000F76403D00BDB03DB02D047DA45DBC8DAEB
:101E500038DAF76402D009DB02D03FDA46DB010151
:101E6000CC51CD1101E110D2080E3F242ADAF764DB
:101E700002D0BEDA02D031DA26DBCCC1EEF0CDC121
:101E8000EFF027EC21F000D2350E3F241ADAF76488
:101E900004D0140EF56E0C0003D01FDA140EEF6E92
:101EA000F7DAB3EC12F079EF0AF0350E3F2409DAD5
:101EB000F76404D0010EF56E0C0003D00EDA010EAB
:101EC000EF6EA7D5100E3F24FCD9F76402D0CDDA0F
:101ED00002D003DA0ADBE6DAF4D9F76402D006DAD4
:101EE00002D0FBD924DA15DA0C0E9CDAF76402D0A2
:101EF0008CDA02D0F2D9DEDA360E3F240101E1D9C4
:101F0000F76404D0040EF56E0C0003D0E6D9040E7D
:101F1000EF6E62DAD6D9F76402D0B4DA02D0DDD936
:101F200005DB62DACED9F76402D0ACDA02D0D5D9BB
:101F3000FDDA3BDAC6D9F76404D0050EF56E0C0065
:101F400003D0CBD9050EEF6ECDD9BBD9F76404D041
:101F5000110EF56E0C0003D0C0D9110EEF6E090EF4
:101F600059D5340E3F24ADD9F76403D00800F5509D
:101F700002D0B3D9EF50000901E04ED5B3D9A1D9B1
:101F8000F76404D0040EF56E0C0003D0A6D9040E3D
:101F9000EF6E7EDAB3EC12F079EF0AF001010F5127
:101FA00084E0040A01E177D6020A8CE0010A8AE0A3
:101FB0000E0A02E140EF09F0030A02E140EF09F0E6
:101FC000060ACFE061D1350E3F247BD9F76404D0F7
:101FD000100EF56E0C0003D080D9100EEF6E58DA9B
:101FE000B3EC12F0000901E14FD1080E29D0300EF8
:101FF0003F2467D9F76402D045DA02D06ED996DA69
:10200000D4D95FD9F76404D0010EF56E0C0003D06B
:1020100064D9010EEF6E060E13D0350E3F2451D950
:10202000F76404D0100EF56E0C0003D056D9100ED4
:10203000EF6E2EDAB3EC12F0000901E125D10A0EA1
:102040000101106F21D1340E3F243BD9F76403D036
:102050000800F55002D041D9EF50000901E0DCD46E
:1020600041D92FD9F76404D0040EF56E0C0003D0CB
:1020700034D9040EEF6E0CDAB3EC12F079EF0AF0FB
:1020800001010F51040AB3E0020A9DE0010AC5E014
:102090000B0AD9E0F9D0FCD9B3EC12F0CDD7340E4D
:1020A0003F240FD9F76403D00800F55002D015D9AA
:1020B000EF50000901E0B0D415D903D9F76404D07A
:1020C000040EF56E0C0003D008D9040EEF6EE0D9B3
:1020D000B3EC12F079EF0AF001010F51060ADBE0D0
:1020E0000A0ADDE0D1D001010F51040AA8E0CCD0EA
:1020F000020E3F24E6D8F76402D0F8D802D0EDD81B
:1021000016D93B500101021909E13C50031906E1BF
:102110003D50041903E13E500519D8A4B5D0060E70
:102120003F24CFD8F76403D00900EDD805D0D5D827
:10213000EECF02F1EECF03F10101D151021903E11B
:10214000D25103199ED0A0D0340E3F24BAD8F764E0
:1021500003D00800F55002D0C0D8EF50000901E0CC
:102160005BD4C0D8AED8F76404D0040EF56E0C0072
:1021700003D0B3D8040EEF6E8BD9B3EC12F079EF25
:102180000AF001010F51040AB3E0030AB1E00B0A9F
:10219000DBE07AD0300E3F2494D8F76402D072D9B5
:1021A00002D09BD8C3D920D98CD8F76402D06AD981
:1021B00002D093D8BBD9F9D884D8F76404D0030EE1
:1021C000F56E0C0003D089D8030EEF6E8BD879D84A
:1021D000F76404D0020EF56E0C0003D07ED8020E18
:1021E000EF6E56D9B3EC12F0020E0101106F010E22
:1021F0000C6F4AD0020E3F2464D8F76406D0F56A0B
:102200000D00F56A0D00D5D802D067D846D91BD984
:1022100058D8F76402D0CDD803D05FD8EE6AEF6A01
:10222000010EE3D701010F51010AB4E0030AE2E015
:102230002BD02A0E3F2445D8F76403D00800F55070
:1022400002D04BD8EF50000AEDE0010A02E14AEF5C
:1022500009F0030A02E18BEF0BF0010A01E107D557
:10226000070A01E19BD6010A01E10AD7030A01E14D
:1022700033D7010A09E00F0A01E135D7010A81E0ED
:10228000030A02E140EF09F02B0E3F24010119D8A7
:10229000F76404D00D0EF56E0C0003D01ED80D0EA1
:1022A000EF6E2A0E3F2401010CD8F76404D010C150
:1022B000F5FF0C0003D011D810C1EFFF01010C5144
:1022C0001200006F000E4020016F00C1F6FF01C137
:1022D000F7FF000EF86E0F0E1200F6CFE9FFF7CFF2
:1022E000EAFF1200350E3F24010112000900F5CF6C
:1022F00002F10900F5CF03F10900F5CF04F109005F
:10230000F5CF05F11200F5CF02F10900F5CF03F189
:102310001200010E01010225066F000E0321076F56
:10232000000E0421086F000E0521096F1200EECF88
:1023300002F1EECF03F1EECF04F1EECF05F1120082
:102340000101DF51016F006B21EEDFF0DECF02F102
:10235000DDCF03F103C102F1036B036B00510213E4
:1023600001510313180E3F24046F000E4020056F27
:1023700004C1F6FF05C1F7FF000EF86E0F0E120044
:102380003F24046F000E4020056F04C1F6FF05C115
:10239000F7FF000EF86E0F0E12001C0E3F24010115
:1023A0001200080E3F2401011200340E3F240101E7
:1023B0001200F56A0D00F56A0C001200010E010111
:1023C000D525006F000ED621016F000ED721026FB8
:1023D000000ED821036F0C0C300E3F2401011200B7
:1023E000100E3F2401011200320E3F2401011200A1
:1023F000D5C1F5FF0D00D6C1F5FF0D00D7C1F5FF22
:102400000D00D8C1F5FF0C00120006C1F5FF0D004C
:1024100007C1F5FF0D0008C1F5FF0D0009C1F5FF6B
:102420000C0012003F240A6F000E40200B6F0AC1FF
:10243000F6FF0BC1F7FF000EF86E0F0E1200106FC3
:10244000360E3F241200060E3F240101120002C185
:10245000F5FF0D0003C1F5FF0C00120000C1F5FFF0
:102460000D0001C1F5FF0D001200D9C1F5FF0D00EF
:10247000DAC1F5FF0D00DBC1F5FF0D00DCC1F5FF92
:102480000C001200020EF56E0D00F56A0C00020C35
:102490003FC09FF040C0A0F01200EE6AEE6AEE6A04
:1024A000EF6A12000C0E3F2401011200140E3F24AB
:1024B0000101120006C1EEFF07C1EEFF08C1EEFFE9
:1024C00009C1EFFF1200D5C1EEFFD6C1EEFFD7C1A3
:1024D000EEFFD8C1EFFF120000C1EEFF01C1EEFF19
:1024E00002C1EEFF03C1EFFF1200D9C1EEFFDAC156
:1024F000EEFFDBC1EEFFDCC1EFFF120002C1EEFF19
:1025000003C1EFFF1200270E3F2401011200180E35
:102510003F2401011200020E3F240101120043C0BA
:10252000F5FF0D0044C0F5FF0C001200020EEE6E28
:10253000EF6A020C43C0EEFF44C0EFFF12003FC041
:10254000F6FF40C0F7FF000EF86E0F0E12000900F4
:10255000F5CF00F10900F5CF01F11200EECF00F147
:10256000EECF01F112004FDBF76407D00900F5CF81
:10257000A1F00900F5CFA2F006D06DEC11F0EECF7E
:10258000A1F0EECFA2F00001A151A46FA36B3BDB41
:10259000F76402D08CDA03D06DEC11F03CDBA6C0FE
:1025A000A5F00001A66BA66BA351A511DA6FA4518B
:1025B000A611DB6F060E2BDAF76402D05FDA03D0C8
:1025C0006DEC11F06FDA52DB060ED5DAF76402D04B
:1025D00036DB03D06DEC11F04EDB22DBDC6FA65155
:1025E000AA11DD6F100E13DAF76403D047DA5FDA51
:1025F00004D06DEC11F056DA0EDBD7DA100E45DAA6
:10260000F76402D077DA03D06DEC11F0E1DA56DA34
:10261000100EBEDAF76402D07ADA03D06DEC11F056
:10262000E0DA5ADA100E8DDAF76402D07DDA03D0E0
:102630006DEC11F0DFDAF8D9DE6FA851CE11DF6F43
:10264000A951CF11E06FAA51D011E16F0C0EDFD963
:10265000F76403D013DA2BDA04D06DEC11F022DA30
:10266000DADAA3DA0C0E11DAF76402D043DA03D017
:102670006DEC11F0ADDA22DA0C0E8ADAF76402D0D2
:1026800046DA03D06DEC11F0ACDA26DA0C0E59DA2A
:10269000F76402D049DA03D06DEC11F0ABDAC4D99B
:1026A000E26FA851CE11E36FA951CF11E46FAA5187
:1026B000D011E56FE691F10EE617E6510F0B5009C8
:1026C000E66F1A0EA4D9F76402D0D8D903D06DEC06
:1026D00011F0E8D9CBDA1A0E4EDAF76402D0AFDA8D
:1026E00003D06DEC11F0C7DA9BDAE86FA651AA119E
:1026F000E96FEA6BEB6BEC6BED6B350E88D9F76429
:1027000003D00800F55003D06DEC11F0EF5000013C
:10271000A36F060EA31703E0D86BD96B94D0270ED6
:1027200076D9F76402D04DDA03D06DEC11F08EDA71
:102730000001D851D91101E186D0180E68D9F7648B
:1027400002D09CD903D06DEC11F0ACD984DA09E247
:10275000180E5DD9F76402D034DA03D06DEC11F0B5
:1027600075DA1C0E000153D9F76402D087D903D063
:102770006DEC11F097D96FDA09E21C0E48D9F764B5
:1027800002D01FDA03D06DEC11F060DA250E0001E3
:102790003ED9F76407D00900F5CFD1F00900F5CF95
:1027A000D2F006D06DEC11F0EECFD1F0EECFD2F03A
:1027B000250E00012CD9F76402D060D903D06DEC4E
:1027C00011F070D90001D851A327D951A423250EA7
:1027D000C5D9F76402D02CDA03D06DEC11F041DAE0
:1027E000270E000114D9F76402D048D903D06DEC4C
:1027F00011F058D90001D851A35FD951A45B270E1D
:10280000ADD9F76402D014DA03D06DEC11F029DAF7
:10281000270E0001FCD8F76402D030D903D06DEC4C
:1028200011F040D90001A351A4110DE1350EEFD8EC
:10283000F76405D0080E0800F5120C0004D06DEC0A
:1028400011F0080EEF12350E0001E1D8F76403D045
:102850000800F55003D06DEC11F0EF500001E76F68
:10286000140ED825D56F000ED921D66F020ECFD801
:10287000F7640DD00900F5CF22F00900F5CF23F061
:102880000900F5CF24F00900F5CF25F00AD06DEC52
:1028900011F0EECF22F0EECF23F0EECF24F0EECF0A
:1028A00025F0060E266E08EC23F0D76FD75139E0DD
:1028B000DA0E176E186AE8D989EC2EF00001D851AB
:1028C000D9110AE0D1C017F0D2C018F0D8C019F061
:1028D000D9C01AF089EC2EF0060E0001D525D36F71
:1028E000000ED621D46FCCD9D525276E000ED62167
:1028F000286ED3C029F0D4C02AF0BDEC2BF025C03F
:10290000D3F026C0D4F0C0EC2CF0320E196ED30EEA
:102910003BEC2FF0D5C031F0D6C032F08DEC2CF06E
:10292000D76FD7513EE1340E72D8F76403D0080058
:10293000F55003D06DEC11F0EF500001A36FA32B05
:10294000340E9F25A46F000EA021A56FA4C0F6FF32
:10295000A5C0F7FF000EF86E0F0EF76404D0A3C0F9
:10296000F5FF0C0004D06DEC11F0A3C0EFFF300EAA
:1029700000014DD8F76402D081D803D06DEC11F07E
:1029800091D80001A351A4113FE1300E40D8F76463
:1029900003D042EC12F004D06DEC11F096EC12F082
:1029A00033D0100E34D8F76403D068D880D804D060
:1029B0006DEC11F077D82FD90001D851A325A76F5E
:1029C000D951A421A86F000EA521A96F000EA62140
:1029D000AA6F100E5AD8F7640DD0A7C0F5FF0D00EE
:1029E000A8C0F5FF0D00A9C0F5FF0D00AAC0F5FFB6
:1029F0000C000AD06DEC11F0A7C0EEFFA8C0EEFFEE
:102A0000A9C0EEFFAAC0EFFF0001D75112009F2519
:102A1000A16F000EA021A26FA1C0F6FFA2C0F7FF18
:102A2000000EF86E0F0E12000001C56BC66BC76B6F
:102A3000C451C86F190E05D0D890C833C733C633F8
:102A4000C533E82EF9D7BB51C511C96FBC51C611AA
:102A5000CA6FBD51C711CB6FBE51C811CC6FB151F8
:102A6000C911CD6FB251CA11CE6FB351CB11CF6F17
:102A7000B451CC11D06FA751CD1112000900F5CF80
:102A8000A3F00900F5CFA4F012009F25AB6F000E54
:102A9000A021AC6FABC0F6FFACC0F7FF000EF86E24
:102AA0000F0E1200EECFA3F0EECFA4F0120009003B
:102AB000F5CFA5F00900F5CFA6F012000001B16B2B
:102AC000AE51B26FB36BB46BB3C0B4F0B2C0B3F07D
:102AD000B1C0B2F0B16B1200B8C0B7F0B9C0B8F075
:102AE000BAC0B9F00001BA6BBB6BB851BC6FBD6B1B
:102AF000BE6B12000900F5CFADF00900F5CFAEF0C6
:102B00000900F5CFAFF00900F5CFB0F012000900D1
:102B1000F5CFB7F00900F5CFB8F00900F5CFB9F05F
:102B20000900F5CFBAF012000900F5CFC1F0090095
:102B3000F5CFC2F00900F5CFC3F00900F5CFC4F01E
:102B400012009F25BF6F000EA021C06FBFC0F6FF0F
:102B5000C0C0F7FF000EF86E0F0E12009F25A56F84
:102B6000000EA021A66FA5C0F6FFA6C0F7FF000EBD
:102B7000F86E0F0E12009F25A76F000EA021A86F00
:102B8000A7C0F6FFA8C0F7FF000EF86E0F0E1200E8
:102B90009F25B56F000EA021B66FB5C0F6FFB6C079
:102BA000F7FF000EF86E0F0E12000001A351A76F81
:102BB000A86BA96BAA6BA7C0AAF0A96BA86BA76B9F
:102BC00012000900F5CFD8F00900F5CFD9F01200B6
:102BD000EECFADF0EECFAEF0EECFAFF0EECFB0F087
:102BE0001200EECFB7F0EECFB8F0EECFB9F0EECFE7
:102BF000BAF01200EECFC1F0EECFC2F0EECFC3F0CC
:102C0000EECFC4F012009FC0F6FFA0C0F7FF000E89
:102C1000F86E0F0E1200EECFA5F0EECFA6F0120068
:102C2000AAC0A9F00001AA6BAA6BA551A9111200B4
:102C3000A3C0F5FF0D00A4C0F5FF0C0012000900B1
:102C4000F5CFA9F00900F5CFAAF01200EECFD8F029
:102C5000EECFD9F012000001D851A35DD951A4598B
:102C60001200A3C0EEFFA4C0EFFF12000001A351A9
:102C7000A66FA56B1200EECFA9F0EECFAAF012005E
:102C8000266A1A0E256E080C1A6A140E196E140C98
:102C9000E50E206E010E9AEC30F00BEC32F0430E94
:102CA0000101E51901E1A6D11200E9EC31F0D8B03B
:102CB0001200010E7FEC32F066EC32F0E5D91FEC29
:102CC00032F017C0FCF018C0FDF019C0FEF01AC0B9
:102CD000FFF0FCC033F0FDC034F0FEC035F0FFC0A3
:102CE00036F0BBD9C9EC2DF00001FB6FFB0508E104
:102CF000010E186E185075EC32F004EC2CF003D075
:102D0000000E7FEC32F0010E0101D06F010C66EC79
:102D100032F0BAD91FEC32F037C0F3F038C0F4F01B
:102D200039C0F5F03AC0F6F0E9EC31F003E3000EFB
:102D30007FEC32F092D9C9EC2DF00001FB6FFB055E
:102D400010E11E6A040E1D6EF30E1F6E1FC017F0F9
:102D5000186A1DC019F01EC01AF089EC2EF004ECA0
:102D60002CF0886A0101D06B2CEF31F0E9EC31F0E6
:102D7000D8A012001FEC32F064D909E1FD513418DB
:102D800006E1FE51351803E1FF513618D8A41200B0
:102D900088B002D08880120088901200E9EC31F0EF
:102DA000D8A012001FEC32F04CD909E1FD513418C3
:102DB00006E1FE51351803E1FF513618D8A4120080
:102DC00088B202D08882120088921200E9EC31F0B9
:102DD000D8A012001FEC32F034D909E1FD513418AB
:102DE00006E1FE51351803E1FF513618D8A4120050
:102DF00088B402D08884120088941200E9EC31F083
:102E0000D8A012001FEC32F01CD909E1FD51341892
:102E100006E1FE51351803E1FF513618D8A412001F
:102E200088B602D08886120088961200E9EC31F04C
:102E3000D8A012001FEC32F004D909E1FD5134187A
:102E400006E1FE51351803E1FF513618D8A41200EF
:102E500088B802D08888120088981200E9EC31F016
:102E6000D8A012001FEC32F0ECD809E1FD51341863
:102E700006E1FE51351803E1FF513618D8A41200BF
:102E800088BA02D0888A1200889A1200E9EC31F0E0
:102E9000D8A012001FEC32F0D4D809E1FD5134184B
:102EA00006E1FE51351803E1FF513618D8A412008F
:102EB00088BC02D0888C1200889C1200E9EC31F0AA
:102EC000D8A012001FEC32F0BCD809E1FD51341833
:102ED00006E1FE51351803E1FF513618D8A412005F
:102EE00088BE02D0888E1200889E1200E9EC31F074
:102EF000D8A012002CEC31F0B10EC0D8200E1B6E01
:102F0000B5EC30F0D10EBAD8100E1B6EB5EC30F027
:102F1000E10EB4D8100E1B6EB5EC30F01FEC32F0A1
:102F200090D809E1FD51341806E1FE51351803E14E
:102F3000FF513618D8A4120017EC30F00001F86FDA
:102F4000100EF8651CD0D10E206E216A236A100E77
:102F5000226E0BEC32F0000E48EC32F0D10E196EFE
:102F60001A6A7EEC31F0100E0001F85FE10E91D884
:102F70000BEC32F0000E41EC32F0E10E08D0B10E55
:102F800088D80BEC32F0000E48EC32F0B10E196E1E
:102F90001A6A84EF31F0E9EC31F0D8A012001FEC8E
:102FA00032F04FD84DE1FD5134184AE1FE51351849
:102FB00047E1FF513618D8A4120066EC32F064D80D
:102FC000D1EC31F01BC0F1F01CC0F2F046D8C9ECD6
:102FD0002DF00001FB6FFB05D8A41200F1C019F021
:102FE000F2C01AF019C017F01AC018F04FEC32F006
:102FF00004EF2CF0E651310A01E1B8D6030A01E1F1
:10300000CDD6010A01E1E2D6070A01E1F7D6010AAD
:1030100001E10CD7030A01E121D7010A01E136D70A
:103020000F0A01E14BD77B0A01E13FD6070A01E114
:103030005DD7160A01E16BD6060AD8A41200ABD7F9
:10304000120017C0FCF018C0FDF019C0FEF01AC045
:10305000FFF00001FC513318120033C09FF034C060
:10306000A0F035C0A1F036C0A2F00001A469FD0EA9
:10307000A36FF9C0A5F0FAC0A6F0FD0C176E186A90
:103080001A6A196A1C6A120017C0F9F018C0FAF01F
:103090001200206E216AF8C022F0236A1200336BFE
:1030A0003B6A3C6A3D6A3E6ACC6BCD6BD10E176EB3
:1030B000010EDBD9C5EC2CF03F6A406A0101D35107
:1030C000D411D8B41200D151D211D8B41200D151B8
:1030D000186F176BD251196F1A6B17511911D16FE5
:1030E00018511A11D26FD351186F176B21EED3F00C
:1030F000DECF19F1DDCF1AF11AC119F11A6B1A6B73
:1031000017511911D36F18511A11D46FCEC134F160
:10311000CFC135F140D034C1F6FF35C1F7FF000E05
:10312000F86E0F0EF76407D00900F5CF17F109000C
:10313000F5CF18F106D06DEC11F0EECF17F1EECF10
:1031400018F101011751D31908E11851D41905E1FB
:1031500034C13FF035C140F028D02C0E3425176F14
:10316000000E3521186F17C1F6FF18C1F7FF000ECA
:10317000F86E0F0EF76407D00900F5CF34F109009F
:10318000F5CF35F106D06DEC11F0EECF34F1EECF86
:1031900035F10101332B3451351107E03351800AE9
:1031A000176F4750800A175DB6E33F504010D8B400
:1031B0001200060EE7D8F76402D04BD903D06DECAD
:1031C00011F04ED90101D151191903E1D2511A1947
:1031D0001AE0020ED7D8F76408D03BD90900F5CF22
:1031E0001BF10900F5CF1CF107D06DEC11F038D9B7
:1031F000EECF1BF1EECF1CF1010119511A111B1179
:103200001C11D8A4120011C13BF012C13CF013C133
:103210003DF014C13EF0DD390F0B176F186BD890DD
:1032200017371837D890173718371751155DCC6FE7
:1032300018511659CD6FA2EC27F0E806D8A4120059
:103240000101DEA31CD0DEA90DD02B0E9BD8F764A4
:1032500004D0050EF56E0C0004D06DEC11F0050ED7
:1032600048D057D02B0E8ED8F76404D0030EF56EDD
:103270000C0004D06DEC11F0030E3BD04AD0DEA15F
:103280001CD0DEA90DD02B0E7DD8F76404D0070E1C
:10329000F56E0C0004D06DEC11F0070E2AD039D079
:1032A0002B0E70D8F76404D0060EF56E0C0004D017
:1032B0006DEC11F0060E1DD02CD0DEA51CD0DEA9C1
:1032C0000DD02B0E5FD8F76404D00A0EF56E0C00FB
:1032D00004D06DEC11F00A0E0CD01BD02B0E52D87E
:1032E000F76404D0090EF56E0C0004D06DEC11F0FB
:1032F000090EEF6E0ED0DEA90CD02B0E43D8F7646A
:1033000004D0040EF56E0C0004D06DEC11F0040E28
:10331000EF6E0101D95193D821EED9F06FD8D9C100
:103320001FF1DAC120F1DBC121F1DCC122F17AD831
:1033300021EED9F034D8D96F18513011DA6F195104
:103340003111DB6F1A513211DC6FD55178D821EE73
:10335000D5F054D8D5C11FF1D6C120F1D7C121F184
:10336000D8C122F15FD821EED5F019D8D56F185108
:103370003011D66F19513111D76F1A513211D86FE0
:1033800062EF08F03F24176F000E4020186F17C13E
:10339000F6FF18C1F7FF000EF86E0F0E1200DE14D4
:1033A000276F000EDE14286F000EDE14296FFF0E4B
:1033B000DE142A6F190E05D0D8902A33293328330A
:1033C0002733E82EF9D7235127112B6F24512811C9
:1033D0002C6F255129112D6F26512A112E6F1B514B
:1033E0002B112F6F1C512C11306F1D512D11316F6E
:1033F0001E512E11326F17512F111200000EDE14C4
:103400001B6FFF0EDE141C6F000EDE141D6F000E0E
:10341000DE141E6F1DC11EF11CC11DF11BC11CF16C
:103420001B6B120020C11FF121C120F122C121F12B
:10343000226B236B2051246F256B266B000C176FBA
:10344000186B196B1A6B17C11AF1196B186B176B84
:1034500012000900F5CF19F10900F5CF1AF1120099
:10346000EECF19F1EECF1AF11200186E1A6A140E8F
:10347000196E140C8A0E176E186A1A6A1C0E196ED1
:10348000C5EC2CF017C080F018C081F01C0E0001B4
:1034900080198111D8A41200826B88D9080E866F1A
:1034A00020EE06F07ED9DE5098191AE1DE50991907
:1034B00017E1DE509A1914E1DE509B1911E120EE5C
:1034C0000AF06FD9DE508C190BE1DE508D1908E13E
:1034D0004DD9DBCFE3FFE806FCE2010E826F07D097
:1034E0000D0E8827000E892386078651D9E1C4EC8A
:1034F00023F0D8B41200A2512FD920EEA2F018D98F
:10350000A2C068F0A3C069F0A4C06AF0A5C06BF0C7
:103510003BD920EEA2F0D3D837507C1909E13850BE
:103520007D1906E139507E1903E13A507F19D8A47C
:103530001200825149E13AD9340E846F020E856F30
:10354000080E876F20EE0CF08451D9268551DA22BF
:1035500010EE0CF08851E1268951E222DE50E65C43
:1035600004E284C088F085C089F00D0E8427000E27
:10357000852387078751E6E1F9D8DBCFE3FFE8062B
:10358000FCE29851E9D820EE98F0D2D898C068F0C3
:1035900099C069F09AC06AF09BC06BF0F5D820EE34
:1035A00098F08DD820EE06F0FCD87CC0DEFF7DC000
:1035B000DEFF7EC0DEFF7FC0DEFF20EE0AF0F1D826
:1035C0008CC0DEFF8DC0DDFF91059011D8A41200E4
:1035D000920E176E186A2BEC25F00DEC27F0000107
:1035E000836F8305D8A4120020EE92F010EE9CF0B9
:1035F000050EDBCFE3FFE806FCE28A0E080FB1EC14
:103600002FF098C0A2F099C0A3F09AC0A4F09BC07C
:10361000A5F037500001A0D8646B3850656F666B19
:10362000676B66C067F065C066F064C065F0646B88
:10363000686B3950696F6A6B68516B6F69516C6F59
:103640006A516D6F6E6B6F6B706B716B3A50726F0E
:10365000190E05D0D8907233713370336F33E82E62
:10366000F9D76B516F11736F6C517011746F6D518D
:103670007111756F6E517211766F64517311776F9E
:1036800065517411786F66517511796F67517611B4
:103690007A6F60517711986F61517811996F62510B
:1036A00079119A6F63517A119B6F020E916F906B33
:1036B0008A0E1FEC25F089EC2EF09FEF30F0DE141F
:1036C000706F000EDE14716F000EDE14726FFF0E4D
:1036D000DE14736F190E05D0D890733372337133C3
:1036E0007033E82EF9D76C517011746F6D517111F0
:1036F000756F6E517211766F6F517311776F6451E0
:103700007411786F65517511796F665176117A6F02
:10371000675177117B6F605178117C6F615179111E
:103720007D6F62517A117E6F63517B117F6F120042
:10373000000EDE14646FFF0EDE14656F000EDE14E3
:10374000666F000EDE14676F66C067F065C066F0D6
:1037500064C065F0646B1200606F616B626B636BD9
:1037600060C063F0626B616B606B120020EE0CF066
:103770008851D9268951DA22DF6A20EE92F088C07A
:10378000E1FF89C0E2FF050C69C068F06AC069F01A
:103790006BC06AF06B6B6C6B69516D6F6E6B6F6BAE
:1037A000000C8851D9268951DA221200340E886F14
:1037B000020E896F12000101536B546B266A140EBE
:1037C000256E286A276AD4EC2EF044D901E0120055
:1037D0009C0E176E020E35EC1AF0C5EC2CF09C39DD
:1037E0000F0B040A01E01200AC513CD922EEACF000
:1037F000FAD8ACC23EF1ADC23FF1AEC240F1AFC2A9
:1038000041F10ED922EEACF0BED8AC6F3BD9AD6F12
:1038100043D9AE6F32D9AF6FA85124D922EEA8F0A8
:10382000E2D8A8C23EF1A9C23FF1AAC240F1ABC2A0
:1038300041F1F6D822EEA8F0A6D8A86F23D9A96F37
:103840002BD9AA6F1AD9AB6F3750AC1909E1385090
:10385000AD1906E13950AE1903E13A50AF1909E04C
:10386000AC2906E1AD2904E1AE2902E1AF29D8A4D3
:1038700012009E510101376F366B22EE9EF0DECFB3
:1038800038F1DDCF39F139C138F1396B396B365147
:10389000381102019E6F01013751391102019F6FEA
:1038A00000D9D8903637D8903635526F0201F9D802
:1038B000050E36655FD0EC0E5225176E186AFF0EA6
:1038C00018222EEC30F056D00101525102019E5DBB
:1038D0009ED853C125F054C126F0286A276AD4EC3B
:1038E0002EF0B8D8D8A412009C0E0001AF6F020EC3
:1038F000B06F3DEF2EF00101525102019E5D87D85D
:10390000C6D826EC2BF099D8D4EC2EF025C055F172
:1039100026C056F155C100F156C101F129EF28F03A
:103920000101525102019E5D72D8B1D826EC2BF0F4
:1039300084D8D4EC2EF08ED8D8A41200A8C228F2D5
:10394000A9C229F2AAC22AF2ABC22BF228C211F1F3
:1039500029C212F12AC213F12BC214F153C115F17D
:1039600054C116F14FEF18F09EC217F09FC218F025
:103970002EEF30F00201A551010AA6E0070AD0E0BF
:10398000170AB9E0F1D7DE14466F000EDE14476F58
:10399000000EDE14486FFF0EDE14496F190E05D0BD
:1039A000D8904933483347334633E82EF9D742514C
:1039B00046114A6F435147114B6F445148114C6FA8
:1039C000455149114D6F3A514A114E6F3B514B11C0
:1039D0004F6F3C514C11506F3D514D11516F36514D
:1039E0004E1102011200000EDE143A6FFF0EDE14BB
:1039F0003B6F000EDE143C6F000EDE143D6F3CC1C9
:103A00003DF13BC13CF13AC13BF13A6B120001017F
:103A1000536F02019F51D8A09F050101546F1200FE
:103A20003FC13EF140C13FF141C140F1416B426BAA
:103A30003F51436F446B456B000C17C055F118C0E4
:103A400056F153C125F054C126F055C127F056C197
:103A500028F0120025C055F126C056F1010155513C
:103A6000561112000101366F376B386B396B36C156
:103A700039F1386B376B366B120001013951511136
:103A800002011200010137514F110201120053C10E
:103A900017F054C118F01200010138515011020101
:103AA00012009C510F0B0101366F1200306E1ED1B7
:103AB000250E2F1818E037D9DE50DE10DE100EE08C
:103AC00032D901D813D10500FA6EDE50FD6EDE50FA
:103AD000FE6EDE50FF6EFA502F50120018D92FC024
:103AE000DFFF30D903D12C6A50D02C8E5FD021D982
:103AF000DECF2AF0DECF2BF02A502B1035E1BB0EA3
:103B00002A6E2A50D8A4100E2B6E2ED00CD9DE505F
:103B1000DE10DE101AE007D901D814D00500FA6EC5
:103B2000DE50FD6EDE50FE6EDE50FF6EFA5019D98B
:103B30000F0EF76403D00800F55003D06DEC11F0C0
:103B4000EF5012002A4A2B2A0FD00BD9E0D80F0EC3
:103B5000F76403D00800F55003D06DEC11F0EF507E
:103B6000DF6E2A4A2B2AEED8FCD80F0EF76403D05A
:103B70000800F55003D06DEC11F0EF50000901E1A1
:103B8000B5D0C4D7C00E2C1211D0232A2304B7D825
:103B900000D901E1B1D0640A09E00D0A07E01A0A70
:103BA000A6E0060AEFE00D0AA0E0A0D02CC025F0A8
:103BB000C00E25160BE1BDD8E7D82EAE2CD0030ED3
:103BC0002C122D6C2E1ED8B02E2A25D0B2D8DCD8BF
:103BD00022D0010E2F6E2F50BCD891D80900F5507D
:103BE0002D5C0900F5502E581DE32F2A050E2F18C5
:103BF00019E0F1D7010E2F6E2F50AFD880D80900F1
:103C0000F5502D5C0900F5502E580CE32F2A040EB8
:103C10002F1808E0F1D72C50C00BDBE0800AEAE057
:103C2000400AD7E02CC025F0030E251616E07BD8FD
:103C3000DE50DE10DE100DE076D801D80ED0050083
:103C4000FA6EDE50FD6EDE50FE6EDE50FF6EFA50F4
:103C50002D0C5DD82D0EDF6E75D82FC029F043D006
:103C6000295077D84CD884D88AD8AFEC2EF017C01A
:103C70001EF018C01FF0216A0A0E206E5BEC2FF0B8
:103C80001E50300F2F6E18D07AD8295066D837D8EA
:103C90006FD8AFEC2EF017500F0B286E28505F0F27
:103CA0002ED80800F5CF2FF007D02C50C00BD8E04D
:103CB000800AEAE0400AD4E036D8DE50DE10DE109A
:103CC0000EE031D801D80FD00500FA6EDE50FD6E3F
:103CD000DE50FE6EDE50FF6EFA502F50120017D8E5
:103CE0002FC0DFFF2FD829062928DFE1232A23044C
:103CF00006D84FD801E0DCD6236A246A1200256E6C
:103D000025C0F6FF100EF76E000EF86E1200305050
:103D1000D96EDA6ADECF25F0DDCF26F025C0D9FFD7
:103D200026C0DAFF12003050D96EDA6A020ED926A8
:103D3000020C2450D96EDA6A020EDF26DF5CD96EDF
:103D4000DA6A12003050D96EDA6ADE2A000EDD22FD
:103D5000000C020DF350010F1200020DF3500B0F77
:103D600012002AC0F6FF2BC0F7FF000EF86E1200FB
:103D70000900F5CF19F00A00F5CF1AF012002DC096
:103D800017F02EC018F01200DECF2DF0DECF2EF08F
:103D900012000800F5CF2FF02F501200C80EB1EC22
:103DA0002FF00001B0BF1200B05104E1F10EAF5D81
:103DB000D8A01200F8EC2EF017C0BFF018C0C0F069
:103DC0000001BF0503E1020EC019D8A41200186A51
:103DD000020E176E2EEC30F0F7EC2CF017C0BBF093
:103DE00018C0BCF019C0BDF01AC0BEF0500E0001E2
:103DF000BB1909E1480EBC1906E1430EBD1903E1E8
:103E00004D0EBE19D8A41200F7D82EEC30F0F7EC06
:103E10002CF017C0CFF018C0D0F019C0D1F01AC0E4
:103E2000D2F00001CF51B36FB46BD051B56FB66B08
:103E3000D151B76FB86BD2C0B9F0BA6BDDD82EECE8
:103E400030F0C20E176E186A1A6A060E196EC5ECAB
:103E50002CF0C80E176E196A060E186EC20E17ECFB
:103E60002EF01750181001E0B5D0186ACA0E176E60
:103E70002EEC30F0F7EC2CF0630E171809E1530E1E
:103E8000181806E1820E191803E1630E1A18D8A457
:103E900012000001100EAF27FF0EB0238CD017ECDC
:103EA00030F00001C16F17EC30F00001CE6FCE5141
:103EB000B16FB26B020EB127000EB223B151AF5FEA
:103EC000B251B05B6AD0F7EC2CF017C024F218C0E6
:103ED00025F219C026F21AC027F26DD0F7EC2CF0AB
:103EE00017C020F218C021F219C022F21AC023F222
:103EF00062D0030ECE655FD0F7EC2CF017C010F245
:103F000018C011F219C012F21AC013F2040E000107
:103F1000CE5F030ECE654FD0F7EC2CF017C014F235
:103F200018C015F219C016F21AC017F2040E0001DB
:103F3000CE5F41D0030ECE653ED0F7EC2CF017C01B
:103F4000C6F118C0C7F119C0C8F11AC0C9F1EED73F
:103F5000F7EC2CF017C01CF218C01DF219C01EF2AD
:103F60001AC01FF2E3D73FD8040E04D03CD8050E88
:103F700001D0010E486E08D017EC30F0020AF3E0D1
:103F8000070AF4E0030AF5E00001CE0714D0CEC022
:103F900017F0186A2EEC30F00ED0C151010A93E0F0
:103FA000020A9CE0050AA5E0350AC4E0060AE4E03E
:103FB000030ACEE0ECD70001B0BF05D0B05102E15A
:103FC000AF05D8B06CD7040E4818D8A41200030E61
:103FD00032EF22F0DE0E0001AF25176EFF0EB0218A
:103FE000186E2EEF30F0CFC037F0D0C038F0D1C00F
:103FF00039F0D2C03AF01200186A080E176E080C99
:104000000101196B1A6B0201324B332B040E335D25
:1040100003E2040E336F326BCEC11BF1CFC11CF132
:10402000E8D0300EFBD8F76402D005D903D06DEC90
:1040300011F008D901011351141101E1C5D0116922
:104040001269300E1B25136F000E1C21146F13C153
:10405000F6FF14C1F7FF000EF86E0F0EF76407D0DD
:104060000900F5CF15F10900F5CF16F106D06DEC7A
:1040700011F0EECF15F1EECF16F101011151152718
:1040800012511623300E1B25176F000E1C21186FBE
:1040900017C1F6FF18C1F7FF000EF86E0F0EF76498
:1040A00007D015C1F5FF0D0016C1F5FF0C0006D0B5
:1040B0006DEC11F015C1EEFF16C1EFFF300E0101DE
:1040C000ADD8F76402D0B7D803D06DEC11F0BAD8F0
:1040D00001011351141178E1340EA0D8F76403D014
:1040E0000800F55003D06DEC11F0EF5000096CE0C2
:1040F0002B0E010193D8F76403D00800F55003D0CC
:104100006DEC11F0EF500D0A5FE1320E010186D81F
:10411000F76402D090D803D06DEC11F093D8300E34
:1041200001011B25156F000E1C21166F15C1F6FF2E
:1041300016C1F7FF000EF86E0F0EF76407D013C11B
:10414000F5FF0D0014C1F5FF0C0006D06DEC11F069
:1041500013C1EEFF14C1EFFF340E01015FD8F76405
:1041600003D00800F55003D06DEC11F0EF500101C1
:10417000136F1307340E1B25146F000E1C21156FCF
:1041800014C1F6FF15C1F7FF000EF86E0F0EF764AD
:1041900004D013C1F5FF0C0004D06DEC11F013C175
:1041A000EFFF2B0E01013AD8F76404D00C0EF56E28
:1041B0000C0004D06DEC11F00C0EEF6E1BC13FF043
:1041C0001CC140F062EC08F02C0E010127D8F76406
:1041D00007D00900F5CF1BF10900F5CF1CF106D07F
:1041E0006DEC11F0EECF1BF1EECF1CF10101194B7C
:1041F0001A2B01011B511C11D8B4120047C011F138
:10420000126B11BF12071151195D1A51800A136FF9
:104210001251800A135901E204D712001B25116FB5
:10422000000E1C21126F11C1F6FF12C1F7FF000E24
:10423000F86E0F0E12000900F5CF13F10900F5CF4B
:1042400014F11200EECF13F1EECF14F11200220E92
:10425000D6D8F76403D00800F55003D06DEC11F008
:10426000EF50E806D8A412001A0EC9D8F76402D09D
:10427000D4D803D06DEC11F0E4D80001EE51F25D1A
:10428000EF51F35905E3EEC0FDF0EFC0FEF01CD096
:104290001A0E3F24F06F000E4020F16FF0C0F6FFC1
:1042A000F1C0F7FF000EF86E0F0EF76407D009009B
:1042B000F5CFFDF00900F5CFFEF006D06DEC11F062
:1042C000EECFFDF0EECFFEF0200E99D8F76407D0C8
:1042D0000900F5CF17F00900F5CF18F006D06DEC06
:1042E00011F0EECF17F0EECF18F0FDC019F0FEC0C0
:1042F0001AF0C5EC2CF0200E82D8F76402D08DD8CD
:1043000003D06DEC11F09DD80001FD51F227FE5154
:10431000F323200E89D8F76402D098D803D06DEC2F
:1043200011F09BD81A0E6BD8F76402D076D803D060
:104330006DEC11F086D80001FD51F25FFE51F35B88
:104340001A0E72D8F76402D081D803D06DEC11F048
:1043500084D8080E54D8F76408D05FD80900F5CF88
:10436000F4F00900F5CFF5F007D06DEC11F069D845
:10437000EECFF4F0EECFF5F00001FD51F225F66F2F
:10438000FE51F321F76F000EF421F86F000EF521B6
:10439000F96F0C0E3F24FA6F000E4020FB6FFAC03D
:1043A000F6FFFBC0F7FF000EF86E0F0EF7640DD09E
:1043B000F6C0F5FF0D00F7C0F5FF0D00F8C0F5FFE2
:1043C0000D00F9C0F5FF0C000AD06DEC11F0F6C03D
:1043D000EEFFF7C0EEFFF8C0EEFFF9C0EFFF350EBD
:1043E0000ED8F76404D0100EF56E0C0004D06DECFE
:1043F00011F0100EEF6E48EC12F0B3EF12F03F2404
:104400000001F06F000E4020F16FF0C0F6FFF1C028
:10441000F7FF000EF86E0F0E12000900F5CFF2F054
:104420000900F5CFF3F012003F24F46F000E402096
:10443000F56FF4C0F6FFF5C0F7FF000EF86E0F0E33
:104440001200EECFF2F0EECFF3F01200F2C0F5FF63
:104450000D00F3C0F5FF0C001200F2C0EEFFF3C038
:10446000EFFF12000001A86FA90EB1EC2FF024ECB1
:1044700029F0A46B440EA36FA66B430EA56FC9EC85
:104480002DF00001A76FA705D8A41200176A060E29
:10449000186E010E196E1A6EC4EC31F0500E176EC4
:1044A000480E186E430E196E4D0E1A6EC4EC31F0A4
:1044B000176A800E186E196A1A6AC4EC31F0030E7E
:1044C0000001A81904E198D8C4EC31F003D08BD8CE
:1044D000C4EC31F091D8C4EC31F08ED8C4EC31F09A
:1044E0008BD8C4EC31F08DD889EC2EF0196ACA0E45
:1044F000186EDDEC31F0630E176E530E186E820EDF
:10450000196E630E1A6EC4EC31F0350E75EC32F094
:10451000010E75EC32F00001A85175EC32F0030E7B
:104520000001A81919E1360E75EC32F0040E75EC95
:1045300032F01CC217F01DC218F01EC219F01FC2C3
:104540001AF0C4EC31F0320E75EC32F0040E75EC5A
:1045500032F049D8C4EC31F0370E75EC32F0040E6D
:1045600075EC32F0010E75EC32F0030E75EC32F0A2
:10457000060E75EC32F00F0E75EC32F0390E75EC5C
:1045800032F0020E75EC32F0020E186E176A4FEC24
:1045900032F00C0E75EC32F0140E75EC32F0130E96
:1045A000176E1750D8A4100E186E44EC16F089EC54
:1045B0002EF03D0E75EC32F0070E75EC32F0010E68
:1045C00075EC32F01ED889EC2EF0FF0E75EC32F04F
:1045D000000E75EC32F004EC2CF0A805D8A4120003
:1045E000030E486E030C37C017F038C018F039C0FE
:1045F00019F03AC01AF01200176A186A196A1A6A92
:104600001200A90E176E186A1A6A060E196E060CA9
:1046100000019E6BB9D803E1110E261862E1370440
:1046200005E17F0E3A18381039105BE0222806E1C8
:10463000232804E1242802E1252856E0375002010E
:104640002415276E38502515286E39502615296EE9
:104650003A5027152A6E225024152B6E235025150B
:104660002C6E245026152D6E255027152E6E2750A2
:104670002B1812E128502C180FE129502D180CE1AD
:104680002A502E1809E122C098F023C099F024C0C6
:104690009AF025C09BF008D020C298F021C299F072
:1046A00022C29AF023C29BF098C017F099C018F06C
:1046B0009AC019F09BC01AF0F0EC2DF017C09CF0D6
:1046C00018C09DF000019C519D1114E198C01DF08F
:1046D00099C01EF09AC01FF09BC020F07EEC24F021
:1046E0009E6F00019E511200370E9C6F9C51D8A402
:1046F000100E9D6F9CC017F09DC018F0080E1A6E2A
:10470000196A0DEC27F000019E6F9E05EAE1450E47
:10471000186E176A4FEC32F0186A176A4FEC32F0D5
:10472000176A400E186E550E196EAA0E1A6EC4EC5A
:1047300031F0400E75EC32F0265075EC32F0186A0C
:10474000176A4FEC32F0F3EC22F0C4EC31F022C0E7
:1047500017F023C018F024C019F025C01AF0C4ECDB
:1047600031F037C0A8F238C0A9F239C0AAF23AC075
:10477000ABF222C0ACF223C0ADF224C0AEF225C031
:10478000AFF226C0A5F2ADD73750381039103A1025
:104790001200020EA6D8F76407D0F56A0D00F56A7C
:1047A0000D00D9EC11F004D06DEC11F04DEC12F0CD
:1047B000060E97D8F76403D0D9EC11F004D06DEC55
:1047C00011F0EE6AEF6A100E8CD8F76407D0F56A24
:1047D0000D00F56A0D00D9EC11F004D06DEC11F06C
:1047E0004DEC12F0140E7DD8F76407D0F56A0D0079
:1047F000F56A0D00D9EC11F004D06DEC11F04DEC20
:1048000012F0080E6ED8F76407D0F56A0D00F56A4D
:104810000D00D9EC11F004D06DEC11F04DEC12F05C
:104820000C0E5FD8F76407D0F56A0D00F56A0D002D
:10483000D9EC11F004D06DEC11F04DEC12F0180E23
:1048400050D8F76403D0D9EC11F004D06DEC11F01E
:10485000EE6AEF6A300E45D8F76403D0D9EC11F058
:1048600004D06DEC11F0EE6AEF6A320E3AD8F764BC
:1048700003D0D9EC11F004D06DEC11F0EE6AEF6AC0
:10488000340E2FD8F76403D0F56A0C0003D06DEC1A
:1048900011F0EF6A350E25D8F76403D0F56A0C00E5
:1048A00003D06DEC11F0EF6A17C0F6FF18C0F7FFE8
:1048B000000EF86E0F0EF76403D0D9EC11F004D09F
:1048C0006DEC11F0EE6AEF6A360E0BD8F76404D087
:1048D000010EF56E0C0004D06DEC11F0010EEF6EC0
:1048E00012001724196E000E18201A6E19C0F6FF58
:1048F0001AC0F7FF000EF86E0F0E1200010E7D6F4A
:104900007C6B7F6B080E7E6F060E806F040E816FCE
:10491000010E836F826B7C0E080FB1EC2FF03750C5
:10492000000182D8385074D8395065D83A50726F27
:10493000190E01D08AD8E82EFDD742D88A6F61516E
:1049400078118B6F625179118C6F63517A118D6F71
:104950001D506AD81E505CD81F504DD82050726F21
:10496000190E01D072D8E82EFDD72AD8946F615164
:104970007811956F62517911966F63517A11976F23
:104980008E6B8F6B906B916B926B936B370E176E78
:104990001750D8A4100E186E5ED80DEC27F0000149
:1049A0007B6F7B050BE17C0E4AD889EC2EF09FECE7
:1049B00030F000017B6F7B0501E1050C7B5112009B
:1049C0006B516F11736F6C517011746F6D51711168
:1049D000756F6E517211766F64517311776F6551F7
:1049E0007411786F66517511796F675176117A6F0E
:1049F000605177111200696F6A6B68516B6F695172
:104A00006C6F6A516D6F6E6B6F6B706B716B1200B8
:104A1000656F666B676B66C067F065C066F064C003
:104A200065F0646B686B1200606F616B626B636B47
:104A300060C063F0626B616B606B646B1200176E39
:104A4000186A1A6A1C0E196E1C0CD89072337133D6
:104A500070336F331200080E1A6E060E196E060CB4
:104A6000AE6F0001AD6B20EE0CF09AD8DECF22F0D5
:104A7000DECF23F0DECF24F0DECF25F020EE09F0EC
:104A80008FD8DF50266E08EC23F0AD6FAD056AE1DC
:104A900020EE02F085D8DECFA1F0DDCFA2F0EC0E43
:104AA000A125AB6FFF0EA221AC6F9FC0D9FFA0C0A4
:104AB000DAFFDF500F0BA16FA26BD890A137A2379E
:104AC000D890A137A23720EE02F06AD8DECFA3F04B
:104AD000DDCFA4F0A151A35DAB6FA251A459AC6F7F
:104AE000186A176A4FEC32F0186A176A4FEC32F006
:104AF0005CD8040E49D8040E37D84FEC32F055D8A4
:104B0000060E42D8060E30D84FEC32F0F80E0001F7
:104B1000AB256D6FFF0EAC216E6F2AEC29F0000102
:104B2000AD6FAD051FE16BEC32F0266A220E256EEB
:104B3000ABC027F0ACC028F02A6A296ABDEC2BF084
:104B400025C0A9F026C0AAF0C0EC2CF0240E196EE6
:104B5000A90E3BEC2FF0ABC031F0ACC032F08DECC5
:104B60002CF0AD6FAD511200D926DECFA5F0DDCF10
:104B7000A6F0A6C0A5F0A66BA66BA351A511176E53
:104B8000A451A611186E1200D926DECFA1F0DDCFF8
:104B9000A2F0A151A46FA36BAE51D96EDA6A1200D4
:104BA0009F51D926A051DA2212000001AE51D96ED0
:104BB000DA6A1200010E0201C66F96EC2FF03DEC8E
:104BC00031F000EC30F0D08EF28EF28C700E89D87D
:104BD00006EC31F03AEC32F0900E83D806EC31F06E
:104BE000CB0E176E020E186E4FEC2DF00201CB2B80
:104BF000000ECC23CD23CE23C70E176E020E186EE7
:104C00004FEC2DF072EC2BF0C20E176E020E186EE8
:104C10004FEC2DF031EC32F017C0EFF218C0F0F28B
:104C200019C0F1F21AC0F2F20201C6510CE1EF51C3
:104C3000BE1909E1F051BF1906E1F151C01903E1B4
:104C4000F251C11939E0EFC2BEF2F0C2BFF2F1C2B7
:104C5000C0F2F2C2C1F2CF0E176E020E186E1A6ABF
:104C6000196A1C6A200E1B6EB5EC30F0CF0E0001E5
:104C7000606F020E616F9D0E626FF2C263F0646B33
:104C8000F1C265F0666BF0C267F0686BEFC269F065
:104C90006A6B73EC30F0000E48EC32F0CF0E196EF8
:104CA000020E1A6E7EEC31F0CF0E316E020E326EB5
:104CB00006EC31F00201C66BCB51C75DCC51C8592F
:104CC000CD51C959CA51800A0101BE6F0201CE51AE
:104CD000800A0101BE5990E315EC32F0AFEC28F0E8
:104CE00085D7316E3150D8A4100E326E12000101FA
:104CF000BF91BF95BF99BF9BC26BC36B416A426AAC
:104D0000A00E0E01FE6FFDA1FED70D0EA06F00F0EC
:104D1000B30E0E01A26F00F0A36B00F0150EA46F8E
:104D200000F0A76B120EA66F00F01A0EE56F120EC0
:104D3000E46F1F0EE76FE669E86BE96B1A0EEB6F25
:104D4000100EEA6F7A6A7B6A9DEC27F0EC69ED69D8
:104D5000050EAB6FEE0EAA6F87EC32F02D6E2DC0F4
:104D6000F6FF51D8F5CF84FE00F02DC02AF02A2A94
:104D70002AC0F6FF48D8F5CF85FE00F02DC02AF0F6
:104D8000020E47D840D8F5CF82FE00F02DC02AF0A1
:104D9000030E3FD838D8F5CF83FE00F02DC02AF09F
:104DA000040E37D830D8F5CF80FE00F02DC02AF0A1
:104DB000050E2FD828D8F5CF81FE00F0AB0E0E01DE
:104DC000D86F040ED26E010E1A6E000E196AA1EC95
:104DD0002DF0010E1A6E100E196EA1EC2DF01D0EA5
:104DE0001A6E4A0E196E140EA1EC2DF0E7EC2FF09E
:104DF000590E0E01FB6F1A6A120E196EA1EC2DF0FE
:104E0000A29AA08A1200100EF76E000EF86E08002B
:104E100012002A262AC0F6FF12000101BFBB030CB4
:104E2000D2B6040C84D889D87AEC32F0060EE8CFDA
:104E300061FF17C0F6FF18C0F7FF000EF86E0F0EE7
:104E4000F76403D00800F55003D06DEC11F0EF507B
:104E5000E8CF61FF17285FD8F76403D00800F5504A
:104E600003D06DEC11F0EF50E8CF61FF020E172474
:104E700052D8F76403D00800F55003D06DEC11F060
:104E8000EF50E8CF61FF030E172445D8F76403D035
:104E90000800F55003D06DEC11F0EF50E8CF61FF42
:104EA000040E172438D8F76403D00800F55003D057
:104EB0006DEC11F0EF50E8CF61FF050E17242BD8F1
:104EC000F76403D00800F55003D06DEC11F0EF50FB
:104ED000E8CF61FF0E018451E8CF61FF0E018551DB
:104EE000E8CF61FF0E018251E8CF61FF0E018351CF
:104EF000E8CF61FF0E018051E8CF61FF0E018151C3
:104F0000E8CF61FF1A50E8CF61FF1950E8CF61FF89
:104F10000101BF8B010C1B6E000E18201C6E1BC004
:104F2000F6FF1CC0F7FF000EF86E0F0E12001A0EEF
:104F30000E01E56F120EE46F120C1A0EE36F120EE3
:104F4000E26F120C1D6ADD390F0B1B6E1C6AD890C4
:104F50001B361C36D8901B361C36EC0E1B241F6EDD
:104F6000FF0E1C20206E1F106BE0020E446E180E08
:104F7000436EDEA362D059D017EC30F01E6E4ED0D7
:104F80001F50201005E060D82EEC30F01F6A206A18
:104F9000010E1D6E4AD0205003E1030E1F5C1DE37D
:104FA00017EC30F01E6E040E1E1814E1F8EC2EF013
:104FB00017C043F018C044F0FD0E1F26FF0E20223C
:104FC000B50E435C050E4458E3E3050E446EB40E83
:104FD000436EDED71F6A206A28D01F6A206A1D6AC6
:104FE00024D017EC30F01E6E1F06D8A02006010E4C
:104FF0001E64F3D7FE0E1E261E501B6E1C6A1B502D
:105000001F5C1C502058E9E31EC017F0186A2EECF4
:1050100030F01E501F5E000E205ABAD71E50B0E06E
:10502000010A03E0030AB7E0DCD71F06D8A0200678
:105030001F28A2E1202806E09FD706D82EEC30F0EA
:10504000010E1D6E1D5012001FC017F020C018F079
:105050001200280E01010A6FB00E176E020E186EB4
:105060005FEC2EF0C5EC2CF0B651B71105E0010154
:1050700000510111D8A412000201B2510101036FC5
:10508000026B22EEB2F05CD804110201B26F62D85A
:10509000B36FB0510101036F026B0201B151010105
:1050A000046F056B025104110201306F53D8316F48
:1050B0000101086B096B0AC1F6FF3DD80201B2512C
:1050C0000900F5182CE1B3510900F51828E1B45195
:1050D0000101036F026B22EEB4F032D804130351C6
:1050E0000513F80E04250001AF6FFF0E0101052125
:1050F0000001B06F0AC106F1020E0101062706C1C8
:10510000F6FF19D80500FA6E0900F550FD6E09008A
:10511000F550FE6E0900F550FF6EFA501200050EB4
:1051200001010A27084B092B095104E1030E085D10
:10513000C2E312001200100EF76E000EF86E12009D
:10514000DECF04F1DDCF05F105C104F1056B056B80
:105150000251120001010351051102011200E9EC94
:1051600031F00FE271D869D8C9EC2DF00001AB6FB6
:10517000AB0507E14C0E186E185075EC32F004ECDC
:105180002CF00101D051D8B41200020E45EC30F0E1
:1051900017C0ACF018C0ADF0640E0101CA250001C3
:1051A000A76F000E0101CB210001A86FAC51A75DD4
:1051B000AD51A85911E39C0EA76FA869CAC1A9F007
:1051C000CBC1AAF0A751A927A851AA23A951AC5D28
:1051D000AA51AD59D8B01200AD5104E1650EAC5DD5
:1051E000D8A0120033C09FF034C0A0F035C0A1F0A9
:1051F00036C0A2F022D8C9EC2DF00001AB6FAB0590
:1052000017E1500E186E185075EC32F0ACC01BF060
:10521000ADC01CF01D6A1E6A1BC017F01CC018F040
:105220001DC019F01EC01AF0C4EC31F004EC2CF0D3
:10523000ACC0CAF1ADC0CBF11200A469FD0EA36FE2
:10524000A669FB0EA56FFB0C00019F69A069A1690F
:10525000A2691200D8906D356F6F6E35706F01D0F6
:1052600000F0D2AA02D04AD8FBE1D2BA40D0E2CEB6
:10527000F4FEE3CEF5FEC2C1F0FEC3C1F1FE0001B3
:105280006D510101C2250001716F6E510101C321F1
:105290000001726F110E715D1A0E725904E3F00E67
:1052A0007127E50E722371C0F2FE72C0F3FED29830
:1052B000D28A6DC017F06EC018F01A6A280E196EE7
:1052C000F3EC30F017C06FF018C070F001D000F0B0
:1052D000D2AA02D013D8FBE1D2BA09D000016D5195
:1052E0000E01E22700016E510E01E323010C810E35
:1052F00071EC26F006EC31F0FF000C0C00016F079A
:10530000D8A070076F51701112000101BFA31200E5
:1053100024EC2DF0AB0E176E010E186E1A6A0E0EED
:10532000196EC5EC2CF00101B751586F576B21EE87
:10533000B7F0DECF59F1DDCF5AF15AC159F15A6BAE
:105340005A6B57515911B76F58515A11B86F1BD03A
:105350003AEC1AF079EF2DF0DBEC1BF079EF2DF041
:105360005B0E0001606F010E616FB30E626FB7C11B
:1053700063F0B8C164F0B7C165F0B8C166F073EC12
:1053800030F079EF2DF021EEB7F0DECF57F1DDCF21
:1053900058F15851080A05E0890A08E0070A08E0B0
:1053A000DFD75751D9E0060AD3E0DAD7575102D0F8
:1053B0005751DD0AD5E179EF2DF01D6E176A186A95
:1053C00000F0182A090E1864FBD701D0F9D75A0E3D
:1053D000186E01D000F00E018AA102D0182EFAD763
:1053E0001850D8A401D01768175000092CE11DC02F
:1053F000B4FEB26BB28100F000F0176A186A00F0D8
:10540000182A090E1864FBD701D0F9D75A0E186E66
:1054100001D000F00E018AA102D0182EFAD7185040
:10542000D8A401D017681750FF0A05E1FD0E1E6EC3
:10543000FF0E14D80AD0B291B8CE1EF0B9CE1FF02C
:10544000206A216A02D01E6809D81EC019F01FC048
:105450001AF020C01BF021C01CF012001F68206849
:1054600021681200076E016A026A00F0022A090E22
:105470000264FBD701D0F9D75A0E026E01D000F0BA
:105480000E018AA102D0022EFAD70250D8A401D070
:105490000168015000092CE107C0B4FEB26BB28173
:1054A00000F000F0016A026A00F0022A090E0264AC
:1054B000FBD701D0F9D75A0E026E01D000F00E01D1
:1054C0008AA102D0022EFAD70250D8A401D00168D6
:1054D0000150FF0A05E1FD0E086EFF0E14D80AD038
:1054E000B291B8CE08F0B9CE09F00A6A0B6A02D0C0
:1054F000086809D808C003F009C004F00AC005F024
:105500000BC006F0120009680A680B68120019C087
:105510001FF01AC020F0216A226A11D0236A246A7F
:1055200061CF7EFE0E017E51246E61CF7EFE0E01A4
:105530007E51236E34D8020E175E000E185A185092
:10554000EDE1020E175CEAE2175018101CE0236A26
:10555000246A61CF7EFE0E017E51246E236A1FD81D
:1055600012D01F501B6E20501C6E1D6A1E6A2150E7
:105570001B241F6E22501C20206E000E1D20216E49
:10558000000E1E20226E21502210EBE11F1E201E55
:10559000211E221E1FC017F020C018F0FF0C235040
:1055A0001F2624502022000E21222222000C5CEC17
:1055B00032F046D8E82EFED7182EFCD700D040D8BF
:1055C000E82EFED7182EFCD700D03AD8E82EFED70A
:1055D000182EFCD700D034D8E82EFED7182EFCD7D2
:1055E00000D0030E6EEC31F02ED8E82EFED7182E28
:1055F000FCD700F0030E6EEC31F025D8E82EFED774
:10560000182EFCD700F0030E6EEC31F0380E6EEC65
:1056100031F061EC32F00C0E6EEC31F061EC32F0F6
:10562000010E6EEC31F061EC32F0010E6EEC31F0F7
:105630001C0E186E0D0EE82EFED7182EFCD7120089
:10564000880E186E460C370E186E1B0C1F6A206AE7
:10565000216A226AA8C223F0A9C224F0AAC225F0B6
:10566000ABC226F0ACC227F0ADC228F0AEC229F022
:10567000AFC22AF0A5C22BF02C6A17C02DF018C0BB
:105680002EF00C0E1E6ED8901E32230E1D6E11D001
:105690001D50D96EDA6ADECF19F0DDCF1AF019503D
:1056A0001F261A502022000E212222221E06020E40
:1056B0001D261E50EDE11F50196E20501A6E1B6AF8
:1056C0001C6A215019241F6E22501A20206E000ED1
:1056D0001B20216E000E1C20226E1FC017F020C060
:1056E00018F0120063EC2EF085EC29F0BA0E176E5C
:1056F000010E186E4FEC2DF00201B8510101BA5D98
:105700000201B9510101BB590201BA510101BC5951
:10571000BD51800AB96F0201BB51800A0101B9591C
:1057200003E3CAEC30F021D80101BA510201185D3F
:105730000101BB51020119590101BC5102011A5961
:105740001B51800A0101B96FBD51800AB95904E2A9
:105750004AEC2CF000EC20F0BAC118F2BBC119F2EF
:10576000BCC11AF2BDC11BF212000A0E0201B82719
:10577000000EB923BA23BB23000C7ACF2BF07BCFCA
:105780002CF0130E25247A6E1A0E26207B6E27C06D
:1057900017F028C018F029C019F02AC01AF087ECB9
:1057A0002AF017C02DF018C02EF02F6A306A2BC0D7
:1057B0007AFF2CC07BFF2D500001606F616B626B24
:1057C000636B62C063F061C062F060C061F0606BE7
:1057D0002E50646F656B666B6451676F6551686FBF
:1057E0006651696F6A6B605167112D6E6151681166
:1057F0002E6E625169112F6E63516A11306E2DC089
:1058000025F02EC026F012008DEC31F017C07BF091
:1058100018C07CF031D8C0EC2CF0260E196E7B0E2F
:105820003BEC2FF029D8110E7B25796F000E7C21DF
:105830007A6F40EC16F07B25276E000E7C21286ED7
:1058400079C029F07AC02AF0BDEC2BF025C079F0A0
:1058500026C07AF079517A1102E179697A69C0EC4F
:105860002CF0280E196E790E3BEC2FF07BC031F036
:105870007CC032F08DEF2CF000017B51756F746BA2
:105880007C51766F776B745176117B6F7551771100
:105890007C6F1200BFA915D0050E48180BE138D84F
:1058A00009E002011C691D691E691F69030E32ECC3
:1058B00022F004D0010E486E32EC22F00101BF99B3
:1058C0001200480403E0020E481804E1010E486E7D
:1058D00032EF22F0C951C811C71109E1640EC65D4B
:1058E00006E2050E481803E1030E32EF22F0050E22
:1058F000481808E10DD806E0C607000EC75BC85B74
:10590000C95B000C05D8D8A41200020E486E020C28
:10591000C651C711C811C9111200140E312400015B
:10592000726F000E3220736F72516C6F6B6B73511C
:105930006D6F6E6B6B516D11726F6C516E11736F79
:105940001FD8100E196E720E3BEC2FF0266A0E0E49
:10595000256E286A140E276E2A6A296ABDEC2BF080
:1059600025C070F026C071F00BD8180E196E700E9D
:105970003BEC2FF09FEC30F000016F6F6F51120085
:10598000186A020E176E1A6A020C1C6A1D6A17C08A
:105990001EF018C01FF01FD01EC0F6FF1FC0F7FF7B
:1059A000000EF86E61CF7EFE0E017E511B6E0F0E53
:1059B000F76404D01BC0F5FF0C0004D06DEC11F0AF
:1059C0001BC0EFFF1E4A1F2A1C4A1D2A1906D8A019
:1059D0001A0627EC30F002012C512D1103E019506A
:1059E0001A10DAE11CC017F01DC018F012001B6A73
:1059F0001C6A1D6A1E6A02012D5103E1040E2C5D12
:105A000018E361CF7EFE0E017E511E6E61CF7EFED9
:105A10000E017E511D6E61CF7EFE0E017E511C6E09
:105A200061CF7EFE0E017E511B6E040E14EC2FF032
:105A300002D00101BF811BC017F01CC018F01DC0AF
:105A400019F01EC01AF0120041C07AFF42C07BFF5D
:105A500061CF7EFE0E017E51416E61CF7EFE0E0152
:105A60007E51426E61CF7EFE0E017E5102012C6F8F
:105A700061CF7EFE0E017E5102012D6F61CF7EFE51
:105A80000E017E5102012E6F61CF7EFE0E017E510E
:105A900002012F6F040E2C5F000E2D5B000C000E18
:105AA000F2BE010E1B6EF29EF3C21CF0F4C21DF09A
:105AB000F5C21EF0F6C21FF01BA002D0F28E01D07C
:105AC000F29E175018100CE017C0D9FF18C0DAFF6B
:105AD0001CC0DEFF1DC0DEFF1EC0DEFF1FC0DEFFDC
:105AE0001CC017F01DC018F01EC019F01FC01AF01E
:105AF00012000101BF930E01FE8D18D8E851195C08
:105B0000E9511A5806E312D81950EA5D1A50EB59B8
:105B100005E2EACEECFEEBCEEDFE06D0FF0E412410
:105B2000EC6FFF0E4220ED6FFB8D120017681868B6
:105B300041C019F042C01AF01750192618501A2205
:105B400012001B6E1BC0B4FE19C07EFE1AC07FFE81
:105B5000F2CF1CF0F26A7ECEB6FE7FCEB7FE1CC03E
:105B6000F2FF176A186A00F0182A090E1864FBD7AA
:105B700001D0F9D75A0E186E01D000F00E018AA19B
:105B800002D0182EFAD71850D8A401D01768175091
:105B900012009FC022F0A0C023F0A1C024F0A2C038
:105BA00025F0110E266E08EC23F02F6E2F0416E15F
:105BB0007AEC32F0A3C017F0A4C018F04FEC32F02A
:105BC000A5C017F0A6C018F04FEC32F0186A176A9B
:105BD0004FEC32F0186A176A4FEC32F02F50120077
:105BE000340E1F6E020E206E216A20EE06F01F504A
:105BF000D9262050DA221750DE180EE11850DE1890
:105C00000BE11950DE1808E11A50DE1805E11FC03B
:105C100017F020C018F012000D0E1F26000E2022D3
:105C2000212A070E2164E1D7176A186A12001C6E38
:105C30001AD01750D96EDA6A1C50E16EE26ADE5053
:105C4000E6180FE01C50D96EDA6ADF501A6E175052
:105C5000D96EDA6ADF501A5C176E186AD8A0180677
:105C600012001C2A172A1806D8A019061828E1E1E4
:105C70001928DFE1176A186A1200B60E176E186A43
:105C80001ED8C5EC2CF06BEC32F007D0AFC09FF003
:105C9000B0C0A0F0B60E30EF25F00001B651B26FE3
:105CA000B16BB751B36FB46BB151B313B251B413FD
:105CB000B451080AD8A41200B351E8E012001A6ADD
:105CC000080E196E080C22D8D96508D060A806D035
:105CD000130EDDEC29F012D8E7EC2FF060B06090E5
:105CE00060B2609260B60ED860AC12000101BFB322
:105CF000120000D0BF830E01FB9D12000101BF897D
:105D0000BF95120060960101BF9B1200A19A0E017F
:105D1000020C17C01BF018C01CF013D01BC0F6FFFC
:105D20001CC0F7FF000EF86E0F0EF76403D00800DA
:105D3000F55003D06DEC11F0EF50E8CF61FF1B4A36
:105D40001C2A1906D8A01A06192803E11A28D8B463
:105D500012000E01E2291F0EE359E0E312001C6A53
:105D60001D6A19501A101BE0010E1B6E04D0D8904A
:105D700019361A361B2A1AAEFAD7D8901C361D3699
:105D80001950175C1A50185805E31950175E1A502D
:105D9000185A1C80D8901A3219321B2EEED71CC00C
:105DA00017F01DC018F012007ACF2DF07BCF2EF027
:105DB00025C017F026C018F027C019F028C01AF027
:105DC00087EC2AF017C02FF018C030F0316A326A21
:105DD0002DC07AFF2EC07BFF2F502A6E296A3050CB
:105DE0002B6E2C6A2910256E2A502C10266E12005C
:105DF000196A1A6A02012D5103E1020E2C5D0DE3AE
:105E000061CF7EFE0E017E511A6E61CF7EFE0E01C5
:105E10007E51196E020E08D802D00101BF8119C04F
:105E200017F01AC018F0120002012C5F000E2D5B53
:105E30000101BF91000C02EE00F0BE0EEE6AE80612
:105E4000FDE101EEBFF0280EEE6AE806FDE100EE8E
:105E500033F0150EEE6AE806FDE1120EF66E650EE1
:105E6000F76E000EF86E0900F5CF48F049904992A0
:105E70000001DAEF25F01D6EE2CE1BF0E3CE1CF040
:105E8000130E19240E01E26F1A0E1A20E36F07D0C9
:105E90001D50D96EDA6ADF50E8CF61FF1D2A170660
:105EA000D8A018061728F4E11828F2E11BC0E2FE7A
:105EB0001CC0E3FE12002050211017E0010E226EDC
:105EC00004D0D89020362136222A21AEFAD720508D
:105ED0001E5C21501F5804E320501E5E21501F5AA3
:105EE000D89021322032222EF2D71EC01EF01FC0C1
:105EF0001FF01200CD82CD86CD98CD9ACD84CD8075
:105F0000800ECF6ECE6AE00EF36FC20EF46F1E0EDF
:105F1000F56F4D0EF66F600EF76F410EF86FC90EFC
:105F2000F96FD00EFA6F9F809D80D00C020ED36E59
:105F3000400E9B6E9A6A916A95968C869496948888
:105F4000949AFC0E926E0F0E936E7AEC2FF056EC34
:105F500032F0F5EC31F0D7EC2AF000EC32F04EEFF5
:105F600031F0176E1750D96EDA6A84CEDFFF0FD882
:105F700085CEDFFF0CD882CEDFFF09D883CEDFFFCE
:105F800006D880CEDFFF03D881CEDFFF1200172AAC
:105F90001750D96EDA6A120086EC2EF0D96509D056
:105FA00060A807D0130E32EC2AF07EEC2EF05CECE9
:105FB00030F060B0609060B2609260B682EC2EF01B
:105FC00060AC12000101BFB312007AEF2EF0110E87
:105FD000DDEC29F019C022F01AC023F01BC024F018
:105FE0001CC025F022C026F023C027F024C028F0D2
:105FF00025C029F027A4000C00D00101BF85010CA9
:10600000176A186A4FEC2DF017C06BF018C06CF0CF
:1060100019C06DF01AC06EF06BC060F06CC061F01A
:106020006DC062F06EC063F0430E19EF31F0176A75
:1060300002012C512D1107E061CF7EFE0E017E5131
:10604000176E05D802D00101BF811750120002015E
:106050002C07D8A02D070101BF91120002012C517D
:10606000175C2D51185804E32CC217F02DC218F0FC
:1060700017501810D8B4120017507A2618507B22E7
:1060800017502C5F18502D5B12001A6E1AC019F0B1
:1060900019461946C2501918C30B1918C26EC2808E
:1060A000110EE82EFED700F0C282C2B2FED7C3CFD7
:1060B00017F0C4CF18F01200110E32EC2AF003C012
:1060C0000CF004C00DF005C00EF006C00FF00CC0BF
:1060D00010F00DC011F00EC012F00FC013F011A49B
:1060E000000CFDEF2FF060C06CF061C06DF06E6BC6
:1060F0006F6B706B630E6B6F62C023F06B0E246E60
:106100006C0E56EC1DF06CC0D9FF6DC0DAFFDF6A73
:10611000000CBC0E206E020E0DD80BEC32F0430EBC
:10612000BC1904E01200010E466E010CBD51490A73
:10613000FAE01200216E236A020E226E020CFF0E9C
:106140000E01E225176EFF0EE321186E0101BFA5B7
:10615000020CBFAB030C97EC27F017C0E6FE18C08B
:10616000E7FE00F000F0D286010C17C01DF018C049
:106170001EF008D01DC0D9FF1EC0DAFF19C0DFFF16
:106180001D4A1E2A1B06D8A01C061B28F3E11C284A
:10619000F1E11200340E176E020E186E196A20EE2D
:1061A0000CF01750D9261850DA22DF2A0D0E1726C8
:1061B000000E1822192A070E1964F1D7070C9DB09A
:1061C0009EA012009E90CD90800ECF6ECE6ACD80A4
:1061D0000201F32B000EF423F523F623F72BF8230B
:1061E000F923FA23000C17501902F3CF1BF0F4CF58
:1061F0001CF017501A02F3501C2618501902F350C5
:106200001C261BC017F01CC018F01200176A186A71
:106210004FEC2DF017C06BF018C06CF06BC060F045
:106220006CC061F031C062F032C063F0A90E19EFAA
:1062300031F00001646F666B676B540E686F630E1C
:10624000696F000E6A6F600E656F64C023F0650EA3
:10625000246E660E56EF1DF0010E6EEC31F0880EC6
:10626000186E460EE82EFED7182EFCD700D0060E6C
:106270006EEC31F00F0E6EEF31F077EC26F0B7ECEC
:1062800031F070EC32F028EC32F0B80E176E020EDE
:10629000186E4FEC2DF0B5EC2BF0000C176A176A56
:1062A0001750020D000EF324D96E020EF420DA6EA0
:1062B000DF6A172A070E1764F3D7070C176E909240
:1062C000908417C08DFF030EE82EFED700F090805B
:1062D000030EE82EFED700F090901200176E9092F9
:1062E0009094AD0EE82EFED700F017C08DFF908081
:1062F000AD0EE82EFED700F09090120005D007D822
:106300009CEC31F0194A1A2A02D8F9E1120019C09E
:10631000D9FF1AC0DAFFDF5012000101C4510E018B
:10632000E25D196E0101C5510E01E3591A6E19C0E3
:1063300017F01AC018F01200186E1F0E186461EFE3
:1063400032F07F0E186061EF32F018505EEC31F0E1
:1063500061EF32F0176E0A0E171804E19EA8FED7FF
:106360000D0EAD6E9EA8FED717C0ADFF1200176AC6
:10637000340E1724D96EDA6A020EDA22DF6A172A7F
:10638000670E1764F5D7670C1A50E8CF61FF1950F4
:10639000E8CF61FF1850E8CF61FF1750E8CF61FFE9
:1063A0001200030E45EC30F017C01DF018C01EF0AF
:1063B0001DC01BF01EC01CF0120003D0000E75ECB7
:1063C00032F01806D8A019061828F8E11928F6E1C5
:1063D0001200450403E1010E186E03D0455001E19F
:1063E000186A18C017F017301200948E949C7E6AB9
:1063F000590EAF6E7E86260EAC6EAB88AB8E260C29
:10640000928492860D0EC26E060EC16EBE0EC06ED6
:10641000C36AC46A120020C017F021C018F022C05D
:1064200019F023C01AF0C5EF2CF0465003E1000E1E
:106430007FEF32F0010E7FEC32F0466A1200A8C204
:1064400017F0A9C218F0AAC219F0ABC21AF01200D4
:106450000101CE6BCF6B476A040E0201336F326BC2
:10646000000C37C017F038C018F039C019F03AC026
:106470001AF0120001D000F0E7EC2FF00009FBE069
:106480001200186E1850C00F6EEC31F061EF32F050
:10649000186E1850800F6EEC31F061EF32F018502A
:1064A000E8CF61FF1750E8CF61FF1200C78CC79E8D
:1064B000010EC66EC68A010C966A996A8D6A906A48
:1064C0001200AD0EE82EFED700F0120030C217F019
:1064D00031C218F012007ACFC2F17BCFC3F11200A3
:1064E000376A386A396A3A6A1200176E1750E8CF6D
:1064F00061FF1200E2CEC4F1E3CEC5F11200176EC7
:1065000017C045F01200DFEC30F0499211003D0E4B
:046510001200010074
:020000040001F9
:06FFF800A0F4C5FFF0F7C4
:00000001FF
